{
  "transactions": [
    {
      "hash": "0xd1fe036319daea593bfe66ad5543df445269d07821a9a0fe3d50b184e3e3c0dd",
      "transactionType": "CREATE",
      "contractName": "ProxyAdmin.0.8.18",
      "contractAddress": "0x932ef19a31246337c40911286f91d539be6ba3c3",
      "function": null,
      "arguments": null,
      "transaction": {
        "from": "0x2ceade86a04e474f3cf9bd87208514d818010627",
        "gas": "0x88835",
        "value": "0x0",
        "input": "0x608060405234801561001057600080fd5b5061001a3361001f565b61006f565b600080546001600160a01b038381166001600160a01b0319831681178455604051919092169283917f8be0079c531659141344cd1fd0a4f28419497f9722a3daafe3b4186f6b6457e09190a35050565b61065d8061007e6000396000f3fe60806040526004361061007b5760003560e01c80639623609d1161004e5780639623609d1461011157806399a88ec414610124578063f2fde38b14610144578063f3b7dead1461016457600080fd5b8063204e1c7a14610080578063715018a6146100bc5780637eff275e146100d35780638da5cb5b146100f3575b600080fd5b34801561008c57600080fd5b506100a061009b366004610499565b610184565b6040516001600160a01b03909116815260200160405180910390f35b3480156100c857600080fd5b506100d1610215565b005b3480156100df57600080fd5b506100d16100ee3660046104bd565b610229565b3480156100ff57600080fd5b506000546001600160a01b03166100a0565b6100d161011f36600461050c565b610291565b34801561013057600080fd5b506100d161013f3660046104bd565b610300565b34801561015057600080fd5b506100d161015f366004610499565b610336565b34801561017057600080fd5b506100a061017f366004610499565b6103b4565b6000806000836001600160a01b03166040516101aa90635c60da1b60e01b815260040190565b600060405180830381855afa9150503d80600081146101e5576040519150601f19603f3d011682016040523d82523d6000602084013e6101ea565b606091505b5091509150816101f957600080fd5b8080602001905181019061020d91906105e2565b949350505050565b61021d6103da565b6102276000610434565b565b6102316103da565b6040516308f2839760e41b81526001600160a01b038281166004830152831690638f283970906024015b600060405180830381600087803b15801561027557600080fd5b505af1158015610289573d6000803e3d6000fd5b505050505050565b6102996103da565b60405163278f794360e11b81526001600160a01b03841690634f1ef2869034906102c990869086906004016105ff565b6000604051808303818588803b1580156102e257600080fd5b505af11580156102f6573d6000803e3d6000fd5b5050505050505050565b6103086103da565b604051631b2ce7f360e11b81526001600160a01b038281166004830152831690633659cfe69060240161025b565b61033e6103da565b6001600160a01b0381166103a85760405162461bcd60e51b815260206004820152602660248201527f4f776e61626c653a206e6577206f776e657220697320746865207a65726f206160448201526564647265737360d01b60648201526084015b60405180910390fd5b6103b181610434565b50565b6000806000836001600160a01b03166040516101aa906303e1469160e61b815260040190565b6000546001600160a01b031633146102275760405162461bcd60e51b815260206004820181905260248201527f4f776e61626c653a2063616c6c6572206973206e6f7420746865206f776e6572604482015260640161039f565b600080546001600160a01b038381166001600160a01b0319831681178455604051919092169283917f8be0079c531659141344cd1fd0a4f28419497f9722a3daafe3b4186f6b6457e09190a35050565b6001600160a01b03811681146103b157600080fd5b6000602082840312156104ab57600080fd5b81356104b681610484565b9392505050565b600080604083850312156104d057600080fd5b82356104db81610484565b915060208301356104eb81610484565b809150509250929050565b634e487b7160e01b600052604160045260246000fd5b60008060006060848603121561052157600080fd5b833561052c81610484565b9250602084013561053c81610484565b9150604084013567ffffffffffffffff8082111561055957600080fd5b818601915086601f83011261056d57600080fd5b81358181111561057f5761057f6104f6565b604051601f8201601f19908116603f011681019083821181831017156105a7576105a76104f6565b816040528281528960208487010111156105c057600080fd5b8260208601602083013760006020848301015280955050505050509250925092565b6000602082840312156105f457600080fd5b81516104b681610484565b60018060a01b038316815260006020604081840152835180604085015260005b8181101561063b5785810183015185820160600152820161061f565b506000606082860101526060601f19601f83011685010192505050939250505056",
        "nonce": "0x44c",
        "chainId": "0xa4ec"
      },
      "additionalContracts": [],
      "isFixedGasLimit": false
    },
    {
      "hash": "0xe4e2d7e5560fcca6fea7d8945c52fa003ffcae9e1a78a89a94f24fc9c800a913",
      "transactionType": "CALL",
      "contractName": "ProxyAdmin.0.8.18",
      "contractAddress": "0x932ef19a31246337c40911286f91d539be6ba3c3",
      "function": "transferOwnership(address)",
      "arguments": [
        "0x14204392270CD38D02C43465909Cade33BF5D6E5"
      ],
      "transaction": {
        "from": "0x2ceade86a04e474f3cf9bd87208514d818010627",
        "to": "0x932ef19a31246337c40911286f91d539be6ba3c3",
        "gas": "0xa367",
        "value": "0x0",
        "input": "0xf2fde38b00000000000000000000000014204392270cd38d02c43465909cade33bf5d6e5",
        "nonce": "0x44d",
        "chainId": "0xa4ec"
      },
      "additionalContracts": [],
      "isFixedGasLimit": false
    },
    {
      "hash": "0xefba28c8e62ad1afcc1ce485aa71b6d4f4386f097e2db56c1dfc7ef3ab5b5bdd",
      "transactionType": "CREATE",
      "contractName": "ReserveProxy",
      "contractAddress": "0xf13c596928d606f001771d6f9122efa8c7a51e9e",
      "function": null,
      "arguments": null,
      "transaction": {
        "from": "0x2ceade86a04e474f3cf9bd87208514d818010627",
        "gas": "0x924e7",
        "value": "0x0",
        "input": "0x6080604052610016336001600160e01b0361001b16565b6100d9565b6001600160a01b03811661006a576040805162461bcd60e51b815260206004820152601160248201527006f776e65722063616e6e6f74206265203607c1b604482015290519081900360640190fd5b604080517f656970313936372e70726f78792e61646d696e000000000000000000000000008152905190819003601301812060001901828155906001600160a01b038316907f50146d0e3c60aa1d17a70635b05494f864e86144a2201275021014fbf08bafe290600090a25050565b6106e5806100e86000396000f3fe60806040526004361061004a5760003560e01c806303386ba31461015e57806342404e07146101e0578063bb913f4114610211578063d29d44ee14610244578063f7e6af8014610277575b604080517f656970313936372e70726f78792e696d706c656d656e746174696f6e000000008152905190819003601c0190206000190180546001600160a01b0381166100d5576040805162461bcd60e51b8152602060048201526015602482015274139bc8125b5c1b195b595b9d185d1a5bdb881cd95d605a1b604482015290519081900360640190fd5b6100de8161028c565b61012a576040805162461bcd60e51b8152602060048201526018602482015277496e76616c696420636f6e7472616374206164647265737360401b604482015290519081900360640190fd5b60405136810160405236600082376000803683855af43d604051818101604052816000823e82801561015a578282f35b8282fd5b6101de6004803603604081101561017457600080fd5b6001600160a01b03823516919081019060408101602082013564010000000081111561019f57600080fd5b8201836020820111156101b157600080fd5b803590602001918460018302840111640100000000831117156101d357600080fd5b5090925090506102c8565b005b3480156101ec57600080fd5b506101f56103f8565b604080516001600160a01b039092168252519081900360200190f35b34801561021d57600080fd5b506101de6004803603602081101561023457600080fd5b50356001600160a01b0316610432565b34801561025057600080fd5b506101de6004803603602081101561026757600080fd5b50356001600160a01b031661055c565b34801561028357600080fd5b506101f56105cc565b6000813f7fc5d2460186f7233c927e7db2dcc703c0e500b653ca82273b7bfad8045d85a4708181148015906102c057508115155b949350505050565b6102d06105cc565b6001600160a01b0316336001600160a01b03161461032c576040805162461bcd60e51b815260206004820152601460248201527339b2b73232b9103bb0b9903737ba1037bbb732b960611b604482015290519081900360640190fd5b61033583610432565b60006060846001600160a01b031684846040518083838082843760405192019450600093509091505080830381855af49150503d8060008114610394576040519150601f19603f3d011682016040523d82523d6000602084013e610399565b606091505b509092509050816103f1576040805162461bcd60e51b815260206004820152601e60248201527f696e697469616c697a6174696f6e2063616c6c6261636b206661696c65640000604482015290519081900360640190fd5b5050505050565b604080517f656970313936372e70726f78792e696d706c656d656e746174696f6e000000008152905190819003601c019020600019015490565b61043a6105cc565b6001600160a01b0316336001600160a01b031614610496576040805162461bcd60e51b815260206004820152601460248201527339b2b73232b9103bb0b9903737ba1037bbb732b960611b604482015290519081900360640190fd5b604080517f656970313936372e70726f78792e696d706c656d656e746174696f6e000000008152905190819003601c019020600019016104d58261028c565b610521576040805162461bcd60e51b8152602060048201526018602482015277496e76616c696420636f6e7472616374206164647265737360401b604482015290519081900360640190fd5b8181556040516001600160a01b038316907fab64f92ab780ecbf4f3866f57cee465ff36c89450dcce20237ca7a8d81fb7d1390600090a25050565b6105646105cc565b6001600160a01b0316336001600160a01b0316146105c0576040805162461bcd60e51b815260206004820152601460248201527339b2b73232b9103bb0b9903737ba1037bbb732b960611b604482015290519081900360640190fd5b6105c9816105fc565b50565b604080517232b4b8189c9b1b97383937bc3c9730b236b4b760691b81529051908190036013019020600019015490565b6001600160a01b03811661064b576040805162461bcd60e51b815260206004820152601160248201527006f776e65722063616e6e6f74206265203607c1b604482015290519081900360640190fd5b604080517232b4b8189c9b1b97383937bc3c9730b236b4b760691b8152905190819003601301812060001901828155906001600160a01b038316907f50146d0e3c60aa1d17a70635b05494f864e86144a2201275021014fbf08bafe290600090a2505056fea265627a7a723158201bffff8b4e1b4c0d5fb616d63aafee3ad77827731b4d33d93def68b313ea3d4464736f6c63430005110032",
        "nonce": "0x44e",
        "chainId": "0xa4ec"
      },
      "additionalContracts": [],
      "isFixedGasLimit": false
    },
    {
      "hash": "0xc2a3bb5b4159c4ceb4e98c39b5466c313b24d02ac4700fd5d397a65d1fc34dd1",
      "transactionType": "CREATE",
      "contractName": "BrokerProxy",
      "contractAddress": "0x8eef8f351472fce307dd562b687eac231176df89",
      "function": null,
      "arguments": null,
      "transaction": {
        "from": "0x2ceade86a04e474f3cf9bd87208514d818010627",
        "gas": "0x924e7",
        "value": "0x0",
        "input": "0x6080604052610016336001600160e01b0361001b16565b6100d9565b6001600160a01b03811661006a576040805162461bcd60e51b815260206004820152601160248201527006f776e65722063616e6e6f74206265203607c1b604482015290519081900360640190fd5b604080517f656970313936372e70726f78792e61646d696e000000000000000000000000008152905190819003601301812060001901828155906001600160a01b038316907f50146d0e3c60aa1d17a70635b05494f864e86144a2201275021014fbf08bafe290600090a25050565b6106e5806100e86000396000f3fe60806040526004361061004a5760003560e01c806303386ba31461015e57806342404e07146101e0578063bb913f4114610211578063d29d44ee14610244578063f7e6af8014610277575b604080517f656970313936372e70726f78792e696d706c656d656e746174696f6e000000008152905190819003601c0190206000190180546001600160a01b0381166100d5576040805162461bcd60e51b8152602060048201526015602482015274139bc8125b5c1b195b595b9d185d1a5bdb881cd95d605a1b604482015290519081900360640190fd5b6100de8161028c565b61012a576040805162461bcd60e51b8152602060048201526018602482015277496e76616c696420636f6e7472616374206164647265737360401b604482015290519081900360640190fd5b60405136810160405236600082376000803683855af43d604051818101604052816000823e82801561015a578282f35b8282fd5b6101de6004803603604081101561017457600080fd5b6001600160a01b03823516919081019060408101602082013564010000000081111561019f57600080fd5b8201836020820111156101b157600080fd5b803590602001918460018302840111640100000000831117156101d357600080fd5b5090925090506102c8565b005b3480156101ec57600080fd5b506101f56103f8565b604080516001600160a01b039092168252519081900360200190f35b34801561021d57600080fd5b506101de6004803603602081101561023457600080fd5b50356001600160a01b0316610432565b34801561025057600080fd5b506101de6004803603602081101561026757600080fd5b50356001600160a01b031661055c565b34801561028357600080fd5b506101f56105cc565b6000813f7fc5d2460186f7233c927e7db2dcc703c0e500b653ca82273b7bfad8045d85a4708181148015906102c057508115155b949350505050565b6102d06105cc565b6001600160a01b0316336001600160a01b03161461032c576040805162461bcd60e51b815260206004820152601460248201527339b2b73232b9103bb0b9903737ba1037bbb732b960611b604482015290519081900360640190fd5b61033583610432565b60006060846001600160a01b031684846040518083838082843760405192019450600093509091505080830381855af49150503d8060008114610394576040519150601f19603f3d011682016040523d82523d6000602084013e610399565b606091505b509092509050816103f1576040805162461bcd60e51b815260206004820152601e60248201527f696e697469616c697a6174696f6e2063616c6c6261636b206661696c65640000604482015290519081900360640190fd5b5050505050565b604080517f656970313936372e70726f78792e696d706c656d656e746174696f6e000000008152905190819003601c019020600019015490565b61043a6105cc565b6001600160a01b0316336001600160a01b031614610496576040805162461bcd60e51b815260206004820152601460248201527339b2b73232b9103bb0b9903737ba1037bbb732b960611b604482015290519081900360640190fd5b604080517f656970313936372e70726f78792e696d706c656d656e746174696f6e000000008152905190819003601c019020600019016104d58261028c565b610521576040805162461bcd60e51b8152602060048201526018602482015277496e76616c696420636f6e7472616374206164647265737360401b604482015290519081900360640190fd5b8181556040516001600160a01b038316907fab64f92ab780ecbf4f3866f57cee465ff36c89450dcce20237ca7a8d81fb7d1390600090a25050565b6105646105cc565b6001600160a01b0316336001600160a01b0316146105c0576040805162461bcd60e51b815260206004820152601460248201527339b2b73232b9103bb0b9903737ba1037bbb732b960611b604482015290519081900360640190fd5b6105c9816105fc565b50565b604080517232b4b8189c9b1b97383937bc3c9730b236b4b760691b81529051908190036013019020600019015490565b6001600160a01b03811661064b576040805162461bcd60e51b815260206004820152601160248201527006f776e65722063616e6e6f74206265203607c1b604482015290519081900360640190fd5b604080517232b4b8189c9b1b97383937bc3c9730b236b4b760691b8152905190819003601301812060001901828155906001600160a01b038316907f50146d0e3c60aa1d17a70635b05494f864e86144a2201275021014fbf08bafe290600090a2505056fea265627a7a723158207430c12e2a2ebb6717d8e6016dcdba8e7ce0f2a71366df2439b184e6f187746564736f6c63430005110032",
        "nonce": "0x44f",
        "chainId": "0xa4ec"
      },
      "additionalContracts": [],
      "isFixedGasLimit": false
    },
    {
      "hash": "0x7c9a12177e24e31163ec3436eb99745ffd5937792db58b13856f680a266ba89c",
      "transactionType": "CREATE2",
      "contractName": "TransparentUpgradeableProxy.0.8.18",
      "contractAddress": "0xc9e9d778e412b17c67cd7ab30b009d9d61c0f2e0",
      "function": null,
      "arguments": [
        "0x616583e0cc1e50592e941d214f5A6D7318165b05",
        "0x932ef19a31246337c40911286f91d539be6ba3c3",
        "0x"
      ],
      "transaction": {
        "from": "0x2ceade86a04e474f3cf9bd87208514d818010627",
        "to": "0x4e59b44847b379578588920ca78fbf26c0b4956c",
        "gas": "0xc8d05",
        "value": "0x0",
        "input": "0x402aed703999474863cb99086e4b98ba9e8c9f393e57b71c7d861373beadbb99608060405260405162000e8a38038062000e8a833981016040819052620000269162000497565b828162000036828260006200004d565b50620000449050826200008a565b505050620005ca565b6200005883620000e5565b600082511180620000665750805b1562000085576200008383836200012760201b620001691760201c565b505b505050565b7f7e644d79422f17c01e4894b5f4f588d331ebfa28653d42ae832dc59e38c9798f620000b562000156565b604080516001600160a01b03928316815291841660208301520160405180910390a1620000e2816200018f565b50565b620000f08162000244565b6040516001600160a01b038216907fbc7cd75a20ee27fd9adebab32041f755214dbc6bffa90cc0225b39da2e5c2d3b90600090a250565b60606200014f838360405180606001604052806027815260200162000e6360279139620002f8565b9392505050565b60006200018060008051602062000e4383398151915260001b6200037760201b620001951760201c565b546001600160a01b0316919050565b6001600160a01b038116620001fa5760405162461bcd60e51b815260206004820152602660248201527f455243313936373a206e65772061646d696e20697320746865207a65726f206160448201526564647265737360d01b60648201526084015b60405180910390fd5b806200022360008051602062000e4383398151915260001b6200037760201b620001951760201c565b80546001600160a01b0319166001600160a01b039290921691909117905550565b6200025a816200037a60201b620001981760201c565b620002be5760405162461bcd60e51b815260206004820152602d60248201527f455243313936373a206e657720696d706c656d656e746174696f6e206973206e60448201526c1bdd08184818dbdb9d1c9858dd609a1b6064820152608401620001f1565b80620002237f360894a13ba1a3210667c828492db98dca3e2076cc3735a920a3ca505d382bbc60001b6200037760201b620001951760201c565b6060600080856001600160a01b03168560405162000317919062000577565b600060405180830381855af49150503d806000811462000354576040519150601f19603f3d011682016040523d82523d6000602084013e62000359565b606091505b5090925090506200036d8683838762000389565b9695505050505050565b90565b6001600160a01b03163b151590565b60608315620003fd578251600003620003f5576001600160a01b0385163b620003f55760405162461bcd60e51b815260206004820152601d60248201527f416464726573733a2063616c6c20746f206e6f6e2d636f6e74726163740000006044820152606401620001f1565b508162000409565b62000409838362000411565b949350505050565b815115620004225781518083602001fd5b8060405162461bcd60e51b8152600401620001f1919062000595565b80516001600160a01b03811681146200045657600080fd5b919050565b634e487b7160e01b600052604160045260246000fd5b60005b838110156200048e57818101518382015260200162000474565b50506000910152565b600080600060608486031215620004ad57600080fd5b620004b8846200043e565b9250620004c8602085016200043e565b60408501519092506001600160401b0380821115620004e657600080fd5b818601915086601f830112620004fb57600080fd5b8151818111156200051057620005106200045b565b604051601f8201601f19908116603f011681019083821181831017156200053b576200053b6200045b565b816040528281528960208487010111156200055557600080fd5b6200056883602083016020880162000471565b80955050505050509250925092565b600082516200058b81846020870162000471565b9190910192915050565b6020815260008251806020840152620005b681604085016020870162000471565b601f01601f19169190910160400192915050565b61086980620005da6000396000f3fe60806040523661001357610011610017565b005b6100115b61001f6101a7565b6001600160a01b0316330361015f5760606001600160e01b0319600035166364d3180d60e11b810161005a576100536101da565b9150610157565b63587086bd60e11b6001600160e01b031982160161007a57610053610231565b63070d7c6960e41b6001600160e01b031982160161009a57610053610277565b621eb96f60e61b6001600160e01b03198216016100b9576100536102a8565b63a39f25e560e01b6001600160e01b03198216016100d9576100536102e8565b60405162461bcd60e51b815260206004820152604260248201527f5472616e73706172656e745570677261646561626c6550726f78793a2061646d60448201527f696e2063616e6e6f742066616c6c6261636b20746f2070726f78792074617267606482015261195d60f21b608482015260a4015b60405180910390fd5b815160208301f35b6101676102fc565b565b606061018e83836040518060600160405280602781526020016108426027913961030c565b9392505050565b90565b6001600160a01b03163b151590565b60007fb53127684a568b3173ae13b9f8a6016e243e63b6e8ee1178d6a717850b5d61035b546001600160a01b0316919050565b60606101e4610384565b60006101f33660048184610695565b81019061020091906106db565b905061021d8160405180602001604052806000815250600061038f565b505060408051602081019091526000815290565b60606000806102433660048184610695565b810190610250919061070c565b915091506102608282600161038f565b604051806020016040528060008152509250505090565b6060610281610384565b60006102903660048184610695565b81019061029d91906106db565b905061021d816103bb565b60606102b2610384565b60006102bc6101a7565b604080516001600160a01b03831660208201529192500160405160208183030381529060405291505090565b60606102f2610384565b60006102bc610412565b610167610307610412565b610421565b6060600080856001600160a01b03168560405161032991906107f2565b600060405180830381855af49150503d8060008114610364576040519150601f19603f3d011682016040523d82523d6000602084013e610369565b606091505b509150915061037a86838387610445565b9695505050505050565b341561016757600080fd5b610398836104c6565b6000825111806103a55750805b156103b6576103b48383610169565b505b505050565b7f7e644d79422f17c01e4894b5f4f588d331ebfa28653d42ae832dc59e38c9798f6103e46101a7565b604080516001600160a01b03928316815291841660208301520160405180910390a161040f81610506565b50565b600061041c6105af565b905090565b3660008037600080366000845af43d6000803e808015610440573d6000f35b3d6000fd5b606083156104b45782516000036104ad576001600160a01b0385163b6104ad5760405162461bcd60e51b815260206004820152601d60248201527f416464726573733a2063616c6c20746f206e6f6e2d636f6e7472616374000000604482015260640161014e565b50816104be565b6104be83836105d7565b949350505050565b6104cf81610601565b6040516001600160a01b038216907fbc7cd75a20ee27fd9adebab32041f755214dbc6bffa90cc0225b39da2e5c2d3b90600090a250565b6001600160a01b03811661056b5760405162461bcd60e51b815260206004820152602660248201527f455243313936373a206e65772061646d696e20697320746865207a65726f206160448201526564647265737360d01b606482015260840161014e565b807fb53127684a568b3173ae13b9f8a6016e243e63b6e8ee1178d6a717850b5d61035b80546001600160a01b0319166001600160a01b039290921691909117905550565b60007f360894a13ba1a3210667c828492db98dca3e2076cc3735a920a3ca505d382bbc6101cb565b8151156105e75781518083602001fd5b8060405162461bcd60e51b815260040161014e919061080e565b6001600160a01b0381163b61066e5760405162461bcd60e51b815260206004820152602d60248201527f455243313936373a206e657720696d706c656d656e746174696f6e206973206e60448201526c1bdd08184818dbdb9d1c9858dd609a1b606482015260840161014e565b807f360894a13ba1a3210667c828492db98dca3e2076cc3735a920a3ca505d382bbc61058e565b600080858511156106a557600080fd5b838611156106b257600080fd5b5050820193919092039150565b80356001600160a01b03811681146106d657600080fd5b919050565b6000602082840312156106ed57600080fd5b61018e826106bf565b634e487b7160e01b600052604160045260246000fd5b6000806040838503121561071f57600080fd5b610728836106bf565b9150602083013567ffffffffffffffff8082111561074557600080fd5b818501915085601f83011261075957600080fd5b81358181111561076b5761076b6106f6565b604051601f8201601f19908116603f01168101908382118183101715610793576107936106f6565b816040528281528860208487010111156107ac57600080fd5b8260208601602083013760006020848301015280955050505050509250929050565b60005b838110156107e95781810151838201526020016107d1565b50506000910152565b600082516108048184602087016107ce565b9190910192915050565b602081526000825180602084015261082d8160408501602087016107ce565b601f01601f1916919091016040019291505056fe416464726573733a206c6f772d6c6576656c2064656c65676174652063616c6c206661696c6564b53127684a568b3173ae13b9f8a6016e243e63b6e8ee1178d6a717850b5d6103416464726573733a206c6f772d6c6576656c2064656c65676174652063616c6c206661696c6564000000000000000000000000616583e0cc1e50592e941d214f5a6d7318165b05000000000000000000000000932ef19a31246337c40911286f91d539be6ba3c300000000000000000000000000000000000000000000000000000000000000600000000000000000000000000000000000000000000000000000000000000000",
        "nonce": "0x450",
        "chainId": "0xa4ec"
      },
      "additionalContracts": [],
      "isFixedGasLimit": false
    },
    {
      "hash": "0x2b9544af7179b02986bd30b0a9a9e377067e559cbca1782e30a32f510244e55c",
      "transactionType": "CREATE2",
      "contractName": "TransparentUpgradeableProxy.0.8.18",
      "contractAddress": "0x6fd9644aee56b93c2367279b60ecb3df34a8e131",
      "function": null,
      "arguments": [
        "0xd4edC433326E539cF2caCc0c0FB092177A6cE8F5",
        "0x932ef19a31246337c40911286f91d539be6ba3c3",
        "0x"
      ],
      "transaction": {
        "from": "0x2ceade86a04e474f3cf9bd87208514d818010627",
        "to": "0x4e59b44847b379578588920ca78fbf26c0b4956c",
        "gas": "0xc8d05",
        "value": "0x0",
        "input": "0x076fc3943b9525b9fe69ab42d7e613f8929020780a4230ba46e6a4cbf86ce2e7608060405260405162000e8a38038062000e8a833981016040819052620000269162000497565b828162000036828260006200004d565b50620000449050826200008a565b505050620005ca565b6200005883620000e5565b600082511180620000665750805b1562000085576200008383836200012760201b620001691760201c565b505b505050565b7f7e644d79422f17c01e4894b5f4f588d331ebfa28653d42ae832dc59e38c9798f620000b562000156565b604080516001600160a01b03928316815291841660208301520160405180910390a1620000e2816200018f565b50565b620000f08162000244565b6040516001600160a01b038216907fbc7cd75a20ee27fd9adebab32041f755214dbc6bffa90cc0225b39da2e5c2d3b90600090a250565b60606200014f838360405180606001604052806027815260200162000e6360279139620002f8565b9392505050565b60006200018060008051602062000e4383398151915260001b6200037760201b620001951760201c565b546001600160a01b0316919050565b6001600160a01b038116620001fa5760405162461bcd60e51b815260206004820152602660248201527f455243313936373a206e65772061646d696e20697320746865207a65726f206160448201526564647265737360d01b60648201526084015b60405180910390fd5b806200022360008051602062000e4383398151915260001b6200037760201b620001951760201c565b80546001600160a01b0319166001600160a01b039290921691909117905550565b6200025a816200037a60201b620001981760201c565b620002be5760405162461bcd60e51b815260206004820152602d60248201527f455243313936373a206e657720696d706c656d656e746174696f6e206973206e60448201526c1bdd08184818dbdb9d1c9858dd609a1b6064820152608401620001f1565b80620002237f360894a13ba1a3210667c828492db98dca3e2076cc3735a920a3ca505d382bbc60001b6200037760201b620001951760201c565b6060600080856001600160a01b03168560405162000317919062000577565b600060405180830381855af49150503d806000811462000354576040519150601f19603f3d011682016040523d82523d6000602084013e62000359565b606091505b5090925090506200036d8683838762000389565b9695505050505050565b90565b6001600160a01b03163b151590565b60608315620003fd578251600003620003f5576001600160a01b0385163b620003f55760405162461bcd60e51b815260206004820152601d60248201527f416464726573733a2063616c6c20746f206e6f6e2d636f6e74726163740000006044820152606401620001f1565b508162000409565b62000409838362000411565b949350505050565b815115620004225781518083602001fd5b8060405162461bcd60e51b8152600401620001f1919062000595565b80516001600160a01b03811681146200045657600080fd5b919050565b634e487b7160e01b600052604160045260246000fd5b60005b838110156200048e57818101518382015260200162000474565b50506000910152565b600080600060608486031215620004ad57600080fd5b620004b8846200043e565b9250620004c8602085016200043e565b60408501519092506001600160401b0380821115620004e657600080fd5b818601915086601f830112620004fb57600080fd5b8151818111156200051057620005106200045b565b604051601f8201601f19908116603f011681019083821181831017156200053b576200053b6200045b565b816040528281528960208487010111156200055557600080fd5b6200056883602083016020880162000471565b80955050505050509250925092565b600082516200058b81846020870162000471565b9190910192915050565b6020815260008251806020840152620005b681604085016020870162000471565b601f01601f19169190910160400192915050565b61086980620005da6000396000f3fe60806040523661001357610011610017565b005b6100115b61001f6101a7565b6001600160a01b0316330361015f5760606001600160e01b0319600035166364d3180d60e11b810161005a576100536101da565b9150610157565b63587086bd60e11b6001600160e01b031982160161007a57610053610231565b63070d7c6960e41b6001600160e01b031982160161009a57610053610277565b621eb96f60e61b6001600160e01b03198216016100b9576100536102a8565b63a39f25e560e01b6001600160e01b03198216016100d9576100536102e8565b60405162461bcd60e51b815260206004820152604260248201527f5472616e73706172656e745570677261646561626c6550726f78793a2061646d60448201527f696e2063616e6e6f742066616c6c6261636b20746f2070726f78792074617267606482015261195d60f21b608482015260a4015b60405180910390fd5b815160208301f35b6101676102fc565b565b606061018e83836040518060600160405280602781526020016108426027913961030c565b9392505050565b90565b6001600160a01b03163b151590565b60007fb53127684a568b3173ae13b9f8a6016e243e63b6e8ee1178d6a717850b5d61035b546001600160a01b0316919050565b60606101e4610384565b60006101f33660048184610695565b81019061020091906106db565b905061021d8160405180602001604052806000815250600061038f565b505060408051602081019091526000815290565b60606000806102433660048184610695565b810190610250919061070c565b915091506102608282600161038f565b604051806020016040528060008152509250505090565b6060610281610384565b60006102903660048184610695565b81019061029d91906106db565b905061021d816103bb565b60606102b2610384565b60006102bc6101a7565b604080516001600160a01b03831660208201529192500160405160208183030381529060405291505090565b60606102f2610384565b60006102bc610412565b610167610307610412565b610421565b6060600080856001600160a01b03168560405161032991906107f2565b600060405180830381855af49150503d8060008114610364576040519150601f19603f3d011682016040523d82523d6000602084013e610369565b606091505b509150915061037a86838387610445565b9695505050505050565b341561016757600080fd5b610398836104c6565b6000825111806103a55750805b156103b6576103b48383610169565b505b505050565b7f7e644d79422f17c01e4894b5f4f588d331ebfa28653d42ae832dc59e38c9798f6103e46101a7565b604080516001600160a01b03928316815291841660208301520160405180910390a161040f81610506565b50565b600061041c6105af565b905090565b3660008037600080366000845af43d6000803e808015610440573d6000f35b3d6000fd5b606083156104b45782516000036104ad576001600160a01b0385163b6104ad5760405162461bcd60e51b815260206004820152601d60248201527f416464726573733a2063616c6c20746f206e6f6e2d636f6e7472616374000000604482015260640161014e565b50816104be565b6104be83836105d7565b949350505050565b6104cf81610601565b6040516001600160a01b038216907fbc7cd75a20ee27fd9adebab32041f755214dbc6bffa90cc0225b39da2e5c2d3b90600090a250565b6001600160a01b03811661056b5760405162461bcd60e51b815260206004820152602660248201527f455243313936373a206e65772061646d696e20697320746865207a65726f206160448201526564647265737360d01b606482015260840161014e565b807fb53127684a568b3173ae13b9f8a6016e243e63b6e8ee1178d6a717850b5d61035b80546001600160a01b0319166001600160a01b039290921691909117905550565b60007f360894a13ba1a3210667c828492db98dca3e2076cc3735a920a3ca505d382bbc6101cb565b8151156105e75781518083602001fd5b8060405162461bcd60e51b815260040161014e919061080e565b6001600160a01b0381163b61066e5760405162461bcd60e51b815260206004820152602d60248201527f455243313936373a206e657720696d706c656d656e746174696f6e206973206e60448201526c1bdd08184818dbdb9d1c9858dd609a1b606482015260840161014e565b807f360894a13ba1a3210667c828492db98dca3e2076cc3735a920a3ca505d382bbc61058e565b600080858511156106a557600080fd5b838611156106b257600080fd5b5050820193919092039150565b80356001600160a01b03811681146106d657600080fd5b919050565b6000602082840312156106ed57600080fd5b61018e826106bf565b634e487b7160e01b600052604160045260246000fd5b6000806040838503121561071f57600080fd5b610728836106bf565b9150602083013567ffffffffffffffff8082111561074557600080fd5b818501915085601f83011261075957600080fd5b81358181111561076b5761076b6106f6565b604051601f8201601f19908116603f01168101908382118183101715610793576107936106f6565b816040528281528860208487010111156107ac57600080fd5b8260208601602083013760006020848301015280955050505050509250929050565b60005b838110156107e95781810151838201526020016107d1565b50506000910152565b600082516108048184602087016107ce565b9190910192915050565b602081526000825180602084015261082d8160408501602087016107ce565b601f01601f1916919091016040019291505056fe416464726573733a206c6f772d6c6576656c2064656c65676174652063616c6c206661696c6564b53127684a568b3173ae13b9f8a6016e243e63b6e8ee1178d6a717850b5d6103416464726573733a206c6f772d6c6576656c2064656c65676174652063616c6c206661696c6564000000000000000000000000d4edc433326e539cf2cacc0c0fb092177a6ce8f5000000000000000000000000932ef19a31246337c40911286f91d539be6ba3c300000000000000000000000000000000000000000000000000000000000000600000000000000000000000000000000000000000000000000000000000000000",
        "nonce": "0x451",
        "chainId": "0xa4ec"
      },
      "additionalContracts": [],
      "isFixedGasLimit": false
    },
    {
      "hash": "0x2f524b19cdfed178ec96835da2ca0c62084412b43ba1d6a97fb09ba522623dfa",
      "transactionType": "CALL",
      "contractName": "ReserveProxy",
      "contractAddress": "0xf13c596928d606f001771d6f9122efa8c7a51e9e",
      "function": "_setAndInitializeImplementation(address,bytes)",
      "arguments": [
        "0xFa06e5CDaEDdf7b895E4E066e6b758C621f2024F",
        "0x72a6b8b0000000000000000000000000000000000000000000000000000000000000ce1000000000000000000000000000000000000000000000000000000000bbf81e0000000000000000000000000000000000000000000000d3c21bcecceda100000000000000000000000000000000000000000000000000000000000000000000000000000000000000000000000000000000000000000000000000000000000000000000000000000000000000000000000000000000000000000000000000016000000000000000000000000000000000000000000000000000000000000001c000000000000000000000000000000000000000000000000000000000000000000000000000000000000000000000000000000000000000000000000000000000000000000000000000000000000000000000000000000000000000000000022000000000000000000000000000000000000000000000000000000000000002600000000000000000000000000000000000000000000000000000000000000002635553440000000000000000000000000000000000000000000000000000000063474c4400000000000000000000000000000000000000000000000000000000000000000000000000000000000000000000000000000000000000000000000200000000000000000000000000000000000000000000d3c21bcecceda0ffffff00000000000000000000000000000000000000000000000000000000000000010000000000000000000000000000000000000000000000000000000000000001000000000000000000000000eed145d8d962146afc568e9579948576f63d5dc2000000000000000000000000000000000000000000000000000000000000000100000000000000000000000000000000000000000000d3c21bcecceda1000000"
      ],
      "transaction": {
        "from": "0x2ceade86a04e474f3cf9bd87208514d818010627",
        "to": "0xf13c596928d606f001771d6f9122efa8c7a51e9e",
        "gas": "0x8d9f9",
        "value": "0x0",
        "input": "0x03386ba3000000000000000000000000fa06e5cdaeddf7b895e4e066e6b758c621f2024f000000000000000000000000000000000000000000000000000000000000004000000000000000000000000000000000000000000000000000000000000002a472a6b8b0000000000000000000000000000000000000000000000000000000000000ce1000000000000000000000000000000000000000000000000000000000bbf81e0000000000000000000000000000000000000000000000d3c21bcecceda100000000000000000000000000000000000000000000000000000000000000000000000000000000000000000000000000000000000000000000000000000000000000000000000000000000000000000000000000000000000000000000000000016000000000000000000000000000000000000000000000000000000000000001c000000000000000000000000000000000000000000000000000000000000000000000000000000000000000000000000000000000000000000000000000000000000000000000000000000000000000000000000000000000000000000000022000000000000000000000000000000000000000000000000000000000000002600000000000000000000000000000000000000000000000000000000000000002635553440000000000000000000000000000000000000000000000000000000063474c4400000000000000000000000000000000000000000000000000000000000000000000000000000000000000000000000000000000000000000000000200000000000000000000000000000000000000000000d3c21bcecceda0ffffff00000000000000000000000000000000000000000000000000000000000000010000000000000000000000000000000000000000000000000000000000000001000000000000000000000000eed145d8d962146afc568e9579948576f63d5dc2000000000000000000000000000000000000000000000000000000000000000100000000000000000000000000000000000000000000d3c21bcecceda100000000000000000000000000000000000000000000000000000000000000",
        "nonce": "0x452",
        "chainId": "0xa4ec"
      },
      "additionalContracts": [],
      "isFixedGasLimit": false
    },
    {
      "hash": "0x92302bab0b766dc46cba87fe1e3b14afbf18466267f401eeb14c3661021154fe",
      "transactionType": "CALL",
      "contractName": "ReserveProxy",
      "contractAddress": "0xf13c596928d606f001771d6f9122efa8c7a51e9e",
      "function": "_transferOwnership(address)",
      "arguments": [
        "0x932ef19a31246337c40911286f91d539be6ba3c3"
      ],
      "transaction": {
        "from": "0x2ceade86a04e474f3cf9bd87208514d818010627",
        "to": "0xf13c596928d606f001771d6f9122efa8c7a51e9e",
        "gas": "0x9824",
        "value": "0x0",
        "input": "0xd29d44ee000000000000000000000000932ef19a31246337c40911286f91d539be6ba3c3",
        "nonce": "0x453",
        "chainId": "0xa4ec"
      },
      "additionalContracts": [],
      "isFixedGasLimit": false
    },
    {
      "hash": "0xbf6630db6c79ddcd02e56d9804c2bb733a355824d868e169d2508592cf73a572",
      "transactionType": "CALL",
      "contractName": "TransparentUpgradeableProxy.0.8.18",
      "contractAddress": "0xc9e9d778e412b17c67cd7ab30b009d9d61c0f2e0",
      "function": null,
      "arguments": null,
      "transaction": {
        "from": "0x2ceade86a04e474f3cf9bd87208514d818010627",
        "to": "0xc9e9d778e412b17c67cd7ab30b009d9d61c0f2e0",
        "gas": "0x306c22",
        "value": "0x0",
        "input": "0xf8c8765e0000000000000000000000008eef8f351472fce307dd562b687eac231176df89000000000000000000000000f13c596928d606f001771d6f9122efa8c7a51e9e0000000000000000000000006fd9644aee56b93c2367279b60ecb3df34a8e13100000000000000000000000014204392270cd38d02c43465909cade33bf5d6e5",
        "nonce": "0x454",
        "chainId": "0xa4ec"
      },
      "additionalContracts": [],
      "isFixedGasLimit": false
    },
    {
      "hash": "0x027508a832d67948380b0b62b7b3e44fe1334cd14f4dcd77a3336aea0a1057e9",
      "transactionType": "CALL",
      "contractName": "TransparentUpgradeableProxy.0.8.18",
      "contractAddress": "0x6fd9644aee56b93c2367279b60ecb3df34a8e131",
      "function": null,
      "arguments": null,
      "transaction": {
        "from": "0x2ceade86a04e474f3cf9bd87208514d818010627",
        "to": "0x6fd9644aee56b93c2367279b60ecb3df34a8e131",
        "gas": "0x3a1f2",
        "value": "0x0",
        "input": "0xf8c8765e000000000000000000000000c9e9d778e412b17c67cd7ab30b009d9d61c0f2e0000000000000000000000000b67d723ad4e71e23b780b917e55f6f58fc18cc9e000000000000000000000000f13c596928d606f001771d6f9122efa8c7a51e9e00000000000000000000000014204392270cd38d02c43465909cade33bf5d6e5",
        "nonce": "0x455",
        "chainId": "0xa4ec"
      },
      "additionalContracts": [],
      "isFixedGasLimit": false
    },
    {
      "hash": "0xcdce88898cabc0ed47d04866d0644b5755d5f1d89b4ddc7ef363fc9e99db5ecf",
      "transactionType": "CALL",
      "contractName": "BrokerProxy",
      "contractAddress": "0x8eef8f351472fce307dd562b687eac231176df89",
      "function": "_setAndInitializeImplementation(address,bytes)",
      "arguments": [
        "0xb96894E856046eb2Ff67b866B924546ee919a456",
        "0x73cf25f8000000000000000000000000000000000000000000000000000000000000004000000000000000000000000000000000000000000000000000000000000000800000000000000000000000000000000000000000000000000000000000000001000000000000000000000000c9e9d778e412b17c67cd7ab30b009d9d61c0f2e00000000000000000000000000000000000000000000000000000000000000001000000000000000000000000f13c596928d606f001771d6f9122efa8c7a51e9e"
      ],
      "transaction": {
        "from": "0x2ceade86a04e474f3cf9bd87208514d818010627",
        "to": "0x8eef8f351472fce307dd562b687eac231176df89",
        "gas": "0x39584",
        "value": "0x0",
        "input": "0x03386ba3000000000000000000000000b96894e856046eb2ff67b866b924546ee919a456000000000000000000000000000000000000000000000000000000000000004000000000000000000000000000000000000000000000000000000000000000c473cf25f8000000000000000000000000000000000000000000000000000000000000004000000000000000000000000000000000000000000000000000000000000000800000000000000000000000000000000000000000000000000000000000000001000000000000000000000000c9e9d778e412b17c67cd7ab30b009d9d61c0f2e00000000000000000000000000000000000000000000000000000000000000001000000000000000000000000f13c596928d606f001771d6f9122efa8c7a51e9e00000000000000000000000000000000000000000000000000000000",
        "nonce": "0x456",
        "chainId": "0xa4ec"
      },
      "additionalContracts": [],
      "isFixedGasLimit": false
    },
    {
      "hash": "0x72f55f2a2c47b7a9c174fee8544dc6e633dfb5eb8e1cb4151859de80be85479e",
      "transactionType": "CALL",
      "contractName": "BrokerProxy",
      "contractAddress": "0x8eef8f351472fce307dd562b687eac231176df89",
      "function": "_transferOwnership(address)",
      "arguments": [
        "0x932ef19a31246337c40911286f91d539be6ba3c3"
      ],
      "transaction": {
        "from": "0x2ceade86a04e474f3cf9bd87208514d818010627",
        "to": "0x8eef8f351472fce307dd562b687eac231176df89",
        "gas": "0x9824",
        "value": "0x0",
        "input": "0xd29d44ee000000000000000000000000932ef19a31246337c40911286f91d539be6ba3c3",
        "nonce": "0x457",
        "chainId": "0xa4ec"
      },
      "additionalContracts": [],
      "isFixedGasLimit": false
    },
    {
      "hash": "0x8f0bda3289040bfaab222b44e46db5b229c38ede2208bd5b1e2528b799d2de1d",
      "transactionType": "CALL",
      "contractName": "ReserveProxy",
      "contractAddress": "0xf13c596928d606f001771d6f9122efa8c7a51e9e",
      "function": null,
      "arguments": null,
      "transaction": {
        "from": "0x2ceade86a04e474f3cf9bd87208514d818010627",
        "to": "0xf13c596928d606f001771d6f9122efa8c7a51e9e",
        "gas": "0x20c35",
        "value": "0x0",
        "input": "0xd48bfca7000000000000000000000000fa51efdc0910ccda91732e6806912fa12e2fd475",
        "nonce": "0x458",
        "chainId": "0xa4ec"
      },
      "additionalContracts": [],
      "isFixedGasLimit": false
    },
    {
      "hash": "0xbdefbbe19dfddc3aa2683d8473def31fa273954f6f0e691007e7e41012fdf76d",
      "transactionType": "CALL",
      "contractName": "ReserveProxy",
      "contractAddress": "0xf13c596928d606f001771d6f9122efa8c7a51e9e",
      "function": null,
      "arguments": null,
      "transaction": {
        "from": "0x2ceade86a04e474f3cf9bd87208514d818010627",
        "to": "0xf13c596928d606f001771d6f9122efa8c7a51e9e",
        "gas": "0x20bfd",
        "value": "0x0",
        "input": "0xf0b7182b0000000000000000000000008eef8f351472fce307dd562b687eac231176df89",
        "nonce": "0x459",
        "chainId": "0xa4ec"
      },
      "additionalContracts": [],
      "isFixedGasLimit": false
    },
    {
      "hash": "0xb499b1caf1259b7a62e71fb5b03bb55d55c16ba70c645ca534b52a8c54fa5922",
      "transactionType": "CALL",
      "contractName": "ReserveProxy",
      "contractAddress": "0xf13c596928d606f001771d6f9122efa8c7a51e9e",
      "function": null,
      "arguments": null,
      "transaction": {
        "from": "0x2ceade86a04e474f3cf9bd87208514d818010627",
        "to": "0xf13c596928d606f001771d6f9122efa8c7a51e9e",
        "gas": "0x11c18",
        "value": "0x0",
        "input": "0xe7e31e7a00000000000000000000000014204392270cd38d02c43465909cade33bf5d6e5",
        "nonce": "0x45a",
        "chainId": "0xa4ec"
      },
      "additionalContracts": [],
      "isFixedGasLimit": false
    },
    {
      "hash": "0x0177452163d0c2f6b17403c4a9727aa73a24366d319e632c6aeda8c4ea313173",
      "transactionType": "CALL",
      "contractName": "ReserveProxy",
      "contractAddress": "0xf13c596928d606f001771d6f9122efa8c7a51e9e",
      "function": null,
      "arguments": null,
      "transaction": {
        "from": "0x2ceade86a04e474f3cf9bd87208514d818010627",
        "to": "0xf13c596928d606f001771d6f9122efa8c7a51e9e",
        "gas": "0x20c37",
        "value": "0x0",
        "input": "0x2201596800000000000000000000000014204392270cd38d02c43465909cade33bf5d6e5",
        "nonce": "0x45b",
        "chainId": "0xa4ec"
      },
      "additionalContracts": [],
      "isFixedGasLimit": false
    },
    {
      "hash": "0xba1d65beccd8d17d89763daa803015b3679fe4749ba4e24b539aa9f4124b4d4b",
      "transactionType": "CALL",
      "contractName": "BrokerProxy",
      "contractAddress": "0x8eef8f351472fce307dd562b687eac231176df89",
      "function": null,
      "arguments": null,
      "transaction": {
        "from": "0x2ceade86a04e474f3cf9bd87208514d818010627",
        "to": "0x8eef8f351472fce307dd562b687eac231176df89",
        "gas": "0x15628",
        "value": "0x0",
        "input": "0xa9b5aab32e04a1379be2d5201bd2ccb939f2dc93c4fd9c23cca80e8c8d658bd0f96fd08d000000000000000000000000eed145d8d962146afc568e9579948576f63d5dc20000000000000000000000000000000000000000000000000000000000093a800000000000000000000000000000000000000000000000000000000000278d000000000000000000000000000000000000000000000000000000000000009c40000000000000000000000000000000000000000000000000000000000001388000000000000000000000000000000000000000000000000000000000000000000000000000000000000000000000000000000000000000000000000000000003",
        "nonce": "0x45c",
        "chainId": "0xa4ec"
      },
      "additionalContracts": [],
      "isFixedGasLimit": false
    },
    {
      "hash": "0x525e4ac60d6bf937ea4c2c6e588b1c8528148bfcf6b1ab2f9063798491a797c2",
      "transactionType": "CALL",
      "contractName": "BrokerProxy",
      "contractAddress": "0x8eef8f351472fce307dd562b687eac231176df89",
      "function": null,
      "arguments": null,
      "transaction": {
        "from": "0x2ceade86a04e474f3cf9bd87208514d818010627",
        "to": "0x8eef8f351472fce307dd562b687eac231176df89",
        "gas": "0xb7bd",
        "value": "0x0",
        "input": "0xf2fde38b00000000000000000000000014204392270cd38d02c43465909cade33bf5d6e5",
        "nonce": "0x45d",
        "chainId": "0xa4ec"
      },
      "additionalContracts": [],
      "isFixedGasLimit": false
    },
    {
      "hash": "0xb454e7c7304aa6042b10d2caae7539f3d750b4ffce54157873cd149df502bdb8",
      "transactionType": "CALL",
      "contractName": "ReserveProxy",
      "contractAddress": "0xf13c596928d606f001771d6f9122efa8c7a51e9e",
      "function": null,
      "arguments": null,
      "transaction": {
        "from": "0x2ceade86a04e474f3cf9bd87208514d818010627",
        "to": "0xf13c596928d606f001771d6f9122efa8c7a51e9e",
        "gas": "0xc2aa",
        "value": "0x0",
        "input": "0xf2fde38b00000000000000000000000014204392270cd38d02c43465909cade33bf5d6e5",
        "nonce": "0x45e",
        "chainId": "0xa4ec"
      },
      "additionalContracts": [],
      "isFixedGasLimit": false
    },
    {
      "hash": "0xb89fcf5666248a9ca2918a07f5885d5aad7b4cfcc8d47745ee372cf8bdac7038",
      "transactionType": "CALL",
      "contractName": "TransparentUpgradeableProxy.0.8.18",
      "contractAddress": "0xc9e9d778e412b17c67cd7ab30b009d9d61c0f2e0",
      "function": null,
      "arguments": null,
      "transaction": {
        "from": "0x2ceade86a04e474f3cf9bd87208514d818010627",
        "to": "0xc9e9d778e412b17c67cd7ab30b009d9d61c0f2e0",
        "gas": "0xc11d",
        "value": "0x0",
        "input": "0xf2fde38b00000000000000000000000014204392270cd38d02c43465909cade33bf5d6e5",
        "nonce": "0x45f",
        "chainId": "0xa4ec"
      },
      "additionalContracts": [],
      "isFixedGasLimit": false
    },
    {
      "hash": "0x271c0630b1f4a7341a2613f27afc44e9b39b7a8fadf2d238654855bf8d2ec319",
      "transactionType": "CALL",
      "contractName": "TransparentUpgradeableProxy.0.8.18",
      "contractAddress": "0x6fd9644aee56b93c2367279b60ecb3df34a8e131",
      "function": null,
      "arguments": null,
      "transaction": {
        "from": "0x2ceade86a04e474f3cf9bd87208514d818010627",
        "to": "0x6fd9644aee56b93c2367279b60ecb3df34a8e131",
        "gas": "0xcc70",
        "value": "0x0",
        "input": "0xf2fde38b00000000000000000000000014204392270cd38d02c43465909cade33bf5d6e5",
        "nonce": "0x460",
        "chainId": "0xa4ec"
      },
      "additionalContracts": [],
      "isFixedGasLimit": false
    }
  ],
  "receipts": [
    {
      "status": "0x1",
      "cumulativeGasUsed": "0xdcc98",
      "logs": [
        {
          "address": "0x932ef19a31246337c40911286f91d539be6ba3c3",
          "topics": [
            "0x8be0079c531659141344cd1fd0a4f28419497f9722a3daafe3b4186f6b6457e0",
            "0x0000000000000000000000000000000000000000000000000000000000000000",
            "0x0000000000000000000000002ceade86a04e474f3cf9bd87208514d818010627"
          ],
          "data": "0x",
          "blockHash": "0x50f4914bd43eab4b6d23aab908136028a7bd6492758e67031a03b736a03354b9",
          "blockNumber": "0x1d9aeb7",
          "transactionHash": "0xd1fe036319daea593bfe66ad5543df445269d07821a9a0fe3d50b184e3e3c0dd",
          "transactionIndex": "0x8",
          "logIndex": "0xc",
          "removed": false
        }
      ],
      "logsBloom": "0x00100000000000000000000000000000000000000000000000800000000000004000000000000000000000000800000000080000000000000000000000000000000000000000000000000000000000000001000000000000000000000000000000000000020000000001000000000800000000000000000000000000000000400000000000000000000000000000000000000000000000000000000000000000000000000000000000000000000000000000000000000000000000000000000000000000000000000000000000000000000000000000000000000000000020000000000000000000000000000000000000000000000001000000000000000000",
      "type": "0x0",
      "transactionHash": "0xd1fe036319daea593bfe66ad5543df445269d07821a9a0fe3d50b184e3e3c0dd",
      "transactionIndex": "0x8",
      "blockHash": "0x50f4914bd43eab4b6d23aab908136028a7bd6492758e67031a03b736a03354b9",
      "blockNumber": "0x1d9aeb7",
      "gasUsed": "0x68fbb",
      "effectiveGasPrice": "0xba43b7400",
      "from": "0x2ceade86a04e474f3cf9bd87208514d818010627",
      "to": null,
      "contractAddress": "0x932ef19a31246337c40911286f91d539be6ba3c3"
    },
    {
      "status": "0x1",
      "cumulativeGasUsed": "0xe3c53",
      "logs": [
        {
          "address": "0x932ef19a31246337c40911286f91d539be6ba3c3",
          "topics": [
            "0x8be0079c531659141344cd1fd0a4f28419497f9722a3daafe3b4186f6b6457e0",
            "0x0000000000000000000000002ceade86a04e474f3cf9bd87208514d818010627",
            "0x00000000000000000000000014204392270cd38d02c43465909cade33bf5d6e5"
          ],
          "data": "0x",
          "blockHash": "0x50f4914bd43eab4b6d23aab908136028a7bd6492758e67031a03b736a03354b9",
          "blockNumber": "0x1d9aeb7",
          "transactionHash": "0xe4e2d7e5560fcca6fea7d8945c52fa003ffcae9e1a78a89a94f24fc9c800a913",
          "transactionIndex": "0x9",
          "logIndex": "0xd",
          "removed": false
        }
      ],
      "logsBloom": "0x00100000000000000000000000000000000000000000000000800000000000004000000000000000000000000800000000080000000000000000000000000000000000000000000000000000000040000001000000000000000000000000000000800000400000000001000000000000000000000000000000000000000000400000000000000000000000000000000000000000000000000000000000000000000000000000000000000000000000000000000000000000000000000000000000000000000000000000000000000000000000000000000000000000000000000000000000000000000000000000000000000000000001000000000000000000",
      "type": "0x0",
      "transactionHash": "0xe4e2d7e5560fcca6fea7d8945c52fa003ffcae9e1a78a89a94f24fc9c800a913",
      "transactionIndex": "0x9",
      "blockHash": "0x50f4914bd43eab4b6d23aab908136028a7bd6492758e67031a03b736a03354b9",
      "blockNumber": "0x1d9aeb7",
      "gasUsed": "0x6fbb",
      "effectiveGasPrice": "0xba43b7400",
      "from": "0x2ceade86a04e474f3cf9bd87208514d818010627",
      "to": "0x932ef19a31246337c40911286f91d539be6ba3c3",
      "contractAddress": null
    },
    {
      "status": "0x1",
      "cumulativeGasUsed": "0x154487",
      "logs": [
        {
          "address": "0xf13c596928d606f001771d6f9122efa8c7a51e9e",
          "topics": [
            "0x50146d0e3c60aa1d17a70635b05494f864e86144a2201275021014fbf08bafe2",
            "0x0000000000000000000000002ceade86a04e474f3cf9bd87208514d818010627"
          ],
          "data": "0x",
          "blockHash": "0x50f4914bd43eab4b6d23aab908136028a7bd6492758e67031a03b736a03354b9",
          "blockNumber": "0x1d9aeb7",
          "transactionHash": "0xefba28c8e62ad1afcc1ce485aa71b6d4f4386f097e2db56c1dfc7ef3ab5b5bdd",
          "transactionIndex": "0xa",
          "logIndex": "0xe",
          "removed": false
        }
      ],
      "logsBloom": "0x00000000000000000000000000000000000000000000000000000000000000000000004000000000000000000800400000080000000000000000000000000000000000000000000000000000000000000000200000000000000000001000000000000000000000000001000000000000000000000000100000000000000000000000000000000000000000000000000000000000000000000000000000000000000000000000000000000000000000000000000000000000000000000000000000000000000000000000000000000000000000000000000000000000000000000000000000000000000000000000000000000020000000000000000000000000",
      "type": "0x0",
      "transactionHash": "0xefba28c8e62ad1afcc1ce485aa71b6d4f4386f097e2db56c1dfc7ef3ab5b5bdd",
      "transactionIndex": "0xa",
      "blockHash": "0x50f4914bd43eab4b6d23aab908136028a7bd6492758e67031a03b736a03354b9",
      "blockNumber": "0x1d9aeb7",
      "gasUsed": "0x70834",
      "effectiveGasPrice": "0xba43b7400",
      "from": "0x2ceade86a04e474f3cf9bd87208514d818010627",
      "to": null,
      "contractAddress": "0xf13c596928d606f001771d6f9122efa8c7a51e9e"
    },
    {
      "status": "0x1",
      "cumulativeGasUsed": "0x1c4cbb",
      "logs": [
        {
          "address": "0x8eef8f351472fce307dd562b687eac231176df89",
          "topics": [
            "0x50146d0e3c60aa1d17a70635b05494f864e86144a2201275021014fbf08bafe2",
            "0x0000000000000000000000002ceade86a04e474f3cf9bd87208514d818010627"
          ],
          "data": "0x",
          "blockHash": "0x50f4914bd43eab4b6d23aab908136028a7bd6492758e67031a03b736a03354b9",
          "blockNumber": "0x1d9aeb7",
          "transactionHash": "0xc2a3bb5b4159c4ceb4e98c39b5466c313b24d02ac4700fd5d397a65d1fc34dd1",
          "transactionIndex": "0xb",
          "logIndex": "0xf",
          "removed": false
        }
      ],
      "logsBloom": "0x00000000000000000000000000000000000000000000000000000002000000000000000000000000000000000800400000080000000000000000000000000000000000000000000000000000000000000000000000000000000000001000000000000000000000000001000000000000000000000000100000000000000000000000000000000000000000000000000000000000000000000000000000000000000000000000000000000000000000000000000000000000000000000000000000000000000000000000000000000000000000000000000000000000004000000000000000000000000000000020000000000000000000000000000000000000",
      "type": "0x0",
      "transactionHash": "0xc2a3bb5b4159c4ceb4e98c39b5466c313b24d02ac4700fd5d397a65d1fc34dd1",
      "transactionIndex": "0xb",
      "blockHash": "0x50f4914bd43eab4b6d23aab908136028a7bd6492758e67031a03b736a03354b9",
      "blockNumber": "0x1d9aeb7",
      "gasUsed": "0x70834",
      "effectiveGasPrice": "0xba43b7400",
      "from": "0x2ceade86a04e474f3cf9bd87208514d818010627",
      "to": null,
      "contractAddress": "0x8eef8f351472fce307dd562b687eac231176df89"
    },
    {
      "status": "0x1",
      "cumulativeGasUsed": "0x2561f5",
      "logs": [
        {
          "address": "0xc9e9d778e412b17c67cd7ab30b009d9d61c0f2e0",
          "topics": [
            "0xbc7cd75a20ee27fd9adebab32041f755214dbc6bffa90cc0225b39da2e5c2d3b",
            "0x000000000000000000000000616583e0cc1e50592e941d214f5a6d7318165b05"
          ],
          "data": "0x",
          "blockHash": "0x50f4914bd43eab4b6d23aab908136028a7bd6492758e67031a03b736a03354b9",
          "blockNumber": "0x1d9aeb7",
          "transactionHash": "0x7c9a12177e24e31163ec3436eb99745ffd5937792db58b13856f680a266ba89c",
          "transactionIndex": "0xc",
          "logIndex": "0x10",
          "removed": false
        },
        {
          "address": "0xc9e9d778e412b17c67cd7ab30b009d9d61c0f2e0",
          "topics": [
            "0x7e644d79422f17c01e4894b5f4f588d331ebfa28653d42ae832dc59e38c9798f"
          ],
          "data": "0x0000000000000000000000000000000000000000000000000000000000000000000000000000000000000000932ef19a31246337c40911286f91d539be6ba3c3",
          "blockHash": "0x50f4914bd43eab4b6d23aab908136028a7bd6492758e67031a03b736a03354b9",
          "blockNumber": "0x1d9aeb7",
          "transactionHash": "0x7c9a12177e24e31163ec3436eb99745ffd5937792db58b13856f680a266ba89c",
          "transactionIndex": "0xc",
          "logIndex": "0x11",
          "removed": false
        }
      ],
      "logsBloom": "0x00000000000000000010000000000000400000000000000000000000000000000000000000000000000000000000000000000000000000000000000000000000000000000000000000000000000002000000000000000000000000000000000000000000000000000000000000000000000000800000000000000000000000000000000000000000000000000000000000000000000000000000000000800000000000000000000000000000000000000000000000000000000000000000000000040020000000000000000000000000000000000400000001100000000000000000000000000000000000800000000000000000000000000000000000000000",
      "type": "0x0",
      "transactionHash": "0x7c9a12177e24e31163ec3436eb99745ffd5937792db58b13856f680a266ba89c",
      "transactionIndex": "0xc",
      "blockHash": "0x50f4914bd43eab4b6d23aab908136028a7bd6492758e67031a03b736a03354b9",
      "blockNumber": "0x1d9aeb7",
      "gasUsed": "0x9153a",
      "effectiveGasPrice": "0xba43b7400",
      "from": "0x2ceade86a04e474f3cf9bd87208514d818010627",
      "to": "0x4e59b44847b379578588920ca78fbf26c0b4956c",
      "contractAddress": null
    },
    {
      "status": "0x1",
      "cumulativeGasUsed": "0x2e772f",
      "logs": [
        {
          "address": "0x6fd9644aee56b93c2367279b60ecb3df34a8e131",
          "topics": [
            "0xbc7cd75a20ee27fd9adebab32041f755214dbc6bffa90cc0225b39da2e5c2d3b",
            "0x000000000000000000000000d4edc433326e539cf2cacc0c0fb092177a6ce8f5"
          ],
          "data": "0x",
          "blockHash": "0x50f4914bd43eab4b6d23aab908136028a7bd6492758e67031a03b736a03354b9",
          "blockNumber": "0x1d9aeb7",
          "transactionHash": "0x2b9544af7179b02986bd30b0a9a9e377067e559cbca1782e30a32f510244e55c",
          "transactionIndex": "0xd",
          "logIndex": "0x12",
          "removed": false
        },
        {
          "address": "0x6fd9644aee56b93c2367279b60ecb3df34a8e131",
          "topics": [
            "0x7e644d79422f17c01e4894b5f4f588d331ebfa28653d42ae832dc59e38c9798f"
          ],
          "data": "0x0000000000000000000000000000000000000000000000000000000000000000000000000000000000000000932ef19a31246337c40911286f91d539be6ba3c3",
          "blockHash": "0x50f4914bd43eab4b6d23aab908136028a7bd6492758e67031a03b736a03354b9",
          "blockNumber": "0x1d9aeb7",
          "transactionHash": "0x2b9544af7179b02986bd30b0a9a9e377067e559cbca1782e30a32f510244e55c",
          "transactionIndex": "0xd",
          "logIndex": "0x13",
          "removed": false
        }
      ],
      "logsBloom": "0x00000000000000000000000000000001400000000000000000000000000000000000000000000000000000000000000000000000000000000000000000000000000000000000000000000000000002000000000000000000000000000000000000000000000000000000000000000000000000800000000000400000000010000000000000000000000000000000000000000000000000000000000000800000000000000000000000000000000000000000000000000000000000000000000000000020000000000000000000000200000000000400000000000000000000000010000080000000000000000000000000000000000000000000000000000000",
      "type": "0x0",
      "transactionHash": "0x2b9544af7179b02986bd30b0a9a9e377067e559cbca1782e30a32f510244e55c",
      "transactionIndex": "0xd",
      "blockHash": "0x50f4914bd43eab4b6d23aab908136028a7bd6492758e67031a03b736a03354b9",
      "blockNumber": "0x1d9aeb7",
      "gasUsed": "0x9153a",
      "effectiveGasPrice": "0xba43b7400",
      "from": "0x2ceade86a04e474f3cf9bd87208514d818010627",
      "to": "0x4e59b44847b379578588920ca78fbf26c0b4956c",
      "contractAddress": null
    },
    {
      "status": "0x1",
      "cumulativeGasUsed": "0x348492",
      "logs": [
        {
          "address": "0xf13c596928d606f001771d6f9122efa8c7a51e9e",
          "topics": [
            "0xab64f92ab780ecbf4f3866f57cee465ff36c89450dcce20237ca7a8d81fb7d13",
            "0x000000000000000000000000fa06e5cdaeddf7b895e4e066e6b758c621f2024f"
          ],
          "data": "0x",
          "blockHash": "0x50f4914bd43eab4b6d23aab908136028a7bd6492758e67031a03b736a03354b9",
          "blockNumber": "0x1d9aeb7",
          "transactionHash": "0x2f524b19cdfed178ec96835da2ca0c62084412b43ba1d6a97fb09ba522623dfa",
          "transactionIndex": "0xe",
          "logIndex": "0x14",
          "removed": false
        },
        {
          "address": "0xf13c596928d606f001771d6f9122efa8c7a51e9e",
          "topics": [
            "0x8be0079c531659141344cd1fd0a4f28419497f9722a3daafe3b4186f6b6457e0",
            "0x0000000000000000000000000000000000000000000000000000000000000000",
            "0x0000000000000000000000002ceade86a04e474f3cf9bd87208514d818010627"
          ],
          "data": "0x",
          "blockHash": "0x50f4914bd43eab4b6d23aab908136028a7bd6492758e67031a03b736a03354b9",
          "blockNumber": "0x1d9aeb7",
          "transactionHash": "0x2f524b19cdfed178ec96835da2ca0c62084412b43ba1d6a97fb09ba522623dfa",
          "transactionIndex": "0xe",
          "logIndex": "0x15",
          "removed": false
        },
        {
          "address": "0xf13c596928d606f001771d6f9122efa8c7a51e9e",
          "topics": [
            "0x27fe5f0c1c3b1ed427cc63d0f05759ffdecf9aec9e18d31ef366fc8a6cb5dc3b",
            "0x000000000000000000000000000000000000000000000000000000000000ce10"
          ],
          "data": "0x",
          "blockHash": "0x50f4914bd43eab4b6d23aab908136028a7bd6492758e67031a03b736a03354b9",
          "blockNumber": "0x1d9aeb7",
          "transactionHash": "0x2f524b19cdfed178ec96835da2ca0c62084412b43ba1d6a97fb09ba522623dfa",
          "transactionIndex": "0xe",
          "logIndex": "0x16",
          "removed": false
        },
        {
          "address": "0xf13c596928d606f001771d6f9122efa8c7a51e9e",
          "topics": [
            "0x7bfe94ca3147f135fcd6d94ebf61d33fa34fbe904f933ccae66911b9548544f2"
          ],
          "data": "0x00000000000000000000000000000000000000000000000000000000bbf81e00",
          "blockHash": "0x50f4914bd43eab4b6d23aab908136028a7bd6492758e67031a03b736a03354b9",
          "blockNumber": "0x1d9aeb7",
          "transactionHash": "0x2f524b19cdfed178ec96835da2ca0c62084412b43ba1d6a97fb09ba522623dfa",
          "transactionIndex": "0xe",
          "logIndex": "0x17",
          "removed": false
        },
        {
          "address": "0xf13c596928d606f001771d6f9122efa8c7a51e9e",
          "topics": [
            "0xb08f0607338ad77f5b08ccf831e533cefcc2d373c173e87a8f61144f1d82be1e"
          ],
          "data": "0x00000000000000000000000000000000000000000000d3c21bcecceda1000000",
          "blockHash": "0x50f4914bd43eab4b6d23aab908136028a7bd6492758e67031a03b736a03354b9",
          "blockNumber": "0x1d9aeb7",
          "transactionHash": "0x2f524b19cdfed178ec96835da2ca0c62084412b43ba1d6a97fb09ba522623dfa",
          "transactionIndex": "0xe",
          "logIndex": "0x18",
          "removed": false
        },
        {
          "address": "0xf13c596928d606f001771d6f9122efa8c7a51e9e",
          "topics": [
            "0x55b488abd19ae7621712324d3d42c2ef7a9575f64f5503103286a1161fb40855"
          ],
          "data": "0x000000000000000000000000000000000000000000000000000000000000004000000000000000000000000000000000000000000000000000000000000000a00000000000000000000000000000000000000000000000000000000000000002635553440000000000000000000000000000000000000000000000000000000063474c4400000000000000000000000000000000000000000000000000000000000000000000000000000000000000000000000000000000000000000000000200000000000000000000000000000000000000000000d3c21bcecceda0ffffff0000000000000000000000000000000000000000000000000000000000000001",
          "blockHash": "0x50f4914bd43eab4b6d23aab908136028a7bd6492758e67031a03b736a03354b9",
          "blockNumber": "0x1d9aeb7",
          "transactionHash": "0x2f524b19cdfed178ec96835da2ca0c62084412b43ba1d6a97fb09ba522623dfa",
          "transactionIndex": "0xe",
          "logIndex": "0x19",
          "removed": false
        },
        {
          "address": "0xf13c596928d606f001771d6f9122efa8c7a51e9e",
          "topics": [
            "0xfe69856ffb1b1d6cb00c1d8151726e6e95032b1666282eeb293ecadd58b29a6e"
          ],
          "data": "0x0000000000000000000000000000000000000000000000000000000000000000",
          "blockHash": "0x50f4914bd43eab4b6d23aab908136028a7bd6492758e67031a03b736a03354b9",
          "blockNumber": "0x1d9aeb7",
          "transactionHash": "0x2f524b19cdfed178ec96835da2ca0c62084412b43ba1d6a97fb09ba522623dfa",
          "transactionIndex": "0xe",
          "logIndex": "0x1a",
          "removed": false
        },
        {
          "address": "0xf13c596928d606f001771d6f9122efa8c7a51e9e",
          "topics": [
            "0x4da8e8b2223fbbb897200fb9dfb6b986c1b4188621114d407ee8ec363569fc37"
          ],
          "data": "0x0000000000000000000000000000000000000000000000000000000000000000",
          "blockHash": "0x50f4914bd43eab4b6d23aab908136028a7bd6492758e67031a03b736a03354b9",
          "blockNumber": "0x1d9aeb7",
          "transactionHash": "0x2f524b19cdfed178ec96835da2ca0c62084412b43ba1d6a97fb09ba522623dfa",
          "transactionIndex": "0xe",
          "logIndex": "0x1b",
          "removed": false
        },
        {
          "address": "0xf13c596928d606f001771d6f9122efa8c7a51e9e",
          "topics": [
            "0x0c7515883121475b5d9289febf21a9de4ad53f18349a856d90c7acd6e099600b"
          ],
          "data": "0x000000000000000000000000eed145d8d962146afc568e9579948576f63d5dc2",
          "blockHash": "0x50f4914bd43eab4b6d23aab908136028a7bd6492758e67031a03b736a03354b9",
          "blockNumber": "0x1d9aeb7",
          "transactionHash": "0x2f524b19cdfed178ec96835da2ca0c62084412b43ba1d6a97fb09ba522623dfa",
          "transactionIndex": "0xe",
          "logIndex": "0x1c",
          "removed": false
        },
        {
          "address": "0xf13c596928d606f001771d6f9122efa8c7a51e9e",
          "topics": [
            "0x15ff5079dfbf448e4bb45ac83498c2ecb0833ad35916946bb683ccb49f8013a3"
          ],
          "data": "0x000000000000000000000000eed145d8d962146afc568e9579948576f63d5dc200000000000000000000000000000000000000000000d3c21bcecceda1000000",
          "blockHash": "0x50f4914bd43eab4b6d23aab908136028a7bd6492758e67031a03b736a03354b9",
          "blockNumber": "0x1d9aeb7",
          "transactionHash": "0x2f524b19cdfed178ec96835da2ca0c62084412b43ba1d6a97fb09ba522623dfa",
          "transactionIndex": "0xe",
          "logIndex": "0x1d",
          "removed": false
        }
      ],
      "logsBloom": "0x00000000000000001000000000000000000000000000000000800000000002000000004000200000000000000800000000080000000000000030000001000000004000000000000000000000000000084001200000000000000004040400040080080000020000000001000000000800000000020000000000000000000000600000000000024000000000000000000100000000000000000008000000000000000000000000000000000000000000000000000000010000280000000000000000000024000000000000000000000000000800000080000002000000000020000000000000000008000004000000000000000020000000000000100000000000",
      "type": "0x0",
      "transactionHash": "0x2f524b19cdfed178ec96835da2ca0c62084412b43ba1d6a97fb09ba522623dfa",
      "transactionIndex": "0xe",
      "blockHash": "0x50f4914bd43eab4b6d23aab908136028a7bd6492758e67031a03b736a03354b9",
      "blockNumber": "0x1d9aeb7",
      "gasUsed": "0x60d63",
      "effectiveGasPrice": "0xba43b7400",
      "from": "0x2ceade86a04e474f3cf9bd87208514d818010627",
      "to": "0xf13c596928d606f001771d6f9122efa8c7a51e9e",
      "contractAddress": null
    },
    {
      "status": "0x1",
      "cumulativeGasUsed": "0x34f2b8",
      "logs": [
        {
          "address": "0xf13c596928d606f001771d6f9122efa8c7a51e9e",
          "topics": [
            "0x50146d0e3c60aa1d17a70635b05494f864e86144a2201275021014fbf08bafe2",
            "0x000000000000000000000000932ef19a31246337c40911286f91d539be6ba3c3"
          ],
          "data": "0x",
          "blockHash": "0x50f4914bd43eab4b6d23aab908136028a7bd6492758e67031a03b736a03354b9",
          "blockNumber": "0x1d9aeb7",
          "transactionHash": "0x92302bab0b766dc46cba87fe1e3b14afbf18466267f401eeb14c3661021154fe",
          "transactionIndex": "0xf",
          "logIndex": "0x1e",
          "removed": false
        }
      ],
      "logsBloom": "0x00000000000000000000000000000000000000000000000000000000000000000000004000000000000000000000400000000004000000000000000000000000000000000000000000000000000000000000200000000000000000001000000000000000000000000000000000004000000000000000100000000000000000000000000000000000000000000000000000000000000000000000000000000000000000000000000000000000000000000000000000000000000000000000000000000000000000000000000000000000000000000020000000000000000000000000000000000000000000000000000000000020000000000000000000000000",
      "type": "0x0",
      "transactionHash": "0x92302bab0b766dc46cba87fe1e3b14afbf18466267f401eeb14c3661021154fe",
      "transactionIndex": "0xf",
      "blockHash": "0x50f4914bd43eab4b6d23aab908136028a7bd6492758e67031a03b736a03354b9",
      "blockNumber": "0x1d9aeb7",
      "gasUsed": "0x6e26",
      "effectiveGasPrice": "0xba43b7400",
      "from": "0x2ceade86a04e474f3cf9bd87208514d818010627",
      "to": "0xf13c596928d606f001771d6f9122efa8c7a51e9e",
      "contractAddress": null
    },
    {
      "status": "0x1",
      "cumulativeGasUsed": "0x58014c",
      "logs": [
        {
          "address": "0xc9e9d778e412b17c67cd7ab30b009d9d61c0f2e0",
          "topics": [
            "0x8be0079c531659141344cd1fd0a4f28419497f9722a3daafe3b4186f6b6457e0",
            "0x0000000000000000000000000000000000000000000000000000000000000000",
            "0x0000000000000000000000002ceade86a04e474f3cf9bd87208514d818010627"
          ],
          "data": "0x",
          "blockHash": "0x50f4914bd43eab4b6d23aab908136028a7bd6492758e67031a03b736a03354b9",
          "blockNumber": "0x1d9aeb7",
          "transactionHash": "0xbf6630db6c79ddcd02e56d9804c2bb733a355824d868e169d2508592cf73a572",
          "transactionIndex": "0x10",
          "logIndex": "0x1f",
          "removed": false
        },
        {
          "address": "0xc9e9d778e412b17c67cd7ab30b009d9d61c0f2e0",
          "topics": [
            "0x865dab7821134b6eb27cba259b40e33bbc1b898e970a535a18a83147f380a51f",
            "0x0000000000000000000000008eef8f351472fce307dd562b687eac231176df89"
          ],
          "data": "0x",
          "blockHash": "0x50f4914bd43eab4b6d23aab908136028a7bd6492758e67031a03b736a03354b9",
          "blockNumber": "0x1d9aeb7",
          "transactionHash": "0xbf6630db6c79ddcd02e56d9804c2bb733a355824d868e169d2508592cf73a572",
          "transactionIndex": "0x10",
          "logIndex": "0x20",
          "removed": false
        },
        {
          "address": "0xc9e9d778e412b17c67cd7ab30b009d9d61c0f2e0",
          "topics": [
            "0x0b248ab246a87e452fbedee8dc12dfc53e3f3bfdc6920999062c56dea4ab522a",
            "0x000000000000000000000000f13c596928d606f001771d6f9122efa8c7a51e9e"
          ],
          "data": "0x",
          "blockHash": "0x50f4914bd43eab4b6d23aab908136028a7bd6492758e67031a03b736a03354b9",
          "blockNumber": "0x1d9aeb7",
          "transactionHash": "0xbf6630db6c79ddcd02e56d9804c2bb733a355824d868e169d2508592cf73a572",
          "transactionIndex": "0x10",
          "logIndex": "0x21",
          "removed": false
        },
        {
          "address": "0xc9e9d778e412b17c67cd7ab30b009d9d61c0f2e0",
          "topics": [
            "0x6791df7c014d19acfc9b7e3a5d48588a876b014fdd3321f193fef6b0ae785c24",
            "0x0000000000000000000000006fd9644aee56b93c2367279b60ecb3df34a8e131"
          ],
          "data": "0x",
          "blockHash": "0x50f4914bd43eab4b6d23aab908136028a7bd6492758e67031a03b736a03354b9",
          "blockNumber": "0x1d9aeb7",
          "transactionHash": "0xbf6630db6c79ddcd02e56d9804c2bb733a355824d868e169d2508592cf73a572",
          "transactionIndex": "0x10",
          "logIndex": "0x22",
          "removed": false
        },
        {
          "address": "0xc9e9d778e412b17c67cd7ab30b009d9d61c0f2e0",
          "topics": [
            "0x67b34afe551279f03ead7ef1a0ecd16bec18f83ab1a9834c7fda2627374aae9a",
            "0x00000000000000000000000014204392270cd38d02c43465909cade33bf5d6e5"
          ],
          "data": "0x",
          "blockHash": "0x50f4914bd43eab4b6d23aab908136028a7bd6492758e67031a03b736a03354b9",
          "blockNumber": "0x1d9aeb7",
          "transactionHash": "0xbf6630db6c79ddcd02e56d9804c2bb733a355824d868e169d2508592cf73a572",
          "transactionIndex": "0x10",
          "logIndex": "0x23",
          "removed": false
        },
        {
          "address": "0xc9e9d778e412b17c67cd7ab30b009d9d61c0f2e0",
          "topics": [
            "0x7f26b83ff96e1f2b6a682f133852f6798a09c465da95921460cefb3847402498"
          ],
          "data": "0x0000000000000000000000000000000000000000000000000000000000000001",
          "blockHash": "0x50f4914bd43eab4b6d23aab908136028a7bd6492758e67031a03b736a03354b9",
          "blockNumber": "0x1d9aeb7",
          "transactionHash": "0xbf6630db6c79ddcd02e56d9804c2bb733a355824d868e169d2508592cf73a572",
          "transactionIndex": "0x10",
          "logIndex": "0x24",
          "removed": false
        }
      ],
      "logsBloom": "0x00000080000000000010000000000000400000000000000000800000000000000000000000000000000100000800000000080000000000000000000000000000000000000000000000000001000040000001020000000000000000000000000000800000420200000001000000000800000000000000002000000000000801400000000000000000000004000000010000000000000080000000002000080000000000000000000000000001000400000000840000000000000000000000000104002000000000000000000000040000000000020000000000100000000020000000000000000000000000000000004000000000000002000000000000000000",
      "type": "0x0",
      "transactionHash": "0xbf6630db6c79ddcd02e56d9804c2bb733a355824d868e169d2508592cf73a572",
      "transactionIndex": "0x10",
      "blockHash": "0x50f4914bd43eab4b6d23aab908136028a7bd6492758e67031a03b736a03354b9",
      "blockNumber": "0x1d9aeb7",
      "gasUsed": "0x230e94",
      "effectiveGasPrice": "0xba43b7400",
      "from": "0x2ceade86a04e474f3cf9bd87208514d818010627",
      "to": "0xc9e9d778e412b17c67cd7ab30b009d9d61c0f2e0",
      "contractAddress": null
    },
    {
      "status": "0x1",
      "cumulativeGasUsed": "0x5aa290",
      "logs": [
        {
          "address": "0x6fd9644aee56b93c2367279b60ecb3df34a8e131",
          "topics": [
            "0x8be0079c531659141344cd1fd0a4f28419497f9722a3daafe3b4186f6b6457e0",
            "0x0000000000000000000000000000000000000000000000000000000000000000",
            "0x0000000000000000000000002ceade86a04e474f3cf9bd87208514d818010627"
          ],
          "data": "0x",
          "blockHash": "0x50f4914bd43eab4b6d23aab908136028a7bd6492758e67031a03b736a03354b9",
          "blockNumber": "0x1d9aeb7",
          "transactionHash": "0x027508a832d67948380b0b62b7b3e44fe1334cd14f4dcd77a3336aea0a1057e9",
          "transactionIndex": "0x11",
          "logIndex": "0x25",
          "removed": false
        },
        {
          "address": "0x6fd9644aee56b93c2367279b60ecb3df34a8e131",
          "topics": [
            "0xbbee0329d0a3c6241c11b82178f5039a54f654d789f3d9cbb471bf12f0c77e8f",
            "0x000000000000000000000000c9e9d778e412b17c67cd7ab30b009d9d61c0f2e0"
          ],
          "data": "0x",
          "blockHash": "0x50f4914bd43eab4b6d23aab908136028a7bd6492758e67031a03b736a03354b9",
          "blockNumber": "0x1d9aeb7",
          "transactionHash": "0x027508a832d67948380b0b62b7b3e44fe1334cd14f4dcd77a3336aea0a1057e9",
          "transactionIndex": "0x11",
          "logIndex": "0x26",
          "removed": false
        },
        {
          "address": "0x6fd9644aee56b93c2367279b60ecb3df34a8e131",
          "topics": [
            "0x37bb6eaf6f31a018c4328eb0343706d73df678b663b21b972351d2528f755af5",
            "0x000000000000000000000000b67d723ad4e71e23b780b917e55f6f58fc18cc9e"
          ],
          "data": "0x",
          "blockHash": "0x50f4914bd43eab4b6d23aab908136028a7bd6492758e67031a03b736a03354b9",
          "blockNumber": "0x1d9aeb7",
          "transactionHash": "0x027508a832d67948380b0b62b7b3e44fe1334cd14f4dcd77a3336aea0a1057e9",
          "transactionIndex": "0x11",
          "logIndex": "0x27",
          "removed": false
        },
        {
          "address": "0x6fd9644aee56b93c2367279b60ecb3df34a8e131",
          "topics": [
            "0x0b248ab246a87e452fbedee8dc12dfc53e3f3bfdc6920999062c56dea4ab522a",
            "0x000000000000000000000000f13c596928d606f001771d6f9122efa8c7a51e9e"
          ],
          "data": "0x",
          "blockHash": "0x50f4914bd43eab4b6d23aab908136028a7bd6492758e67031a03b736a03354b9",
          "blockNumber": "0x1d9aeb7",
          "transactionHash": "0x027508a832d67948380b0b62b7b3e44fe1334cd14f4dcd77a3336aea0a1057e9",
          "transactionIndex": "0x11",
          "logIndex": "0x28",
          "removed": false
        },
        {
          "address": "0x6fd9644aee56b93c2367279b60ecb3df34a8e131",
          "topics": [
            "0x67b34afe551279f03ead7ef1a0ecd16bec18f83ab1a9834c7fda2627374aae9a",
            "0x00000000000000000000000014204392270cd38d02c43465909cade33bf5d6e5"
          ],
          "data": "0x",
          "blockHash": "0x50f4914bd43eab4b6d23aab908136028a7bd6492758e67031a03b736a03354b9",
          "blockNumber": "0x1d9aeb7",
          "transactionHash": "0x027508a832d67948380b0b62b7b3e44fe1334cd14f4dcd77a3336aea0a1057e9",
          "transactionIndex": "0x11",
          "logIndex": "0x29",
          "removed": false
        },
        {
          "address": "0x6fd9644aee56b93c2367279b60ecb3df34a8e131",
          "topics": [
            "0x7f26b83ff96e1f2b6a682f133852f6798a09c465da95921460cefb3847402498"
          ],
          "data": "0x0000000000000000000000000000000000000000000000000000000000000001",
          "blockHash": "0x50f4914bd43eab4b6d23aab908136028a7bd6492758e67031a03b736a03354b9",
          "blockNumber": "0x1d9aeb7",
          "transactionHash": "0x027508a832d67948380b0b62b7b3e44fe1334cd14f4dcd77a3336aea0a1057e9",
          "transactionIndex": "0x11",
          "logIndex": "0x2a",
          "removed": false
        }
      ],
      "logsBloom": "0x00000000000000000000000000000000000000000000000000800000000000000000000010000000000000000800000000080000000000000000000000000000000800800000000000000000000040000201020000000000000000000000000000840080420200000001000000000800000000000000000000400000000000400000000000000000000004000000010000000000000080000000002040080000000000100000400000000000000400000000040000000000000000000000000000002000000800000002000000040200000000000000000000000000080020000010000000000000000000000000000000000000000002000000000000000000",
      "type": "0x0",
      "transactionHash": "0x027508a832d67948380b0b62b7b3e44fe1334cd14f4dcd77a3336aea0a1057e9",
      "transactionIndex": "0x11",
      "blockHash": "0x50f4914bd43eab4b6d23aab908136028a7bd6492758e67031a03b736a03354b9",
      "blockNumber": "0x1d9aeb7",
      "gasUsed": "0x2a144",
      "effectiveGasPrice": "0xba43b7400",
      "from": "0x2ceade86a04e474f3cf9bd87208514d818010627",
      "to": "0x6fd9644aee56b93c2367279b60ecb3df34a8e131",
      "contractAddress": null
    },
    {
      "status": "0x1",
      "cumulativeGasUsed": "0x5d3ad4",
      "logs": [
        {
          "address": "0x8eef8f351472fce307dd562b687eac231176df89",
          "topics": [
            "0xab64f92ab780ecbf4f3866f57cee465ff36c89450dcce20237ca7a8d81fb7d13",
            "0x000000000000000000000000b96894e856046eb2ff67b866b924546ee919a456"
          ],
          "data": "0x",
          "blockHash": "0x50f4914bd43eab4b6d23aab908136028a7bd6492758e67031a03b736a03354b9",
          "blockNumber": "0x1d9aeb7",
          "transactionHash": "0xcdce88898cabc0ed47d04866d0644b5755d5f1d89b4ddc7ef363fc9e99db5ecf",
          "transactionIndex": "0x12",
          "logIndex": "0x2b",
          "removed": false
        },
        {
          "address": "0x8eef8f351472fce307dd562b687eac231176df89",
          "topics": [
            "0x8be0079c531659141344cd1fd0a4f28419497f9722a3daafe3b4186f6b6457e0",
            "0x0000000000000000000000000000000000000000000000000000000000000000",
            "0x0000000000000000000000002ceade86a04e474f3cf9bd87208514d818010627"
          ],
          "data": "0x",
          "blockHash": "0x50f4914bd43eab4b6d23aab908136028a7bd6492758e67031a03b736a03354b9",
          "blockNumber": "0x1d9aeb7",
          "transactionHash": "0xcdce88898cabc0ed47d04866d0644b5755d5f1d89b4ddc7ef363fc9e99db5ecf",
          "transactionIndex": "0x12",
          "logIndex": "0x2c",
          "removed": false
        },
        {
          "address": "0x8eef8f351472fce307dd562b687eac231176df89",
          "topics": [
            "0x2ee2cb0721ec60b86190cae5c48e25064b69b35abad32452a4ec99d232033de2",
            "0x000000000000000000000000c9e9d778e412b17c67cd7ab30b009d9d61c0f2e0"
          ],
          "data": "0x",
          "blockHash": "0x50f4914bd43eab4b6d23aab908136028a7bd6492758e67031a03b736a03354b9",
          "blockNumber": "0x1d9aeb7",
          "transactionHash": "0xcdce88898cabc0ed47d04866d0644b5755d5f1d89b4ddc7ef363fc9e99db5ecf",
          "transactionIndex": "0x12",
          "logIndex": "0x2d",
          "removed": false
        },
        {
          "address": "0x8eef8f351472fce307dd562b687eac231176df89",
          "topics": [
            "0xb69e1c416d8be92ac92c8e97e77c4626fba5e6ab50161099f659ea3303479e50",
            "0x000000000000000000000000c9e9d778e412b17c67cd7ab30b009d9d61c0f2e0",
            "0x000000000000000000000000f13c596928d606f001771d6f9122efa8c7a51e9e"
          ],
          "data": "0x",
          "blockHash": "0x50f4914bd43eab4b6d23aab908136028a7bd6492758e67031a03b736a03354b9",
          "blockNumber": "0x1d9aeb7",
          "transactionHash": "0xcdce88898cabc0ed47d04866d0644b5755d5f1d89b4ddc7ef363fc9e99db5ecf",
          "transactionIndex": "0x12",
          "logIndex": "0x2e",
          "removed": false
        }
      ],
      "logsBloom": "0x00000000000100100000000000000000000000000000000000800002000000000000000000000000000000000800000000080000000000000000000000080000000800800000000000000000000000000001000000000000000000000000000000000080020000000001000000000800000000000000000000000000000000400000000000001000000000000000010000000000000000000000000000080000000000000000000000040020800002000000040000000200200000000000000000000020000000000000000000000000000000000000000000000000004020000000000000000000000004000020000000000000000000000000000000000000",
      "type": "0x0",
      "transactionHash": "0xcdce88898cabc0ed47d04866d0644b5755d5f1d89b4ddc7ef363fc9e99db5ecf",
      "transactionIndex": "0x12",
      "blockHash": "0x50f4914bd43eab4b6d23aab908136028a7bd6492758e67031a03b736a03354b9",
      "blockNumber": "0x1d9aeb7",
      "gasUsed": "0x29844",
      "effectiveGasPrice": "0xba43b7400",
      "from": "0x2ceade86a04e474f3cf9bd87208514d818010627",
      "to": "0x8eef8f351472fce307dd562b687eac231176df89",
      "contractAddress": null
    },
    {
      "status": "0x1",
      "cumulativeGasUsed": "0x5da8fa",
      "logs": [
        {
          "address": "0x8eef8f351472fce307dd562b687eac231176df89",
          "topics": [
            "0x50146d0e3c60aa1d17a70635b05494f864e86144a2201275021014fbf08bafe2",
            "0x000000000000000000000000932ef19a31246337c40911286f91d539be6ba3c3"
          ],
          "data": "0x",
          "blockHash": "0x50f4914bd43eab4b6d23aab908136028a7bd6492758e67031a03b736a03354b9",
          "blockNumber": "0x1d9aeb7",
          "transactionHash": "0x72f55f2a2c47b7a9c174fee8544dc6e633dfb5eb8e1cb4151859de80be85479e",
          "transactionIndex": "0x13",
          "logIndex": "0x2f",
          "removed": false
        }
      ],
      "logsBloom": "0x00000000000000000000000000000000000000000000000000000002000000000000000000000000000000000000400000000004000000000000000000000000000000000000000000000000000000000000000000000000000000001000000000000000000000000000000000004000000000000000100000000000000000000000000000000000000000000000000000000000000000000000000000000000000000000000000000000000000000000000000000000000000000000000000000000000000000000000000000000000000000000020000000000000004000000000000000000000000000000020000000000000000000000000000000000000",
      "type": "0x0",
      "transactionHash": "0x72f55f2a2c47b7a9c174fee8544dc6e633dfb5eb8e1cb4151859de80be85479e",
      "transactionIndex": "0x13",
      "blockHash": "0x50f4914bd43eab4b6d23aab908136028a7bd6492758e67031a03b736a03354b9",
      "blockNumber": "0x1d9aeb7",
      "gasUsed": "0x6e26",
      "effectiveGasPrice": "0xba43b7400",
      "from": "0x2ceade86a04e474f3cf9bd87208514d818010627",
      "to": "0x8eef8f351472fce307dd562b687eac231176df89",
      "contractAddress": null
    },
    {
      "status": "0x1",
      "cumulativeGasUsed": "0x5f247f",
      "logs": [
        {
          "address": "0xf13c596928d606f001771d6f9122efa8c7a51e9e",
          "topics": [
            "0x784c8f4dbf0ffedd6e72c76501c545a70f8b203b30a26ce542bf92ba87c248a4",
            "0x000000000000000000000000fa51efdc0910ccda91732e6806912fa12e2fd475"
          ],
          "data": "0x",
          "blockHash": "0x50f4914bd43eab4b6d23aab908136028a7bd6492758e67031a03b736a03354b9",
          "blockNumber": "0x1d9aeb7",
          "transactionHash": "0x8f0bda3289040bfaab222b44e46db5b229c38ede2208bd5b1e2528b799d2de1d",
          "transactionIndex": "0x14",
          "logIndex": "0x30",
          "removed": false
        }
      ],
      "logsBloom": "0x00000000000000000000000000000000000000000000000000000000000000000000004000000000000000000000000000000000000000000000000000000000000000000000000000000000000000000000200000000000000000000000000000000000000000000000000000000000000000000000200000000000000000008000000010000000000000000000000100000000000000000000000000000000000000000000000000200000000000000000000000000000000000000000000000000000000000000000000000000000000000000000000000000000000000000000000000000000000000000000000000000020000000001000000000000000",
      "type": "0x0",
      "transactionHash": "0x8f0bda3289040bfaab222b44e46db5b229c38ede2208bd5b1e2528b799d2de1d",
      "transactionIndex": "0x14",
      "blockHash": "0x50f4914bd43eab4b6d23aab908136028a7bd6492758e67031a03b736a03354b9",
      "blockNumber": "0x1d9aeb7",
      "gasUsed": "0x17b85",
      "effectiveGasPrice": "0xba43b7400",
      "from": "0x2ceade86a04e474f3cf9bd87208514d818010627",
      "to": "0xf13c596928d606f001771d6f9122efa8c7a51e9e",
      "contractAddress": null
    },
    {
      "status": "0x1",
      "cumulativeGasUsed": "0x609fdc",
      "logs": [
        {
          "address": "0xf13c596928d606f001771d6f9122efa8c7a51e9e",
          "topics": [
            "0x71bccdb89fff4d914e3d2e472b327e3debaf4c4d6f1dfe528f430447e4cbcf5f",
            "0x0000000000000000000000008eef8f351472fce307dd562b687eac231176df89"
          ],
          "data": "0x",
          "blockHash": "0x50f4914bd43eab4b6d23aab908136028a7bd6492758e67031a03b736a03354b9",
          "blockNumber": "0x1d9aeb7",
          "transactionHash": "0xbdefbbe19dfddc3aa2683d8473def31fa273954f6f0e691007e7e41012fdf76d",
          "transactionIndex": "0x15",
          "logIndex": "0x31",
          "removed": false
        }
      ],
      "logsBloom": "0x00000080000000000000000000000000000000000000000000000000000000000000004000000000000100000000000000000000000000000000000000000000000000000000000000000000000000000000200000000000000000000000000000000000000000000040000000000000000000000000002000000000000000000000000000000000000000000000000000000000000000000000000000000000000000000000000000000000000000000000000000000000008000000000000000000000000000000000000000000000000000000000000000000000000000000000000000000000000000000000000004000020000000000000000000000000",
      "type": "0x0",
      "transactionHash": "0xbdefbbe19dfddc3aa2683d8473def31fa273954f6f0e691007e7e41012fdf76d",
      "transactionIndex": "0x15",
      "blockHash": "0x50f4914bd43eab4b6d23aab908136028a7bd6492758e67031a03b736a03354b9",
      "blockNumber": "0x1d9aeb7",
      "gasUsed": "0x17b5d",
      "effectiveGasPrice": "0xba43b7400",
      "from": "0x2ceade86a04e474f3cf9bd87208514d818010627",
      "to": "0xf13c596928d606f001771d6f9122efa8c7a51e9e",
      "contractAddress": null
    },
    {
      "status": "0x1",
      "cumulativeGasUsed": "0x616d8b",
      "logs": [
        {
          "address": "0xf13c596928d606f001771d6f9122efa8c7a51e9e",
          "topics": [
            "0x3139419c41cdd7abca84fa19dd21118cd285d3e2ce1a9444e8161ce9fa62fdcd",
            "0x00000000000000000000000014204392270cd38d02c43465909cade33bf5d6e5"
          ],
          "data": "0x",
          "blockHash": "0x50f4914bd43eab4b6d23aab908136028a7bd6492758e67031a03b736a03354b9",
          "blockNumber": "0x1d9aeb7",
          "transactionHash": "0xb499b1caf1259b7a62e71fb5b03bb55d55c16ba70c645ca534b52a8c54fa5922",
          "transactionIndex": "0x16",
          "logIndex": "0x32",
          "removed": false
        }
      ],
      "logsBloom": "0x00000000000000000000000000000000000000000000000000000000000000000000004000000000000000000000000000000000000000000000000000000000000000000000000000000000000040000000200000000000400000000000000000800000400000000000000000000000000000000000000000000000000000000000000000000000000000000000000000000000000000000000000000000000000000000000000000000000000000000000000000000000000000000000000000000000000000000000000000000000000000000000000000000000000000000000000000000000000000000000000000000024000000000000000000000004",
      "type": "0x0",
      "transactionHash": "0xb499b1caf1259b7a62e71fb5b03bb55d55c16ba70c645ca534b52a8c54fa5922",
      "transactionIndex": "0x16",
      "blockHash": "0x50f4914bd43eab4b6d23aab908136028a7bd6492758e67031a03b736a03354b9",
      "blockNumber": "0x1d9aeb7",
      "gasUsed": "0xcdaf",
      "effectiveGasPrice": "0xba43b7400",
      "from": "0x2ceade86a04e474f3cf9bd87208514d818010627",
      "to": "0xf13c596928d606f001771d6f9122efa8c7a51e9e",
      "contractAddress": null
    },
    {
      "status": "0x1",
      "cumulativeGasUsed": "0x62e911",
      "logs": [
        {
          "address": "0xf13c596928d606f001771d6f9122efa8c7a51e9e",
          "topics": [
            "0xd78793225285ecf9cf5f0f84b1cdc335c2cb4d6810ff0b9fd156ad6026c89cea",
            "0x00000000000000000000000014204392270cd38d02c43465909cade33bf5d6e5"
          ],
          "data": "0x",
          "blockHash": "0x50f4914bd43eab4b6d23aab908136028a7bd6492758e67031a03b736a03354b9",
          "blockNumber": "0x1d9aeb7",
          "transactionHash": "0x0177452163d0c2f6b17403c4a9727aa73a24366d319e632c6aeda8c4ea313173",
          "transactionIndex": "0x17",
          "logIndex": "0x33",
          "removed": false
        }
      ],
      "logsBloom": "0x00000000000000000000000000000000000000000000000000000000000000000000004000000000000000000000000000000000000000000000000000000000000000000000000000000000000040000000200000000000000000000000000001800100400000000000000000000000000000000000000000000000000000000000000000000000000000000000000000000000000000000000000000000000000000000000000000000000000000000000000000000000000000000000000000000000000000000000000000000000000000000000000000000000000000000000000000000000000000000000000000000020000000000000010000000000",
      "type": "0x0",
      "transactionHash": "0x0177452163d0c2f6b17403c4a9727aa73a24366d319e632c6aeda8c4ea313173",
      "transactionIndex": "0x17",
      "blockHash": "0x50f4914bd43eab4b6d23aab908136028a7bd6492758e67031a03b736a03354b9",
      "blockNumber": "0x1d9aeb7",
      "gasUsed": "0x17b86",
      "effectiveGasPrice": "0xba43b7400",
      "from": "0x2ceade86a04e474f3cf9bd87208514d818010627",
      "to": "0xf13c596928d606f001771d6f9122efa8c7a51e9e",
      "contractAddress": null
    },
    {
      "status": "0x1",
      "cumulativeGasUsed": "0x63e0c9",
      "logs": [
        {
          "address": "0x8eef8f351472fce307dd562b687eac231176df89",
          "topics": [
            "0x1a082a1efaf1549c18917ddcb1f759680c29371609e24f4b946e93acf4ce5ad2"
          ],
          "data": "0x2e04a1379be2d5201bd2ccb939f2dc93c4fd9c23cca80e8c8d658bd0f96fd08d000000000000000000000000eed145d8d962146afc568e9579948576f63d5dc20000000000000000000000000000000000000000000000000000000000093a800000000000000000000000000000000000000000000000000000000000278d000000000000000000000000000000000000000000000000000000000000009c40000000000000000000000000000000000000000000000000000000000001388000000000000000000000000000000000000000000000000000000000000000000000000000000000000000000000000000000000000000000000000000000003",
          "blockHash": "0x50f4914bd43eab4b6d23aab908136028a7bd6492758e67031a03b736a03354b9",
          "blockNumber": "0x1d9aeb7",
          "transactionHash": "0xba1d65beccd8d17d89763daa803015b3679fe4749ba4e24b539aa9f4124b4d4b",
          "transactionIndex": "0x18",
          "logIndex": "0x34",
          "removed": false
        }
      ],
      "logsBloom": "0x00000000000000000000000000000000000000000000000000000002000000000000000000000000000000000000000000000000000000000000020000000000000000000000000000000000000000000000000000000000000000000000000000000000000000000000000000000000000000000000000000000000000000000000000000000000000000000000000000000000000000000000000000000000000000000000000000000000000000000000000000000000000000000000000000000000000000000000000000000000000000000000000000000000004000000000000000000000000000000020000000000000000010000010000000000000",
      "type": "0x0",
      "transactionHash": "0xba1d65beccd8d17d89763daa803015b3679fe4749ba4e24b539aa9f4124b4d4b",
      "transactionIndex": "0x18",
      "blockHash": "0x50f4914bd43eab4b6d23aab908136028a7bd6492758e67031a03b736a03354b9",
      "blockNumber": "0x1d9aeb7",
      "gasUsed": "0xf7b8",
      "effectiveGasPrice": "0xba43b7400",
      "from": "0x2ceade86a04e474f3cf9bd87208514d818010627",
      "to": "0x8eef8f351472fce307dd562b687eac231176df89",
      "contractAddress": null
    },
    {
      "status": "0x1",
      "cumulativeGasUsed": "0x6465d0",
      "logs": [
        {
          "address": "0x8eef8f351472fce307dd562b687eac231176df89",
          "topics": [
            "0x8be0079c531659141344cd1fd0a4f28419497f9722a3daafe3b4186f6b6457e0",
            "0x0000000000000000000000002ceade86a04e474f3cf9bd87208514d818010627",
            "0x00000000000000000000000014204392270cd38d02c43465909cade33bf5d6e5"
          ],
          "data": "0x",
          "blockHash": "0x50f4914bd43eab4b6d23aab908136028a7bd6492758e67031a03b736a03354b9",
          "blockNumber": "0x1d9aeb7",
          "transactionHash": "0x525e4ac60d6bf937ea4c2c6e588b1c8528148bfcf6b1ab2f9063798491a797c2",
          "transactionIndex": "0x19",
          "logIndex": "0x35",
          "removed": false
        }
      ],
      "logsBloom": "0x00000000000000000000000000000000000000000000000000800002000000000000000000000000000000000800000000080000000000000000000000000000000000000000000000000000000040000001000000000000000000000000000000800000400000000001000000000000000000000000000000000000000000400000000000000000000000000000000000000000000000000000000000000000000000000000000000000000000000000000000000000000000000000000000000000000000000000000000000000000000000000000000000000000004000000000000000000000000000000020000000000000000000000000000000000000",
      "type": "0x0",
      "transactionHash": "0x525e4ac60d6bf937ea4c2c6e588b1c8528148bfcf6b1ab2f9063798491a797c2",
      "transactionIndex": "0x19",
      "blockHash": "0x50f4914bd43eab4b6d23aab908136028a7bd6492758e67031a03b736a03354b9",
      "blockNumber": "0x1d9aeb7",
      "gasUsed": "0x8507",
      "effectiveGasPrice": "0xba43b7400",
      "from": "0x2ceade86a04e474f3cf9bd87208514d818010627",
      "to": "0x8eef8f351472fce307dd562b687eac231176df89",
      "contractAddress": null
    },
    {
      "status": "0x1",
      "cumulativeGasUsed": "0x64eaeb",
      "logs": [
        {
          "address": "0xf13c596928d606f001771d6f9122efa8c7a51e9e",
          "topics": [
            "0x8be0079c531659141344cd1fd0a4f28419497f9722a3daafe3b4186f6b6457e0",
            "0x0000000000000000000000002ceade86a04e474f3cf9bd87208514d818010627",
            "0x00000000000000000000000014204392270cd38d02c43465909cade33bf5d6e5"
          ],
          "data": "0x",
          "blockHash": "0x50f4914bd43eab4b6d23aab908136028a7bd6492758e67031a03b736a03354b9",
          "blockNumber": "0x1d9aeb7",
          "transactionHash": "0xb454e7c7304aa6042b10d2caae7539f3d750b4ffce54157873cd149df502bdb8",
          "transactionIndex": "0x1a",
          "logIndex": "0x36",
          "removed": false
        }
      ],
      "logsBloom": "0x00000000000000000000000000000000000000000000000000800000000000000000004000000000000000000800000000080000000000000000000000000000000000000000000000000000000040000001200000000000000000000000000000800000400000000001000000000000000000000000000000000000000000400000000000000000000000000000000000000000000000000000000000000000000000000000000000000000000000000000000000000000000000000000000000000000000000000000000000000000000000000000000000000000000000000000000000000000000000000000000000000020000000000000000000000000",
      "type": "0x0",
      "transactionHash": "0xb454e7c7304aa6042b10d2caae7539f3d750b4ffce54157873cd149df502bdb8",
      "transactionIndex": "0x1a",
      "blockHash": "0x50f4914bd43eab4b6d23aab908136028a7bd6492758e67031a03b736a03354b9",
      "blockNumber": "0x1d9aeb7",
      "gasUsed": "0x851b",
      "effectiveGasPrice": "0xba43b7400",
      "from": "0x2ceade86a04e474f3cf9bd87208514d818010627",
      "to": "0xf13c596928d606f001771d6f9122efa8c7a51e9e",
      "contractAddress": null
    },
    {
      "status": "0x1",
      "cumulativeGasUsed": "0x6576bb",
      "logs": [
        {
          "address": "0xc9e9d778e412b17c67cd7ab30b009d9d61c0f2e0",
          "topics": [
            "0x8be0079c531659141344cd1fd0a4f28419497f9722a3daafe3b4186f6b6457e0",
            "0x0000000000000000000000002ceade86a04e474f3cf9bd87208514d818010627",
            "0x00000000000000000000000014204392270cd38d02c43465909cade33bf5d6e5"
          ],
          "data": "0x",
          "blockHash": "0x50f4914bd43eab4b6d23aab908136028a7bd6492758e67031a03b736a03354b9",
          "blockNumber": "0x1d9aeb7",
          "transactionHash": "0xb89fcf5666248a9ca2918a07f5885d5aad7b4cfcc8d47745ee372cf8bdac7038",
          "transactionIndex": "0x1b",
          "logIndex": "0x37",
          "removed": false
        }
      ],
      "logsBloom": "0x00000000000000000010000000000000400000000000000000800000000000000000000000000000000000000800000000080000000000000000000000000000000000000000000000000000000040000001000000000000000000000000000000800000400000000001000000000000000000000000000000000000000000400000000000000000000000000000000000000000000000000000000000000000000000000000000000000000000000000000000000000000000000000000000000000000000000000000000000000000000000000000000000100000000000000000000000000000000000000000000000000000000000000000000000000000",
      "type": "0x0",
      "transactionHash": "0xb89fcf5666248a9ca2918a07f5885d5aad7b4cfcc8d47745ee372cf8bdac7038",
      "transactionIndex": "0x1b",
      "blockHash": "0x50f4914bd43eab4b6d23aab908136028a7bd6492758e67031a03b736a03354b9",
      "blockNumber": "0x1d9aeb7",
      "gasUsed": "0x8bd0",
      "effectiveGasPrice": "0xba43b7400",
      "from": "0x2ceade86a04e474f3cf9bd87208514d818010627",
      "to": "0xc9e9d778e412b17c67cd7ab30b009d9d61c0f2e0",
      "contractAddress": null
    },
    {
      "status": "0x1",
      "cumulativeGasUsed": "0x660285",
      "logs": [
        {
          "address": "0x6fd9644aee56b93c2367279b60ecb3df34a8e131",
          "topics": [
            "0x8be0079c531659141344cd1fd0a4f28419497f9722a3daafe3b4186f6b6457e0",
            "0x0000000000000000000000002ceade86a04e474f3cf9bd87208514d818010627",
            "0x00000000000000000000000014204392270cd38d02c43465909cade33bf5d6e5"
          ],
          "data": "0x",
          "blockHash": "0x50f4914bd43eab4b6d23aab908136028a7bd6492758e67031a03b736a03354b9",
          "blockNumber": "0x1d9aeb7",
          "transactionHash": "0x271c0630b1f4a7341a2613f27afc44e9b39b7a8fadf2d238654855bf8d2ec319",
          "transactionIndex": "0x1c",
          "logIndex": "0x38",
          "removed": false
        }
      ],
      "logsBloom": "0x00000000000000000000000000000000000000000000000000800000000000000000000000000000000000000800000000080000000000000000000000000000000000000000000000000000000040000001000000000000000000000000000000800000400000000001000000000000000000000000000000400000000000400000000000000000000000000000000000000000000000000000000000000000000000000000000000000000000000000000000000000000000000000000000000000000000000000000000000000200000000000000000000000000000000000010000000000000000000000000000000000000000000000000000000000000",
      "type": "0x0",
      "transactionHash": "0x271c0630b1f4a7341a2613f27afc44e9b39b7a8fadf2d238654855bf8d2ec319",
      "transactionIndex": "0x1c",
      "blockHash": "0x50f4914bd43eab4b6d23aab908136028a7bd6492758e67031a03b736a03354b9",
      "blockNumber": "0x1d9aeb7",
      "gasUsed": "0x8bca",
      "effectiveGasPrice": "0xba43b7400",
      "from": "0x2ceade86a04e474f3cf9bd87208514d818010627",
      "to": "0x6fd9644aee56b93c2367279b60ecb3df34a8e131",
      "contractAddress": null
    }
  ],
  "libraries": [],
  "pending": [],
  "returns": {},
  "timestamp": 1742890959,
  "chain": 42220,
  "commit": "4ac122d"
}