{
  "transactions": [
    {
      "hash": "0xc64852dd39141c033e657558a6cd523abc7fad01a18db6c059e64d12a14d8ca1",
      "transactionType": "CREATE",
      "contractName": "ProxyAdmin.0.8.18",
      "contractAddress": "0x8471406c3bff67cc6538481c8550364bda6ca691",
      "function": null,
      "arguments": null,
      "transaction": {
        "from": "0x5128e3c1f8846724cc1007af9b4189713922e4bb",
        "gas": "0x88835",
        "value": "0x0",
        "input": "0x608060405234801561001057600080fd5b5061001a3361001f565b61006f565b600080546001600160a01b038381166001600160a01b0319831681178455604051919092169283917f8be0079c531659141344cd1fd0a4f28419497f9722a3daafe3b4186f6b6457e09190a35050565b61065d8061007e6000396000f3fe60806040526004361061007b5760003560e01c80639623609d1161004e5780639623609d1461011157806399a88ec414610124578063f2fde38b14610144578063f3b7dead1461016457600080fd5b8063204e1c7a14610080578063715018a6146100bc5780637eff275e146100d35780638da5cb5b146100f3575b600080fd5b34801561008c57600080fd5b506100a061009b366004610499565b610184565b6040516001600160a01b03909116815260200160405180910390f35b3480156100c857600080fd5b506100d1610215565b005b3480156100df57600080fd5b506100d16100ee3660046104bd565b610229565b3480156100ff57600080fd5b506000546001600160a01b03166100a0565b6100d161011f36600461050c565b610291565b34801561013057600080fd5b506100d161013f3660046104bd565b610300565b34801561015057600080fd5b506100d161015f366004610499565b610336565b34801561017057600080fd5b506100a061017f366004610499565b6103b4565b6000806000836001600160a01b03166040516101aa90635c60da1b60e01b815260040190565b600060405180830381855afa9150503d80600081146101e5576040519150601f19603f3d011682016040523d82523d6000602084013e6101ea565b606091505b5091509150816101f957600080fd5b8080602001905181019061020d91906105e2565b949350505050565b61021d6103da565b6102276000610434565b565b6102316103da565b6040516308f2839760e41b81526001600160a01b038281166004830152831690638f283970906024015b600060405180830381600087803b15801561027557600080fd5b505af1158015610289573d6000803e3d6000fd5b505050505050565b6102996103da565b60405163278f794360e11b81526001600160a01b03841690634f1ef2869034906102c990869086906004016105ff565b6000604051808303818588803b1580156102e257600080fd5b505af11580156102f6573d6000803e3d6000fd5b5050505050505050565b6103086103da565b604051631b2ce7f360e11b81526001600160a01b038281166004830152831690633659cfe69060240161025b565b61033e6103da565b6001600160a01b0381166103a85760405162461bcd60e51b815260206004820152602660248201527f4f776e61626c653a206e6577206f776e657220697320746865207a65726f206160448201526564647265737360d01b60648201526084015b60405180910390fd5b6103b181610434565b50565b6000806000836001600160a01b03166040516101aa906303e1469160e61b815260040190565b6000546001600160a01b031633146102275760405162461bcd60e51b815260206004820181905260248201527f4f776e61626c653a2063616c6c6572206973206e6f7420746865206f776e6572604482015260640161039f565b600080546001600160a01b038381166001600160a01b0319831681178455604051919092169283917f8be0079c531659141344cd1fd0a4f28419497f9722a3daafe3b4186f6b6457e09190a35050565b6001600160a01b03811681146103b157600080fd5b6000602082840312156104ab57600080fd5b81356104b681610484565b9392505050565b600080604083850312156104d057600080fd5b82356104db81610484565b915060208301356104eb81610484565b809150509250929050565b634e487b7160e01b600052604160045260246000fd5b60008060006060848603121561052157600080fd5b833561052c81610484565b9250602084013561053c81610484565b9150604084013567ffffffffffffffff8082111561055957600080fd5b818601915086601f83011261056d57600080fd5b81358181111561057f5761057f6104f6565b604051601f8201601f19908116603f011681019083821181831017156105a7576105a76104f6565b816040528281528960208487010111156105c057600080fd5b8260208601602083013760006020848301015280955050505050509250925092565b6000602082840312156105f457600080fd5b81516104b681610484565b60018060a01b038316815260006020604081840152835180604085015260005b8181101561063b5785810183015185820160600152820161061f565b506000606082860101526060601f19601f83011685010192505050939250505056",
        "nonce": "0x1ad",
        "chainId": "0xa4ec"
      },
      "additionalContracts": [],
      "isFixedGasLimit": false
    },
    {
      "hash": "0x630d2c2e4485b535706a8b6f3ed67431691c718d1f9ad01e60901653a819f146",
      "transactionType": "CALL",
      "contractName": "ProxyAdmin.0.8.18",
      "contractAddress": "0x8471406c3bff67cc6538481c8550364bda6ca691",
      "function": "transferOwnership(address)",
      "arguments": [
        "0x495d133B938596C9984d462F007B676bDc57eCEC"
      ],
      "transaction": {
        "from": "0x5128e3c1f8846724cc1007af9b4189713922e4bb",
        "to": "0x8471406c3bff67cc6538481c8550364bda6ca691",
        "gas": "0x9a42",
        "value": "0x0",
        "input": "0xf2fde38b000000000000000000000000495d133b938596c9984d462f007b676bdc57ecec",
        "nonce": "0x1ae",
        "chainId": "0xa4ec"
      },
      "additionalContracts": [],
      "isFixedGasLimit": false
    },
    {
      "hash": "0x794f2789ee91c4519708886368171a64657285f62bd79fe150685e7cb41fe61f",
      "transactionType": "CREATE2",
      "contractName": "TransparentUpgradeableProxy.0.8.18",
      "contractAddress": "0x94a3240f484a04f5e3d524f528d02694c109463b",
      "function": null,
      "arguments": [
        "0xF036896E9441ecaeB1b6D2Fc1b982021eed2b439",
        "0x8471406C3Bff67Cc6538481C8550364bda6Ca691",
        "0x"
      ],
      "transaction": {
        "from": "0x5128e3c1f8846724cc1007af9b4189713922e4bb",
        "to": "0x4e59b44847b379578588920ca78fbf26c0b4956c",
        "gas": "0xc8cf5",
        "value": "0x0",
        "input": "0x4c3ce844766e57f92d450afbedae2278c7006eb721d30da9d2df231c42ca969f608060405260405162000e8a38038062000e8a833981016040819052620000269162000497565b828162000036828260006200004d565b50620000449050826200008a565b505050620005ca565b6200005883620000e5565b600082511180620000665750805b1562000085576200008383836200012760201b620001691760201c565b505b505050565b7f7e644d79422f17c01e4894b5f4f588d331ebfa28653d42ae832dc59e38c9798f620000b562000156565b604080516001600160a01b03928316815291841660208301520160405180910390a1620000e2816200018f565b50565b620000f08162000244565b6040516001600160a01b038216907fbc7cd75a20ee27fd9adebab32041f755214dbc6bffa90cc0225b39da2e5c2d3b90600090a250565b60606200014f838360405180606001604052806027815260200162000e6360279139620002f8565b9392505050565b60006200018060008051602062000e4383398151915260001b6200037760201b620001951760201c565b546001600160a01b0316919050565b6001600160a01b038116620001fa5760405162461bcd60e51b815260206004820152602660248201527f455243313936373a206e65772061646d696e20697320746865207a65726f206160448201526564647265737360d01b60648201526084015b60405180910390fd5b806200022360008051602062000e4383398151915260001b6200037760201b620001951760201c565b80546001600160a01b0319166001600160a01b039290921691909117905550565b6200025a816200037a60201b620001981760201c565b620002be5760405162461bcd60e51b815260206004820152602d60248201527f455243313936373a206e657720696d706c656d656e746174696f6e206973206e60448201526c1bdd08184818dbdb9d1c9858dd609a1b6064820152608401620001f1565b80620002237f360894a13ba1a3210667c828492db98dca3e2076cc3735a920a3ca505d382bbc60001b6200037760201b620001951760201c565b6060600080856001600160a01b03168560405162000317919062000577565b600060405180830381855af49150503d806000811462000354576040519150601f19603f3d011682016040523d82523d6000602084013e62000359565b606091505b5090925090506200036d8683838762000389565b9695505050505050565b90565b6001600160a01b03163b151590565b60608315620003fd578251600003620003f5576001600160a01b0385163b620003f55760405162461bcd60e51b815260206004820152601d60248201527f416464726573733a2063616c6c20746f206e6f6e2d636f6e74726163740000006044820152606401620001f1565b508162000409565b62000409838362000411565b949350505050565b815115620004225781518083602001fd5b8060405162461bcd60e51b8152600401620001f1919062000595565b80516001600160a01b03811681146200045657600080fd5b919050565b634e487b7160e01b600052604160045260246000fd5b60005b838110156200048e57818101518382015260200162000474565b50506000910152565b600080600060608486031215620004ad57600080fd5b620004b8846200043e565b9250620004c8602085016200043e565b60408501519092506001600160401b0380821115620004e657600080fd5b818601915086601f830112620004fb57600080fd5b8151818111156200051057620005106200045b565b604051601f8201601f19908116603f011681019083821181831017156200053b576200053b6200045b565b816040528281528960208487010111156200055557600080fd5b6200056883602083016020880162000471565b80955050505050509250925092565b600082516200058b81846020870162000471565b9190910192915050565b6020815260008251806020840152620005b681604085016020870162000471565b601f01601f19169190910160400192915050565b61086980620005da6000396000f3fe60806040523661001357610011610017565b005b6100115b61001f6101a7565b6001600160a01b0316330361015f5760606001600160e01b0319600035166364d3180d60e11b810161005a576100536101da565b9150610157565b63587086bd60e11b6001600160e01b031982160161007a57610053610231565b63070d7c6960e41b6001600160e01b031982160161009a57610053610277565b621eb96f60e61b6001600160e01b03198216016100b9576100536102a8565b63a39f25e560e01b6001600160e01b03198216016100d9576100536102e8565b60405162461bcd60e51b815260206004820152604260248201527f5472616e73706172656e745570677261646561626c6550726f78793a2061646d60448201527f696e2063616e6e6f742066616c6c6261636b20746f2070726f78792074617267606482015261195d60f21b608482015260a4015b60405180910390fd5b815160208301f35b6101676102fc565b565b606061018e83836040518060600160405280602781526020016108426027913961030c565b9392505050565b90565b6001600160a01b03163b151590565b60007fb53127684a568b3173ae13b9f8a6016e243e63b6e8ee1178d6a717850b5d61035b546001600160a01b0316919050565b60606101e4610384565b60006101f33660048184610695565b81019061020091906106db565b905061021d8160405180602001604052806000815250600061038f565b505060408051602081019091526000815290565b60606000806102433660048184610695565b810190610250919061070c565b915091506102608282600161038f565b604051806020016040528060008152509250505090565b6060610281610384565b60006102903660048184610695565b81019061029d91906106db565b905061021d816103bb565b60606102b2610384565b60006102bc6101a7565b604080516001600160a01b03831660208201529192500160405160208183030381529060405291505090565b60606102f2610384565b60006102bc610412565b610167610307610412565b610421565b6060600080856001600160a01b03168560405161032991906107f2565b600060405180830381855af49150503d8060008114610364576040519150601f19603f3d011682016040523d82523d6000602084013e610369565b606091505b509150915061037a86838387610445565b9695505050505050565b341561016757600080fd5b610398836104c6565b6000825111806103a55750805b156103b6576103b48383610169565b505b505050565b7f7e644d79422f17c01e4894b5f4f588d331ebfa28653d42ae832dc59e38c9798f6103e46101a7565b604080516001600160a01b03928316815291841660208301520160405180910390a161040f81610506565b50565b600061041c6105af565b905090565b3660008037600080366000845af43d6000803e808015610440573d6000f35b3d6000fd5b606083156104b45782516000036104ad576001600160a01b0385163b6104ad5760405162461bcd60e51b815260206004820152601d60248201527f416464726573733a2063616c6c20746f206e6f6e2d636f6e7472616374000000604482015260640161014e565b50816104be565b6104be83836105d7565b949350505050565b6104cf81610601565b6040516001600160a01b038216907fbc7cd75a20ee27fd9adebab32041f755214dbc6bffa90cc0225b39da2e5c2d3b90600090a250565b6001600160a01b03811661056b5760405162461bcd60e51b815260206004820152602660248201527f455243313936373a206e65772061646d696e20697320746865207a65726f206160448201526564647265737360d01b606482015260840161014e565b807fb53127684a568b3173ae13b9f8a6016e243e63b6e8ee1178d6a717850b5d61035b80546001600160a01b0319166001600160a01b039290921691909117905550565b60007f360894a13ba1a3210667c828492db98dca3e2076cc3735a920a3ca505d382bbc6101cb565b8151156105e75781518083602001fd5b8060405162461bcd60e51b815260040161014e919061080e565b6001600160a01b0381163b61066e5760405162461bcd60e51b815260206004820152602d60248201527f455243313936373a206e657720696d706c656d656e746174696f6e206973206e60448201526c1bdd08184818dbdb9d1c9858dd609a1b606482015260840161014e565b807f360894a13ba1a3210667c828492db98dca3e2076cc3735a920a3ca505d382bbc61058e565b600080858511156106a557600080fd5b838611156106b257600080fd5b5050820193919092039150565b80356001600160a01b03811681146106d657600080fd5b919050565b6000602082840312156106ed57600080fd5b61018e826106bf565b634e487b7160e01b600052604160045260246000fd5b6000806040838503121561071f57600080fd5b610728836106bf565b9150602083013567ffffffffffffffff8082111561074557600080fd5b818501915085601f83011261075957600080fd5b81358181111561076b5761076b6106f6565b604051601f8201601f19908116603f01168101908382118183101715610793576107936106f6565b816040528281528860208487010111156107ac57600080fd5b8260208601602083013760006020848301015280955050505050509250929050565b60005b838110156107e95781810151838201526020016107d1565b50506000910152565b600082516108048184602087016107ce565b9190910192915050565b602081526000825180602084015261082d8160408501602087016107ce565b601f01601f1916919091016040019291505056fe416464726573733a206c6f772d6c6576656c2064656c65676174652063616c6c206661696c6564b53127684a568b3173ae13b9f8a6016e243e63b6e8ee1178d6a717850b5d6103416464726573733a206c6f772d6c6576656c2064656c65676174652063616c6c206661696c6564000000000000000000000000f036896e9441ecaeb1b6d2fc1b982021eed2b4390000000000000000000000008471406c3bff67cc6538481c8550364bda6ca69100000000000000000000000000000000000000000000000000000000000000600000000000000000000000000000000000000000000000000000000000000000",
        "nonce": "0x1af",
        "chainId": "0xa4ec"
      },
      "additionalContracts": [],
      "isFixedGasLimit": false
    },
    {
      "hash": "0xf40516f9b17d3163c746741fa0cf8fdef8a8c8d9aee4dcd9f1424b5c3334cdb3",
      "transactionType": "CREATE2",
      "contractName": "TransparentUpgradeableProxy.0.8.18",
      "contractAddress": "0x88de45906d4f5a57315c133620cfa484cb297541",
      "function": null,
      "arguments": [
        "0xC22505D3A6aE087C0Bd4715a56C38b7A029477B2",
        "0x8471406C3Bff67Cc6538481C8550364bda6Ca691",
        "0x"
      ],
      "transaction": {
        "from": "0x5128e3c1f8846724cc1007af9b4189713922e4bb",
        "to": "0x4e59b44847b379578588920ca78fbf26c0b4956c",
        "gas": "0xc8d05",
        "value": "0x0",
        "input": "0x409cafe05bb8e1934d709e8f15720f9e2466eaddc204a2bbf4cf9cf074b32b4a608060405260405162000e8a38038062000e8a833981016040819052620000269162000497565b828162000036828260006200004d565b50620000449050826200008a565b505050620005ca565b6200005883620000e5565b600082511180620000665750805b1562000085576200008383836200012760201b620001691760201c565b505b505050565b7f7e644d79422f17c01e4894b5f4f588d331ebfa28653d42ae832dc59e38c9798f620000b562000156565b604080516001600160a01b03928316815291841660208301520160405180910390a1620000e2816200018f565b50565b620000f08162000244565b6040516001600160a01b038216907fbc7cd75a20ee27fd9adebab32041f755214dbc6bffa90cc0225b39da2e5c2d3b90600090a250565b60606200014f838360405180606001604052806027815260200162000e6360279139620002f8565b9392505050565b60006200018060008051602062000e4383398151915260001b6200037760201b620001951760201c565b546001600160a01b0316919050565b6001600160a01b038116620001fa5760405162461bcd60e51b815260206004820152602660248201527f455243313936373a206e65772061646d696e20697320746865207a65726f206160448201526564647265737360d01b60648201526084015b60405180910390fd5b806200022360008051602062000e4383398151915260001b6200037760201b620001951760201c565b80546001600160a01b0319166001600160a01b039290921691909117905550565b6200025a816200037a60201b620001981760201c565b620002be5760405162461bcd60e51b815260206004820152602d60248201527f455243313936373a206e657720696d706c656d656e746174696f6e206973206e60448201526c1bdd08184818dbdb9d1c9858dd609a1b6064820152608401620001f1565b80620002237f360894a13ba1a3210667c828492db98dca3e2076cc3735a920a3ca505d382bbc60001b6200037760201b620001951760201c565b6060600080856001600160a01b03168560405162000317919062000577565b600060405180830381855af49150503d806000811462000354576040519150601f19603f3d011682016040523d82523d6000602084013e62000359565b606091505b5090925090506200036d8683838762000389565b9695505050505050565b90565b6001600160a01b03163b151590565b60608315620003fd578251600003620003f5576001600160a01b0385163b620003f55760405162461bcd60e51b815260206004820152601d60248201527f416464726573733a2063616c6c20746f206e6f6e2d636f6e74726163740000006044820152606401620001f1565b508162000409565b62000409838362000411565b949350505050565b815115620004225781518083602001fd5b8060405162461bcd60e51b8152600401620001f1919062000595565b80516001600160a01b03811681146200045657600080fd5b919050565b634e487b7160e01b600052604160045260246000fd5b60005b838110156200048e57818101518382015260200162000474565b50506000910152565b600080600060608486031215620004ad57600080fd5b620004b8846200043e565b9250620004c8602085016200043e565b60408501519092506001600160401b0380821115620004e657600080fd5b818601915086601f830112620004fb57600080fd5b8151818111156200051057620005106200045b565b604051601f8201601f19908116603f011681019083821181831017156200053b576200053b6200045b565b816040528281528960208487010111156200055557600080fd5b6200056883602083016020880162000471565b80955050505050509250925092565b600082516200058b81846020870162000471565b9190910192915050565b6020815260008251806020840152620005b681604085016020870162000471565b601f01601f19169190910160400192915050565b61086980620005da6000396000f3fe60806040523661001357610011610017565b005b6100115b61001f6101a7565b6001600160a01b0316330361015f5760606001600160e01b0319600035166364d3180d60e11b810161005a576100536101da565b9150610157565b63587086bd60e11b6001600160e01b031982160161007a57610053610231565b63070d7c6960e41b6001600160e01b031982160161009a57610053610277565b621eb96f60e61b6001600160e01b03198216016100b9576100536102a8565b63a39f25e560e01b6001600160e01b03198216016100d9576100536102e8565b60405162461bcd60e51b815260206004820152604260248201527f5472616e73706172656e745570677261646561626c6550726f78793a2061646d60448201527f696e2063616e6e6f742066616c6c6261636b20746f2070726f78792074617267606482015261195d60f21b608482015260a4015b60405180910390fd5b815160208301f35b6101676102fc565b565b606061018e83836040518060600160405280602781526020016108426027913961030c565b9392505050565b90565b6001600160a01b03163b151590565b60007fb53127684a568b3173ae13b9f8a6016e243e63b6e8ee1178d6a717850b5d61035b546001600160a01b0316919050565b60606101e4610384565b60006101f33660048184610695565b81019061020091906106db565b905061021d8160405180602001604052806000815250600061038f565b505060408051602081019091526000815290565b60606000806102433660048184610695565b810190610250919061070c565b915091506102608282600161038f565b604051806020016040528060008152509250505090565b6060610281610384565b60006102903660048184610695565b81019061029d91906106db565b905061021d816103bb565b60606102b2610384565b60006102bc6101a7565b604080516001600160a01b03831660208201529192500160405160208183030381529060405291505090565b60606102f2610384565b60006102bc610412565b610167610307610412565b610421565b6060600080856001600160a01b03168560405161032991906107f2565b600060405180830381855af49150503d8060008114610364576040519150601f19603f3d011682016040523d82523d6000602084013e610369565b606091505b509150915061037a86838387610445565b9695505050505050565b341561016757600080fd5b610398836104c6565b6000825111806103a55750805b156103b6576103b48383610169565b505b505050565b7f7e644d79422f17c01e4894b5f4f588d331ebfa28653d42ae832dc59e38c9798f6103e46101a7565b604080516001600160a01b03928316815291841660208301520160405180910390a161040f81610506565b50565b600061041c6105af565b905090565b3660008037600080366000845af43d6000803e808015610440573d6000f35b3d6000fd5b606083156104b45782516000036104ad576001600160a01b0385163b6104ad5760405162461bcd60e51b815260206004820152601d60248201527f416464726573733a2063616c6c20746f206e6f6e2d636f6e7472616374000000604482015260640161014e565b50816104be565b6104be83836105d7565b949350505050565b6104cf81610601565b6040516001600160a01b038216907fbc7cd75a20ee27fd9adebab32041f755214dbc6bffa90cc0225b39da2e5c2d3b90600090a250565b6001600160a01b03811661056b5760405162461bcd60e51b815260206004820152602660248201527f455243313936373a206e65772061646d696e20697320746865207a65726f206160448201526564647265737360d01b606482015260840161014e565b807fb53127684a568b3173ae13b9f8a6016e243e63b6e8ee1178d6a717850b5d61035b80546001600160a01b0319166001600160a01b039290921691909117905550565b60007f360894a13ba1a3210667c828492db98dca3e2076cc3735a920a3ca505d382bbc6101cb565b8151156105e75781518083602001fd5b8060405162461bcd60e51b815260040161014e919061080e565b6001600160a01b0381163b61066e5760405162461bcd60e51b815260206004820152602d60248201527f455243313936373a206e657720696d706c656d656e746174696f6e206973206e60448201526c1bdd08184818dbdb9d1c9858dd609a1b606482015260840161014e565b807f360894a13ba1a3210667c828492db98dca3e2076cc3735a920a3ca505d382bbc61058e565b600080858511156106a557600080fd5b838611156106b257600080fd5b5050820193919092039150565b80356001600160a01b03811681146106d657600080fd5b919050565b6000602082840312156106ed57600080fd5b61018e826106bf565b634e487b7160e01b600052604160045260246000fd5b6000806040838503121561071f57600080fd5b610728836106bf565b9150602083013567ffffffffffffffff8082111561074557600080fd5b818501915085601f83011261075957600080fd5b81358181111561076b5761076b6106f6565b604051601f8201601f19908116603f01168101908382118183101715610793576107936106f6565b816040528281528860208487010111156107ac57600080fd5b8260208601602083013760006020848301015280955050505050509250929050565b60005b838110156107e95781810151838201526020016107d1565b50506000910152565b600082516108048184602087016107ce565b9190910192915050565b602081526000825180602084015261082d8160408501602087016107ce565b601f01601f1916919091016040019291505056fe416464726573733a206c6f772d6c6576656c2064656c65676174652063616c6c206661696c6564b53127684a568b3173ae13b9f8a6016e243e63b6e8ee1178d6a717850b5d6103416464726573733a206c6f772d6c6576656c2064656c65676174652063616c6c206661696c6564000000000000000000000000c22505d3a6ae087c0bd4715a56c38b7a029477b20000000000000000000000008471406c3bff67cc6538481c8550364bda6ca69100000000000000000000000000000000000000000000000000000000000000600000000000000000000000000000000000000000000000000000000000000000",
        "nonce": "0x1b0",
        "chainId": "0xa4ec"
      },
      "additionalContracts": [],
      "isFixedGasLimit": false
    },
    {
      "hash": "0x76793a2a0d33e553d97d94db722d61dd6f3f9480126ea782cc19e6aa835f6a82",
      "transactionType": "CREATE2",
      "contractName": "TransparentUpgradeableProxy.0.8.18",
      "contractAddress": "0x2ffbb49055d487ddbbb0c052cd7c2a02a7971e41",
      "function": null,
      "arguments": [
        "0xd9cE916d711977d5B27697a13964556b4fB8aF1d",
        "0x8471406C3Bff67Cc6538481C8550364bda6Ca691",
        "0x"
      ],
      "transaction": {
        "from": "0x5128e3c1f8846724cc1007af9b4189713922e4bb",
        "to": "0x4e59b44847b379578588920ca78fbf26c0b4956c",
        "gas": "0xc8d05",
        "value": "0x0",
        "input": "0xa0c935c049938d3e7e044936f7c2a6f11116b6ece8a283562e02241ef2fa9af4608060405260405162000e8a38038062000e8a833981016040819052620000269162000497565b828162000036828260006200004d565b50620000449050826200008a565b505050620005ca565b6200005883620000e5565b600082511180620000665750805b1562000085576200008383836200012760201b620001691760201c565b505b505050565b7f7e644d79422f17c01e4894b5f4f588d331ebfa28653d42ae832dc59e38c9798f620000b562000156565b604080516001600160a01b03928316815291841660208301520160405180910390a1620000e2816200018f565b50565b620000f08162000244565b6040516001600160a01b038216907fbc7cd75a20ee27fd9adebab32041f755214dbc6bffa90cc0225b39da2e5c2d3b90600090a250565b60606200014f838360405180606001604052806027815260200162000e6360279139620002f8565b9392505050565b60006200018060008051602062000e4383398151915260001b6200037760201b620001951760201c565b546001600160a01b0316919050565b6001600160a01b038116620001fa5760405162461bcd60e51b815260206004820152602660248201527f455243313936373a206e65772061646d696e20697320746865207a65726f206160448201526564647265737360d01b60648201526084015b60405180910390fd5b806200022360008051602062000e4383398151915260001b6200037760201b620001951760201c565b80546001600160a01b0319166001600160a01b039290921691909117905550565b6200025a816200037a60201b620001981760201c565b620002be5760405162461bcd60e51b815260206004820152602d60248201527f455243313936373a206e657720696d706c656d656e746174696f6e206973206e60448201526c1bdd08184818dbdb9d1c9858dd609a1b6064820152608401620001f1565b80620002237f360894a13ba1a3210667c828492db98dca3e2076cc3735a920a3ca505d382bbc60001b6200037760201b620001951760201c565b6060600080856001600160a01b03168560405162000317919062000577565b600060405180830381855af49150503d806000811462000354576040519150601f19603f3d011682016040523d82523d6000602084013e62000359565b606091505b5090925090506200036d8683838762000389565b9695505050505050565b90565b6001600160a01b03163b151590565b60608315620003fd578251600003620003f5576001600160a01b0385163b620003f55760405162461bcd60e51b815260206004820152601d60248201527f416464726573733a2063616c6c20746f206e6f6e2d636f6e74726163740000006044820152606401620001f1565b508162000409565b62000409838362000411565b949350505050565b815115620004225781518083602001fd5b8060405162461bcd60e51b8152600401620001f1919062000595565b80516001600160a01b03811681146200045657600080fd5b919050565b634e487b7160e01b600052604160045260246000fd5b60005b838110156200048e57818101518382015260200162000474565b50506000910152565b600080600060608486031215620004ad57600080fd5b620004b8846200043e565b9250620004c8602085016200043e565b60408501519092506001600160401b0380821115620004e657600080fd5b818601915086601f830112620004fb57600080fd5b8151818111156200051057620005106200045b565b604051601f8201601f19908116603f011681019083821181831017156200053b576200053b6200045b565b816040528281528960208487010111156200055557600080fd5b6200056883602083016020880162000471565b80955050505050509250925092565b600082516200058b81846020870162000471565b9190910192915050565b6020815260008251806020840152620005b681604085016020870162000471565b601f01601f19169190910160400192915050565b61086980620005da6000396000f3fe60806040523661001357610011610017565b005b6100115b61001f6101a7565b6001600160a01b0316330361015f5760606001600160e01b0319600035166364d3180d60e11b810161005a576100536101da565b9150610157565b63587086bd60e11b6001600160e01b031982160161007a57610053610231565b63070d7c6960e41b6001600160e01b031982160161009a57610053610277565b621eb96f60e61b6001600160e01b03198216016100b9576100536102a8565b63a39f25e560e01b6001600160e01b03198216016100d9576100536102e8565b60405162461bcd60e51b815260206004820152604260248201527f5472616e73706172656e745570677261646561626c6550726f78793a2061646d60448201527f696e2063616e6e6f742066616c6c6261636b20746f2070726f78792074617267606482015261195d60f21b608482015260a4015b60405180910390fd5b815160208301f35b6101676102fc565b565b606061018e83836040518060600160405280602781526020016108426027913961030c565b9392505050565b90565b6001600160a01b03163b151590565b60007fb53127684a568b3173ae13b9f8a6016e243e63b6e8ee1178d6a717850b5d61035b546001600160a01b0316919050565b60606101e4610384565b60006101f33660048184610695565b81019061020091906106db565b905061021d8160405180602001604052806000815250600061038f565b505060408051602081019091526000815290565b60606000806102433660048184610695565b810190610250919061070c565b915091506102608282600161038f565b604051806020016040528060008152509250505090565b6060610281610384565b60006102903660048184610695565b81019061029d91906106db565b905061021d816103bb565b60606102b2610384565b60006102bc6101a7565b604080516001600160a01b03831660208201529192500160405160208183030381529060405291505090565b60606102f2610384565b60006102bc610412565b610167610307610412565b610421565b6060600080856001600160a01b03168560405161032991906107f2565b600060405180830381855af49150503d8060008114610364576040519150601f19603f3d011682016040523d82523d6000602084013e610369565b606091505b509150915061037a86838387610445565b9695505050505050565b341561016757600080fd5b610398836104c6565b6000825111806103a55750805b156103b6576103b48383610169565b505b505050565b7f7e644d79422f17c01e4894b5f4f588d331ebfa28653d42ae832dc59e38c9798f6103e46101a7565b604080516001600160a01b03928316815291841660208301520160405180910390a161040f81610506565b50565b600061041c6105af565b905090565b3660008037600080366000845af43d6000803e808015610440573d6000f35b3d6000fd5b606083156104b45782516000036104ad576001600160a01b0385163b6104ad5760405162461bcd60e51b815260206004820152601d60248201527f416464726573733a2063616c6c20746f206e6f6e2d636f6e7472616374000000604482015260640161014e565b50816104be565b6104be83836105d7565b949350505050565b6104cf81610601565b6040516001600160a01b038216907fbc7cd75a20ee27fd9adebab32041f755214dbc6bffa90cc0225b39da2e5c2d3b90600090a250565b6001600160a01b03811661056b5760405162461bcd60e51b815260206004820152602660248201527f455243313936373a206e65772061646d696e20697320746865207a65726f206160448201526564647265737360d01b606482015260840161014e565b807fb53127684a568b3173ae13b9f8a6016e243e63b6e8ee1178d6a717850b5d61035b80546001600160a01b0319166001600160a01b039290921691909117905550565b60007f360894a13ba1a3210667c828492db98dca3e2076cc3735a920a3ca505d382bbc6101cb565b8151156105e75781518083602001fd5b8060405162461bcd60e51b815260040161014e919061080e565b6001600160a01b0381163b61066e5760405162461bcd60e51b815260206004820152602d60248201527f455243313936373a206e657720696d706c656d656e746174696f6e206973206e60448201526c1bdd08184818dbdb9d1c9858dd609a1b606482015260840161014e565b807f360894a13ba1a3210667c828492db98dca3e2076cc3735a920a3ca505d382bbc61058e565b600080858511156106a557600080fd5b838611156106b257600080fd5b5050820193919092039150565b80356001600160a01b03811681146106d657600080fd5b919050565b6000602082840312156106ed57600080fd5b61018e826106bf565b634e487b7160e01b600052604160045260246000fd5b6000806040838503121561071f57600080fd5b610728836106bf565b9150602083013567ffffffffffffffff8082111561074557600080fd5b818501915085601f83011261075957600080fd5b81358181111561076b5761076b6106f6565b604051601f8201601f19908116603f01168101908382118183101715610793576107936106f6565b816040528281528860208487010111156107ac57600080fd5b8260208601602083013760006020848301015280955050505050509250929050565b60005b838110156107e95781810151838201526020016107d1565b50506000910152565b600082516108048184602087016107ce565b9190910192915050565b602081526000825180602084015261082d8160408501602087016107ce565b601f01601f1916919091016040019291505056fe416464726573733a206c6f772d6c6576656c2064656c65676174652063616c6c206661696c6564b53127684a568b3173ae13b9f8a6016e243e63b6e8ee1178d6a717850b5d6103416464726573733a206c6f772d6c6576656c2064656c65676174652063616c6c206661696c6564000000000000000000000000d9ce916d711977d5b27697a13964556b4fb8af1d0000000000000000000000008471406c3bff67cc6538481c8550364bda6ca69100000000000000000000000000000000000000000000000000000000000000600000000000000000000000000000000000000000000000000000000000000000",
        "nonce": "0x1b1",
        "chainId": "0xa4ec"
      },
      "additionalContracts": [],
      "isFixedGasLimit": false
    },
    {
      "hash": "0x8839cabe36722d8acc87f0dfc0841e5a935a173f5d8476eb756688e6b025d116",
      "transactionType": "CREATE2",
      "contractName": "TransparentUpgradeableProxy.0.8.18",
      "contractAddress": "0x5557e9def86ad6564462741a7a3f3679c1223f5d",
      "function": null,
      "arguments": [
        "0x7288d592e1B9013c668801F722Be650993D2925A",
        "0x8471406C3Bff67Cc6538481C8550364bda6Ca691",
        "0x"
      ],
      "transaction": {
        "from": "0x5128e3c1f8846724cc1007af9b4189713922e4bb",
        "to": "0x4e59b44847b379578588920ca78fbf26c0b4956c",
        "gas": "0xc8d05",
        "value": "0x0",
        "input": "0x842f2fc6258959eb7adba1066c1d79584ef7981142363f84d4abdcb8021cef3e608060405260405162000e8a38038062000e8a833981016040819052620000269162000497565b828162000036828260006200004d565b50620000449050826200008a565b505050620005ca565b6200005883620000e5565b600082511180620000665750805b1562000085576200008383836200012760201b620001691760201c565b505b505050565b7f7e644d79422f17c01e4894b5f4f588d331ebfa28653d42ae832dc59e38c9798f620000b562000156565b604080516001600160a01b03928316815291841660208301520160405180910390a1620000e2816200018f565b50565b620000f08162000244565b6040516001600160a01b038216907fbc7cd75a20ee27fd9adebab32041f755214dbc6bffa90cc0225b39da2e5c2d3b90600090a250565b60606200014f838360405180606001604052806027815260200162000e6360279139620002f8565b9392505050565b60006200018060008051602062000e4383398151915260001b6200037760201b620001951760201c565b546001600160a01b0316919050565b6001600160a01b038116620001fa5760405162461bcd60e51b815260206004820152602660248201527f455243313936373a206e65772061646d696e20697320746865207a65726f206160448201526564647265737360d01b60648201526084015b60405180910390fd5b806200022360008051602062000e4383398151915260001b6200037760201b620001951760201c565b80546001600160a01b0319166001600160a01b039290921691909117905550565b6200025a816200037a60201b620001981760201c565b620002be5760405162461bcd60e51b815260206004820152602d60248201527f455243313936373a206e657720696d706c656d656e746174696f6e206973206e60448201526c1bdd08184818dbdb9d1c9858dd609a1b6064820152608401620001f1565b80620002237f360894a13ba1a3210667c828492db98dca3e2076cc3735a920a3ca505d382bbc60001b6200037760201b620001951760201c565b6060600080856001600160a01b03168560405162000317919062000577565b600060405180830381855af49150503d806000811462000354576040519150601f19603f3d011682016040523d82523d6000602084013e62000359565b606091505b5090925090506200036d8683838762000389565b9695505050505050565b90565b6001600160a01b03163b151590565b60608315620003fd578251600003620003f5576001600160a01b0385163b620003f55760405162461bcd60e51b815260206004820152601d60248201527f416464726573733a2063616c6c20746f206e6f6e2d636f6e74726163740000006044820152606401620001f1565b508162000409565b62000409838362000411565b949350505050565b815115620004225781518083602001fd5b8060405162461bcd60e51b8152600401620001f1919062000595565b80516001600160a01b03811681146200045657600080fd5b919050565b634e487b7160e01b600052604160045260246000fd5b60005b838110156200048e57818101518382015260200162000474565b50506000910152565b600080600060608486031215620004ad57600080fd5b620004b8846200043e565b9250620004c8602085016200043e565b60408501519092506001600160401b0380821115620004e657600080fd5b818601915086601f830112620004fb57600080fd5b8151818111156200051057620005106200045b565b604051601f8201601f19908116603f011681019083821181831017156200053b576200053b6200045b565b816040528281528960208487010111156200055557600080fd5b6200056883602083016020880162000471565b80955050505050509250925092565b600082516200058b81846020870162000471565b9190910192915050565b6020815260008251806020840152620005b681604085016020870162000471565b601f01601f19169190910160400192915050565b61086980620005da6000396000f3fe60806040523661001357610011610017565b005b6100115b61001f6101a7565b6001600160a01b0316330361015f5760606001600160e01b0319600035166364d3180d60e11b810161005a576100536101da565b9150610157565b63587086bd60e11b6001600160e01b031982160161007a57610053610231565b63070d7c6960e41b6001600160e01b031982160161009a57610053610277565b621eb96f60e61b6001600160e01b03198216016100b9576100536102a8565b63a39f25e560e01b6001600160e01b03198216016100d9576100536102e8565b60405162461bcd60e51b815260206004820152604260248201527f5472616e73706172656e745570677261646561626c6550726f78793a2061646d60448201527f696e2063616e6e6f742066616c6c6261636b20746f2070726f78792074617267606482015261195d60f21b608482015260a4015b60405180910390fd5b815160208301f35b6101676102fc565b565b606061018e83836040518060600160405280602781526020016108426027913961030c565b9392505050565b90565b6001600160a01b03163b151590565b60007fb53127684a568b3173ae13b9f8a6016e243e63b6e8ee1178d6a717850b5d61035b546001600160a01b0316919050565b60606101e4610384565b60006101f33660048184610695565b81019061020091906106db565b905061021d8160405180602001604052806000815250600061038f565b505060408051602081019091526000815290565b60606000806102433660048184610695565b810190610250919061070c565b915091506102608282600161038f565b604051806020016040528060008152509250505090565b6060610281610384565b60006102903660048184610695565b81019061029d91906106db565b905061021d816103bb565b60606102b2610384565b60006102bc6101a7565b604080516001600160a01b03831660208201529192500160405160208183030381529060405291505090565b60606102f2610384565b60006102bc610412565b610167610307610412565b610421565b6060600080856001600160a01b03168560405161032991906107f2565b600060405180830381855af49150503d8060008114610364576040519150601f19603f3d011682016040523d82523d6000602084013e610369565b606091505b509150915061037a86838387610445565b9695505050505050565b341561016757600080fd5b610398836104c6565b6000825111806103a55750805b156103b6576103b48383610169565b505b505050565b7f7e644d79422f17c01e4894b5f4f588d331ebfa28653d42ae832dc59e38c9798f6103e46101a7565b604080516001600160a01b03928316815291841660208301520160405180910390a161040f81610506565b50565b600061041c6105af565b905090565b3660008037600080366000845af43d6000803e808015610440573d6000f35b3d6000fd5b606083156104b45782516000036104ad576001600160a01b0385163b6104ad5760405162461bcd60e51b815260206004820152601d60248201527f416464726573733a2063616c6c20746f206e6f6e2d636f6e7472616374000000604482015260640161014e565b50816104be565b6104be83836105d7565b949350505050565b6104cf81610601565b6040516001600160a01b038216907fbc7cd75a20ee27fd9adebab32041f755214dbc6bffa90cc0225b39da2e5c2d3b90600090a250565b6001600160a01b03811661056b5760405162461bcd60e51b815260206004820152602660248201527f455243313936373a206e65772061646d696e20697320746865207a65726f206160448201526564647265737360d01b606482015260840161014e565b807fb53127684a568b3173ae13b9f8a6016e243e63b6e8ee1178d6a717850b5d61035b80546001600160a01b0319166001600160a01b039290921691909117905550565b60007f360894a13ba1a3210667c828492db98dca3e2076cc3735a920a3ca505d382bbc6101cb565b8151156105e75781518083602001fd5b8060405162461bcd60e51b815260040161014e919061080e565b6001600160a01b0381163b61066e5760405162461bcd60e51b815260206004820152602d60248201527f455243313936373a206e657720696d706c656d656e746174696f6e206973206e60448201526c1bdd08184818dbdb9d1c9858dd609a1b606482015260840161014e565b807f360894a13ba1a3210667c828492db98dca3e2076cc3735a920a3ca505d382bbc61058e565b600080858511156106a557600080fd5b838611156106b257600080fd5b5050820193919092039150565b80356001600160a01b03811681146106d657600080fd5b919050565b6000602082840312156106ed57600080fd5b61018e826106bf565b634e487b7160e01b600052604160045260246000fd5b6000806040838503121561071f57600080fd5b610728836106bf565b9150602083013567ffffffffffffffff8082111561074557600080fd5b818501915085601f83011261075957600080fd5b81358181111561076b5761076b6106f6565b604051601f8201601f19908116603f01168101908382118183101715610793576107936106f6565b816040528281528860208487010111156107ac57600080fd5b8260208601602083013760006020848301015280955050505050509250929050565b60005b838110156107e95781810151838201526020016107d1565b50506000910152565b600082516108048184602087016107ce565b9190910192915050565b602081526000825180602084015261082d8160408501602087016107ce565b601f01601f1916919091016040019291505056fe416464726573733a206c6f772d6c6576656c2064656c65676174652063616c6c206661696c6564b53127684a568b3173ae13b9f8a6016e243e63b6e8ee1178d6a717850b5d6103416464726573733a206c6f772d6c6576656c2064656c65676174652063616c6c206661696c65640000000000000000000000007288d592e1b9013c668801f722be650993d2925a0000000000000000000000008471406c3bff67cc6538481c8550364bda6ca69100000000000000000000000000000000000000000000000000000000000000600000000000000000000000000000000000000000000000000000000000000000",
        "nonce": "0x1b2",
        "chainId": "0xa4ec"
      },
      "additionalContracts": [],
      "isFixedGasLimit": false
    },
    {
      "hash": "0xe5c8c508557e8c51a69a6dc36c414b2d121f85064c177010ce88f0ed6a1cf73d",
      "transactionType": "CALL",
      "contractName": "TransparentUpgradeableProxy.0.8.18",
      "contractAddress": "0x94a3240f484a04f5e3d524f528d02694c109463b",
      "function": null,
      "arguments": null,
      "transaction": {
        "from": "0x5128e3c1f8846724cc1007af9b4189713922e4bb",
        "to": "0x94a3240f484a04f5e3d524f528d02694c109463b",
        "gas": "0x8567a",
        "value": "0x0",
        "input": "0x72a6b8b0000000000000000000000000000000000000000000000000000000000000ce1000000000000000000000000000000000000000000000000000000000bbf81e0000000000000000000000000000000000000000000000d3c21bcecceda100000000000000000000000000000000000000000000000000000000000000000000000000000000000000000000000000000000000000000000000000000000000000000000000000000000000000000000000000000000000000000000000000016000000000000000000000000000000000000000000000000000000000000001c000000000000000000000000000000000000000000000000000000000000000000000000000000000000000000000000000000000000000000000000000000000000000000000000000000000000000000000000000000000000000000000022000000000000000000000000000000000000000000000000000000000000002600000000000000000000000000000000000000000000000000000000000000002635553440000000000000000000000000000000000000000000000000000000063474c4400000000000000000000000000000000000000000000000000000000000000000000000000000000000000000000000000000000000000000000000200000000000000000000000000000000000000000000d3c21bcecceda0ffffff00000000000000000000000000000000000000000000000000000000000000010000000000000000000000000000000000000000000000000000000000000001000000000000000000000000765de816845861e75a25fca122bb6898b8b1282a000000000000000000000000000000000000000000000000000000000000000100000000000000000000000000000000000000000000d3c21bcecceda1000000",
        "nonce": "0x1b3",
        "chainId": "0xa4ec"
      },
      "additionalContracts": [],
      "isFixedGasLimit": false
    },
    {
      "hash": "0x719e764a6f79178b1ee284d0a974a9fca1f23a97c612e72b3feca3727d6436af",
      "transactionType": "CALL",
      "contractName": "TransparentUpgradeableProxy.0.8.18",
      "contractAddress": "0x2ffbb49055d487ddbbb0c052cd7c2a02a7971e41",
      "function": null,
      "arguments": null,
      "transaction": {
        "from": "0x5128e3c1f8846724cc1007af9b4189713922e4bb",
        "to": "0x2ffbb49055d487ddbbb0c052cd7c2a02a7971e41",
        "gas": "0x306c11",
        "value": "0x0",
        "input": "0xf8c8765e00000000000000000000000088de45906d4f5a57315c133620cfa484cb29754100000000000000000000000094a3240f484a04f5e3d524f528d02694c109463b0000000000000000000000005557e9def86ad6564462741a7a3f3679c1223f5d000000000000000000000000495d133b938596c9984d462f007b676bdc57ecec",
        "nonce": "0x1b4",
        "chainId": "0xa4ec"
      },
      "additionalContracts": [],
      "isFixedGasLimit": false
    },
    {
      "hash": "0x26f20241ec8ad3a8c67021d6ce54f829a5bd7dcf8dfa745af12fcb33758d796a",
      "transactionType": "CALL",
      "contractName": "TransparentUpgradeableProxy.0.8.18",
      "contractAddress": "0x5557e9def86ad6564462741a7a3f3679c1223f5d",
      "function": null,
      "arguments": null,
      "transaction": {
        "from": "0x5128e3c1f8846724cc1007af9b4189713922e4bb",
        "to": "0x5557e9def86ad6564462741a7a3f3679c1223f5d",
        "gas": "0x3a1f2",
        "value": "0x0",
        "input": "0xf8c8765e0000000000000000000000002ffbb49055d487ddbbb0c052cd7c2a02a7971e410000000000000000000000006b845effaf36c374e8e7cf543efa680f2f71f09800000000000000000000000094a3240f484a04f5e3d524f528d02694c109463b000000000000000000000000495d133b938596c9984d462f007b676bdc57ecec",
        "nonce": "0x1b5",
        "chainId": "0xa4ec"
      },
      "additionalContracts": [],
      "isFixedGasLimit": false
    },
    {
      "hash": "0xddb8d8476f75142ac198e66810f534d1903b36f047ebfa214f77a07435666154",
      "transactionType": "CALL",
      "contractName": "TransparentUpgradeableProxy.0.8.18",
      "contractAddress": "0x88de45906d4f5a57315c133620cfa484cb297541",
      "function": null,
      "arguments": null,
      "transaction": {
        "from": "0x5128e3c1f8846724cc1007af9b4189713922e4bb",
        "to": "0x88de45906d4f5a57315c133620cfa484cb297541",
        "gas": "0x34821",
        "value": "0x0",
        "input": "0x73cf25f80000000000000000000000000000000000000000000000000000000000000040000000000000000000000000000000000000000000000000000000000000008000000000000000000000000000000000000000000000000000000000000000010000000000000000000000002ffbb49055d487ddbbb0c052cd7c2a02a7971e41000000000000000000000000000000000000000000000000000000000000000100000000000000000000000094a3240f484a04f5e3d524f528d02694c109463b",
        "nonce": "0x1b6",
        "chainId": "0xa4ec"
      },
      "additionalContracts": [],
      "isFixedGasLimit": false
    },
    {
      "hash": "0x20ea27c09902fb4cad84c7c37f06d2c2757fedafcfcdbf7649c181e662ee31ef",
      "transactionType": "CALL",
      "contractName": "TransparentUpgradeableProxy.0.8.18",
      "contractAddress": "0x94a3240f484a04f5e3d524f528d02694c109463b",
      "function": null,
      "arguments": null,
      "transaction": {
        "from": "0x5128e3c1f8846724cc1007af9b4189713922e4bb",
        "to": "0x94a3240f484a04f5e3d524f528d02694c109463b",
        "gas": "0x215fa",
        "value": "0x0",
        "input": "0xd48bfca700000000000000000000000062b8b11039fcfe5ab0c56e502b1c372a3d2a9c7a",
        "nonce": "0x1b7",
        "chainId": "0xa4ec"
      },
      "additionalContracts": [],
      "isFixedGasLimit": false
    },
    {
      "hash": "0x20dcf8f947ac2d818875afab2a8b167baaf59b949c9a09a78cdf488fd953ff26",
      "transactionType": "CALL",
      "contractName": "TransparentUpgradeableProxy.0.8.18",
      "contractAddress": "0x94a3240f484a04f5e3d524f528d02694c109463b",
      "function": null,
      "arguments": null,
      "transaction": {
        "from": "0x5128e3c1f8846724cc1007af9b4189713922e4bb",
        "to": "0x94a3240f484a04f5e3d524f528d02694c109463b",
        "gas": "0x2352e",
        "value": "0x0",
        "input": "0xf0b7182b00000000000000000000000088de45906d4f5a57315c133620cfa484cb297541",
        "nonce": "0x1b8",
        "chainId": "0xa4ec"
      },
      "additionalContracts": [],
      "isFixedGasLimit": false
    },
    {
      "hash": "0xec74f99684ba0b7f28df0feb5b8d10f7208199dfd8e43d8b417a68f966120fcc",
      "transactionType": "CALL",
      "contractName": "TransparentUpgradeableProxy.0.8.18",
      "contractAddress": "0x94a3240f484a04f5e3d524f528d02694c109463b",
      "function": null,
      "arguments": null,
      "transaction": {
        "from": "0x5128e3c1f8846724cc1007af9b4189713922e4bb",
        "to": "0x94a3240f484a04f5e3d524f528d02694c109463b",
        "gas": "0x1371b",
        "value": "0x0",
        "input": "0xe7e31e7a000000000000000000000000495d133b938596c9984d462f007b676bdc57ecec",
        "nonce": "0x1b9",
        "chainId": "0xa4ec"
      },
      "additionalContracts": [],
      "isFixedGasLimit": false
    },
    {
      "hash": "0xd8da3b6d132f1c466318cedd273464abd76cb03e99f39a3ffd311673b24db284",
      "transactionType": "CALL",
      "contractName": "TransparentUpgradeableProxy.0.8.18",
      "contractAddress": "0x94a3240f484a04f5e3d524f528d02694c109463b",
      "function": null,
      "arguments": null,
      "transaction": {
        "from": "0x5128e3c1f8846724cc1007af9b4189713922e4bb",
        "to": "0x94a3240f484a04f5e3d524f528d02694c109463b",
        "gas": "0x215eb",
        "value": "0x0",
        "input": "0x22015968000000000000000000000000495d133b938596c9984d462f007b676bdc57ecec",
        "nonce": "0x1ba",
        "chainId": "0xa4ec"
      },
      "additionalContracts": [],
      "isFixedGasLimit": false
    },
    {
      "hash": "0x57c3ab186f499a7c5d97536b4c2c1295a412211aad7faff397bbbcc9da161d9b",
      "transactionType": "CALL",
      "contractName": "TransparentUpgradeableProxy.0.8.18",
      "contractAddress": "0x88de45906d4f5a57315c133620cfa484cb297541",
      "function": null,
      "arguments": null,
      "transaction": {
        "from": "0x5128e3c1f8846724cc1007af9b4189713922e4bb",
        "to": "0x88de45906d4f5a57315c133620cfa484cb297541",
        "gas": "0x174a2",
        "value": "0x0",
        "input": "0xa9b5aab3ba77f5c7bb3317643c6d81d1ef3f9913561741d92095f88efa402faf2cbe9124000000000000000000000000765de816845861e75a25fca122bb6898b8b1282a0000000000000000000000000000000000000000000000000000000000093a800000000000000000000000000000000000000000000000000000000000278d000000000000000000000000000000000000000000000000000000000000009c40000000000000000000000000000000000000000000000000000000000001388000000000000000000000000000000000000000000000000000000000000000000000000000000000000000000000000000000000000000000000000000000003",
        "nonce": "0x1bb",
        "chainId": "0xa4ec"
      },
      "additionalContracts": [],
      "isFixedGasLimit": false
    },
    {
      "hash": "0xa73ea9da72d0b51e62168608cf709c9118523ec08de28a44103bfaf582c3d3d7",
      "transactionType": "CALL",
      "contractName": "TransparentUpgradeableProxy.0.8.18",
      "contractAddress": "0x88de45906d4f5a57315c133620cfa484cb297541",
      "function": null,
      "arguments": null,
      "transaction": {
        "from": "0x5128e3c1f8846724cc1007af9b4189713922e4bb",
        "to": "0x88de45906d4f5a57315c133620cfa484cb297541",
        "gas": "0xccd8",
        "value": "0x0",
        "input": "0xf2fde38b000000000000000000000000495d133b938596c9984d462f007b676bdc57ecec",
        "nonce": "0x1bc",
        "chainId": "0xa4ec"
      },
      "additionalContracts": [],
      "isFixedGasLimit": false
    },
    {
      "hash": "0x4da1f6cfd7bcadd7690c48b137dccab13cc1de397afc05e5a08a3623142e1b37",
      "transactionType": "CALL",
      "contractName": "TransparentUpgradeableProxy.0.8.18",
      "contractAddress": "0x94a3240f484a04f5e3d524f528d02694c109463b",
      "function": null,
      "arguments": null,
      "transaction": {
        "from": "0x5128e3c1f8846724cc1007af9b4189713922e4bb",
        "to": "0x94a3240f484a04f5e3d524f528d02694c109463b",
        "gas": "0xc192",
        "value": "0x0",
        "input": "0xf2fde38b000000000000000000000000495d133b938596c9984d462f007b676bdc57ecec",
        "nonce": "0x1bd",
        "chainId": "0xa4ec"
      },
      "additionalContracts": [],
      "isFixedGasLimit": false
    },
    {
      "hash": "0x1356fce7d44377bf592a0792a18cfa163e5579fd3709c3c337c30f72ff06445e",
      "transactionType": "CALL",
      "contractName": "TransparentUpgradeableProxy.0.8.18",
      "contractAddress": "0x2ffbb49055d487ddbbb0c052cd7c2a02a7971e41",
      "function": null,
      "arguments": null,
      "transaction": {
        "from": "0x5128e3c1f8846724cc1007af9b4189713922e4bb",
        "to": "0x2ffbb49055d487ddbbb0c052cd7c2a02a7971e41",
        "gas": "0xc10c",
        "value": "0x0",
        "input": "0xf2fde38b000000000000000000000000495d133b938596c9984d462f007b676bdc57ecec",
        "nonce": "0x1be",
        "chainId": "0xa4ec"
      },
      "additionalContracts": [],
      "isFixedGasLimit": false
    },
    {
      "hash": "0x27c5f36ae84f237af52473b788ba17df7e816d11fa151b8bf22a5599ab3ae76b",
      "transactionType": "CALL",
      "contractName": "TransparentUpgradeableProxy.0.8.18",
      "contractAddress": "0x5557e9def86ad6564462741a7a3f3679c1223f5d",
      "function": null,
      "arguments": null,
      "transaction": {
        "from": "0x5128e3c1f8846724cc1007af9b4189713922e4bb",
        "to": "0x5557e9def86ad6564462741a7a3f3679c1223f5d",
        "gas": "0xc103",
        "value": "0x0",
        "input": "0xf2fde38b000000000000000000000000495d133b938596c9984d462f007b676bdc57ecec",
        "nonce": "0x1bf",
        "chainId": "0xa4ec"
      },
      "additionalContracts": [],
      "isFixedGasLimit": false
    }
  ],
  "receipts": [
    {
      "status": "0x1",
      "cumulativeGasUsed": "0xd7a88",
      "logs": [
        {
          "address": "0x8471406c3bff67cc6538481c8550364bda6ca691",
          "topics": [
            "0x8be0079c531659141344cd1fd0a4f28419497f9722a3daafe3b4186f6b6457e0",
            "0x0000000000000000000000000000000000000000000000000000000000000000",
            "0x0000000000000000000000005128e3c1f8846724cc1007af9b4189713922e4bb"
          ],
          "data": "0x",
          "blockHash": "0x823954648ea8ed53209773458231b6c1ace37748b95b355beb5dc148bd46147c",
          "blockNumber": "0x1df5e2f",
          "transactionHash": "0xc64852dd39141c033e657558a6cd523abc7fad01a18db6c059e64d12a14d8ca1",
          "transactionIndex": "0x5",
          "logIndex": "0xe",
          "removed": false
        }
      ],
      "logsBloom": "0x00000000000000000000000000000000000000000000000000800000000040000000000000000000000000000000000000000000000000000000000000000000000004000000000000000000000000000001000000000000000000000000000000000000020000000000000000000800000000000000200000000000000000400000800000000000000000000000000000000000000000000000000000000000000000000000000000000000000000000000000000000000000000000000000000000000000000000014000000000000000000000000000000000000000020000000000000000000000000000000000000000000000000000000000000000000",
      "type": "0x0",
      "transactionHash": "0xc64852dd39141c033e657558a6cd523abc7fad01a18db6c059e64d12a14d8ca1",
      "transactionIndex": "0x5",
      "blockHash": "0x823954648ea8ed53209773458231b6c1ace37748b95b355beb5dc148bd46147c",
      "blockNumber": "0x1df5e2f",
      "gasUsed": "0x69029",
      "effectiveGasPrice": "0x5d22cfc40",
      "from": "0x5128e3c1f8846724cc1007af9b4189713922e4bb",
      "to": null,
      "contractAddress": "0x8471406c3bff67cc6538481c8550364bda6ca691",
      "l1BaseFeeScalar": "0x0",
      "l1BlobBaseFee": "0x1",
      "l1BlobBaseFeeScalar": "0x0",
      "l1Fee": "0x0",
      "l1GasPrice": "0x15061770",
      "l1GasUsed": "0x462a"
    },
    {
      "status": "0x1",
      "cumulativeGasUsed": "0x1156e9",
      "logs": [
        {
          "address": "0x8471406c3bff67cc6538481c8550364bda6ca691",
          "topics": [
            "0x8be0079c531659141344cd1fd0a4f28419497f9722a3daafe3b4186f6b6457e0",
            "0x0000000000000000000000005128e3c1f8846724cc1007af9b4189713922e4bb",
            "0x000000000000000000000000495d133b938596c9984d462f007b676bdc57ecec"
          ],
          "data": "0x",
          "blockHash": "0xd930035ac75e64137c166349ff41e736203f4aca6af99a003eb819befc9b855a",
          "blockNumber": "0x1df5e30",
          "transactionHash": "0x630d2c2e4485b535706a8b6f3ed67431691c718d1f9ad01e60901653a819f146",
          "transactionIndex": "0x8",
          "logIndex": "0x20",
          "removed": false
        }
      ],
      "logsBloom": "0x20000000000000000000000000000000000000000800000000800000000040000000000000000000000000000000000000000000000000000000000000000000000004000000000000000000000000000001000000000000000000000000000000400000000000000000000000000000000000000000200000000000000000400000800000000000000000000000000000000000000000000000000000000000000000000000000000000000000000000000000000000000000000000000000000000000000000000014000000000000000000000000000000000000000000000000000000000000000000000000000000000000000000000000000000000000",
      "type": "0x0",
      "transactionHash": "0x630d2c2e4485b535706a8b6f3ed67431691c718d1f9ad01e60901653a819f146",
      "transactionIndex": "0x8",
      "blockHash": "0xd930035ac75e64137c166349ff41e736203f4aca6af99a003eb819befc9b855a",
      "blockNumber": "0x1df5e30",
      "gasUsed": "0x6faf",
      "effectiveGasPrice": "0x5d22cfc40",
      "from": "0x5128e3c1f8846724cc1007af9b4189713922e4bb",
      "to": "0x8471406c3bff67cc6538481c8550364bda6ca691",
      "contractAddress": null,
      "l1BaseFeeScalar": "0x0",
      "l1BlobBaseFee": "0x1",
      "l1BlobBaseFeeScalar": "0x0",
      "l1Fee": "0x0",
      "l1GasPrice": "0x15061770",
      "l1GasUsed": "0x640"
    },
    {
      "status": "0x1",
      "cumulativeGasUsed": "0x1a6d09",
      "logs": [
        {
          "address": "0x94a3240f484a04f5e3d524f528d02694c109463b",
          "topics": [
            "0xbc7cd75a20ee27fd9adebab32041f755214dbc6bffa90cc0225b39da2e5c2d3b",
            "0x000000000000000000000000f036896e9441ecaeb1b6d2fc1b982021eed2b439"
          ],
          "data": "0x",
          "blockHash": "0xd930035ac75e64137c166349ff41e736203f4aca6af99a003eb819befc9b855a",
          "blockNumber": "0x1df5e30",
          "transactionHash": "0x794f2789ee91c4519708886368171a64657285f62bd79fe150685e7cb41fe61f",
          "transactionIndex": "0x9",
          "logIndex": "0x21",
          "removed": false
        },
        {
          "address": "0x94a3240f484a04f5e3d524f528d02694c109463b",
          "topics": [
            "0x7e644d79422f17c01e4894b5f4f588d331ebfa28653d42ae832dc59e38c9798f"
          ],
          "data": "0x00000000000000000000000000000000000000000000000000000000000000000000000000000000000000008471406c3bff67cc6538481c8550364bda6ca691",
          "blockHash": "0xd930035ac75e64137c166349ff41e736203f4aca6af99a003eb819befc9b855a",
          "blockNumber": "0x1df5e30",
          "transactionHash": "0x794f2789ee91c4519708886368171a64657285f62bd79fe150685e7cb41fe61f",
          "transactionIndex": "0x9",
          "logIndex": "0x22",
          "removed": false
        }
      ],
      "logsBloom": "0x00000000000000000000000000000000400000000000000000000000000000000000000000000000000000000000000000000000000000000000000000000020000000000000000000000000000002000000000000000000000000000000000000000000000000000000000000000000000000800002000000000000000000000000000000000000000000000000000000000000000000000000000000800000000000000000000000000000000000000000000000000000000000000000000000000020000000000000000000000000080000000400000008000000000200800000000000000000000000000000000000000000000000000000000000000000",
      "type": "0x0",
      "transactionHash": "0x794f2789ee91c4519708886368171a64657285f62bd79fe150685e7cb41fe61f",
      "transactionIndex": "0x9",
      "blockHash": "0xd930035ac75e64137c166349ff41e736203f4aca6af99a003eb819befc9b855a",
      "blockNumber": "0x1df5e30",
      "gasUsed": "0x91620",
      "effectiveGasPrice": "0x5d22cfc40",
      "from": "0x5128e3c1f8846724cc1007af9b4189713922e4bb",
      "to": "0x4e59b44847b379578588920ca78fbf26c0b4956c",
      "contractAddress": null,
      "l1BaseFeeScalar": "0x0",
      "l1BlobBaseFee": "0x1",
      "l1BlobBaseFeeScalar": "0x0",
      "l1Fee": "0x0",
      "l1GasPrice": "0x15061770",
      "l1GasUsed": "0x84cc"
    },
    {
      "status": "0x1",
      "cumulativeGasUsed": "0x1e5558",
      "logs": [
        {
          "address": "0x88de45906d4f5a57315c133620cfa484cb297541",
          "topics": [
            "0xbc7cd75a20ee27fd9adebab32041f755214dbc6bffa90cc0225b39da2e5c2d3b",
            "0x000000000000000000000000c22505d3a6ae087c0bd4715a56c38b7a029477b2"
          ],
          "data": "0x",
          "blockHash": "0xf632754628cb58eeecb45ef678ca1a38f5e561253e31052aa2476e9476a9cd10",
          "blockNumber": "0x1df5e31",
          "transactionHash": "0xf40516f9b17d3163c746741fa0cf8fdef8a8c8d9aee4dcd9f1424b5c3334cdb3",
          "transactionIndex": "0xc",
          "logIndex": "0x2d",
          "removed": false
        },
        {
          "address": "0x88de45906d4f5a57315c133620cfa484cb297541",
          "topics": [
            "0x7e644d79422f17c01e4894b5f4f588d331ebfa28653d42ae832dc59e38c9798f"
          ],
          "data": "0x00000000000000000000000000000000000000000000000000000000000000000000000000000000000000008471406c3bff67cc6538481c8550364bda6ca691",
          "blockHash": "0xf632754628cb58eeecb45ef678ca1a38f5e561253e31052aa2476e9476a9cd10",
          "blockNumber": "0x1df5e31",
          "transactionHash": "0xf40516f9b17d3163c746741fa0cf8fdef8a8c8d9aee4dcd9f1424b5c3334cdb3",
          "transactionIndex": "0xc",
          "logIndex": "0x2e",
          "removed": false
        }
      ],
      "logsBloom": "0x00000000000000000000200000000000400000000000000000000000000000000000000000000000000000000000000000000000000000000000000002000000000000000000000000000000000002000000000000000004000000000000000000000000000000000000000000000000000000800000000000000000000000000000000000000000000000000000000000000000400000000000000000800000000000000800000000000000000000000000000000000000000010000000000000000020000000000000000000000000000000000400000000000000000000000000000000000000000000000000000000000000000000000000000000000000",
      "type": "0x0",
      "transactionHash": "0xf40516f9b17d3163c746741fa0cf8fdef8a8c8d9aee4dcd9f1424b5c3334cdb3",
      "transactionIndex": "0xc",
      "blockHash": "0xf632754628cb58eeecb45ef678ca1a38f5e561253e31052aa2476e9476a9cd10",
      "blockNumber": "0x1df5e31",
      "gasUsed": "0x9162c",
      "effectiveGasPrice": "0x5d22cfc40",
      "from": "0x5128e3c1f8846724cc1007af9b4189713922e4bb",
      "to": "0x4e59b44847b379578588920ca78fbf26c0b4956c",
      "contractAddress": null,
      "l1BaseFeeScalar": "0x0",
      "l1BlobBaseFee": "0x1",
      "l1BlobBaseFeeScalar": "0x0",
      "l1Fee": "0x0",
      "l1GasPrice": "0x15061770",
      "l1GasUsed": "0x84cc"
    },
    {
      "status": "0x1",
      "cumulativeGasUsed": "0x276b84",
      "logs": [
        {
          "address": "0x2ffbb49055d487ddbbb0c052cd7c2a02a7971e41",
          "topics": [
            "0xbc7cd75a20ee27fd9adebab32041f755214dbc6bffa90cc0225b39da2e5c2d3b",
            "0x000000000000000000000000d9ce916d711977d5b27697a13964556b4fb8af1d"
          ],
          "data": "0x",
          "blockHash": "0xf632754628cb58eeecb45ef678ca1a38f5e561253e31052aa2476e9476a9cd10",
          "blockNumber": "0x1df5e31",
          "transactionHash": "0x76793a2a0d33e553d97d94db722d61dd6f3f9480126ea782cc19e6aa835f6a82",
          "transactionIndex": "0xd",
          "logIndex": "0x2f",
          "removed": false
        },
        {
          "address": "0x2ffbb49055d487ddbbb0c052cd7c2a02a7971e41",
          "topics": [
            "0x7e644d79422f17c01e4894b5f4f588d331ebfa28653d42ae832dc59e38c9798f"
          ],
          "data": "0x00000000000000000000000000000000000000000000000000000000000000000000000000000000000000008471406c3bff67cc6538481c8550364bda6ca691",
          "blockHash": "0xf632754628cb58eeecb45ef678ca1a38f5e561253e31052aa2476e9476a9cd10",
          "blockNumber": "0x1df5e31",
          "transactionHash": "0x76793a2a0d33e553d97d94db722d61dd6f3f9480126ea782cc19e6aa835f6a82",
          "transactionIndex": "0xd",
          "logIndex": "0x30",
          "removed": false
        }
      ],
      "logsBloom": "0x00000000000000000000000000000000400040000008000000000000000000000000000000000000000000000000000000000000000000000000000000000000000000000000000000000000000002000000000000000000000000000000000000000000000000000000000000000000000000800000000000001000000000000000000000000000000000000000000000000000000000000000000000800000000000000000000000000000000000000000000040000000000000000000000000000020000000000000000000000000000000000400000000000000000000000000000000000000000000000000000000000000000000000010000000000000",
      "type": "0x0",
      "transactionHash": "0x76793a2a0d33e553d97d94db722d61dd6f3f9480126ea782cc19e6aa835f6a82",
      "transactionIndex": "0xd",
      "blockHash": "0xf632754628cb58eeecb45ef678ca1a38f5e561253e31052aa2476e9476a9cd10",
      "blockNumber": "0x1df5e31",
      "gasUsed": "0x9162c",
      "effectiveGasPrice": "0x5d22cfc40",
      "from": "0x5128e3c1f8846724cc1007af9b4189713922e4bb",
      "to": "0x4e59b44847b379578588920ca78fbf26c0b4956c",
      "contractAddress": null,
      "l1BaseFeeScalar": "0x0",
      "l1BlobBaseFee": "0x1",
      "l1BlobBaseFeeScalar": "0x0",
      "l1Fee": "0x0",
      "l1GasPrice": "0x15061770",
      "l1GasUsed": "0x84cc"
    },
    {
      "status": "0x1",
      "cumulativeGasUsed": "0x3081b0",
      "logs": [
        {
          "address": "0x5557e9def86ad6564462741a7a3f3679c1223f5d",
          "topics": [
            "0xbc7cd75a20ee27fd9adebab32041f755214dbc6bffa90cc0225b39da2e5c2d3b",
            "0x0000000000000000000000007288d592e1b9013c668801f722be650993d2925a"
          ],
          "data": "0x",
          "blockHash": "0xf632754628cb58eeecb45ef678ca1a38f5e561253e31052aa2476e9476a9cd10",
          "blockNumber": "0x1df5e31",
          "transactionHash": "0x8839cabe36722d8acc87f0dfc0841e5a935a173f5d8476eb756688e6b025d116",
          "transactionIndex": "0xe",
          "logIndex": "0x31",
          "removed": false
        },
        {
          "address": "0x5557e9def86ad6564462741a7a3f3679c1223f5d",
          "topics": [
            "0x7e644d79422f17c01e4894b5f4f588d331ebfa28653d42ae832dc59e38c9798f"
          ],
          "data": "0x00000000000000000000000000000000000000000000000000000000000000000000000000000000000000008471406c3bff67cc6538481c8550364bda6ca691",
          "blockHash": "0xf632754628cb58eeecb45ef678ca1a38f5e561253e31052aa2476e9476a9cd10",
          "blockNumber": "0x1df5e31",
          "transactionHash": "0x8839cabe36722d8acc87f0dfc0841e5a935a173f5d8476eb756688e6b025d116",
          "transactionIndex": "0xe",
          "logIndex": "0x32",
          "removed": false
        }
      ],
      "logsBloom": "0x00000000000000000000000000000000400000000000000000000000000000000000000000000000000000000000000000000000000080000000000000000000000000000000000000000000000002000000000000000008000000000000000000000000000000000000000000000000000000800000000000000000000000000000000000000000000000000000000000000000080000000000000000800000000000000000000000000000080000000000000000000000000000000000000000000020000000000000000000000000000000002400000000000000000000000000000000000000000000000000000000100000000000000000000000000000",
      "type": "0x0",
      "transactionHash": "0x8839cabe36722d8acc87f0dfc0841e5a935a173f5d8476eb756688e6b025d116",
      "transactionIndex": "0xe",
      "blockHash": "0xf632754628cb58eeecb45ef678ca1a38f5e561253e31052aa2476e9476a9cd10",
      "blockNumber": "0x1df5e31",
      "gasUsed": "0x9162c",
      "effectiveGasPrice": "0x5d22cfc40",
      "from": "0x5128e3c1f8846724cc1007af9b4189713922e4bb",
      "to": "0x4e59b44847b379578588920ca78fbf26c0b4956c",
      "contractAddress": null,
      "l1BaseFeeScalar": "0x0",
      "l1BlobBaseFee": "0x1",
      "l1BlobBaseFeeScalar": "0x0",
      "l1Fee": "0x0",
      "l1GasPrice": "0x15061770",
      "l1GasUsed": "0x84cc"
    },
    {
      "status": "0x1",
      "cumulativeGasUsed": "0x363529",
      "logs": [
        {
          "address": "0x94a3240f484a04f5e3d524f528d02694c109463b",
          "topics": [
            "0x8be0079c531659141344cd1fd0a4f28419497f9722a3daafe3b4186f6b6457e0",
            "0x0000000000000000000000000000000000000000000000000000000000000000",
            "0x0000000000000000000000005128e3c1f8846724cc1007af9b4189713922e4bb"
          ],
          "data": "0x",
          "blockHash": "0xf632754628cb58eeecb45ef678ca1a38f5e561253e31052aa2476e9476a9cd10",
          "blockNumber": "0x1df5e31",
          "transactionHash": "0xe5c8c508557e8c51a69a6dc36c414b2d121f85064c177010ce88f0ed6a1cf73d",
          "transactionIndex": "0xf",
          "logIndex": "0x33",
          "removed": false
        },
        {
          "address": "0x94a3240f484a04f5e3d524f528d02694c109463b",
          "topics": [
            "0x27fe5f0c1c3b1ed427cc63d0f05759ffdecf9aec9e18d31ef366fc8a6cb5dc3b",
            "0x000000000000000000000000000000000000000000000000000000000000ce10"
          ],
          "data": "0x",
          "blockHash": "0xf632754628cb58eeecb45ef678ca1a38f5e561253e31052aa2476e9476a9cd10",
          "blockNumber": "0x1df5e31",
          "transactionHash": "0xe5c8c508557e8c51a69a6dc36c414b2d121f85064c177010ce88f0ed6a1cf73d",
          "transactionIndex": "0xf",
          "logIndex": "0x34",
          "removed": false
        },
        {
          "address": "0x94a3240f484a04f5e3d524f528d02694c109463b",
          "topics": [
            "0x7bfe94ca3147f135fcd6d94ebf61d33fa34fbe904f933ccae66911b9548544f2"
          ],
          "data": "0x00000000000000000000000000000000000000000000000000000000bbf81e00",
          "blockHash": "0xf632754628cb58eeecb45ef678ca1a38f5e561253e31052aa2476e9476a9cd10",
          "blockNumber": "0x1df5e31",
          "transactionHash": "0xe5c8c508557e8c51a69a6dc36c414b2d121f85064c177010ce88f0ed6a1cf73d",
          "transactionIndex": "0xf",
          "logIndex": "0x35",
          "removed": false
        },
        {
          "address": "0x94a3240f484a04f5e3d524f528d02694c109463b",
          "topics": [
            "0xb08f0607338ad77f5b08ccf831e533cefcc2d373c173e87a8f61144f1d82be1e"
          ],
          "data": "0x00000000000000000000000000000000000000000000d3c21bcecceda1000000",
          "blockHash": "0xf632754628cb58eeecb45ef678ca1a38f5e561253e31052aa2476e9476a9cd10",
          "blockNumber": "0x1df5e31",
          "transactionHash": "0xe5c8c508557e8c51a69a6dc36c414b2d121f85064c177010ce88f0ed6a1cf73d",
          "transactionIndex": "0xf",
          "logIndex": "0x36",
          "removed": false
        },
        {
          "address": "0x94a3240f484a04f5e3d524f528d02694c109463b",
          "topics": [
            "0x55b488abd19ae7621712324d3d42c2ef7a9575f64f5503103286a1161fb40855"
          ],
          "data": "0x000000000000000000000000000000000000000000000000000000000000004000000000000000000000000000000000000000000000000000000000000000a00000000000000000000000000000000000000000000000000000000000000002635553440000000000000000000000000000000000000000000000000000000063474c4400000000000000000000000000000000000000000000000000000000000000000000000000000000000000000000000000000000000000000000000200000000000000000000000000000000000000000000d3c21bcecceda0ffffff0000000000000000000000000000000000000000000000000000000000000001",
          "blockHash": "0xf632754628cb58eeecb45ef678ca1a38f5e561253e31052aa2476e9476a9cd10",
          "blockNumber": "0x1df5e31",
          "transactionHash": "0xe5c8c508557e8c51a69a6dc36c414b2d121f85064c177010ce88f0ed6a1cf73d",
          "transactionIndex": "0xf",
          "logIndex": "0x37",
          "removed": false
        },
        {
          "address": "0x94a3240f484a04f5e3d524f528d02694c109463b",
          "topics": [
            "0xfe69856ffb1b1d6cb00c1d8151726e6e95032b1666282eeb293ecadd58b29a6e"
          ],
          "data": "0x0000000000000000000000000000000000000000000000000000000000000000",
          "blockHash": "0xf632754628cb58eeecb45ef678ca1a38f5e561253e31052aa2476e9476a9cd10",
          "blockNumber": "0x1df5e31",
          "transactionHash": "0xe5c8c508557e8c51a69a6dc36c414b2d121f85064c177010ce88f0ed6a1cf73d",
          "transactionIndex": "0xf",
          "logIndex": "0x38",
          "removed": false
        },
        {
          "address": "0x94a3240f484a04f5e3d524f528d02694c109463b",
          "topics": [
            "0x4da8e8b2223fbbb897200fb9dfb6b986c1b4188621114d407ee8ec363569fc37"
          ],
          "data": "0x0000000000000000000000000000000000000000000000000000000000000000",
          "blockHash": "0xf632754628cb58eeecb45ef678ca1a38f5e561253e31052aa2476e9476a9cd10",
          "blockNumber": "0x1df5e31",
          "transactionHash": "0xe5c8c508557e8c51a69a6dc36c414b2d121f85064c177010ce88f0ed6a1cf73d",
          "transactionIndex": "0xf",
          "logIndex": "0x39",
          "removed": false
        },
        {
          "address": "0x94a3240f484a04f5e3d524f528d02694c109463b",
          "topics": [
            "0x0c7515883121475b5d9289febf21a9de4ad53f18349a856d90c7acd6e099600b"
          ],
          "data": "0x000000000000000000000000765de816845861e75a25fca122bb6898b8b1282a",
          "blockHash": "0xf632754628cb58eeecb45ef678ca1a38f5e561253e31052aa2476e9476a9cd10",
          "blockNumber": "0x1df5e31",
          "transactionHash": "0xe5c8c508557e8c51a69a6dc36c414b2d121f85064c177010ce88f0ed6a1cf73d",
          "transactionIndex": "0xf",
          "logIndex": "0x3a",
          "removed": false
        },
        {
          "address": "0x94a3240f484a04f5e3d524f528d02694c109463b",
          "topics": [
            "0x15ff5079dfbf448e4bb45ac83498c2ecb0833ad35916946bb683ccb49f8013a3"
          ],
          "data": "0x000000000000000000000000765de816845861e75a25fca122bb6898b8b1282a00000000000000000000000000000000000000000000d3c21bcecceda1000000",
          "blockHash": "0xf632754628cb58eeecb45ef678ca1a38f5e561253e31052aa2476e9476a9cd10",
          "blockNumber": "0x1df5e31",
          "transactionHash": "0xe5c8c508557e8c51a69a6dc36c414b2d121f85064c177010ce88f0ed6a1cf73d",
          "transactionIndex": "0xf",
          "logIndex": "0x3b",
          "removed": false
        }
      ],
      "logsBloom": "0x0000000000000000100000000000000000000000000000000080000000000200000000000020000000000000000000000000000000000000003000000100000000400400000000000000000000000000400100000000000000000404000004008008000002000000000000000000080000000002000020000000000000000040000000000002400000000000000000010000000000000000000800000000000000000000000000000000000000000000000000000001000008000000000000000000000400000000000400000000000008080000008000000a000000000020800000000000000008000000000000000000000000000000000000100000000000",
      "type": "0x0",
      "transactionHash": "0xe5c8c508557e8c51a69a6dc36c414b2d121f85064c177010ce88f0ed6a1cf73d",
      "transactionIndex": "0xf",
      "blockHash": "0xf632754628cb58eeecb45ef678ca1a38f5e561253e31052aa2476e9476a9cd10",
      "blockNumber": "0x1df5e31",
      "gasUsed": "0x5b379",
      "effectiveGasPrice": "0x5d22cfc40",
      "from": "0x5128e3c1f8846724cc1007af9b4189713922e4bb",
      "to": "0x94a3240f484a04f5e3d524f528d02694c109463b",
      "contractAddress": null,
      "l1BaseFeeScalar": "0x0",
      "l1BlobBaseFee": "0x1",
      "l1BlobBaseFeeScalar": "0x0",
      "l1Fee": "0x0",
      "l1GasPrice": "0x15061770",
      "l1GasUsed": "0xb31"
    },
    {
      "status": "0x1",
      "cumulativeGasUsed": "0x5943b1",
      "logs": [
        {
          "address": "0x2ffbb49055d487ddbbb0c052cd7c2a02a7971e41",
          "topics": [
            "0x8be0079c531659141344cd1fd0a4f28419497f9722a3daafe3b4186f6b6457e0",
            "0x0000000000000000000000000000000000000000000000000000000000000000",
            "0x0000000000000000000000005128e3c1f8846724cc1007af9b4189713922e4bb"
          ],
          "data": "0x",
          "blockHash": "0xf632754628cb58eeecb45ef678ca1a38f5e561253e31052aa2476e9476a9cd10",
          "blockNumber": "0x1df5e31",
          "transactionHash": "0x719e764a6f79178b1ee284d0a974a9fca1f23a97c612e72b3feca3727d6436af",
          "transactionIndex": "0x10",
          "logIndex": "0x3c",
          "removed": false
        },
        {
          "address": "0x2ffbb49055d487ddbbb0c052cd7c2a02a7971e41",
          "topics": [
            "0x865dab7821134b6eb27cba259b40e33bbc1b898e970a535a18a83147f380a51f",
            "0x00000000000000000000000088de45906d4f5a57315c133620cfa484cb297541"
          ],
          "data": "0x",
          "blockHash": "0xf632754628cb58eeecb45ef678ca1a38f5e561253e31052aa2476e9476a9cd10",
          "blockNumber": "0x1df5e31",
          "transactionHash": "0x719e764a6f79178b1ee284d0a974a9fca1f23a97c612e72b3feca3727d6436af",
          "transactionIndex": "0x10",
          "logIndex": "0x3d",
          "removed": false
        },
        {
          "address": "0x2ffbb49055d487ddbbb0c052cd7c2a02a7971e41",
          "topics": [
            "0x0b248ab246a87e452fbedee8dc12dfc53e3f3bfdc6920999062c56dea4ab522a",
            "0x00000000000000000000000094a3240f484a04f5e3d524f528d02694c109463b"
          ],
          "data": "0x",
          "blockHash": "0xf632754628cb58eeecb45ef678ca1a38f5e561253e31052aa2476e9476a9cd10",
          "blockNumber": "0x1df5e31",
          "transactionHash": "0x719e764a6f79178b1ee284d0a974a9fca1f23a97c612e72b3feca3727d6436af",
          "transactionIndex": "0x10",
          "logIndex": "0x3e",
          "removed": false
        },
        {
          "address": "0x2ffbb49055d487ddbbb0c052cd7c2a02a7971e41",
          "topics": [
            "0x6791df7c014d19acfc9b7e3a5d48588a876b014fdd3321f193fef6b0ae785c24",
            "0x0000000000000000000000005557e9def86ad6564462741a7a3f3679c1223f5d"
          ],
          "data": "0x",
          "blockHash": "0xf632754628cb58eeecb45ef678ca1a38f5e561253e31052aa2476e9476a9cd10",
          "blockNumber": "0x1df5e31",
          "transactionHash": "0x719e764a6f79178b1ee284d0a974a9fca1f23a97c612e72b3feca3727d6436af",
          "transactionIndex": "0x10",
          "logIndex": "0x3f",
          "removed": false
        },
        {
          "address": "0x2ffbb49055d487ddbbb0c052cd7c2a02a7971e41",
          "topics": [
            "0x67b34afe551279f03ead7ef1a0ecd16bec18f83ab1a9834c7fda2627374aae9a",
            "0x000000000000000000000000495d133b938596c9984d462f007b676bdc57ecec"
          ],
          "data": "0x",
          "blockHash": "0xf632754628cb58eeecb45ef678ca1a38f5e561253e31052aa2476e9476a9cd10",
          "blockNumber": "0x1df5e31",
          "transactionHash": "0x719e764a6f79178b1ee284d0a974a9fca1f23a97c612e72b3feca3727d6436af",
          "transactionIndex": "0x10",
          "logIndex": "0x40",
          "removed": false
        },
        {
          "address": "0x2ffbb49055d487ddbbb0c052cd7c2a02a7971e41",
          "topics": [
            "0x7f26b83ff96e1f2b6a682f133852f6798a09c465da95921460cefb3847402498"
          ],
          "data": "0x0000000000000000000000000000000000000000000000000000000000000001",
          "blockHash": "0xf632754628cb58eeecb45ef678ca1a38f5e561253e31052aa2476e9476a9cd10",
          "blockNumber": "0x1df5e31",
          "transactionHash": "0x719e764a6f79178b1ee284d0a974a9fca1f23a97c612e72b3feca3727d6436af",
          "transactionIndex": "0x10",
          "logIndex": "0x41",
          "removed": false
        }
      ],
      "logsBloom": "0x20000000000000000000000000000000000040000800000000800000000000020000000000000000000000000000000000000000000000000000000000000000000084000000000000000001000000000001020000000000000000000000000000400000020200000200040000000800000000000000200000000000000801400000000000000000000004000000000000004000000080040400002000000000000000000000000000000010000400000001800040000000000000000000000000002000000000000004000000040000000000020000000000000000000020000000000000000000000000000000004000000000000002000010000000000000",
      "type": "0x0",
      "transactionHash": "0x719e764a6f79178b1ee284d0a974a9fca1f23a97c612e72b3feca3727d6436af",
      "transactionIndex": "0x10",
      "blockHash": "0xf632754628cb58eeecb45ef678ca1a38f5e561253e31052aa2476e9476a9cd10",
      "blockNumber": "0x1df5e31",
      "gasUsed": "0x230e88",
      "effectiveGasPrice": "0x5d22cfc40",
      "from": "0x5128e3c1f8846724cc1007af9b4189713922e4bb",
      "to": "0x2ffbb49055d487ddbbb0c052cd7c2a02a7971e41",
      "contractAddress": null,
      "l1BaseFeeScalar": "0x0",
      "l1BlobBaseFee": "0x1",
      "l1BlobBaseFeeScalar": "0x0",
      "l1Fee": "0x0",
      "l1GasPrice": "0x15061770",
      "l1GasUsed": "0x8c9"
    },
    {
      "status": "0x1",
      "cumulativeGasUsed": "0x5be4f5",
      "logs": [
        {
          "address": "0x5557e9def86ad6564462741a7a3f3679c1223f5d",
          "topics": [
            "0x8be0079c531659141344cd1fd0a4f28419497f9722a3daafe3b4186f6b6457e0",
            "0x0000000000000000000000000000000000000000000000000000000000000000",
            "0x0000000000000000000000005128e3c1f8846724cc1007af9b4189713922e4bb"
          ],
          "data": "0x",
          "blockHash": "0xf632754628cb58eeecb45ef678ca1a38f5e561253e31052aa2476e9476a9cd10",
          "blockNumber": "0x1df5e31",
          "transactionHash": "0x26f20241ec8ad3a8c67021d6ce54f829a5bd7dcf8dfa745af12fcb33758d796a",
          "transactionIndex": "0x11",
          "logIndex": "0x42",
          "removed": false
        },
        {
          "address": "0x5557e9def86ad6564462741a7a3f3679c1223f5d",
          "topics": [
            "0xbbee0329d0a3c6241c11b82178f5039a54f654d789f3d9cbb471bf12f0c77e8f",
            "0x0000000000000000000000002ffbb49055d487ddbbb0c052cd7c2a02a7971e41"
          ],
          "data": "0x",
          "blockHash": "0xf632754628cb58eeecb45ef678ca1a38f5e561253e31052aa2476e9476a9cd10",
          "blockNumber": "0x1df5e31",
          "transactionHash": "0x26f20241ec8ad3a8c67021d6ce54f829a5bd7dcf8dfa745af12fcb33758d796a",
          "transactionIndex": "0x11",
          "logIndex": "0x43",
          "removed": false
        },
        {
          "address": "0x5557e9def86ad6564462741a7a3f3679c1223f5d",
          "topics": [
            "0x37bb6eaf6f31a018c4328eb0343706d73df678b663b21b972351d2528f755af5",
            "0x0000000000000000000000006b845effaf36c374e8e7cf543efa680f2f71f098"
          ],
          "data": "0x",
          "blockHash": "0xf632754628cb58eeecb45ef678ca1a38f5e561253e31052aa2476e9476a9cd10",
          "blockNumber": "0x1df5e31",
          "transactionHash": "0x26f20241ec8ad3a8c67021d6ce54f829a5bd7dcf8dfa745af12fcb33758d796a",
          "transactionIndex": "0x11",
          "logIndex": "0x44",
          "removed": false
        },
        {
          "address": "0x5557e9def86ad6564462741a7a3f3679c1223f5d",
          "topics": [
            "0x0b248ab246a87e452fbedee8dc12dfc53e3f3bfdc6920999062c56dea4ab522a",
            "0x00000000000000000000000094a3240f484a04f5e3d524f528d02694c109463b"
          ],
          "data": "0x",
          "blockHash": "0xf632754628cb58eeecb45ef678ca1a38f5e561253e31052aa2476e9476a9cd10",
          "blockNumber": "0x1df5e31",
          "transactionHash": "0x26f20241ec8ad3a8c67021d6ce54f829a5bd7dcf8dfa745af12fcb33758d796a",
          "transactionIndex": "0x11",
          "logIndex": "0x45",
          "removed": false
        },
        {
          "address": "0x5557e9def86ad6564462741a7a3f3679c1223f5d",
          "topics": [
            "0x67b34afe551279f03ead7ef1a0ecd16bec18f83ab1a9834c7fda2627374aae9a",
            "0x000000000000000000000000495d133b938596c9984d462f007b676bdc57ecec"
          ],
          "data": "0x",
          "blockHash": "0xf632754628cb58eeecb45ef678ca1a38f5e561253e31052aa2476e9476a9cd10",
          "blockNumber": "0x1df5e31",
          "transactionHash": "0x26f20241ec8ad3a8c67021d6ce54f829a5bd7dcf8dfa745af12fcb33758d796a",
          "transactionIndex": "0x11",
          "logIndex": "0x46",
          "removed": false
        },
        {
          "address": "0x5557e9def86ad6564462741a7a3f3679c1223f5d",
          "topics": [
            "0x7f26b83ff96e1f2b6a682f133852f6798a09c465da95921460cefb3847402498"
          ],
          "data": "0x0000000000000000000000000000000000000000000000000000000000000001",
          "blockHash": "0xf632754628cb58eeecb45ef678ca1a38f5e561253e31052aa2476e9476a9cd10",
          "blockNumber": "0x1df5e31",
          "transactionHash": "0x26f20241ec8ad3a8c67021d6ce54f829a5bd7dcf8dfa745af12fcb33758d796a",
          "transactionIndex": "0x11",
          "logIndex": "0x47",
          "removed": false
        }
      ],
      "logsBloom": "0x20000000000400000000000000000000000000000800000000800000000000020000000010000000000000000200000000000020000000000000000000000000000004000000000000000000000000000201020000000008000000000000000000400000020200000000000000000800000000000000200000000000000000400000000000000000000004000000000000004000080080000000002000000000000000100080400000000010080400000001000000000000000000000000000000002000000800000006000000040000000000002000000000000000000020000000000000000000000000000000000000000000000002000000000000000000",
      "type": "0x0",
      "transactionHash": "0x26f20241ec8ad3a8c67021d6ce54f829a5bd7dcf8dfa745af12fcb33758d796a",
      "transactionIndex": "0x11",
      "blockHash": "0xf632754628cb58eeecb45ef678ca1a38f5e561253e31052aa2476e9476a9cd10",
      "blockNumber": "0x1df5e31",
      "gasUsed": "0x2a144",
      "effectiveGasPrice": "0x5d22cfc40",
      "from": "0x5128e3c1f8846724cc1007af9b4189713922e4bb",
      "to": "0x5557e9def86ad6564462741a7a3f3679c1223f5d",
      "contractAddress": null,
      "l1BaseFeeScalar": "0x0",
      "l1BlobBaseFee": "0x1",
      "l1BlobBaseFeeScalar": "0x0",
      "l1Fee": "0x0",
      "l1GasPrice": "0x15061770",
      "l1GasUsed": "0x8c9"
    },
    {
      "status": "0x1",
      "cumulativeGasUsed": "0xa7551",
      "logs": [
        {
          "address": "0x88de45906d4f5a57315c133620cfa484cb297541",
          "topics": [
            "0x8be0079c531659141344cd1fd0a4f28419497f9722a3daafe3b4186f6b6457e0",
            "0x0000000000000000000000000000000000000000000000000000000000000000",
            "0x0000000000000000000000005128e3c1f8846724cc1007af9b4189713922e4bb"
          ],
          "data": "0x",
          "blockHash": "0x1c64853e5b69b6d8c5a59a9fdb0669ee829092fdb0316471d90b625775128be0",
          "blockNumber": "0x1df5e32",
          "transactionHash": "0xddb8d8476f75142ac198e66810f534d1903b36f047ebfa214f77a07435666154",
          "transactionIndex": "0x4",
          "logIndex": "0x10",
          "removed": false
        },
        {
          "address": "0x88de45906d4f5a57315c133620cfa484cb297541",
          "topics": [
            "0x2ee2cb0721ec60b86190cae5c48e25064b69b35abad32452a4ec99d232033de2",
            "0x0000000000000000000000002ffbb49055d487ddbbb0c052cd7c2a02a7971e41"
          ],
          "data": "0x",
          "blockHash": "0x1c64853e5b69b6d8c5a59a9fdb0669ee829092fdb0316471d90b625775128be0",
          "blockNumber": "0x1df5e32",
          "transactionHash": "0xddb8d8476f75142ac198e66810f534d1903b36f047ebfa214f77a07435666154",
          "transactionIndex": "0x4",
          "logIndex": "0x11",
          "removed": false
        },
        {
          "address": "0x88de45906d4f5a57315c133620cfa484cb297541",
          "topics": [
            "0xb69e1c416d8be92ac92c8e97e77c4626fba5e6ab50161099f659ea3303479e50",
            "0x0000000000000000000000002ffbb49055d487ddbbb0c052cd7c2a02a7971e41",
            "0x00000000000000000000000094a3240f484a04f5e3d524f528d02694c109463b"
          ],
          "data": "0x",
          "blockHash": "0x1c64853e5b69b6d8c5a59a9fdb0669ee829092fdb0316471d90b625775128be0",
          "blockNumber": "0x1df5e32",
          "transactionHash": "0xddb8d8476f75142ac198e66810f534d1903b36f047ebfa214f77a07435666154",
          "transactionIndex": "0x4",
          "logIndex": "0x12",
          "removed": false
        }
      ],
      "logsBloom": "0x00000000000500100000000000000000000000000000000000800000000000000000000000000000000000000200000000000000000000000000000002080000000004000000000000000000000000000001000000000004000000000000000000000000020000000000000000000800000000000000200000000000000000400000000000001000000000000000000000004000000000000000000000000000000000000080000000000030000000000001000000000200000010000000000000000000000000000004000000000000000000000000000000000000000020000000000000000000000000000000000000000000000000000000000000000000",
      "type": "0x0",
      "transactionHash": "0xddb8d8476f75142ac198e66810f534d1903b36f047ebfa214f77a07435666154",
      "transactionIndex": "0x4",
      "blockHash": "0x1c64853e5b69b6d8c5a59a9fdb0669ee829092fdb0316471d90b625775128be0",
      "blockNumber": "0x1df5e32",
      "gasUsed": "0x23e73",
      "effectiveGasPrice": "0x5d22cfc40",
      "from": "0x5128e3c1f8846724cc1007af9b4189713922e4bb",
      "to": "0x88de45906d4f5a57315c133620cfa484cb297541",
      "contractAddress": null,
      "l1BaseFeeScalar": "0x0",
      "l1BlobBaseFee": "0x1",
      "l1BlobBaseFeeScalar": "0x0",
      "l1Fee": "0x0",
      "l1GasPrice": "0x15061770",
      "l1GasUsed": "0x752"
    },
    {
      "status": "0x1",
      "cumulativeGasUsed": "0xbf7e9",
      "logs": [
        {
          "address": "0x94a3240f484a04f5e3d524f528d02694c109463b",
          "topics": [
            "0x784c8f4dbf0ffedd6e72c76501c545a70f8b203b30a26ce542bf92ba87c248a4",
            "0x00000000000000000000000062b8b11039fcfe5ab0c56e502b1c372a3d2a9c7a"
          ],
          "data": "0x",
          "blockHash": "0x1c64853e5b69b6d8c5a59a9fdb0669ee829092fdb0316471d90b625775128be0",
          "blockNumber": "0x1df5e32",
          "transactionHash": "0x20ea27c09902fb4cad84c7c37f06d2c2757fedafcfcdbf7649c181e662ee31ef",
          "transactionIndex": "0x5",
          "logIndex": "0x13",
          "removed": false
        }
      ],
      "logsBloom": "0x00000000000000000000000000000000000000000000000000000000000040000000000000000000000000000000000000000000000000000000000000000000000000000000000000000000000000000000000000000000000000000000000000000000000000000000000000000000100000000000200000000000000000000000000000000000000000000000000000000000000000000000000000000000000000000000000000280000000000000000000000000000000000000000000000000000000000000000000000000000080000000000000008000000000000800000000000000000000000000000000000000000000000001000000000000000",
      "type": "0x0",
      "transactionHash": "0x20ea27c09902fb4cad84c7c37f06d2c2757fedafcfcdbf7649c181e662ee31ef",
      "transactionIndex": "0x5",
      "blockHash": "0x1c64853e5b69b6d8c5a59a9fdb0669ee829092fdb0316471d90b625775128be0",
      "blockNumber": "0x1df5e32",
      "gasUsed": "0x18298",
      "effectiveGasPrice": "0x5d22cfc40",
      "from": "0x5128e3c1f8846724cc1007af9b4189713922e4bb",
      "to": "0x94a3240f484a04f5e3d524f528d02694c109463b",
      "contractAddress": null,
      "l1BaseFeeScalar": "0x0",
      "l1BlobBaseFee": "0x1",
      "l1BlobBaseFeeScalar": "0x0",
      "l1Fee": "0x0",
      "l1GasPrice": "0x15061770",
      "l1GasUsed": "0x640"
    },
    {
      "status": "0x1",
      "cumulativeGasUsed": "0xd7a5c",
      "logs": [
        {
          "address": "0x94a3240f484a04f5e3d524f528d02694c109463b",
          "topics": [
            "0x71bccdb89fff4d914e3d2e472b327e3debaf4c4d6f1dfe528f430447e4cbcf5f",
            "0x00000000000000000000000088de45906d4f5a57315c133620cfa484cb297541"
          ],
          "data": "0x",
          "blockHash": "0x1c64853e5b69b6d8c5a59a9fdb0669ee829092fdb0316471d90b625775128be0",
          "blockNumber": "0x1df5e32",
          "transactionHash": "0x20dcf8f947ac2d818875afab2a8b167baaf59b949c9a09a78cdf488fd953ff26",
          "transactionIndex": "0x6",
          "logIndex": "0x14",
          "removed": false
        }
      ],
      "logsBloom": "0x00000000000000000000000000000000000000000000000000000000000000000000000000000000000000000000000000000000000000000000000000000000000080000000000000000000000000000000000000000000000000000000000000000000000000000240000000000000000000000000000000000000000000000000000000000000000000000000000000000000000000040000000000000000000000000000000000000000000000000000000000000000008000000000000000000000000000000000000000000000080000000000000008000000000000800000000000000000000000000000000004000000000000000000000000000000",
      "type": "0x0",
      "transactionHash": "0x20dcf8f947ac2d818875afab2a8b167baaf59b949c9a09a78cdf488fd953ff26",
      "transactionIndex": "0x6",
      "blockHash": "0x1c64853e5b69b6d8c5a59a9fdb0669ee829092fdb0316471d90b625775128be0",
      "blockNumber": "0x1df5e32",
      "gasUsed": "0x18273",
      "effectiveGasPrice": "0x5d22cfc40",
      "from": "0x5128e3c1f8846724cc1007af9b4189713922e4bb",
      "to": "0x94a3240f484a04f5e3d524f528d02694c109463b",
      "contractAddress": null,
      "l1BaseFeeScalar": "0x0",
      "l1BlobBaseFee": "0x1",
      "l1BlobBaseFeeScalar": "0x0",
      "l1Fee": "0x0",
      "l1GasPrice": "0x15061770",
      "l1GasUsed": "0x640"
    },
    {
      "status": "0x1",
      "cumulativeGasUsed": "0xe4f15",
      "logs": [
        {
          "address": "0x94a3240f484a04f5e3d524f528d02694c109463b",
          "topics": [
            "0x3139419c41cdd7abca84fa19dd21118cd285d3e2ce1a9444e8161ce9fa62fdcd",
            "0x000000000000000000000000495d133b938596c9984d462f007b676bdc57ecec"
          ],
          "data": "0x",
          "blockHash": "0x1c64853e5b69b6d8c5a59a9fdb0669ee829092fdb0316471d90b625775128be0",
          "blockNumber": "0x1df5e32",
          "transactionHash": "0xec74f99684ba0b7f28df0feb5b8d10f7208199dfd8e43d8b417a68f966120fcc",
          "transactionIndex": "0x7",
          "logIndex": "0x15",
          "removed": false
        }
      ],
      "logsBloom": "0x20000000000000000000000000000000000000000800000000000000000000000000000000000000000000000000000000000000000000000000000000000000000000000000000000000000000000000000000000000000400000000000000000400000000000000000000000000000000000000000000000000000000000000000000000000000000000000000000000000000000000000000000000000000000000000000000000000000000000000000000000000000000000000000000000000000000000000000000000000000080000000000000008000000000000800000000000000000000000000000000000000004000000000000000000000004",
      "type": "0x0",
      "transactionHash": "0xec74f99684ba0b7f28df0feb5b8d10f7208199dfd8e43d8b417a68f966120fcc",
      "transactionIndex": "0x7",
      "blockHash": "0x1c64853e5b69b6d8c5a59a9fdb0669ee829092fdb0316471d90b625775128be0",
      "blockNumber": "0x1df5e32",
      "gasUsed": "0xd4b9",
      "effectiveGasPrice": "0x5d22cfc40",
      "from": "0x5128e3c1f8846724cc1007af9b4189713922e4bb",
      "to": "0x94a3240f484a04f5e3d524f528d02694c109463b",
      "contractAddress": null,
      "l1BaseFeeScalar": "0x0",
      "l1BlobBaseFee": "0x1",
      "l1BlobBaseFeeScalar": "0x0",
      "l1Fee": "0x0",
      "l1GasPrice": "0x15061770",
      "l1GasUsed": "0x640"
    },
    {
      "status": "0x1",
      "cumulativeGasUsed": "0xfd1a2",
      "logs": [
        {
          "address": "0x94a3240f484a04f5e3d524f528d02694c109463b",
          "topics": [
            "0xd78793225285ecf9cf5f0f84b1cdc335c2cb4d6810ff0b9fd156ad6026c89cea",
            "0x000000000000000000000000495d133b938596c9984d462f007b676bdc57ecec"
          ],
          "data": "0x",
          "blockHash": "0x1c64853e5b69b6d8c5a59a9fdb0669ee829092fdb0316471d90b625775128be0",
          "blockNumber": "0x1df5e32",
          "transactionHash": "0xd8da3b6d132f1c466318cedd273464abd76cb03e99f39a3ffd311673b24db284",
          "transactionIndex": "0x8",
          "logIndex": "0x16",
          "removed": false
        }
      ],
      "logsBloom": "0x20000000000000000000000000000000000000000800000000000000000000000000000000000000000000000000000000000000000000000000000000000000000000000000000000000000000000000000000000000000000000000000000001400100000000000000000000000000000000000000000000000000000000000000000000000000000000000000000000000000000000000000000000000000000000000000000000000000000000000000000000000000000000000000000000000000000000000000000000000000080000000000000008000000000000800000000000000000000000000000000000000000000000000000010000000000",
      "type": "0x0",
      "transactionHash": "0xd8da3b6d132f1c466318cedd273464abd76cb03e99f39a3ffd311673b24db284",
      "transactionIndex": "0x8",
      "blockHash": "0x1c64853e5b69b6d8c5a59a9fdb0669ee829092fdb0316471d90b625775128be0",
      "blockNumber": "0x1df5e32",
      "gasUsed": "0x1828d",
      "effectiveGasPrice": "0x5d22cfc40",
      "from": "0x5128e3c1f8846724cc1007af9b4189713922e4bb",
      "to": "0x94a3240f484a04f5e3d524f528d02694c109463b",
      "contractAddress": null,
      "l1BaseFeeScalar": "0x0",
      "l1BlobBaseFee": "0x1",
      "l1BlobBaseFeeScalar": "0x0",
      "l1Fee": "0x0",
      "l1GasPrice": "0x15061770",
      "l1GasUsed": "0x640"
    },
    {
      "status": "0x1",
      "cumulativeGasUsed": "0x62ae1",
      "logs": [
        {
          "address": "0x88de45906d4f5a57315c133620cfa484cb297541",
          "topics": [
            "0x1a082a1efaf1549c18917ddcb1f759680c29371609e24f4b946e93acf4ce5ad2"
          ],
          "data": "0xba77f5c7bb3317643c6d81d1ef3f9913561741d92095f88efa402faf2cbe9124000000000000000000000000765de816845861e75a25fca122bb6898b8b1282a0000000000000000000000000000000000000000000000000000000000093a800000000000000000000000000000000000000000000000000000000000278d000000000000000000000000000000000000000000000000000000000000009c40000000000000000000000000000000000000000000000000000000000001388000000000000000000000000000000000000000000000000000000000000000000000000000000000000000000000000000000000000000000000000000000003",
          "blockHash": "0x0deca5d48edc5838200241add32df6f586775c6ad5a1c2b89e49446563465857",
          "blockNumber": "0x1df5e33",
          "transactionHash": "0x57c3ab186f499a7c5d97536b4c2c1295a412211aad7faff397bbbcc9da161d9b",
          "transactionIndex": "0x3",
          "logIndex": "0xd",
          "removed": false
        }
      ],
      "logsBloom": "0x00000000000000000000000000000000000000000000000000000000000000000000000000000000000000000000000000000000000000000000020002000000000000000000000000000000000000000000000000000004000000000000000000000000000000000000000000000000000000000000000000000000000000000000000000000000000000000000000000000000000000000000000000000000000000000000000000000000000000000000000000000000000010000000000000000000000000000000000000000000000000000000000000000000000000000000000000000000000000000000000000000000000010000010000000000000",
      "type": "0x0",
      "transactionHash": "0x57c3ab186f499a7c5d97536b4c2c1295a412211aad7faff397bbbcc9da161d9b",
      "transactionIndex": "0x3",
      "blockHash": "0x0deca5d48edc5838200241add32df6f586775c6ad5a1c2b89e49446563465857",
      "blockNumber": "0x1df5e33",
      "gasUsed": "0xfecb",
      "effectiveGasPrice": "0x5d22cfc40",
      "from": "0x5128e3c1f8846724cc1007af9b4189713922e4bb",
      "to": "0x88de45906d4f5a57315c133620cfa484cb297541",
      "contractAddress": null,
      "l1BaseFeeScalar": "0x0",
      "l1BlobBaseFee": "0x1",
      "l1BlobBaseFeeScalar": "0x0",
      "l1Fee": "0x0",
      "l1GasPrice": "0x15061770",
      "l1GasUsed": "0x8f1"
    },
    {
      "status": "0x1",
      "cumulativeGasUsed": "0x6b6f2",
      "logs": [
        {
          "address": "0x88de45906d4f5a57315c133620cfa484cb297541",
          "topics": [
            "0x8be0079c531659141344cd1fd0a4f28419497f9722a3daafe3b4186f6b6457e0",
            "0x0000000000000000000000005128e3c1f8846724cc1007af9b4189713922e4bb",
            "0x000000000000000000000000495d133b938596c9984d462f007b676bdc57ecec"
          ],
          "data": "0x",
          "blockHash": "0x0deca5d48edc5838200241add32df6f586775c6ad5a1c2b89e49446563465857",
          "blockNumber": "0x1df5e33",
          "transactionHash": "0xa73ea9da72d0b51e62168608cf709c9118523ec08de28a44103bfaf582c3d3d7",
          "transactionIndex": "0x4",
          "logIndex": "0xe",
          "removed": false
        }
      ],
      "logsBloom": "0x20000000000000000000000000000000000000000800000000800000000000000000000000000000000000000000000000000000000000000000000002000000000004000000000000000000000000000001000000000004000000000000000000400000000000000000000000000000000000000000200000000000000000400000000000000000000000000000000000000000000000000000000000000000000000000000000000000000000000000000000000000000000010000000000000000000000000000004000000000000000000000000000000000000000000000000000000000000000000000000000000000000000000000000000000000000",
      "type": "0x0",
      "transactionHash": "0xa73ea9da72d0b51e62168608cf709c9118523ec08de28a44103bfaf582c3d3d7",
      "transactionIndex": "0x4",
      "blockHash": "0x0deca5d48edc5838200241add32df6f586775c6ad5a1c2b89e49446563465857",
      "blockNumber": "0x1df5e33",
      "gasUsed": "0x8c11",
      "effectiveGasPrice": "0x5d22cfc40",
      "from": "0x5128e3c1f8846724cc1007af9b4189713922e4bb",
      "to": "0x88de45906d4f5a57315c133620cfa484cb297541",
      "contractAddress": null,
      "l1BaseFeeScalar": "0x0",
      "l1BlobBaseFee": "0x1",
      "l1BlobBaseFeeScalar": "0x0",
      "l1Fee": "0x0",
      "l1GasPrice": "0x15061770",
      "l1GasUsed": "0x640"
    },
    {
      "status": "0x1",
      "cumulativeGasUsed": "0x74317",
      "logs": [
        {
          "address": "0x94a3240f484a04f5e3d524f528d02694c109463b",
          "topics": [
            "0x8be0079c531659141344cd1fd0a4f28419497f9722a3daafe3b4186f6b6457e0",
            "0x0000000000000000000000005128e3c1f8846724cc1007af9b4189713922e4bb",
            "0x000000000000000000000000495d133b938596c9984d462f007b676bdc57ecec"
          ],
          "data": "0x",
          "blockHash": "0x0deca5d48edc5838200241add32df6f586775c6ad5a1c2b89e49446563465857",
          "blockNumber": "0x1df5e33",
          "transactionHash": "0x4da1f6cfd7bcadd7690c48b137dccab13cc1de397afc05e5a08a3623142e1b37",
          "transactionIndex": "0x5",
          "logIndex": "0xf",
          "removed": false
        }
      ],
      "logsBloom": "0x20000000000000000000000000000000000000000800000000800000000000000000000000000000000000000000000000000000000000000000000000000000000004000000000000000000000000000001000000000000000000000000000000400000000000000000000000000000000000000000200000000000000000400000000000000000000000000000000000000000000000000000000000000000000000000000000000000000000000000000000000000000000000000000000000000000000000000004000000000000080000000000000008000000000000800000000000000000000000000000000000000000000000000000000000000000",
      "type": "0x0",
      "transactionHash": "0x4da1f6cfd7bcadd7690c48b137dccab13cc1de397afc05e5a08a3623142e1b37",
      "transactionIndex": "0x5",
      "blockHash": "0x0deca5d48edc5838200241add32df6f586775c6ad5a1c2b89e49446563465857",
      "blockNumber": "0x1df5e33",
      "gasUsed": "0x8c25",
      "effectiveGasPrice": "0x5d22cfc40",
      "from": "0x5128e3c1f8846724cc1007af9b4189713922e4bb",
      "to": "0x94a3240f484a04f5e3d524f528d02694c109463b",
      "contractAddress": null,
      "l1BaseFeeScalar": "0x0",
      "l1BlobBaseFee": "0x1",
      "l1BlobBaseFeeScalar": "0x0",
      "l1Fee": "0x0",
      "l1GasPrice": "0x15061770",
      "l1GasUsed": "0x640"
    },
    {
      "status": "0x1",
      "cumulativeGasUsed": "0x7cedb",
      "logs": [
        {
          "address": "0x2ffbb49055d487ddbbb0c052cd7c2a02a7971e41",
          "topics": [
            "0x8be0079c531659141344cd1fd0a4f28419497f9722a3daafe3b4186f6b6457e0",
            "0x0000000000000000000000005128e3c1f8846724cc1007af9b4189713922e4bb",
            "0x000000000000000000000000495d133b938596c9984d462f007b676bdc57ecec"
          ],
          "data": "0x",
          "blockHash": "0x0deca5d48edc5838200241add32df6f586775c6ad5a1c2b89e49446563465857",
          "blockNumber": "0x1df5e33",
          "transactionHash": "0x1356fce7d44377bf592a0792a18cfa163e5579fd3709c3c337c30f72ff06445e",
          "transactionIndex": "0x6",
          "logIndex": "0x10",
          "removed": false
        }
      ],
      "logsBloom": "0x20000000000000000000000000000000000040000800000000800000000000000000000000000000000000000000000000000000000000000000000000000000000004000000000000000000000000000001000000000000000000000000000000400000000000000000000000000000000000000000200000000000000000400000000000000000000000000000000000000000000000000000000000000000000000000000000000000000000000000000000040000000000000000000000000000000000000000004000000000000000000000000000000000000000000000000000000000000000000000000000000000000000000000010000000000000",
      "type": "0x0",
      "transactionHash": "0x1356fce7d44377bf592a0792a18cfa163e5579fd3709c3c337c30f72ff06445e",
      "transactionIndex": "0x6",
      "blockHash": "0x0deca5d48edc5838200241add32df6f586775c6ad5a1c2b89e49446563465857",
      "blockNumber": "0x1df5e33",
      "gasUsed": "0x8bc4",
      "effectiveGasPrice": "0x5d22cfc40",
      "from": "0x5128e3c1f8846724cc1007af9b4189713922e4bb",
      "to": "0x2ffbb49055d487ddbbb0c052cd7c2a02a7971e41",
      "contractAddress": null,
      "l1BaseFeeScalar": "0x0",
      "l1BlobBaseFee": "0x1",
      "l1BlobBaseFeeScalar": "0x0",
      "l1Fee": "0x0",
      "l1GasPrice": "0x15061770",
      "l1GasUsed": "0x640"
    },
    {
      "status": "0x1",
      "cumulativeGasUsed": "0x85a99",
      "logs": [
        {
          "address": "0x5557e9def86ad6564462741a7a3f3679c1223f5d",
          "topics": [
            "0x8be0079c531659141344cd1fd0a4f28419497f9722a3daafe3b4186f6b6457e0",
            "0x0000000000000000000000005128e3c1f8846724cc1007af9b4189713922e4bb",
            "0x000000000000000000000000495d133b938596c9984d462f007b676bdc57ecec"
          ],
          "data": "0x",
          "blockHash": "0x0deca5d48edc5838200241add32df6f586775c6ad5a1c2b89e49446563465857",
          "blockNumber": "0x1df5e33",
          "transactionHash": "0x27c5f36ae84f237af52473b788ba17df7e816d11fa151b8bf22a5599ab3ae76b",
          "transactionIndex": "0x7",
          "logIndex": "0x11",
          "removed": false
        }
      ],
      "logsBloom": "0x20000000000000000000000000000000000000000800000000800000000000000000000000000000000000000000000000000000000000000000000000000000000004000000000000000000000000000001000000000008000000000000000000400000000000000000000000000000000000000000200000000000000000400000000000000000000000000000000000000000080000000000000000000000000000000000000000000000000000000000000000000000000000000000000000000000000000000004000000000000000000002000000000000000000000000000000000000000000000000000000000000000000000000000000000000000",
      "type": "0x0",
      "transactionHash": "0x27c5f36ae84f237af52473b788ba17df7e816d11fa151b8bf22a5599ab3ae76b",
      "transactionIndex": "0x7",
      "blockHash": "0x0deca5d48edc5838200241add32df6f586775c6ad5a1c2b89e49446563465857",
      "blockNumber": "0x1df5e33",
      "gasUsed": "0x8bbe",
      "effectiveGasPrice": "0x5d22cfc40",
      "from": "0x5128e3c1f8846724cc1007af9b4189713922e4bb",
      "to": "0x5557e9def86ad6564462741a7a3f3679c1223f5d",
      "contractAddress": null,
      "l1BaseFeeScalar": "0x0",
      "l1BlobBaseFee": "0x1",
      "l1BlobBaseFeeScalar": "0x0",
      "l1Fee": "0x0",
      "l1GasPrice": "0x15061770",
      "l1GasUsed": "0x640"
    }
  ],
  "libraries": [],
  "pending": [],
  "returns": {},
  "timestamp": 1743316618,
  "chain": 42220,
  "commit": "10a5e83"
}