{
  "transactions": [
    {
      "hash": "0xf47f741278f346227ca3096f18259ece2c9e7d3153832d2182be235bae63ea4c",
      "transactionType": "CREATE",
      "contractName": "ProxyAdmin.0.8.18",
      "contractAddress": "0x9a0234633124b338ba83815633fd7b61d10a5036",
      "function": null,
      "arguments": null,
      "transaction": {
        "from": "0x5128e3c1f8846724cc1007af9b4189713922e4bb",
        "gas": "0x88835",
        "value": "0x0",
        "input": "0x608060405234801561001057600080fd5b5061001a3361001f565b61006f565b600080546001600160a01b038381166001600160a01b0319831681178455604051919092169283917f8be0079c531659141344cd1fd0a4f28419497f9722a3daafe3b4186f6b6457e09190a35050565b61065d8061007e6000396000f3fe60806040526004361061007b5760003560e01c80639623609d1161004e5780639623609d1461011157806399a88ec414610124578063f2fde38b14610144578063f3b7dead1461016457600080fd5b8063204e1c7a14610080578063715018a6146100bc5780637eff275e146100d35780638da5cb5b146100f3575b600080fd5b34801561008c57600080fd5b506100a061009b366004610499565b610184565b6040516001600160a01b03909116815260200160405180910390f35b3480156100c857600080fd5b506100d1610215565b005b3480156100df57600080fd5b506100d16100ee3660046104bd565b610229565b3480156100ff57600080fd5b506000546001600160a01b03166100a0565b6100d161011f36600461050c565b610291565b34801561013057600080fd5b506100d161013f3660046104bd565b610300565b34801561015057600080fd5b506100d161015f366004610499565b610336565b34801561017057600080fd5b506100a061017f366004610499565b6103b4565b6000806000836001600160a01b03166040516101aa90635c60da1b60e01b815260040190565b600060405180830381855afa9150503d80600081146101e5576040519150601f19603f3d011682016040523d82523d6000602084013e6101ea565b606091505b5091509150816101f957600080fd5b8080602001905181019061020d91906105e2565b949350505050565b61021d6103da565b6102276000610434565b565b6102316103da565b6040516308f2839760e41b81526001600160a01b038281166004830152831690638f283970906024015b600060405180830381600087803b15801561027557600080fd5b505af1158015610289573d6000803e3d6000fd5b505050505050565b6102996103da565b60405163278f794360e11b81526001600160a01b03841690634f1ef2869034906102c990869086906004016105ff565b6000604051808303818588803b1580156102e257600080fd5b505af11580156102f6573d6000803e3d6000fd5b5050505050505050565b6103086103da565b604051631b2ce7f360e11b81526001600160a01b038281166004830152831690633659cfe69060240161025b565b61033e6103da565b6001600160a01b0381166103a85760405162461bcd60e51b815260206004820152602660248201527f4f776e61626c653a206e6577206f776e657220697320746865207a65726f206160448201526564647265737360d01b60648201526084015b60405180910390fd5b6103b181610434565b50565b6000806000836001600160a01b03166040516101aa906303e1469160e61b815260040190565b6000546001600160a01b031633146102275760405162461bcd60e51b815260206004820181905260248201527f4f776e61626c653a2063616c6c6572206973206e6f7420746865206f776e6572604482015260640161039f565b600080546001600160a01b038381166001600160a01b0319831681178455604051919092169283917f8be0079c531659141344cd1fd0a4f28419497f9722a3daafe3b4186f6b6457e09190a35050565b6001600160a01b03811681146103b157600080fd5b6000602082840312156104ab57600080fd5b81356104b681610484565b9392505050565b600080604083850312156104d057600080fd5b82356104db81610484565b915060208301356104eb81610484565b809150509250929050565b634e487b7160e01b600052604160045260246000fd5b60008060006060848603121561052157600080fd5b833561052c81610484565b9250602084013561053c81610484565b9150604084013567ffffffffffffffff8082111561055957600080fd5b818601915086601f83011261056d57600080fd5b81358181111561057f5761057f6104f6565b604051601f8201601f19908116603f011681019083821181831017156105a7576105a76104f6565b816040528281528960208487010111156105c057600080fd5b8260208601602083013760006020848301015280955050505050509250925092565b6000602082840312156105f457600080fd5b81516104b681610484565b60018060a01b038316815260006020604081840152835180604085015260005b8181101561063b5785810183015185820160600152820161061f565b506000606082860101526060601f19601f83011685010192505050939250505056",
        "nonce": "0x1a2",
        "chainId": "0xa4ec"
      },
      "additionalContracts": [],
      "isFixedGasLimit": false
    },
    {
      "hash": "0xa434a2be1b5ef49b285b6716dfcbe6e1fd6e8c3b8ebf4665ff613c497e79e4d2",
      "transactionType": "CALL",
      "contractName": "ProxyAdmin.0.8.18",
      "contractAddress": "0x9a0234633124b338ba83815633fd7b61d10a5036",
      "function": "transferOwnership(address)",
      "arguments": [
        "0x495d133B938596C9984d462F007B676bDc57eCEC"
      ],
      "transaction": {
        "from": "0x5128e3c1f8846724cc1007af9b4189713922e4bb",
        "to": "0x9a0234633124b338ba83815633fd7b61d10a5036",
        "gas": "0x9a42",
        "value": "0x0",
        "input": "0xf2fde38b000000000000000000000000495d133b938596c9984d462f007b676bdc57ecec",
        "nonce": "0x1a3",
        "chainId": "0xa4ec"
      },
      "additionalContracts": [],
      "isFixedGasLimit": false
    },
    {
      "hash": "0xb1da98a700dd8d66af4424f1f092b3d40a360f8cd57446a7718f50c703551166",
      "transactionType": "CREATE2",
      "contractName": "TransparentUpgradeableProxy.0.8.18",
      "contractAddress": "0x861cf82ebebed3a99017cd5a271fbe71a4123302",
      "function": null,
      "arguments": [
        "0xf78C12e6d3971cfC325A3B150fA4BB5AB8660c3F",
        "0x9A0234633124B338BA83815633fD7b61d10A5036",
        "0x"
      ],
      "transaction": {
        "from": "0x5128e3c1f8846724cc1007af9b4189713922e4bb",
        "to": "0x4e59b44847b379578588920ca78fbf26c0b4956c",
        "gas": "0xc8cf5",
        "value": "0x0",
        "input": "0x4c3ce844766e57f92d450afbedae2278c7006eb721d30da9d2df231c42ca969f608060405260405162000e8a38038062000e8a833981016040819052620000269162000497565b828162000036828260006200004d565b50620000449050826200008a565b505050620005ca565b6200005883620000e5565b600082511180620000665750805b1562000085576200008383836200012760201b620001691760201c565b505b505050565b7f7e644d79422f17c01e4894b5f4f588d331ebfa28653d42ae832dc59e38c9798f620000b562000156565b604080516001600160a01b03928316815291841660208301520160405180910390a1620000e2816200018f565b50565b620000f08162000244565b6040516001600160a01b038216907fbc7cd75a20ee27fd9adebab32041f755214dbc6bffa90cc0225b39da2e5c2d3b90600090a250565b60606200014f838360405180606001604052806027815260200162000e6360279139620002f8565b9392505050565b60006200018060008051602062000e4383398151915260001b6200037760201b620001951760201c565b546001600160a01b0316919050565b6001600160a01b038116620001fa5760405162461bcd60e51b815260206004820152602660248201527f455243313936373a206e65772061646d696e20697320746865207a65726f206160448201526564647265737360d01b60648201526084015b60405180910390fd5b806200022360008051602062000e4383398151915260001b6200037760201b620001951760201c565b80546001600160a01b0319166001600160a01b039290921691909117905550565b6200025a816200037a60201b620001981760201c565b620002be5760405162461bcd60e51b815260206004820152602d60248201527f455243313936373a206e657720696d706c656d656e746174696f6e206973206e60448201526c1bdd08184818dbdb9d1c9858dd609a1b6064820152608401620001f1565b80620002237f360894a13ba1a3210667c828492db98dca3e2076cc3735a920a3ca505d382bbc60001b6200037760201b620001951760201c565b6060600080856001600160a01b03168560405162000317919062000577565b600060405180830381855af49150503d806000811462000354576040519150601f19603f3d011682016040523d82523d6000602084013e62000359565b606091505b5090925090506200036d8683838762000389565b9695505050505050565b90565b6001600160a01b03163b151590565b60608315620003fd578251600003620003f5576001600160a01b0385163b620003f55760405162461bcd60e51b815260206004820152601d60248201527f416464726573733a2063616c6c20746f206e6f6e2d636f6e74726163740000006044820152606401620001f1565b508162000409565b62000409838362000411565b949350505050565b815115620004225781518083602001fd5b8060405162461bcd60e51b8152600401620001f1919062000595565b80516001600160a01b03811681146200045657600080fd5b919050565b634e487b7160e01b600052604160045260246000fd5b60005b838110156200048e57818101518382015260200162000474565b50506000910152565b600080600060608486031215620004ad57600080fd5b620004b8846200043e565b9250620004c8602085016200043e565b60408501519092506001600160401b0380821115620004e657600080fd5b818601915086601f830112620004fb57600080fd5b8151818111156200051057620005106200045b565b604051601f8201601f19908116603f011681019083821181831017156200053b576200053b6200045b565b816040528281528960208487010111156200055557600080fd5b6200056883602083016020880162000471565b80955050505050509250925092565b600082516200058b81846020870162000471565b9190910192915050565b6020815260008251806020840152620005b681604085016020870162000471565b601f01601f19169190910160400192915050565b61086980620005da6000396000f3fe60806040523661001357610011610017565b005b6100115b61001f6101a7565b6001600160a01b0316330361015f5760606001600160e01b0319600035166364d3180d60e11b810161005a576100536101da565b9150610157565b63587086bd60e11b6001600160e01b031982160161007a57610053610231565b63070d7c6960e41b6001600160e01b031982160161009a57610053610277565b621eb96f60e61b6001600160e01b03198216016100b9576100536102a8565b63a39f25e560e01b6001600160e01b03198216016100d9576100536102e8565b60405162461bcd60e51b815260206004820152604260248201527f5472616e73706172656e745570677261646561626c6550726f78793a2061646d60448201527f696e2063616e6e6f742066616c6c6261636b20746f2070726f78792074617267606482015261195d60f21b608482015260a4015b60405180910390fd5b815160208301f35b6101676102fc565b565b606061018e83836040518060600160405280602781526020016108426027913961030c565b9392505050565b90565b6001600160a01b03163b151590565b60007fb53127684a568b3173ae13b9f8a6016e243e63b6e8ee1178d6a717850b5d61035b546001600160a01b0316919050565b60606101e4610384565b60006101f33660048184610695565b81019061020091906106db565b905061021d8160405180602001604052806000815250600061038f565b505060408051602081019091526000815290565b60606000806102433660048184610695565b810190610250919061070c565b915091506102608282600161038f565b604051806020016040528060008152509250505090565b6060610281610384565b60006102903660048184610695565b81019061029d91906106db565b905061021d816103bb565b60606102b2610384565b60006102bc6101a7565b604080516001600160a01b03831660208201529192500160405160208183030381529060405291505090565b60606102f2610384565b60006102bc610412565b610167610307610412565b610421565b6060600080856001600160a01b03168560405161032991906107f2565b600060405180830381855af49150503d8060008114610364576040519150601f19603f3d011682016040523d82523d6000602084013e610369565b606091505b509150915061037a86838387610445565b9695505050505050565b341561016757600080fd5b610398836104c6565b6000825111806103a55750805b156103b6576103b48383610169565b505b505050565b7f7e644d79422f17c01e4894b5f4f588d331ebfa28653d42ae832dc59e38c9798f6103e46101a7565b604080516001600160a01b03928316815291841660208301520160405180910390a161040f81610506565b50565b600061041c6105af565b905090565b3660008037600080366000845af43d6000803e808015610440573d6000f35b3d6000fd5b606083156104b45782516000036104ad576001600160a01b0385163b6104ad5760405162461bcd60e51b815260206004820152601d60248201527f416464726573733a2063616c6c20746f206e6f6e2d636f6e7472616374000000604482015260640161014e565b50816104be565b6104be83836105d7565b949350505050565b6104cf81610601565b6040516001600160a01b038216907fbc7cd75a20ee27fd9adebab32041f755214dbc6bffa90cc0225b39da2e5c2d3b90600090a250565b6001600160a01b03811661056b5760405162461bcd60e51b815260206004820152602660248201527f455243313936373a206e65772061646d696e20697320746865207a65726f206160448201526564647265737360d01b606482015260840161014e565b807fb53127684a568b3173ae13b9f8a6016e243e63b6e8ee1178d6a717850b5d61035b80546001600160a01b0319166001600160a01b039290921691909117905550565b60007f360894a13ba1a3210667c828492db98dca3e2076cc3735a920a3ca505d382bbc6101cb565b8151156105e75781518083602001fd5b8060405162461bcd60e51b815260040161014e919061080e565b6001600160a01b0381163b61066e5760405162461bcd60e51b815260206004820152602d60248201527f455243313936373a206e657720696d706c656d656e746174696f6e206973206e60448201526c1bdd08184818dbdb9d1c9858dd609a1b606482015260840161014e565b807f360894a13ba1a3210667c828492db98dca3e2076cc3735a920a3ca505d382bbc61058e565b600080858511156106a557600080fd5b838611156106b257600080fd5b5050820193919092039150565b80356001600160a01b03811681146106d657600080fd5b919050565b6000602082840312156106ed57600080fd5b61018e826106bf565b634e487b7160e01b600052604160045260246000fd5b6000806040838503121561071f57600080fd5b610728836106bf565b9150602083013567ffffffffffffffff8082111561074557600080fd5b818501915085601f83011261075957600080fd5b81358181111561076b5761076b6106f6565b604051601f8201601f19908116603f01168101908382118183101715610793576107936106f6565b816040528281528860208487010111156107ac57600080fd5b8260208601602083013760006020848301015280955050505050509250929050565b60005b838110156107e95781810151838201526020016107d1565b50506000910152565b600082516108048184602087016107ce565b9190910192915050565b602081526000825180602084015261082d8160408501602087016107ce565b601f01601f1916919091016040019291505056fe416464726573733a206c6f772d6c6576656c2064656c65676174652063616c6c206661696c6564b53127684a568b3173ae13b9f8a6016e243e63b6e8ee1178d6a717850b5d6103416464726573733a206c6f772d6c6576656c2064656c65676174652063616c6c206661696c6564000000000000000000000000f78c12e6d3971cfc325a3b150fa4bb5ab8660c3f0000000000000000000000009a0234633124b338ba83815633fd7b61d10a503600000000000000000000000000000000000000000000000000000000000000600000000000000000000000000000000000000000000000000000000000000000",
        "nonce": "0x1a4",
        "chainId": "0xa4ec"
      },
      "additionalContracts": [],
      "isFixedGasLimit": false
    },
    {
      "hash": "0xcccc98463de3988194d208ccee776210affbb2a2506c2a3cac8c80db7960ca47",
      "transactionType": "CREATE2",
      "contractName": "TransparentUpgradeableProxy.0.8.18",
      "contractAddress": "0x9f94b2cf2a2cc0c85a021f2c6a80095d14e6a0f2",
      "function": null,
      "arguments": [
        "0xa92Fb401f6aFBBF27338d4cE20322b102b35c51A",
        "0x9A0234633124B338BA83815633fD7b61d10A5036",
        "0x"
      ],
      "transaction": {
        "from": "0x5128e3c1f8846724cc1007af9b4189713922e4bb",
        "to": "0x4e59b44847b379578588920ca78fbf26c0b4956c",
        "gas": "0xc8d05",
        "value": "0x0",
        "input": "0x409cafe05bb8e1934d709e8f15720f9e2466eaddc204a2bbf4cf9cf074b32b4a608060405260405162000e8a38038062000e8a833981016040819052620000269162000497565b828162000036828260006200004d565b50620000449050826200008a565b505050620005ca565b6200005883620000e5565b600082511180620000665750805b1562000085576200008383836200012760201b620001691760201c565b505b505050565b7f7e644d79422f17c01e4894b5f4f588d331ebfa28653d42ae832dc59e38c9798f620000b562000156565b604080516001600160a01b03928316815291841660208301520160405180910390a1620000e2816200018f565b50565b620000f08162000244565b6040516001600160a01b038216907fbc7cd75a20ee27fd9adebab32041f755214dbc6bffa90cc0225b39da2e5c2d3b90600090a250565b60606200014f838360405180606001604052806027815260200162000e6360279139620002f8565b9392505050565b60006200018060008051602062000e4383398151915260001b6200037760201b620001951760201c565b546001600160a01b0316919050565b6001600160a01b038116620001fa5760405162461bcd60e51b815260206004820152602660248201527f455243313936373a206e65772061646d696e20697320746865207a65726f206160448201526564647265737360d01b60648201526084015b60405180910390fd5b806200022360008051602062000e4383398151915260001b6200037760201b620001951760201c565b80546001600160a01b0319166001600160a01b039290921691909117905550565b6200025a816200037a60201b620001981760201c565b620002be5760405162461bcd60e51b815260206004820152602d60248201527f455243313936373a206e657720696d706c656d656e746174696f6e206973206e60448201526c1bdd08184818dbdb9d1c9858dd609a1b6064820152608401620001f1565b80620002237f360894a13ba1a3210667c828492db98dca3e2076cc3735a920a3ca505d382bbc60001b6200037760201b620001951760201c565b6060600080856001600160a01b03168560405162000317919062000577565b600060405180830381855af49150503d806000811462000354576040519150601f19603f3d011682016040523d82523d6000602084013e62000359565b606091505b5090925090506200036d8683838762000389565b9695505050505050565b90565b6001600160a01b03163b151590565b60608315620003fd578251600003620003f5576001600160a01b0385163b620003f55760405162461bcd60e51b815260206004820152601d60248201527f416464726573733a2063616c6c20746f206e6f6e2d636f6e74726163740000006044820152606401620001f1565b508162000409565b62000409838362000411565b949350505050565b815115620004225781518083602001fd5b8060405162461bcd60e51b8152600401620001f1919062000595565b80516001600160a01b03811681146200045657600080fd5b919050565b634e487b7160e01b600052604160045260246000fd5b60005b838110156200048e57818101518382015260200162000474565b50506000910152565b600080600060608486031215620004ad57600080fd5b620004b8846200043e565b9250620004c8602085016200043e565b60408501519092506001600160401b0380821115620004e657600080fd5b818601915086601f830112620004fb57600080fd5b8151818111156200051057620005106200045b565b604051601f8201601f19908116603f011681019083821181831017156200053b576200053b6200045b565b816040528281528960208487010111156200055557600080fd5b6200056883602083016020880162000471565b80955050505050509250925092565b600082516200058b81846020870162000471565b9190910192915050565b6020815260008251806020840152620005b681604085016020870162000471565b601f01601f19169190910160400192915050565b61086980620005da6000396000f3fe60806040523661001357610011610017565b005b6100115b61001f6101a7565b6001600160a01b0316330361015f5760606001600160e01b0319600035166364d3180d60e11b810161005a576100536101da565b9150610157565b63587086bd60e11b6001600160e01b031982160161007a57610053610231565b63070d7c6960e41b6001600160e01b031982160161009a57610053610277565b621eb96f60e61b6001600160e01b03198216016100b9576100536102a8565b63a39f25e560e01b6001600160e01b03198216016100d9576100536102e8565b60405162461bcd60e51b815260206004820152604260248201527f5472616e73706172656e745570677261646561626c6550726f78793a2061646d60448201527f696e2063616e6e6f742066616c6c6261636b20746f2070726f78792074617267606482015261195d60f21b608482015260a4015b60405180910390fd5b815160208301f35b6101676102fc565b565b606061018e83836040518060600160405280602781526020016108426027913961030c565b9392505050565b90565b6001600160a01b03163b151590565b60007fb53127684a568b3173ae13b9f8a6016e243e63b6e8ee1178d6a717850b5d61035b546001600160a01b0316919050565b60606101e4610384565b60006101f33660048184610695565b81019061020091906106db565b905061021d8160405180602001604052806000815250600061038f565b505060408051602081019091526000815290565b60606000806102433660048184610695565b810190610250919061070c565b915091506102608282600161038f565b604051806020016040528060008152509250505090565b6060610281610384565b60006102903660048184610695565b81019061029d91906106db565b905061021d816103bb565b60606102b2610384565b60006102bc6101a7565b604080516001600160a01b03831660208201529192500160405160208183030381529060405291505090565b60606102f2610384565b60006102bc610412565b610167610307610412565b610421565b6060600080856001600160a01b03168560405161032991906107f2565b600060405180830381855af49150503d8060008114610364576040519150601f19603f3d011682016040523d82523d6000602084013e610369565b606091505b509150915061037a86838387610445565b9695505050505050565b341561016757600080fd5b610398836104c6565b6000825111806103a55750805b156103b6576103b48383610169565b505b505050565b7f7e644d79422f17c01e4894b5f4f588d331ebfa28653d42ae832dc59e38c9798f6103e46101a7565b604080516001600160a01b03928316815291841660208301520160405180910390a161040f81610506565b50565b600061041c6105af565b905090565b3660008037600080366000845af43d6000803e808015610440573d6000f35b3d6000fd5b606083156104b45782516000036104ad576001600160a01b0385163b6104ad5760405162461bcd60e51b815260206004820152601d60248201527f416464726573733a2063616c6c20746f206e6f6e2d636f6e7472616374000000604482015260640161014e565b50816104be565b6104be83836105d7565b949350505050565b6104cf81610601565b6040516001600160a01b038216907fbc7cd75a20ee27fd9adebab32041f755214dbc6bffa90cc0225b39da2e5c2d3b90600090a250565b6001600160a01b03811661056b5760405162461bcd60e51b815260206004820152602660248201527f455243313936373a206e65772061646d696e20697320746865207a65726f206160448201526564647265737360d01b606482015260840161014e565b807fb53127684a568b3173ae13b9f8a6016e243e63b6e8ee1178d6a717850b5d61035b80546001600160a01b0319166001600160a01b039290921691909117905550565b60007f360894a13ba1a3210667c828492db98dca3e2076cc3735a920a3ca505d382bbc6101cb565b8151156105e75781518083602001fd5b8060405162461bcd60e51b815260040161014e919061080e565b6001600160a01b0381163b61066e5760405162461bcd60e51b815260206004820152602d60248201527f455243313936373a206e657720696d706c656d656e746174696f6e206973206e60448201526c1bdd08184818dbdb9d1c9858dd609a1b606482015260840161014e565b807f360894a13ba1a3210667c828492db98dca3e2076cc3735a920a3ca505d382bbc61058e565b600080858511156106a557600080fd5b838611156106b257600080fd5b5050820193919092039150565b80356001600160a01b03811681146106d657600080fd5b919050565b6000602082840312156106ed57600080fd5b61018e826106bf565b634e487b7160e01b600052604160045260246000fd5b6000806040838503121561071f57600080fd5b610728836106bf565b9150602083013567ffffffffffffffff8082111561074557600080fd5b818501915085601f83011261075957600080fd5b81358181111561076b5761076b6106f6565b604051601f8201601f19908116603f01168101908382118183101715610793576107936106f6565b816040528281528860208487010111156107ac57600080fd5b8260208601602083013760006020848301015280955050505050509250929050565b60005b838110156107e95781810151838201526020016107d1565b50506000910152565b600082516108048184602087016107ce565b9190910192915050565b602081526000825180602084015261082d8160408501602087016107ce565b601f01601f1916919091016040019291505056fe416464726573733a206c6f772d6c6576656c2064656c65676174652063616c6c206661696c6564b53127684a568b3173ae13b9f8a6016e243e63b6e8ee1178d6a717850b5d6103416464726573733a206c6f772d6c6576656c2064656c65676174652063616c6c206661696c6564000000000000000000000000a92fb401f6afbbf27338d4ce20322b102b35c51a0000000000000000000000009a0234633124b338ba83815633fd7b61d10a503600000000000000000000000000000000000000000000000000000000000000600000000000000000000000000000000000000000000000000000000000000000",
        "nonce": "0x1a5",
        "chainId": "0xa4ec"
      },
      "additionalContracts": [],
      "isFixedGasLimit": false
    },
    {
      "hash": "0xf0b458f54d50170a276d4fc82a713efea7a18ae9d18f25562576009c84e0e4e2",
      "transactionType": "CREATE2",
      "contractName": "TransparentUpgradeableProxy.0.8.18",
      "contractAddress": "0xaca417869dca426fc40ec8a2b7022e217ea233ef",
      "function": null,
      "arguments": [
        "0xfb1Cf4E85D82C4C90e33E5173d26cE558cB9de8e",
        "0x9A0234633124B338BA83815633fD7b61d10A5036",
        "0x"
      ],
      "transaction": {
        "from": "0x5128e3c1f8846724cc1007af9b4189713922e4bb",
        "to": "0x4e59b44847b379578588920ca78fbf26c0b4956c",
        "gas": "0xc8d05",
        "value": "0x0",
        "input": "0x7befbdb410cfa5892a1af3336d18a616c9f7e01d587a57572ac6350834f1e8b1608060405260405162000e8a38038062000e8a833981016040819052620000269162000497565b828162000036828260006200004d565b50620000449050826200008a565b505050620005ca565b6200005883620000e5565b600082511180620000665750805b1562000085576200008383836200012760201b620001691760201c565b505b505050565b7f7e644d79422f17c01e4894b5f4f588d331ebfa28653d42ae832dc59e38c9798f620000b562000156565b604080516001600160a01b03928316815291841660208301520160405180910390a1620000e2816200018f565b50565b620000f08162000244565b6040516001600160a01b038216907fbc7cd75a20ee27fd9adebab32041f755214dbc6bffa90cc0225b39da2e5c2d3b90600090a250565b60606200014f838360405180606001604052806027815260200162000e6360279139620002f8565b9392505050565b60006200018060008051602062000e4383398151915260001b6200037760201b620001951760201c565b546001600160a01b0316919050565b6001600160a01b038116620001fa5760405162461bcd60e51b815260206004820152602660248201527f455243313936373a206e65772061646d696e20697320746865207a65726f206160448201526564647265737360d01b60648201526084015b60405180910390fd5b806200022360008051602062000e4383398151915260001b6200037760201b620001951760201c565b80546001600160a01b0319166001600160a01b039290921691909117905550565b6200025a816200037a60201b620001981760201c565b620002be5760405162461bcd60e51b815260206004820152602d60248201527f455243313936373a206e657720696d706c656d656e746174696f6e206973206e60448201526c1bdd08184818dbdb9d1c9858dd609a1b6064820152608401620001f1565b80620002237f360894a13ba1a3210667c828492db98dca3e2076cc3735a920a3ca505d382bbc60001b6200037760201b620001951760201c565b6060600080856001600160a01b03168560405162000317919062000577565b600060405180830381855af49150503d806000811462000354576040519150601f19603f3d011682016040523d82523d6000602084013e62000359565b606091505b5090925090506200036d8683838762000389565b9695505050505050565b90565b6001600160a01b03163b151590565b60608315620003fd578251600003620003f5576001600160a01b0385163b620003f55760405162461bcd60e51b815260206004820152601d60248201527f416464726573733a2063616c6c20746f206e6f6e2d636f6e74726163740000006044820152606401620001f1565b508162000409565b62000409838362000411565b949350505050565b815115620004225781518083602001fd5b8060405162461bcd60e51b8152600401620001f1919062000595565b80516001600160a01b03811681146200045657600080fd5b919050565b634e487b7160e01b600052604160045260246000fd5b60005b838110156200048e57818101518382015260200162000474565b50506000910152565b600080600060608486031215620004ad57600080fd5b620004b8846200043e565b9250620004c8602085016200043e565b60408501519092506001600160401b0380821115620004e657600080fd5b818601915086601f830112620004fb57600080fd5b8151818111156200051057620005106200045b565b604051601f8201601f19908116603f011681019083821181831017156200053b576200053b6200045b565b816040528281528960208487010111156200055557600080fd5b6200056883602083016020880162000471565b80955050505050509250925092565b600082516200058b81846020870162000471565b9190910192915050565b6020815260008251806020840152620005b681604085016020870162000471565b601f01601f19169190910160400192915050565b61086980620005da6000396000f3fe60806040523661001357610011610017565b005b6100115b61001f6101a7565b6001600160a01b0316330361015f5760606001600160e01b0319600035166364d3180d60e11b810161005a576100536101da565b9150610157565b63587086bd60e11b6001600160e01b031982160161007a57610053610231565b63070d7c6960e41b6001600160e01b031982160161009a57610053610277565b621eb96f60e61b6001600160e01b03198216016100b9576100536102a8565b63a39f25e560e01b6001600160e01b03198216016100d9576100536102e8565b60405162461bcd60e51b815260206004820152604260248201527f5472616e73706172656e745570677261646561626c6550726f78793a2061646d60448201527f696e2063616e6e6f742066616c6c6261636b20746f2070726f78792074617267606482015261195d60f21b608482015260a4015b60405180910390fd5b815160208301f35b6101676102fc565b565b606061018e83836040518060600160405280602781526020016108426027913961030c565b9392505050565b90565b6001600160a01b03163b151590565b60007fb53127684a568b3173ae13b9f8a6016e243e63b6e8ee1178d6a717850b5d61035b546001600160a01b0316919050565b60606101e4610384565b60006101f33660048184610695565b81019061020091906106db565b905061021d8160405180602001604052806000815250600061038f565b505060408051602081019091526000815290565b60606000806102433660048184610695565b810190610250919061070c565b915091506102608282600161038f565b604051806020016040528060008152509250505090565b6060610281610384565b60006102903660048184610695565b81019061029d91906106db565b905061021d816103bb565b60606102b2610384565b60006102bc6101a7565b604080516001600160a01b03831660208201529192500160405160208183030381529060405291505090565b60606102f2610384565b60006102bc610412565b610167610307610412565b610421565b6060600080856001600160a01b03168560405161032991906107f2565b600060405180830381855af49150503d8060008114610364576040519150601f19603f3d011682016040523d82523d6000602084013e610369565b606091505b509150915061037a86838387610445565b9695505050505050565b341561016757600080fd5b610398836104c6565b6000825111806103a55750805b156103b6576103b48383610169565b505b505050565b7f7e644d79422f17c01e4894b5f4f588d331ebfa28653d42ae832dc59e38c9798f6103e46101a7565b604080516001600160a01b03928316815291841660208301520160405180910390a161040f81610506565b50565b600061041c6105af565b905090565b3660008037600080366000845af43d6000803e808015610440573d6000f35b3d6000fd5b606083156104b45782516000036104ad576001600160a01b0385163b6104ad5760405162461bcd60e51b815260206004820152601d60248201527f416464726573733a2063616c6c20746f206e6f6e2d636f6e7472616374000000604482015260640161014e565b50816104be565b6104be83836105d7565b949350505050565b6104cf81610601565b6040516001600160a01b038216907fbc7cd75a20ee27fd9adebab32041f755214dbc6bffa90cc0225b39da2e5c2d3b90600090a250565b6001600160a01b03811661056b5760405162461bcd60e51b815260206004820152602660248201527f455243313936373a206e65772061646d696e20697320746865207a65726f206160448201526564647265737360d01b606482015260840161014e565b807fb53127684a568b3173ae13b9f8a6016e243e63b6e8ee1178d6a717850b5d61035b80546001600160a01b0319166001600160a01b039290921691909117905550565b60007f360894a13ba1a3210667c828492db98dca3e2076cc3735a920a3ca505d382bbc6101cb565b8151156105e75781518083602001fd5b8060405162461bcd60e51b815260040161014e919061080e565b6001600160a01b0381163b61066e5760405162461bcd60e51b815260206004820152602d60248201527f455243313936373a206e657720696d706c656d656e746174696f6e206973206e60448201526c1bdd08184818dbdb9d1c9858dd609a1b606482015260840161014e565b807f360894a13ba1a3210667c828492db98dca3e2076cc3735a920a3ca505d382bbc61058e565b600080858511156106a557600080fd5b838611156106b257600080fd5b5050820193919092039150565b80356001600160a01b03811681146106d657600080fd5b919050565b6000602082840312156106ed57600080fd5b61018e826106bf565b634e487b7160e01b600052604160045260246000fd5b6000806040838503121561071f57600080fd5b610728836106bf565b9150602083013567ffffffffffffffff8082111561074557600080fd5b818501915085601f83011261075957600080fd5b81358181111561076b5761076b6106f6565b604051601f8201601f19908116603f01168101908382118183101715610793576107936106f6565b816040528281528860208487010111156107ac57600080fd5b8260208601602083013760006020848301015280955050505050509250929050565b60005b838110156107e95781810151838201526020016107d1565b50506000910152565b600082516108048184602087016107ce565b9190910192915050565b602081526000825180602084015261082d8160408501602087016107ce565b601f01601f1916919091016040019291505056fe416464726573733a206c6f772d6c6576656c2064656c65676174652063616c6c206661696c6564b53127684a568b3173ae13b9f8a6016e243e63b6e8ee1178d6a717850b5d6103416464726573733a206c6f772d6c6576656c2064656c65676174652063616c6c206661696c6564000000000000000000000000fb1cf4e85d82c4c90e33e5173d26ce558cb9de8e0000000000000000000000009a0234633124b338ba83815633fd7b61d10a503600000000000000000000000000000000000000000000000000000000000000600000000000000000000000000000000000000000000000000000000000000000",
        "nonce": "0x1a6",
        "chainId": "0xa4ec"
      },
      "additionalContracts": [],
      "isFixedGasLimit": false
    },
    {
      "hash": "0xb1f83e9376da7462b577c386cc67fa140aebc14c6da426eaaf010ea7a84e87c3",
      "transactionType": "CREATE2",
      "contractName": "TransparentUpgradeableProxy.0.8.18",
      "contractAddress": "0x0249ec175b481028cdd857bf36f2bf08e6cc4754",
      "function": null,
      "arguments": [
        "0xa42b24B3aAd1df1b4c5af3052ad1Ae8A3a2D1795",
        "0x9A0234633124B338BA83815633fD7b61d10A5036",
        "0x"
      ],
      "transaction": {
        "from": "0x5128e3c1f8846724cc1007af9b4189713922e4bb",
        "to": "0x4e59b44847b379578588920ca78fbf26c0b4956c",
        "gas": "0xc8d05",
        "value": "0x0",
        "input": "0x8cf15d2834d139214e5ee5d4e4af81c20e62d2d0f04d7a01042df33b5bae6d47608060405260405162000e8a38038062000e8a833981016040819052620000269162000497565b828162000036828260006200004d565b50620000449050826200008a565b505050620005ca565b6200005883620000e5565b600082511180620000665750805b1562000085576200008383836200012760201b620001691760201c565b505b505050565b7f7e644d79422f17c01e4894b5f4f588d331ebfa28653d42ae832dc59e38c9798f620000b562000156565b604080516001600160a01b03928316815291841660208301520160405180910390a1620000e2816200018f565b50565b620000f08162000244565b6040516001600160a01b038216907fbc7cd75a20ee27fd9adebab32041f755214dbc6bffa90cc0225b39da2e5c2d3b90600090a250565b60606200014f838360405180606001604052806027815260200162000e6360279139620002f8565b9392505050565b60006200018060008051602062000e4383398151915260001b6200037760201b620001951760201c565b546001600160a01b0316919050565b6001600160a01b038116620001fa5760405162461bcd60e51b815260206004820152602660248201527f455243313936373a206e65772061646d696e20697320746865207a65726f206160448201526564647265737360d01b60648201526084015b60405180910390fd5b806200022360008051602062000e4383398151915260001b6200037760201b620001951760201c565b80546001600160a01b0319166001600160a01b039290921691909117905550565b6200025a816200037a60201b620001981760201c565b620002be5760405162461bcd60e51b815260206004820152602d60248201527f455243313936373a206e657720696d706c656d656e746174696f6e206973206e60448201526c1bdd08184818dbdb9d1c9858dd609a1b6064820152608401620001f1565b80620002237f360894a13ba1a3210667c828492db98dca3e2076cc3735a920a3ca505d382bbc60001b6200037760201b620001951760201c565b6060600080856001600160a01b03168560405162000317919062000577565b600060405180830381855af49150503d806000811462000354576040519150601f19603f3d011682016040523d82523d6000602084013e62000359565b606091505b5090925090506200036d8683838762000389565b9695505050505050565b90565b6001600160a01b03163b151590565b60608315620003fd578251600003620003f5576001600160a01b0385163b620003f55760405162461bcd60e51b815260206004820152601d60248201527f416464726573733a2063616c6c20746f206e6f6e2d636f6e74726163740000006044820152606401620001f1565b508162000409565b62000409838362000411565b949350505050565b815115620004225781518083602001fd5b8060405162461bcd60e51b8152600401620001f1919062000595565b80516001600160a01b03811681146200045657600080fd5b919050565b634e487b7160e01b600052604160045260246000fd5b60005b838110156200048e57818101518382015260200162000474565b50506000910152565b600080600060608486031215620004ad57600080fd5b620004b8846200043e565b9250620004c8602085016200043e565b60408501519092506001600160401b0380821115620004e657600080fd5b818601915086601f830112620004fb57600080fd5b8151818111156200051057620005106200045b565b604051601f8201601f19908116603f011681019083821181831017156200053b576200053b6200045b565b816040528281528960208487010111156200055557600080fd5b6200056883602083016020880162000471565b80955050505050509250925092565b600082516200058b81846020870162000471565b9190910192915050565b6020815260008251806020840152620005b681604085016020870162000471565b601f01601f19169190910160400192915050565b61086980620005da6000396000f3fe60806040523661001357610011610017565b005b6100115b61001f6101a7565b6001600160a01b0316330361015f5760606001600160e01b0319600035166364d3180d60e11b810161005a576100536101da565b9150610157565b63587086bd60e11b6001600160e01b031982160161007a57610053610231565b63070d7c6960e41b6001600160e01b031982160161009a57610053610277565b621eb96f60e61b6001600160e01b03198216016100b9576100536102a8565b63a39f25e560e01b6001600160e01b03198216016100d9576100536102e8565b60405162461bcd60e51b815260206004820152604260248201527f5472616e73706172656e745570677261646561626c6550726f78793a2061646d60448201527f696e2063616e6e6f742066616c6c6261636b20746f2070726f78792074617267606482015261195d60f21b608482015260a4015b60405180910390fd5b815160208301f35b6101676102fc565b565b606061018e83836040518060600160405280602781526020016108426027913961030c565b9392505050565b90565b6001600160a01b03163b151590565b60007fb53127684a568b3173ae13b9f8a6016e243e63b6e8ee1178d6a717850b5d61035b546001600160a01b0316919050565b60606101e4610384565b60006101f33660048184610695565b81019061020091906106db565b905061021d8160405180602001604052806000815250600061038f565b505060408051602081019091526000815290565b60606000806102433660048184610695565b810190610250919061070c565b915091506102608282600161038f565b604051806020016040528060008152509250505090565b6060610281610384565b60006102903660048184610695565b81019061029d91906106db565b905061021d816103bb565b60606102b2610384565b60006102bc6101a7565b604080516001600160a01b03831660208201529192500160405160208183030381529060405291505090565b60606102f2610384565b60006102bc610412565b610167610307610412565b610421565b6060600080856001600160a01b03168560405161032991906107f2565b600060405180830381855af49150503d8060008114610364576040519150601f19603f3d011682016040523d82523d6000602084013e610369565b606091505b509150915061037a86838387610445565b9695505050505050565b341561016757600080fd5b610398836104c6565b6000825111806103a55750805b156103b6576103b48383610169565b505b505050565b7f7e644d79422f17c01e4894b5f4f588d331ebfa28653d42ae832dc59e38c9798f6103e46101a7565b604080516001600160a01b03928316815291841660208301520160405180910390a161040f81610506565b50565b600061041c6105af565b905090565b3660008037600080366000845af43d6000803e808015610440573d6000f35b3d6000fd5b606083156104b45782516000036104ad576001600160a01b0385163b6104ad5760405162461bcd60e51b815260206004820152601d60248201527f416464726573733a2063616c6c20746f206e6f6e2d636f6e7472616374000000604482015260640161014e565b50816104be565b6104be83836105d7565b949350505050565b6104cf81610601565b6040516001600160a01b038216907fbc7cd75a20ee27fd9adebab32041f755214dbc6bffa90cc0225b39da2e5c2d3b90600090a250565b6001600160a01b03811661056b5760405162461bcd60e51b815260206004820152602660248201527f455243313936373a206e65772061646d696e20697320746865207a65726f206160448201526564647265737360d01b606482015260840161014e565b807fb53127684a568b3173ae13b9f8a6016e243e63b6e8ee1178d6a717850b5d61035b80546001600160a01b0319166001600160a01b039290921691909117905550565b60007f360894a13ba1a3210667c828492db98dca3e2076cc3735a920a3ca505d382bbc6101cb565b8151156105e75781518083602001fd5b8060405162461bcd60e51b815260040161014e919061080e565b6001600160a01b0381163b61066e5760405162461bcd60e51b815260206004820152602d60248201527f455243313936373a206e657720696d706c656d656e746174696f6e206973206e60448201526c1bdd08184818dbdb9d1c9858dd609a1b606482015260840161014e565b807f360894a13ba1a3210667c828492db98dca3e2076cc3735a920a3ca505d382bbc61058e565b600080858511156106a557600080fd5b838611156106b257600080fd5b5050820193919092039150565b80356001600160a01b03811681146106d657600080fd5b919050565b6000602082840312156106ed57600080fd5b61018e826106bf565b634e487b7160e01b600052604160045260246000fd5b6000806040838503121561071f57600080fd5b610728836106bf565b9150602083013567ffffffffffffffff8082111561074557600080fd5b818501915085601f83011261075957600080fd5b81358181111561076b5761076b6106f6565b604051601f8201601f19908116603f01168101908382118183101715610793576107936106f6565b816040528281528860208487010111156107ac57600080fd5b8260208601602083013760006020848301015280955050505050509250929050565b60005b838110156107e95781810151838201526020016107d1565b50506000910152565b600082516108048184602087016107ce565b9190910192915050565b602081526000825180602084015261082d8160408501602087016107ce565b601f01601f1916919091016040019291505056fe416464726573733a206c6f772d6c6576656c2064656c65676174652063616c6c206661696c6564b53127684a568b3173ae13b9f8a6016e243e63b6e8ee1178d6a717850b5d6103416464726573733a206c6f772d6c6576656c2064656c65676174652063616c6c206661696c6564000000000000000000000000a42b24b3aad1df1b4c5af3052ad1ae8a3a2d17950000000000000000000000009a0234633124b338ba83815633fd7b61d10a503600000000000000000000000000000000000000000000000000000000000000600000000000000000000000000000000000000000000000000000000000000000",
        "nonce": "0x1a7",
        "chainId": "0xa4ec"
      },
      "additionalContracts": [],
      "isFixedGasLimit": false
    },
    {
      "hash": "0x4a3525d52d78753fc7f29f0a0a4e0f8dab4b9bc959ae1ca03f1adb8db883e00d",
      "transactionType": "CALL",
      "contractName": "TransparentUpgradeableProxy.0.8.18",
      "contractAddress": "0x861cf82ebebed3a99017cd5a271fbe71a4123302",
      "function": null,
      "arguments": null,
      "transaction": {
        "from": "0x5128e3c1f8846724cc1007af9b4189713922e4bb",
        "to": "0x861cf82ebebed3a99017cd5a271fbe71a4123302",
        "gas": "0x8567a",
        "value": "0x0",
        "input": "0x72a6b8b0000000000000000000000000000000000000000000000000000000000000ce1000000000000000000000000000000000000000000000000000000000bbf81e0000000000000000000000000000000000000000000000d3c21bcecceda100000000000000000000000000000000000000000000000000000000000000000000000000000000000000000000000000000000000000000000000000000000000000000000000000000000000000000000000000000000000000000000000000016000000000000000000000000000000000000000000000000000000000000001c000000000000000000000000000000000000000000000000000000000000000000000000000000000000000000000000000000000000000000000000000000000000000000000000000000000000000000000000000000000000000000000022000000000000000000000000000000000000000000000000000000000000002600000000000000000000000000000000000000000000000000000000000000002635553440000000000000000000000000000000000000000000000000000000063474c4400000000000000000000000000000000000000000000000000000000000000000000000000000000000000000000000000000000000000000000000200000000000000000000000000000000000000000000d3c21bcecceda0ffffff00000000000000000000000000000000000000000000000000000000000000010000000000000000000000000000000000000000000000000000000000000001000000000000000000000000765de816845861e75a25fca122bb6898b8b1282a000000000000000000000000000000000000000000000000000000000000000100000000000000000000000000000000000000000000d3c21bcecceda1000000",
        "nonce": "0x1a8",
        "chainId": "0xa4ec"
      },
      "additionalContracts": [],
      "isFixedGasLimit": false
    },
    {
      "hash": "0xee339ebbbe11ec6ec469a89710bbf2bc112fecbfadbf1f32ec4ccd74ead79618",
      "transactionType": "CALL",
      "contractName": "TransparentUpgradeableProxy.0.8.18",
      "contractAddress": "0xaca417869dca426fc40ec8a2b7022e217ea233ef",
      "function": null,
      "arguments": null,
      "transaction": {
        "from": "0x5128e3c1f8846724cc1007af9b4189713922e4bb",
        "to": "0xaca417869dca426fc40ec8a2b7022e217ea233ef",
        "gas": "0x306c11",
        "value": "0x0",
        "input": "0xf8c8765e0000000000000000000000009f94b2cf2a2cc0c85a021f2c6a80095d14e6a0f2000000000000000000000000861cf82ebebed3a99017cd5a271fbe71a41233020000000000000000000000000249ec175b481028cdd857bf36f2bf08e6cc4754000000000000000000000000495d133b938596c9984d462f007b676bdc57ecec",
        "nonce": "0x1a9",
        "chainId": "0xa4ec"
      },
      "additionalContracts": [],
      "isFixedGasLimit": false
    },
    {
      "hash": "0xdc72dc2530df1f258593fdc575cc8158b2ac7a56e221fd51eac61d4fe601993a",
      "transactionType": "CALL",
      "contractName": "TransparentUpgradeableProxy.0.8.18",
      "contractAddress": "0x0249ec175b481028cdd857bf36f2bf08e6cc4754",
      "function": null,
      "arguments": null,
      "transaction": {
        "from": "0x5128e3c1f8846724cc1007af9b4189713922e4bb",
        "to": "0x0249ec175b481028cdd857bf36f2bf08e6cc4754",
        "gas": "0x3a1f2",
        "value": "0x0",
        "input": "0xf8c8765e000000000000000000000000aca417869dca426fc40ec8a2b7022e217ea233ef000000000000000000000000b67d723ad4e71e23b780b917e55f6f58fc18cc9e000000000000000000000000861cf82ebebed3a99017cd5a271fbe71a4123302000000000000000000000000495d133b938596c9984d462f007b676bdc57ecec",
        "nonce": "0x1aa",
        "chainId": "0xa4ec"
      },
      "additionalContracts": [],
      "isFixedGasLimit": false
    },
    {
      "hash": "0xe0466a22e89c111ed16a75f1925116a8629fa7ab47926ba3ef33beccbf5635cb",
      "transactionType": "CALL",
      "contractName": "TransparentUpgradeableProxy.0.8.18",
      "contractAddress": "0x9f94b2cf2a2cc0c85a021f2c6a80095d14e6a0f2",
      "function": null,
      "arguments": null,
      "transaction": {
        "from": "0x5128e3c1f8846724cc1007af9b4189713922e4bb",
        "to": "0x9f94b2cf2a2cc0c85a021f2c6a80095d14e6a0f2",
        "gas": "0x34821",
        "value": "0x0",
        "input": "0x73cf25f8000000000000000000000000000000000000000000000000000000000000004000000000000000000000000000000000000000000000000000000000000000800000000000000000000000000000000000000000000000000000000000000001000000000000000000000000aca417869dca426fc40ec8a2b7022e217ea233ef0000000000000000000000000000000000000000000000000000000000000001000000000000000000000000861cf82ebebed3a99017cd5a271fbe71a4123302",
        "nonce": "0x1ab",
        "chainId": "0xa4ec"
      },
      "additionalContracts": [],
      "isFixedGasLimit": false
    },
    {
      "hash": "0xd965ffd8d6350d2d361c38d54f720b4840fb7d50a6f4fcb1588006d538a76cf5",
      "transactionType": "CALL",
      "contractName": "TransparentUpgradeableProxy.0.8.18",
      "contractAddress": "0x861cf82ebebed3a99017cd5a271fbe71a4123302",
      "function": null,
      "arguments": null,
      "transaction": {
        "from": "0x5128e3c1f8846724cc1007af9b4189713922e4bb",
        "to": "0x861cf82ebebed3a99017cd5a271fbe71a4123302",
        "gas": "0x215fa",
        "value": "0x0",
        "input": "0xd48bfca700000000000000000000000062b8b11039fcfe5ab0c56e502b1c372a3d2a9c7a",
        "nonce": "0x1ac",
        "chainId": "0xa4ec"
      },
      "additionalContracts": [],
      "isFixedGasLimit": false
    },
    {
      "hash": "0xfaf9371cd305a0952e154485463b4558666f122c21b369d4ce121bf8c21bf3a2",
      "transactionType": "CALL",
      "contractName": "TransparentUpgradeableProxy.0.8.18",
      "contractAddress": "0x861cf82ebebed3a99017cd5a271fbe71a4123302",
      "function": null,
      "arguments": null,
      "transaction": {
        "from": "0x5128e3c1f8846724cc1007af9b4189713922e4bb",
        "to": "0x861cf82ebebed3a99017cd5a271fbe71a4123302",
        "gas": "0x2352e",
        "value": "0x0",
        "input": "0xf0b7182b0000000000000000000000009f94b2cf2a2cc0c85a021f2c6a80095d14e6a0f2",
        "nonce": "0x1ad",
        "chainId": "0xa4ec"
      },
      "additionalContracts": [],
      "isFixedGasLimit": false
    },
    {
      "hash": "0xd84877047a5992ea97469fd2190f3191d11acecc603948f0dfebd1c8c8ed94b0",
      "transactionType": "CALL",
      "contractName": "TransparentUpgradeableProxy.0.8.18",
      "contractAddress": "0x861cf82ebebed3a99017cd5a271fbe71a4123302",
      "function": null,
      "arguments": null,
      "transaction": {
        "from": "0x5128e3c1f8846724cc1007af9b4189713922e4bb",
        "to": "0x861cf82ebebed3a99017cd5a271fbe71a4123302",
        "gas": "0x1371b",
        "value": "0x0",
        "input": "0xe7e31e7a000000000000000000000000495d133b938596c9984d462f007b676bdc57ecec",
        "nonce": "0x1ae",
        "chainId": "0xa4ec"
      },
      "additionalContracts": [],
      "isFixedGasLimit": false
    },
    {
      "hash": "0x41cdb86a80ec305e6803cd3486a6b2e7e0c8f4784d3a49afa08d92f60d7fceb2",
      "transactionType": "CALL",
      "contractName": "TransparentUpgradeableProxy.0.8.18",
      "contractAddress": "0x861cf82ebebed3a99017cd5a271fbe71a4123302",
      "function": null,
      "arguments": null,
      "transaction": {
        "from": "0x5128e3c1f8846724cc1007af9b4189713922e4bb",
        "to": "0x861cf82ebebed3a99017cd5a271fbe71a4123302",
        "gas": "0x215eb",
        "value": "0x0",
        "input": "0x22015968000000000000000000000000495d133b938596c9984d462f007b676bdc57ecec",
        "nonce": "0x1af",
        "chainId": "0xa4ec"
      },
      "additionalContracts": [],
      "isFixedGasLimit": false
    },
    {
      "hash": "0xbc08b734ab6ba86f2c60206f467d77fa859487629ad32523763730386e48e374",
      "transactionType": "CALL",
      "contractName": "TransparentUpgradeableProxy.0.8.18",
      "contractAddress": "0x9f94b2cf2a2cc0c85a021f2c6a80095d14e6a0f2",
      "function": null,
      "arguments": null,
      "transaction": {
        "from": "0x5128e3c1f8846724cc1007af9b4189713922e4bb",
        "to": "0x9f94b2cf2a2cc0c85a021f2c6a80095d14e6a0f2",
        "gas": "0x175a2",
        "value": "0x0",
        "input": "0xa9b5aab3ba77f5c7bb3317643c6d81d1ef3f9913561741d92095f88efa402faf2cbe9124000000000000000000000000765de816845861e75a25fca122bb6898b8b1282a0000000000000000000000000000000000000000000000000000000000093a800000000000000000000000000000000000000000000000000000000000278d000000000000000000000000000000000000000000000000000000000000009c40000000000000000000000000000000000000000000000000000000000001388000000000000000000000000000000000000000000000000000007fffffffffff0000000000000000000000000000000000000000000000000000000000000007",
        "nonce": "0x1b0",
        "chainId": "0xa4ec"
      },
      "additionalContracts": [],
      "isFixedGasLimit": false
    },
    {
      "hash": "0x2533f05714ea296d7142150fb76b52ce47b85b8d21c1390601da2889ee2c297f",
      "transactionType": "CALL",
      "contractName": "TransparentUpgradeableProxy.0.8.18",
      "contractAddress": "0x9f94b2cf2a2cc0c85a021f2c6a80095d14e6a0f2",
      "function": null,
      "arguments": null,
      "transaction": {
        "from": "0x5128e3c1f8846724cc1007af9b4189713922e4bb",
        "to": "0x9f94b2cf2a2cc0c85a021f2c6a80095d14e6a0f2",
        "gas": "0xccd8",
        "value": "0x0",
        "input": "0xf2fde38b000000000000000000000000495d133b938596c9984d462f007b676bdc57ecec",
        "nonce": "0x1b1",
        "chainId": "0xa4ec"
      },
      "additionalContracts": [],
      "isFixedGasLimit": false
    },
    {
      "hash": "0xbe83681c2ee1e171aae097d91ee00ab7f3e8d63131e729692c4071e107ce0351",
      "transactionType": "CALL",
      "contractName": "TransparentUpgradeableProxy.0.8.18",
      "contractAddress": "0x861cf82ebebed3a99017cd5a271fbe71a4123302",
      "function": null,
      "arguments": null,
      "transaction": {
        "from": "0x5128e3c1f8846724cc1007af9b4189713922e4bb",
        "to": "0x861cf82ebebed3a99017cd5a271fbe71a4123302",
        "gas": "0xc192",
        "value": "0x0",
        "input": "0xf2fde38b000000000000000000000000495d133b938596c9984d462f007b676bdc57ecec",
        "nonce": "0x1b2",
        "chainId": "0xa4ec"
      },
      "additionalContracts": [],
      "isFixedGasLimit": false
    },
    {
      "hash": "0xf94b904ba76386fbc09be96b2ec2cd771a240297d9b0ad57f6c4c2a471979892",
      "transactionType": "CALL",
      "contractName": "TransparentUpgradeableProxy.0.8.18",
      "contractAddress": "0xaca417869dca426fc40ec8a2b7022e217ea233ef",
      "function": null,
      "arguments": null,
      "transaction": {
        "from": "0x5128e3c1f8846724cc1007af9b4189713922e4bb",
        "to": "0xaca417869dca426fc40ec8a2b7022e217ea233ef",
        "gas": "0xc10c",
        "value": "0x0",
        "input": "0xf2fde38b000000000000000000000000495d133b938596c9984d462f007b676bdc57ecec",
        "nonce": "0x1b3",
        "chainId": "0xa4ec"
      },
      "additionalContracts": [],
      "isFixedGasLimit": false
    },
    {
      "hash": "0x4c526fae1a33cbccd0d31d77afc21717bcd06732e36dcb33811109c718ab149f",
      "transactionType": "CALL",
      "contractName": "TransparentUpgradeableProxy.0.8.18",
      "contractAddress": "0x0249ec175b481028cdd857bf36f2bf08e6cc4754",
      "function": null,
      "arguments": null,
      "transaction": {
        "from": "0x5128e3c1f8846724cc1007af9b4189713922e4bb",
        "to": "0x0249ec175b481028cdd857bf36f2bf08e6cc4754",
        "gas": "0xc103",
        "value": "0x0",
        "input": "0xf2fde38b000000000000000000000000495d133b938596c9984d462f007b676bdc57ecec",
        "nonce": "0x1b4",
        "chainId": "0xa4ec"
      },
      "additionalContracts": [],
      "isFixedGasLimit": false
    }
  ],
  "receipts": [
    {
      "status": "0x1",
      "cumulativeGasUsed": "0x69029",
      "logs": [
        {
          "address": "0x9a0234633124b338ba83815633fd7b61d10a5036",
          "topics": [
            "0x8be0079c531659141344cd1fd0a4f28419497f9722a3daafe3b4186f6b6457e0",
            "0x0000000000000000000000000000000000000000000000000000000000000000",
            "0x0000000000000000000000005128e3c1f8846724cc1007af9b4189713922e4bb"
          ],
          "data": "0x",
          "blockHash": "0x981a3e5f77478baf0856598740659bb813aeb2d2ea4efc39352a17806ff26c6d",
          "blockNumber": "0x1d65a09",
          "blockTimestamp": "0x67d1bfe5",
          "transactionHash": "0xf47f741278f346227ca3096f18259ece2c9e7d3153832d2182be235bae63ea4c",
          "transactionIndex": "0x0",
          "logIndex": "0x0",
          "removed": false
        }
      ],
      "logsBloom": "0x00000000000000000000000000000000000000000000000000800000000000000000000000000000000000000000000000000000000000000000000000000000000004000001000000000800000000000001000000000000000000000000000000000000020000000000000000000800000000000000200000000000000000400000000000000000000000000000000000000000000000000000000000000000000000000000000000000000000000000000000000000000000000000000000000000020000000000004000000000000000000000000000000000000000020000000000000000000000000000000000000000000000000000000000000000000",
      "type": "0x0",
      "transactionHash": "0xf47f741278f346227ca3096f18259ece2c9e7d3153832d2182be235bae63ea4c",
      "transactionIndex": "0x0",
      "blockHash": "0x981a3e5f77478baf0856598740659bb813aeb2d2ea4efc39352a17806ff26c6d",
      "blockNumber": "0x1d65a09",
      "gasUsed": "0x69029",
      "effectiveGasPrice": "0x5a1f53182",
      "blobGasPrice": "0x1",
      "from": "0x5128e3c1f8846724cc1007af9b4189713922e4bb",
      "to": null,
      "contractAddress": "0x9a0234633124b338ba83815633fd7b61d10a5036"
    },
    {
      "status": "0x1",
      "cumulativeGasUsed": "0x6faf",
      "logs": [
        {
          "address": "0x9a0234633124b338ba83815633fd7b61d10a5036",
          "topics": [
            "0x8be0079c531659141344cd1fd0a4f28419497f9722a3daafe3b4186f6b6457e0",
            "0x0000000000000000000000005128e3c1f8846724cc1007af9b4189713922e4bb",
            "0x000000000000000000000000495d133b938596c9984d462f007b676bdc57ecec"
          ],
          "data": "0x",
          "blockHash": "0x23a9ea9c1c47bd20b1912781a19c0f74b4366b4512476334246f5db564eff23d",
          "blockNumber": "0x1d65a0a",
          "blockTimestamp": "0x67d1bfe6",
          "transactionHash": "0xa434a2be1b5ef49b285b6716dfcbe6e1fd6e8c3b8ebf4665ff613c497e79e4d2",
          "transactionIndex": "0x0",
          "logIndex": "0x0",
          "removed": false
        }
      ],
      "logsBloom": "0x20000000000000000000000000000000000000000800000000800000000000000000000000000000000000000000000000000000000000000000000000000000000004000001000000000800000000000001000000000000000000000000000000400000000000000000000000000000000000000000200000000000000000400000000000000000000000000000000000000000000000000000000000000000000000000000000000000000000000000000000000000000000000000000000000000020000000000004000000000000000000000000000000000000000000000000000000000000000000000000000000000000000000000000000000000000",
      "type": "0x0",
      "transactionHash": "0xa434a2be1b5ef49b285b6716dfcbe6e1fd6e8c3b8ebf4665ff613c497e79e4d2",
      "transactionIndex": "0x0",
      "blockHash": "0x23a9ea9c1c47bd20b1912781a19c0f74b4366b4512476334246f5db564eff23d",
      "blockNumber": "0x1d65a0a",
      "gasUsed": "0x6faf",
      "effectiveGasPrice": "0x5a1f53182",
      "blobGasPrice": "0x1",
      "from": "0x5128e3c1f8846724cc1007af9b4189713922e4bb",
      "to": "0x9a0234633124b338ba83815633fd7b61d10a5036",
      "contractAddress": null
    },
    {
      "status": "0x1",
      "cumulativeGasUsed": "0x985cf",
      "logs": [
        {
          "address": "0x861cf82ebebed3a99017cd5a271fbe71a4123302",
          "topics": [
            "0xbc7cd75a20ee27fd9adebab32041f755214dbc6bffa90cc0225b39da2e5c2d3b",
            "0x000000000000000000000000f78c12e6d3971cfc325a3b150fa4bb5ab8660c3f"
          ],
          "data": "0x",
          "blockHash": "0x23a9ea9c1c47bd20b1912781a19c0f74b4366b4512476334246f5db564eff23d",
          "blockNumber": "0x1d65a0a",
          "blockTimestamp": "0x67d1bfe6",
          "transactionHash": "0xb1da98a700dd8d66af4424f1f092b3d40a360f8cd57446a7718f50c703551166",
          "transactionIndex": "0x1",
          "logIndex": "0x1",
          "removed": false
        },
        {
          "address": "0x861cf82ebebed3a99017cd5a271fbe71a4123302",
          "topics": [
            "0x7e644d79422f17c01e4894b5f4f588d331ebfa28653d42ae832dc59e38c9798f"
          ],
          "data": "0x00000000000000000000000000000000000000000000000000000000000000000000000000000000000000009a0234633124b338ba83815633fd7b61d10a5036",
          "blockHash": "0x23a9ea9c1c47bd20b1912781a19c0f74b4366b4512476334246f5db564eff23d",
          "blockNumber": "0x1d65a0a",
          "blockTimestamp": "0x67d1bfe6",
          "transactionHash": "0xb1da98a700dd8d66af4424f1f092b3d40a360f8cd57446a7718f50c703551166",
          "transactionIndex": "0x1",
          "logIndex": "0x2",
          "removed": false
        }
      ],
      "logsBloom": "0x00000000000000000000000000000000400000000000800000000000000000000000000000000000000000000000000000000000000000000000000000000000000000000000000000000000000002000000000000000000000000000000000000000000000000000000000000000000000000800000000000000000000000000000000000000000000000000000004000000000000000000000000000800000000000000000000000000000000000000000000000000000000000000800000000000020000000000000000000000000000000000400000008000000000000000000000000000000000100000000040000000000000000000000000000000000",
      "type": "0x0",
      "transactionHash": "0xb1da98a700dd8d66af4424f1f092b3d40a360f8cd57446a7718f50c703551166",
      "transactionIndex": "0x1",
      "blockHash": "0x23a9ea9c1c47bd20b1912781a19c0f74b4366b4512476334246f5db564eff23d",
      "blockNumber": "0x1d65a0a",
      "gasUsed": "0x91620",
      "effectiveGasPrice": "0x5a1f53182",
      "blobGasPrice": "0x1",
      "from": "0x5128e3c1f8846724cc1007af9b4189713922e4bb",
      "to": "0x4e59b44847b379578588920ca78fbf26c0b4956c",
      "contractAddress": null
    },
    {
      "status": "0x1",
      "cumulativeGasUsed": "0x129bfb",
      "logs": [
        {
          "address": "0x9f94b2cf2a2cc0c85a021f2c6a80095d14e6a0f2",
          "topics": [
            "0xbc7cd75a20ee27fd9adebab32041f755214dbc6bffa90cc0225b39da2e5c2d3b",
            "0x000000000000000000000000a92fb401f6afbbf27338d4ce20322b102b35c51a"
          ],
          "data": "0x",
          "blockHash": "0x23a9ea9c1c47bd20b1912781a19c0f74b4366b4512476334246f5db564eff23d",
          "blockNumber": "0x1d65a0a",
          "blockTimestamp": "0x67d1bfe6",
          "transactionHash": "0xcccc98463de3988194d208ccee776210affbb2a2506c2a3cac8c80db7960ca47",
          "transactionIndex": "0x2",
          "logIndex": "0x3",
          "removed": false
        },
        {
          "address": "0x9f94b2cf2a2cc0c85a021f2c6a80095d14e6a0f2",
          "topics": [
            "0x7e644d79422f17c01e4894b5f4f588d331ebfa28653d42ae832dc59e38c9798f"
          ],
          "data": "0x00000000000000000000000000000000000000000000000000000000000000000000000000000000000000009a0234633124b338ba83815633fd7b61d10a5036",
          "blockHash": "0x23a9ea9c1c47bd20b1912781a19c0f74b4366b4512476334246f5db564eff23d",
          "blockNumber": "0x1d65a0a",
          "blockTimestamp": "0x67d1bfe6",
          "transactionHash": "0xcccc98463de3988194d208ccee776210affbb2a2506c2a3cac8c80db7960ca47",
          "transactionIndex": "0x2",
          "logIndex": "0x4",
          "removed": false
        }
      ],
      "logsBloom": "0x00000000000000000000000000000000400000000000000000000000000000000000000000000000000000000000000000000000000000000000000000000000000000000000000000000000000002000000000000000000000000000000000000000100000000000000000000000000000000800000000000000000000000000010000000000000000000000000000000000000000000000000000000800000000000000008000000000000000000000000400000000000000000000020000000000020000000000000000000000000000000000400000000000000000040000000000000000000000000000000000000000000000000000000000000000000",
      "type": "0x0",
      "transactionHash": "0xcccc98463de3988194d208ccee776210affbb2a2506c2a3cac8c80db7960ca47",
      "transactionIndex": "0x2",
      "blockHash": "0x23a9ea9c1c47bd20b1912781a19c0f74b4366b4512476334246f5db564eff23d",
      "blockNumber": "0x1d65a0a",
      "gasUsed": "0x9162c",
      "effectiveGasPrice": "0x5a1f53182",
      "blobGasPrice": "0x1",
      "from": "0x5128e3c1f8846724cc1007af9b4189713922e4bb",
      "to": "0x4e59b44847b379578588920ca78fbf26c0b4956c",
      "contractAddress": null
    },
    {
      "status": "0x1",
      "cumulativeGasUsed": "0x1bb227",
      "logs": [
        {
          "address": "0xaca417869dca426fc40ec8a2b7022e217ea233ef",
          "topics": [
            "0xbc7cd75a20ee27fd9adebab32041f755214dbc6bffa90cc0225b39da2e5c2d3b",
            "0x000000000000000000000000fb1cf4e85d82c4c90e33e5173d26ce558cb9de8e"
          ],
          "data": "0x",
          "blockHash": "0x23a9ea9c1c47bd20b1912781a19c0f74b4366b4512476334246f5db564eff23d",
          "blockNumber": "0x1d65a0a",
          "blockTimestamp": "0x67d1bfe6",
          "transactionHash": "0xf0b458f54d50170a276d4fc82a713efea7a18ae9d18f25562576009c84e0e4e2",
          "transactionIndex": "0x3",
          "logIndex": "0x5",
          "removed": false
        },
        {
          "address": "0xaca417869dca426fc40ec8a2b7022e217ea233ef",
          "topics": [
            "0x7e644d79422f17c01e4894b5f4f588d331ebfa28653d42ae832dc59e38c9798f"
          ],
          "data": "0x00000000000000000000000000000000000000000000000000000000000000000000000000000000000000009a0234633124b338ba83815633fd7b61d10a5036",
          "blockHash": "0x23a9ea9c1c47bd20b1912781a19c0f74b4366b4512476334246f5db564eff23d",
          "blockNumber": "0x1d65a0a",
          "blockTimestamp": "0x67d1bfe6",
          "transactionHash": "0xf0b458f54d50170a276d4fc82a713efea7a18ae9d18f25562576009c84e0e4e2",
          "transactionIndex": "0x3",
          "logIndex": "0x6",
          "removed": false
        }
      ],
      "logsBloom": "0x00000000000000000040000000000000408000000000000000000000000000000000000020000000000000000000000000200000000000000000000000000000000000000000000000000000000002000000000000000000000000000000000000000000000000000000000000000000000000800000000000000000000000000000000000000000000000000000000000000000000000000000000000800000000000000000000000000000000000002000000000000000000000000000000000000020000000000000000000000000000000000400000000000000000000000000000000000000000000000000000000000000000000000001000000000000",
      "type": "0x0",
      "transactionHash": "0xf0b458f54d50170a276d4fc82a713efea7a18ae9d18f25562576009c84e0e4e2",
      "transactionIndex": "0x3",
      "blockHash": "0x23a9ea9c1c47bd20b1912781a19c0f74b4366b4512476334246f5db564eff23d",
      "blockNumber": "0x1d65a0a",
      "gasUsed": "0x9162c",
      "effectiveGasPrice": "0x5a1f53182",
      "blobGasPrice": "0x1",
      "from": "0x5128e3c1f8846724cc1007af9b4189713922e4bb",
      "to": "0x4e59b44847b379578588920ca78fbf26c0b4956c",
      "contractAddress": null
    },
    {
      "status": "0x1",
      "cumulativeGasUsed": "0x24c853",
      "logs": [
        {
          "address": "0x0249ec175b481028cdd857bf36f2bf08e6cc4754",
          "topics": [
            "0xbc7cd75a20ee27fd9adebab32041f755214dbc6bffa90cc0225b39da2e5c2d3b",
            "0x000000000000000000000000a42b24b3aad1df1b4c5af3052ad1ae8a3a2d1795"
          ],
          "data": "0x",
          "blockHash": "0x23a9ea9c1c47bd20b1912781a19c0f74b4366b4512476334246f5db564eff23d",
          "blockNumber": "0x1d65a0a",
          "blockTimestamp": "0x67d1bfe6",
          "transactionHash": "0xb1f83e9376da7462b577c386cc67fa140aebc14c6da426eaaf010ea7a84e87c3",
          "transactionIndex": "0x4",
          "logIndex": "0x7",
          "removed": false
        },
        {
          "address": "0x0249ec175b481028cdd857bf36f2bf08e6cc4754",
          "topics": [
            "0x7e644d79422f17c01e4894b5f4f588d331ebfa28653d42ae832dc59e38c9798f"
          ],
          "data": "0x00000000000000000000000000000000000000000000000000000000000000000000000000000000000000009a0234633124b338ba83815633fd7b61d10a5036",
          "blockHash": "0x23a9ea9c1c47bd20b1912781a19c0f74b4366b4512476334246f5db564eff23d",
          "blockNumber": "0x1d65a0a",
          "blockTimestamp": "0x67d1bfe6",
          "transactionHash": "0xb1f83e9376da7462b577c386cc67fa140aebc14c6da426eaaf010ea7a84e87c3",
          "transactionIndex": "0x4",
          "logIndex": "0x8",
          "removed": false
        }
      ],
      "logsBloom": "0x00000000000000000000000000000000400000000000000000000000000000000000000000000000000000000000000000000000000000000000000000000000000000000000000000000000000002000000000200000000000000000000000000000000000000000000000000000000000000800000000000000000000000000800000000000000008000000000000000000000000000000000000000800000000000000000000000000000000000000002000000000000000000000000000001000020000000000000000000000000000000000400000000080000000000000000000000000000000000000000000000000000000000000000000000000000",
      "type": "0x0",
      "transactionHash": "0xb1f83e9376da7462b577c386cc67fa140aebc14c6da426eaaf010ea7a84e87c3",
      "transactionIndex": "0x4",
      "blockHash": "0x23a9ea9c1c47bd20b1912781a19c0f74b4366b4512476334246f5db564eff23d",
      "blockNumber": "0x1d65a0a",
      "gasUsed": "0x9162c",
      "effectiveGasPrice": "0x5a1f53182",
      "blobGasPrice": "0x1",
      "from": "0x5128e3c1f8846724cc1007af9b4189713922e4bb",
      "to": "0x4e59b44847b379578588920ca78fbf26c0b4956c",
      "contractAddress": null
    },
    {
      "status": "0x1",
      "cumulativeGasUsed": "0x2a7bcc",
      "logs": [
        {
          "address": "0x861cf82ebebed3a99017cd5a271fbe71a4123302",
          "topics": [
            "0x8be0079c531659141344cd1fd0a4f28419497f9722a3daafe3b4186f6b6457e0",
            "0x0000000000000000000000000000000000000000000000000000000000000000",
            "0x0000000000000000000000005128e3c1f8846724cc1007af9b4189713922e4bb"
          ],
          "data": "0x",
          "blockHash": "0x23a9ea9c1c47bd20b1912781a19c0f74b4366b4512476334246f5db564eff23d",
          "blockNumber": "0x1d65a0a",
          "blockTimestamp": "0x67d1bfe6",
          "transactionHash": "0x4a3525d52d78753fc7f29f0a0a4e0f8dab4b9bc959ae1ca03f1adb8db883e00d",
          "transactionIndex": "0x5",
          "logIndex": "0x9",
          "removed": false
        },
        {
          "address": "0x861cf82ebebed3a99017cd5a271fbe71a4123302",
          "topics": [
            "0x27fe5f0c1c3b1ed427cc63d0f05759ffdecf9aec9e18d31ef366fc8a6cb5dc3b",
            "0x000000000000000000000000000000000000000000000000000000000000ce10"
          ],
          "data": "0x",
          "blockHash": "0x23a9ea9c1c47bd20b1912781a19c0f74b4366b4512476334246f5db564eff23d",
          "blockNumber": "0x1d65a0a",
          "blockTimestamp": "0x67d1bfe6",
          "transactionHash": "0x4a3525d52d78753fc7f29f0a0a4e0f8dab4b9bc959ae1ca03f1adb8db883e00d",
          "transactionIndex": "0x5",
          "logIndex": "0xa",
          "removed": false
        },
        {
          "address": "0x861cf82ebebed3a99017cd5a271fbe71a4123302",
          "topics": [
            "0x7bfe94ca3147f135fcd6d94ebf61d33fa34fbe904f933ccae66911b9548544f2"
          ],
          "data": "0x00000000000000000000000000000000000000000000000000000000bbf81e00",
          "blockHash": "0x23a9ea9c1c47bd20b1912781a19c0f74b4366b4512476334246f5db564eff23d",
          "blockNumber": "0x1d65a0a",
          "blockTimestamp": "0x67d1bfe6",
          "transactionHash": "0x4a3525d52d78753fc7f29f0a0a4e0f8dab4b9bc959ae1ca03f1adb8db883e00d",
          "transactionIndex": "0x5",
          "logIndex": "0xb",
          "removed": false
        },
        {
          "address": "0x861cf82ebebed3a99017cd5a271fbe71a4123302",
          "topics": [
            "0xb08f0607338ad77f5b08ccf831e533cefcc2d373c173e87a8f61144f1d82be1e"
          ],
          "data": "0x00000000000000000000000000000000000000000000d3c21bcecceda1000000",
          "blockHash": "0x23a9ea9c1c47bd20b1912781a19c0f74b4366b4512476334246f5db564eff23d",
          "blockNumber": "0x1d65a0a",
          "blockTimestamp": "0x67d1bfe6",
          "transactionHash": "0x4a3525d52d78753fc7f29f0a0a4e0f8dab4b9bc959ae1ca03f1adb8db883e00d",
          "transactionIndex": "0x5",
          "logIndex": "0xc",
          "removed": false
        },
        {
          "address": "0x861cf82ebebed3a99017cd5a271fbe71a4123302",
          "topics": [
            "0x55b488abd19ae7621712324d3d42c2ef7a9575f64f5503103286a1161fb40855"
          ],
          "data": "0x000000000000000000000000000000000000000000000000000000000000004000000000000000000000000000000000000000000000000000000000000000a00000000000000000000000000000000000000000000000000000000000000002635553440000000000000000000000000000000000000000000000000000000063474c4400000000000000000000000000000000000000000000000000000000000000000000000000000000000000000000000000000000000000000000000200000000000000000000000000000000000000000000d3c21bcecceda0ffffff0000000000000000000000000000000000000000000000000000000000000001",
          "blockHash": "0x23a9ea9c1c47bd20b1912781a19c0f74b4366b4512476334246f5db564eff23d",
          "blockNumber": "0x1d65a0a",
          "blockTimestamp": "0x67d1bfe6",
          "transactionHash": "0x4a3525d52d78753fc7f29f0a0a4e0f8dab4b9bc959ae1ca03f1adb8db883e00d",
          "transactionIndex": "0x5",
          "logIndex": "0xd",
          "removed": false
        },
        {
          "address": "0x861cf82ebebed3a99017cd5a271fbe71a4123302",
          "topics": [
            "0xfe69856ffb1b1d6cb00c1d8151726e6e95032b1666282eeb293ecadd58b29a6e"
          ],
          "data": "0x0000000000000000000000000000000000000000000000000000000000000000",
          "blockHash": "0x23a9ea9c1c47bd20b1912781a19c0f74b4366b4512476334246f5db564eff23d",
          "blockNumber": "0x1d65a0a",
          "blockTimestamp": "0x67d1bfe6",
          "transactionHash": "0x4a3525d52d78753fc7f29f0a0a4e0f8dab4b9bc959ae1ca03f1adb8db883e00d",
          "transactionIndex": "0x5",
          "logIndex": "0xe",
          "removed": false
        },
        {
          "address": "0x861cf82ebebed3a99017cd5a271fbe71a4123302",
          "topics": [
            "0x4da8e8b2223fbbb897200fb9dfb6b986c1b4188621114d407ee8ec363569fc37"
          ],
          "data": "0x0000000000000000000000000000000000000000000000000000000000000000",
          "blockHash": "0x23a9ea9c1c47bd20b1912781a19c0f74b4366b4512476334246f5db564eff23d",
          "blockNumber": "0x1d65a0a",
          "blockTimestamp": "0x67d1bfe6",
          "transactionHash": "0x4a3525d52d78753fc7f29f0a0a4e0f8dab4b9bc959ae1ca03f1adb8db883e00d",
          "transactionIndex": "0x5",
          "logIndex": "0xf",
          "removed": false
        },
        {
          "address": "0x861cf82ebebed3a99017cd5a271fbe71a4123302",
          "topics": [
            "0x0c7515883121475b5d9289febf21a9de4ad53f18349a856d90c7acd6e099600b"
          ],
          "data": "0x000000000000000000000000765de816845861e75a25fca122bb6898b8b1282a",
          "blockHash": "0x23a9ea9c1c47bd20b1912781a19c0f74b4366b4512476334246f5db564eff23d",
          "blockNumber": "0x1d65a0a",
          "blockTimestamp": "0x67d1bfe6",
          "transactionHash": "0x4a3525d52d78753fc7f29f0a0a4e0f8dab4b9bc959ae1ca03f1adb8db883e00d",
          "transactionIndex": "0x5",
          "logIndex": "0x10",
          "removed": false
        },
        {
          "address": "0x861cf82ebebed3a99017cd5a271fbe71a4123302",
          "topics": [
            "0x15ff5079dfbf448e4bb45ac83498c2ecb0833ad35916946bb683ccb49f8013a3"
          ],
          "data": "0x000000000000000000000000765de816845861e75a25fca122bb6898b8b1282a00000000000000000000000000000000000000000000d3c21bcecceda1000000",
          "blockHash": "0x23a9ea9c1c47bd20b1912781a19c0f74b4366b4512476334246f5db564eff23d",
          "blockNumber": "0x1d65a0a",
          "blockTimestamp": "0x67d1bfe6",
          "transactionHash": "0x4a3525d52d78753fc7f29f0a0a4e0f8dab4b9bc959ae1ca03f1adb8db883e00d",
          "transactionIndex": "0x5",
          "logIndex": "0x11",
          "removed": false
        }
      ],
      "logsBloom": "0x00000000000000001000000000000000000000000000800000800000000002000000000000200000000000000000000000000000000000000030000001000000004004000000000000000000000000004001000000000000000004040000040080080000020000000000000000000800000000020000200000000000000000400000000000024000000000000000004100000000000000000008000000000000000000000000000000000000000000000000000000010000080000000000000000000004000000000004000000000000000800000080000002000000000020000000000000000008000000000000040000000000000000000000100000000000",
      "type": "0x0",
      "transactionHash": "0x4a3525d52d78753fc7f29f0a0a4e0f8dab4b9bc959ae1ca03f1adb8db883e00d",
      "transactionIndex": "0x5",
      "blockHash": "0x23a9ea9c1c47bd20b1912781a19c0f74b4366b4512476334246f5db564eff23d",
      "blockNumber": "0x1d65a0a",
      "gasUsed": "0x5b379",
      "effectiveGasPrice": "0x5a1f53182",
      "blobGasPrice": "0x1",
      "from": "0x5128e3c1f8846724cc1007af9b4189713922e4bb",
      "to": "0x861cf82ebebed3a99017cd5a271fbe71a4123302",
      "contractAddress": null
    },
    {
      "status": "0x1",
      "cumulativeGasUsed": "0x4d8a54",
      "logs": [
        {
          "address": "0xaca417869dca426fc40ec8a2b7022e217ea233ef",
          "topics": [
            "0x8be0079c531659141344cd1fd0a4f28419497f9722a3daafe3b4186f6b6457e0",
            "0x0000000000000000000000000000000000000000000000000000000000000000",
            "0x0000000000000000000000005128e3c1f8846724cc1007af9b4189713922e4bb"
          ],
          "data": "0x",
          "blockHash": "0x23a9ea9c1c47bd20b1912781a19c0f74b4366b4512476334246f5db564eff23d",
          "blockNumber": "0x1d65a0a",
          "blockTimestamp": "0x67d1bfe6",
          "transactionHash": "0xee339ebbbe11ec6ec469a89710bbf2bc112fecbfadbf1f32ec4ccd74ead79618",
          "transactionIndex": "0x6",
          "logIndex": "0x12",
          "removed": false
        },
        {
          "address": "0xaca417869dca426fc40ec8a2b7022e217ea233ef",
          "topics": [
            "0x865dab7821134b6eb27cba259b40e33bbc1b898e970a535a18a83147f380a51f",
            "0x0000000000000000000000009f94b2cf2a2cc0c85a021f2c6a80095d14e6a0f2"
          ],
          "data": "0x",
          "blockHash": "0x23a9ea9c1c47bd20b1912781a19c0f74b4366b4512476334246f5db564eff23d",
          "blockNumber": "0x1d65a0a",
          "blockTimestamp": "0x67d1bfe6",
          "transactionHash": "0xee339ebbbe11ec6ec469a89710bbf2bc112fecbfadbf1f32ec4ccd74ead79618",
          "transactionIndex": "0x6",
          "logIndex": "0x13",
          "removed": false
        },
        {
          "address": "0xaca417869dca426fc40ec8a2b7022e217ea233ef",
          "topics": [
            "0x0b248ab246a87e452fbedee8dc12dfc53e3f3bfdc6920999062c56dea4ab522a",
            "0x000000000000000000000000861cf82ebebed3a99017cd5a271fbe71a4123302"
          ],
          "data": "0x",
          "blockHash": "0x23a9ea9c1c47bd20b1912781a19c0f74b4366b4512476334246f5db564eff23d",
          "blockNumber": "0x1d65a0a",
          "blockTimestamp": "0x67d1bfe6",
          "transactionHash": "0xee339ebbbe11ec6ec469a89710bbf2bc112fecbfadbf1f32ec4ccd74ead79618",
          "transactionIndex": "0x6",
          "logIndex": "0x14",
          "removed": false
        },
        {
          "address": "0xaca417869dca426fc40ec8a2b7022e217ea233ef",
          "topics": [
            "0x6791df7c014d19acfc9b7e3a5d48588a876b014fdd3321f193fef6b0ae785c24",
            "0x0000000000000000000000000249ec175b481028cdd857bf36f2bf08e6cc4754"
          ],
          "data": "0x",
          "blockHash": "0x23a9ea9c1c47bd20b1912781a19c0f74b4366b4512476334246f5db564eff23d",
          "blockNumber": "0x1d65a0a",
          "blockTimestamp": "0x67d1bfe6",
          "transactionHash": "0xee339ebbbe11ec6ec469a89710bbf2bc112fecbfadbf1f32ec4ccd74ead79618",
          "transactionIndex": "0x6",
          "logIndex": "0x15",
          "removed": false
        },
        {
          "address": "0xaca417869dca426fc40ec8a2b7022e217ea233ef",
          "topics": [
            "0x67b34afe551279f03ead7ef1a0ecd16bec18f83ab1a9834c7fda2627374aae9a",
            "0x000000000000000000000000495d133b938596c9984d462f007b676bdc57ecec"
          ],
          "data": "0x",
          "blockHash": "0x23a9ea9c1c47bd20b1912781a19c0f74b4366b4512476334246f5db564eff23d",
          "blockNumber": "0x1d65a0a",
          "blockTimestamp": "0x67d1bfe6",
          "transactionHash": "0xee339ebbbe11ec6ec469a89710bbf2bc112fecbfadbf1f32ec4ccd74ead79618",
          "transactionIndex": "0x6",
          "logIndex": "0x16",
          "removed": false
        },
        {
          "address": "0xaca417869dca426fc40ec8a2b7022e217ea233ef",
          "topics": [
            "0x7f26b83ff96e1f2b6a682f133852f6798a09c465da95921460cefb3847402498"
          ],
          "data": "0x0000000000000000000000000000000000000000000000000000000000000001",
          "blockHash": "0x23a9ea9c1c47bd20b1912781a19c0f74b4366b4512476334246f5db564eff23d",
          "blockNumber": "0x1d65a0a",
          "blockTimestamp": "0x67d1bfe6",
          "transactionHash": "0xee339ebbbe11ec6ec469a89710bbf2bc112fecbfadbf1f32ec4ccd74ead79618",
          "transactionIndex": "0x6",
          "logIndex": "0x17",
          "removed": false
        }
      ],
      "logsBloom": "0x20000000000000000040000000000000000000000800000000800000000000000000000000000000000000000000000000200001000000000000000000000000000004000000000000000001000000000001020000000000000000000000000000400000020200000400004000000800000000000000200000000000000801400000000000000000000004000000002000000000000080000000002000000000000000000000000800000000000400000000800000000000000000000000000000002000000000000004000000040000000000020000000000002000000020800000040000000000000000000000004000000000004002000001000000000000",
      "type": "0x0",
      "transactionHash": "0xee339ebbbe11ec6ec469a89710bbf2bc112fecbfadbf1f32ec4ccd74ead79618",
      "transactionIndex": "0x6",
      "blockHash": "0x23a9ea9c1c47bd20b1912781a19c0f74b4366b4512476334246f5db564eff23d",
      "blockNumber": "0x1d65a0a",
      "gasUsed": "0x230e88",
      "effectiveGasPrice": "0x5a1f53182",
      "blobGasPrice": "0x1",
      "from": "0x5128e3c1f8846724cc1007af9b4189713922e4bb",
      "to": "0xaca417869dca426fc40ec8a2b7022e217ea233ef",
      "contractAddress": null
    },
    {
      "status": "0x1",
      "cumulativeGasUsed": "0x2a144",
      "logs": [
        {
          "address": "0x0249ec175b481028cdd857bf36f2bf08e6cc4754",
          "topics": [
            "0x8be0079c531659141344cd1fd0a4f28419497f9722a3daafe3b4186f6b6457e0",
            "0x0000000000000000000000000000000000000000000000000000000000000000",
            "0x0000000000000000000000005128e3c1f8846724cc1007af9b4189713922e4bb"
          ],
          "data": "0x",
          "blockHash": "0x0d87f0b4520657fa4cbb203a081510282666e95bb8ac381f0d08c65824ffbe26",
          "blockNumber": "0x1d65a0b",
          "blockTimestamp": "0x67d1bfe6",
          "transactionHash": "0xdc72dc2530df1f258593fdc575cc8158b2ac7a56e221fd51eac61d4fe601993a",
          "transactionIndex": "0x0",
          "logIndex": "0x0",
          "removed": false
        },
        {
          "address": "0x0249ec175b481028cdd857bf36f2bf08e6cc4754",
          "topics": [
            "0xbbee0329d0a3c6241c11b82178f5039a54f654d789f3d9cbb471bf12f0c77e8f",
            "0x000000000000000000000000aca417869dca426fc40ec8a2b7022e217ea233ef"
          ],
          "data": "0x",
          "blockHash": "0x0d87f0b4520657fa4cbb203a081510282666e95bb8ac381f0d08c65824ffbe26",
          "blockNumber": "0x1d65a0b",
          "blockTimestamp": "0x67d1bfe6",
          "transactionHash": "0xdc72dc2530df1f258593fdc575cc8158b2ac7a56e221fd51eac61d4fe601993a",
          "transactionIndex": "0x0",
          "logIndex": "0x1",
          "removed": false
        },
        {
          "address": "0x0249ec175b481028cdd857bf36f2bf08e6cc4754",
          "topics": [
            "0x37bb6eaf6f31a018c4328eb0343706d73df678b663b21b972351d2528f755af5",
            "0x000000000000000000000000b67d723ad4e71e23b780b917e55f6f58fc18cc9e"
          ],
          "data": "0x",
          "blockHash": "0x0d87f0b4520657fa4cbb203a081510282666e95bb8ac381f0d08c65824ffbe26",
          "blockNumber": "0x1d65a0b",
          "blockTimestamp": "0x67d1bfe6",
          "transactionHash": "0xdc72dc2530df1f258593fdc575cc8158b2ac7a56e221fd51eac61d4fe601993a",
          "transactionIndex": "0x0",
          "logIndex": "0x2",
          "removed": false
        },
        {
          "address": "0x0249ec175b481028cdd857bf36f2bf08e6cc4754",
          "topics": [
            "0x0b248ab246a87e452fbedee8dc12dfc53e3f3bfdc6920999062c56dea4ab522a",
            "0x000000000000000000000000861cf82ebebed3a99017cd5a271fbe71a4123302"
          ],
          "data": "0x",
          "blockHash": "0x0d87f0b4520657fa4cbb203a081510282666e95bb8ac381f0d08c65824ffbe26",
          "blockNumber": "0x1d65a0b",
          "blockTimestamp": "0x67d1bfe6",
          "transactionHash": "0xdc72dc2530df1f258593fdc575cc8158b2ac7a56e221fd51eac61d4fe601993a",
          "transactionIndex": "0x0",
          "logIndex": "0x3",
          "removed": false
        },
        {
          "address": "0x0249ec175b481028cdd857bf36f2bf08e6cc4754",
          "topics": [
            "0x67b34afe551279f03ead7ef1a0ecd16bec18f83ab1a9834c7fda2627374aae9a",
            "0x000000000000000000000000495d133b938596c9984d462f007b676bdc57ecec"
          ],
          "data": "0x",
          "blockHash": "0x0d87f0b4520657fa4cbb203a081510282666e95bb8ac381f0d08c65824ffbe26",
          "blockNumber": "0x1d65a0b",
          "blockTimestamp": "0x67d1bfe6",
          "transactionHash": "0xdc72dc2530df1f258593fdc575cc8158b2ac7a56e221fd51eac61d4fe601993a",
          "transactionIndex": "0x0",
          "logIndex": "0x4",
          "removed": false
        },
        {
          "address": "0x0249ec175b481028cdd857bf36f2bf08e6cc4754",
          "topics": [
            "0x7f26b83ff96e1f2b6a682f133852f6798a09c465da95921460cefb3847402498"
          ],
          "data": "0x0000000000000000000000000000000000000000000000000000000000000001",
          "blockHash": "0x0d87f0b4520657fa4cbb203a081510282666e95bb8ac381f0d08c65824ffbe26",
          "blockNumber": "0x1d65a0b",
          "blockTimestamp": "0x67d1bfe6",
          "transactionHash": "0xdc72dc2530df1f258593fdc575cc8158b2ac7a56e221fd51eac61d4fe601993a",
          "transactionIndex": "0x0",
          "logIndex": "0x5",
          "removed": false
        }
      ],
      "logsBloom": "0x20000000000000000000000000000000000000000800000000800000000000000000000010000000000000000000000000000000000000000000000000000000000004000000000000000000000000000201020200000000000000000000000000440000020600000000000000000800000000000000200000080000000000400800000000000000008004000000000000000000000080000000002040000000000000100000400000000000000400000000000000000000000000000000004000002000000800000006000000040000000000000000000000000000080020800000040000000000000000000000000000000000004002000000000000000000",
      "type": "0x0",
      "transactionHash": "0xdc72dc2530df1f258593fdc575cc8158b2ac7a56e221fd51eac61d4fe601993a",
      "transactionIndex": "0x0",
      "blockHash": "0x0d87f0b4520657fa4cbb203a081510282666e95bb8ac381f0d08c65824ffbe26",
      "blockNumber": "0x1d65a0b",
      "gasUsed": "0x2a144",
      "effectiveGasPrice": "0x5a1f53182",
      "blobGasPrice": "0x1",
      "from": "0x5128e3c1f8846724cc1007af9b4189713922e4bb",
      "to": "0x0249ec175b481028cdd857bf36f2bf08e6cc4754",
      "contractAddress": null
    },
    {
      "status": "0x1",
      "cumulativeGasUsed": "0x4dfb7",
      "logs": [
        {
          "address": "0x9f94b2cf2a2cc0c85a021f2c6a80095d14e6a0f2",
          "topics": [
            "0x8be0079c531659141344cd1fd0a4f28419497f9722a3daafe3b4186f6b6457e0",
            "0x0000000000000000000000000000000000000000000000000000000000000000",
            "0x0000000000000000000000005128e3c1f8846724cc1007af9b4189713922e4bb"
          ],
          "data": "0x",
          "blockHash": "0x0d87f0b4520657fa4cbb203a081510282666e95bb8ac381f0d08c65824ffbe26",
          "blockNumber": "0x1d65a0b",
          "blockTimestamp": "0x67d1bfe6",
          "transactionHash": "0xe0466a22e89c111ed16a75f1925116a8629fa7ab47926ba3ef33beccbf5635cb",
          "transactionIndex": "0x1",
          "logIndex": "0x6",
          "removed": false
        },
        {
          "address": "0x9f94b2cf2a2cc0c85a021f2c6a80095d14e6a0f2",
          "topics": [
            "0x2ee2cb0721ec60b86190cae5c48e25064b69b35abad32452a4ec99d232033de2",
            "0x000000000000000000000000aca417869dca426fc40ec8a2b7022e217ea233ef"
          ],
          "data": "0x",
          "blockHash": "0x0d87f0b4520657fa4cbb203a081510282666e95bb8ac381f0d08c65824ffbe26",
          "blockNumber": "0x1d65a0b",
          "blockTimestamp": "0x67d1bfe6",
          "transactionHash": "0xe0466a22e89c111ed16a75f1925116a8629fa7ab47926ba3ef33beccbf5635cb",
          "transactionIndex": "0x1",
          "logIndex": "0x7",
          "removed": false
        },
        {
          "address": "0x9f94b2cf2a2cc0c85a021f2c6a80095d14e6a0f2",
          "topics": [
            "0xb69e1c416d8be92ac92c8e97e77c4626fba5e6ab50161099f659ea3303479e50",
            "0x000000000000000000000000aca417869dca426fc40ec8a2b7022e217ea233ef",
            "0x000000000000000000000000861cf82ebebed3a99017cd5a271fbe71a4123302"
          ],
          "data": "0x",
          "blockHash": "0x0d87f0b4520657fa4cbb203a081510282666e95bb8ac381f0d08c65824ffbe26",
          "blockNumber": "0x1d65a0b",
          "blockTimestamp": "0x67d1bfe6",
          "transactionHash": "0xe0466a22e89c111ed16a75f1925116a8629fa7ab47926ba3ef33beccbf5635cb",
          "transactionIndex": "0x1",
          "logIndex": "0x8",
          "removed": false
        }
      ],
      "logsBloom": "0x00000000000100100000000000000000000000000000000000800000000000000000000000000000000000000000000000000000000000000000000000080000000004000000000000000000000000000001000000000000000000000000000000000100020400000000000000000800000000000000200000080000000000400000000000001000000000000000000000000000000000000000000000000000000000000000000000000020000000000000400000000200000000000020004000000000000000000004000000000000000000000000000000000000000020800000040000000000000000000000000000000000004000000000000000000000",
      "type": "0x0",
      "transactionHash": "0xe0466a22e89c111ed16a75f1925116a8629fa7ab47926ba3ef33beccbf5635cb",
      "transactionIndex": "0x1",
      "blockHash": "0x0d87f0b4520657fa4cbb203a081510282666e95bb8ac381f0d08c65824ffbe26",
      "blockNumber": "0x1d65a0b",
      "gasUsed": "0x23e73",
      "effectiveGasPrice": "0x5a1f53182",
      "blobGasPrice": "0x1",
      "from": "0x5128e3c1f8846724cc1007af9b4189713922e4bb",
      "to": "0x9f94b2cf2a2cc0c85a021f2c6a80095d14e6a0f2",
      "contractAddress": null
    },
    {
      "status": "0x1",
      "cumulativeGasUsed": "0x6624f",
      "logs": [
        {
          "address": "0x861cf82ebebed3a99017cd5a271fbe71a4123302",
          "topics": [
            "0x784c8f4dbf0ffedd6e72c76501c545a70f8b203b30a26ce542bf92ba87c248a4",
            "0x00000000000000000000000062b8b11039fcfe5ab0c56e502b1c372a3d2a9c7a"
          ],
          "data": "0x",
          "blockHash": "0x0d87f0b4520657fa4cbb203a081510282666e95bb8ac381f0d08c65824ffbe26",
          "blockNumber": "0x1d65a0b",
          "blockTimestamp": "0x67d1bfe6",
          "transactionHash": "0xd965ffd8d6350d2d361c38d54f720b4840fb7d50a6f4fcb1588006d538a76cf5",
          "transactionIndex": "0x2",
          "logIndex": "0x9",
          "removed": false
        }
      ],
      "logsBloom": "0x00000000000000000000000000000000000000000000800000000000000040000000000000000000000000000000000000000000000000000000000000000000000000000000000000000000000000000000000000000000000000000000000000000000000000000000000000000000100000000000200000000000000000000000000000000000000000000000004000000000000000000000000000000000000000000000000000280000000000000000000000000000000000000000000000000000000000000000000000000000000000000000000000000000000000000000000000000000000000000000040000000000000000001000000000000000",
      "type": "0x0",
      "transactionHash": "0xd965ffd8d6350d2d361c38d54f720b4840fb7d50a6f4fcb1588006d538a76cf5",
      "transactionIndex": "0x2",
      "blockHash": "0x0d87f0b4520657fa4cbb203a081510282666e95bb8ac381f0d08c65824ffbe26",
      "blockNumber": "0x1d65a0b",
      "gasUsed": "0x18298",
      "effectiveGasPrice": "0x5a1f53182",
      "blobGasPrice": "0x1",
      "from": "0x5128e3c1f8846724cc1007af9b4189713922e4bb",
      "to": "0x861cf82ebebed3a99017cd5a271fbe71a4123302",
      "contractAddress": null
    },
    {
      "status": "0x1",
      "cumulativeGasUsed": "0x7e4c2",
      "logs": [
        {
          "address": "0x861cf82ebebed3a99017cd5a271fbe71a4123302",
          "topics": [
            "0x71bccdb89fff4d914e3d2e472b327e3debaf4c4d6f1dfe528f430447e4cbcf5f",
            "0x0000000000000000000000009f94b2cf2a2cc0c85a021f2c6a80095d14e6a0f2"
          ],
          "data": "0x",
          "blockHash": "0x0d87f0b4520657fa4cbb203a081510282666e95bb8ac381f0d08c65824ffbe26",
          "blockNumber": "0x1d65a0b",
          "blockTimestamp": "0x67d1bfe6",
          "transactionHash": "0xfaf9371cd305a0952e154485463b4558666f122c21b369d4ce121bf8c21bf3a2",
          "transactionIndex": "0x3",
          "logIndex": "0xa",
          "removed": false
        }
      ],
      "logsBloom": "0x00000000000000000000000000000000000000000000800000000000000000000000000000000000000000000000000000000001000000000000000000000000000000000000000000000000000000000000000000000000000000000000000000000000000000000440000000000000000000000000000000000000000000000000000000000000000000000000006000000000000000000000000000000000000000000000000000000000000000000000000000000000008000000000000000000000000000000000000000000000000000000000000000000000000000000000000000000000000000000000040004000000000000000000000000000000",
      "type": "0x0",
      "transactionHash": "0xfaf9371cd305a0952e154485463b4558666f122c21b369d4ce121bf8c21bf3a2",
      "transactionIndex": "0x3",
      "blockHash": "0x0d87f0b4520657fa4cbb203a081510282666e95bb8ac381f0d08c65824ffbe26",
      "blockNumber": "0x1d65a0b",
      "gasUsed": "0x18273",
      "effectiveGasPrice": "0x5a1f53182",
      "blobGasPrice": "0x1",
      "from": "0x5128e3c1f8846724cc1007af9b4189713922e4bb",
      "to": "0x861cf82ebebed3a99017cd5a271fbe71a4123302",
      "contractAddress": null
    },
    {
      "status": "0x1",
      "cumulativeGasUsed": "0x8b97b",
      "logs": [
        {
          "address": "0x861cf82ebebed3a99017cd5a271fbe71a4123302",
          "topics": [
            "0x3139419c41cdd7abca84fa19dd21118cd285d3e2ce1a9444e8161ce9fa62fdcd",
            "0x000000000000000000000000495d133b938596c9984d462f007b676bdc57ecec"
          ],
          "data": "0x",
          "blockHash": "0x0d87f0b4520657fa4cbb203a081510282666e95bb8ac381f0d08c65824ffbe26",
          "blockNumber": "0x1d65a0b",
          "blockTimestamp": "0x67d1bfe6",
          "transactionHash": "0xd84877047a5992ea97469fd2190f3191d11acecc603948f0dfebd1c8c8ed94b0",
          "transactionIndex": "0x4",
          "logIndex": "0xb",
          "removed": false
        }
      ],
      "logsBloom": "0x20000000000000000000000000000000000000000800800000000000000000000000000000000000000000000000000000000000000000000000000000000000000000000000000000000000000000000000000000000000400000000000000000400000000000000000000000000000000000000000000000000000000000000000000000000000000000000000004000000000000000000000000000000000000000000000000000000000000000000000000000000000000000000000000000000000000000000000000000000000000000000000000000000000000000000000000000000000000000000000040000000004000000000000000000000004",
      "type": "0x0",
      "transactionHash": "0xd84877047a5992ea97469fd2190f3191d11acecc603948f0dfebd1c8c8ed94b0",
      "transactionIndex": "0x4",
      "blockHash": "0x0d87f0b4520657fa4cbb203a081510282666e95bb8ac381f0d08c65824ffbe26",
      "blockNumber": "0x1d65a0b",
      "gasUsed": "0xd4b9",
      "effectiveGasPrice": "0x5a1f53182",
      "blobGasPrice": "0x1",
      "from": "0x5128e3c1f8846724cc1007af9b4189713922e4bb",
      "to": "0x861cf82ebebed3a99017cd5a271fbe71a4123302",
      "contractAddress": null
    },
    {
      "status": "0x1",
      "cumulativeGasUsed": "0xa3c08",
      "logs": [
        {
          "address": "0x861cf82ebebed3a99017cd5a271fbe71a4123302",
          "topics": [
            "0xd78793225285ecf9cf5f0f84b1cdc335c2cb4d6810ff0b9fd156ad6026c89cea",
            "0x000000000000000000000000495d133b938596c9984d462f007b676bdc57ecec"
          ],
          "data": "0x",
          "blockHash": "0x0d87f0b4520657fa4cbb203a081510282666e95bb8ac381f0d08c65824ffbe26",
          "blockNumber": "0x1d65a0b",
          "blockTimestamp": "0x67d1bfe6",
          "transactionHash": "0x41cdb86a80ec305e6803cd3486a6b2e7e0c8f4784d3a49afa08d92f60d7fceb2",
          "transactionIndex": "0x5",
          "logIndex": "0xc",
          "removed": false
        }
      ],
      "logsBloom": "0x20000000000000000000000000000000000000000800800000000000000000000000000000000000000000000000000000000000000000000000000000000000000000000000000000000000000000000000000000000000000000000000000001400100000000000000000000000000000000000000000000000000000000000000000000000000000000000000004000000000000000000000000000000000000000000000000000000000000000000000000000000000000000000000000000000000000000000000000000000000000000000000000000000000000000000000000000000000000000000000040000000000000000000000010000000000",
      "type": "0x0",
      "transactionHash": "0x41cdb86a80ec305e6803cd3486a6b2e7e0c8f4784d3a49afa08d92f60d7fceb2",
      "transactionIndex": "0x5",
      "blockHash": "0x0d87f0b4520657fa4cbb203a081510282666e95bb8ac381f0d08c65824ffbe26",
      "blockNumber": "0x1d65a0b",
      "gasUsed": "0x1828d",
      "effectiveGasPrice": "0x5a1f53182",
      "blobGasPrice": "0x1",
      "from": "0x5128e3c1f8846724cc1007af9b4189713922e4bb",
      "to": "0x861cf82ebebed3a99017cd5a271fbe71a4123302",
      "contractAddress": null
    },
    {
      "status": "0x1",
      "cumulativeGasUsed": "0xb3b82",
      "logs": [
        {
          "address": "0x9f94b2cf2a2cc0c85a021f2c6a80095d14e6a0f2",
          "topics": [
            "0x1a082a1efaf1549c18917ddcb1f759680c29371609e24f4b946e93acf4ce5ad2"
          ],
          "data": "0xba77f5c7bb3317643c6d81d1ef3f9913561741d92095f88efa402faf2cbe9124000000000000000000000000765de816845861e75a25fca122bb6898b8b1282a0000000000000000000000000000000000000000000000000000000000093a800000000000000000000000000000000000000000000000000000000000278d000000000000000000000000000000000000000000000000000000000000009c40000000000000000000000000000000000000000000000000000000000001388000000000000000000000000000000000000000000000000000007fffffffffff0000000000000000000000000000000000000000000000000000000000000007",
          "blockHash": "0x0d87f0b4520657fa4cbb203a081510282666e95bb8ac381f0d08c65824ffbe26",
          "blockNumber": "0x1d65a0b",
          "blockTimestamp": "0x67d1bfe6",
          "transactionHash": "0xbc08b734ab6ba86f2c60206f467d77fa859487629ad32523763730386e48e374",
          "transactionIndex": "0x6",
          "logIndex": "0xd",
          "removed": false
        }
      ],
      "logsBloom": "0x00000000000000000000000000000000000000000000000000000000000000000000000000000000000000000000000000000000000000000000020000000000000000000000000000000000000000000000000000000000000000000000000000000100000000000000000000000000000000000000000000000000000000000000000000000000000000000000000000000000000000000000000000000000000000000000000000000000000000000000400000000000000000000020000000000000000000000000000000000000000000000000000000000000000000000000000000000000000000000000000000000000000010000010000000000000",
      "type": "0x0",
      "transactionHash": "0xbc08b734ab6ba86f2c60206f467d77fa859487629ad32523763730386e48e374",
      "transactionIndex": "0x6",
      "blockHash": "0x0d87f0b4520657fa4cbb203a081510282666e95bb8ac381f0d08c65824ffbe26",
      "blockNumber": "0x1d65a0b",
      "gasUsed": "0xff7a",
      "effectiveGasPrice": "0x5a1f53182",
      "blobGasPrice": "0x1",
      "from": "0x5128e3c1f8846724cc1007af9b4189713922e4bb",
      "to": "0x9f94b2cf2a2cc0c85a021f2c6a80095d14e6a0f2",
      "contractAddress": null
    },
    {
      "status": "0x1",
      "cumulativeGasUsed": "0x8c11",
      "logs": [
        {
          "address": "0x9f94b2cf2a2cc0c85a021f2c6a80095d14e6a0f2",
          "topics": [
            "0x8be0079c531659141344cd1fd0a4f28419497f9722a3daafe3b4186f6b6457e0",
            "0x0000000000000000000000005128e3c1f8846724cc1007af9b4189713922e4bb",
            "0x000000000000000000000000495d133b938596c9984d462f007b676bdc57ecec"
          ],
          "data": "0x",
          "blockHash": "0x8d1d599dc20d08f0905ee89e2f9abc60098a016b65d9c7df8008a9e6480f090e",
          "blockNumber": "0x1d65a0c",
          "blockTimestamp": "0x67d1bfe6",
          "transactionHash": "0x2533f05714ea296d7142150fb76b52ce47b85b8d21c1390601da2889ee2c297f",
          "transactionIndex": "0x0",
          "logIndex": "0x0",
          "removed": false
        }
      ],
      "logsBloom": "0x20000000000000000000000000000000000000000800000000800000000000000000000000000000000000000000000000000000000000000000000000000000000004000000000000000000000000000001000000000000000000000000000000400100000000000000000000000000000000000000200000000000000000400000000000000000000000000000000000000000000000000000000000000000000000000000000000000000000000000000400000000000000000000020000000000000000000000004000000000000000000000000000000000000000000000000000000000000000000000000000000000000000000000000000000000000",
      "type": "0x0",
      "transactionHash": "0x2533f05714ea296d7142150fb76b52ce47b85b8d21c1390601da2889ee2c297f",
      "transactionIndex": "0x0",
      "blockHash": "0x8d1d599dc20d08f0905ee89e2f9abc60098a016b65d9c7df8008a9e6480f090e",
      "blockNumber": "0x1d65a0c",
      "gasUsed": "0x8c11",
      "effectiveGasPrice": "0x5a1f53182",
      "blobGasPrice": "0x1",
      "from": "0x5128e3c1f8846724cc1007af9b4189713922e4bb",
      "to": "0x9f94b2cf2a2cc0c85a021f2c6a80095d14e6a0f2",
      "contractAddress": null
    },
    {
      "status": "0x1",
      "cumulativeGasUsed": "0x11836",
      "logs": [
        {
          "address": "0x861cf82ebebed3a99017cd5a271fbe71a4123302",
          "topics": [
            "0x8be0079c531659141344cd1fd0a4f28419497f9722a3daafe3b4186f6b6457e0",
            "0x0000000000000000000000005128e3c1f8846724cc1007af9b4189713922e4bb",
            "0x000000000000000000000000495d133b938596c9984d462f007b676bdc57ecec"
          ],
          "data": "0x",
          "blockHash": "0x8d1d599dc20d08f0905ee89e2f9abc60098a016b65d9c7df8008a9e6480f090e",
          "blockNumber": "0x1d65a0c",
          "blockTimestamp": "0x67d1bfe6",
          "transactionHash": "0xbe83681c2ee1e171aae097d91ee00ab7f3e8d63131e729692c4071e107ce0351",
          "transactionIndex": "0x1",
          "logIndex": "0x1",
          "removed": false
        }
      ],
      "logsBloom": "0x20000000000000000000000000000000000000000800800000800000000000000000000000000000000000000000000000000000000000000000000000000000000004000000000000000000000000000001000000000000000000000000000000400000000000000000000000000000000000000000200000000000000000400000000000000000000000000000004000000000000000000000000000000000000000000000000000000000000000000000000000000000000000000000000000000000000000000004000000000000000000000000000000000000000000000000000000000000000000000000040000000000000000000000000000000000",
      "type": "0x0",
      "transactionHash": "0xbe83681c2ee1e171aae097d91ee00ab7f3e8d63131e729692c4071e107ce0351",
      "transactionIndex": "0x1",
      "blockHash": "0x8d1d599dc20d08f0905ee89e2f9abc60098a016b65d9c7df8008a9e6480f090e",
      "blockNumber": "0x1d65a0c",
      "gasUsed": "0x8c25",
      "effectiveGasPrice": "0x5a1f53182",
      "blobGasPrice": "0x1",
      "from": "0x5128e3c1f8846724cc1007af9b4189713922e4bb",
      "to": "0x861cf82ebebed3a99017cd5a271fbe71a4123302",
      "contractAddress": null
    },
    {
      "status": "0x1",
      "cumulativeGasUsed": "0x1a3fa",
      "logs": [
        {
          "address": "0xaca417869dca426fc40ec8a2b7022e217ea233ef",
          "topics": [
            "0x8be0079c531659141344cd1fd0a4f28419497f9722a3daafe3b4186f6b6457e0",
            "0x0000000000000000000000005128e3c1f8846724cc1007af9b4189713922e4bb",
            "0x000000000000000000000000495d133b938596c9984d462f007b676bdc57ecec"
          ],
          "data": "0x",
          "blockHash": "0x8d1d599dc20d08f0905ee89e2f9abc60098a016b65d9c7df8008a9e6480f090e",
          "blockNumber": "0x1d65a0c",
          "blockTimestamp": "0x67d1bfe6",
          "transactionHash": "0xf94b904ba76386fbc09be96b2ec2cd771a240297d9b0ad57f6c4c2a471979892",
          "transactionIndex": "0x2",
          "logIndex": "0x2",
          "removed": false
        }
      ],
      "logsBloom": "0x20000000000000000040000000000000000000000800000000800000000000000000000000000000000000000000000000200000000000000000000000000000000004000000000000000000000000000001000000000000000000000000000000400000000000000000000000000000000000000000200000000000000000400000000000000000000000000000000000000000000000000000000000000000000000000000000000000000000000000000000000000000000000000000000000000000000000000004000000000000000000000000000000000000000000000000000000000000000000000000000000000000000000000001000000000000",
      "type": "0x0",
      "transactionHash": "0xf94b904ba76386fbc09be96b2ec2cd771a240297d9b0ad57f6c4c2a471979892",
      "transactionIndex": "0x2",
      "blockHash": "0x8d1d599dc20d08f0905ee89e2f9abc60098a016b65d9c7df8008a9e6480f090e",
      "blockNumber": "0x1d65a0c",
      "gasUsed": "0x8bc4",
      "effectiveGasPrice": "0x5a1f53182",
      "blobGasPrice": "0x1",
      "from": "0x5128e3c1f8846724cc1007af9b4189713922e4bb",
      "to": "0xaca417869dca426fc40ec8a2b7022e217ea233ef",
      "contractAddress": null
    },
    {
      "status": "0x1",
      "cumulativeGasUsed": "0x22fb8",
      "logs": [
        {
          "address": "0x0249ec175b481028cdd857bf36f2bf08e6cc4754",
          "topics": [
            "0x8be0079c531659141344cd1fd0a4f28419497f9722a3daafe3b4186f6b6457e0",
            "0x0000000000000000000000005128e3c1f8846724cc1007af9b4189713922e4bb",
            "0x000000000000000000000000495d133b938596c9984d462f007b676bdc57ecec"
          ],
          "data": "0x",
          "blockHash": "0x8d1d599dc20d08f0905ee89e2f9abc60098a016b65d9c7df8008a9e6480f090e",
          "blockNumber": "0x1d65a0c",
          "blockTimestamp": "0x67d1bfe6",
          "transactionHash": "0x4c526fae1a33cbccd0d31d77afc21717bcd06732e36dcb33811109c718ab149f",
          "transactionIndex": "0x3",
          "logIndex": "0x3",
          "removed": false
        }
      ],
      "logsBloom": "0x20000000000000000000000000000000000000000800000000800000000000000000000000000000000000000000000000000000000000000000000000000000000004000000000000000000000000000001000200000000000000000000000000400000000000000000000000000000000000000000200000000000000000400800000000000000008000000000000000000000000000000000000000000000000000000000000000000000000000000000000000000000000000000000000000000000000000000004000000000000000000000000000000000000000000000000000000000000000000000000000000000000000000000000000000000000",
      "type": "0x0",
      "transactionHash": "0x4c526fae1a33cbccd0d31d77afc21717bcd06732e36dcb33811109c718ab149f",
      "transactionIndex": "0x3",
      "blockHash": "0x8d1d599dc20d08f0905ee89e2f9abc60098a016b65d9c7df8008a9e6480f090e",
      "blockNumber": "0x1d65a0c",
      "gasUsed": "0x8bbe",
      "effectiveGasPrice": "0x5a1f53182",
      "blobGasPrice": "0x1",
      "from": "0x5128e3c1f8846724cc1007af9b4189713922e4bb",
      "to": "0x0249ec175b481028cdd857bf36f2bf08e6cc4754",
      "contractAddress": null
    }
  ],
  "libraries": [],
  "pending": [],
  "returns": {},
  "timestamp": 1741799403,
  "chain": 42220,
  "commit": "af4b7d6"
}