{
  "transactions": [
    {
      "hash": "0xffe2f0970e00fbe2dd2e181cc8cd62854f8dbe512b526ad92c22cce1d6fba451",
      "transactionType": "CREATE",
      "contractName": "ProxyAdmin.0.8.18",
      "contractAddress": "0x10c69b37ca78ef9d9294eaed1d84d8a63bb61c85",
      "function": null,
      "arguments": null,
      "transaction": {
        "from": "0x2ceade86a04e474f3cf9bd87208514d818010627",
        "gas": "0x88835",
        "value": "0x0",
        "input": "0x608060405234801561001057600080fd5b5061001a3361001f565b61006f565b600080546001600160a01b038381166001600160a01b0319831681178455604051919092169283917f8be0079c531659141344cd1fd0a4f28419497f9722a3daafe3b4186f6b6457e09190a35050565b61065d8061007e6000396000f3fe60806040526004361061007b5760003560e01c80639623609d1161004e5780639623609d1461011157806399a88ec414610124578063f2fde38b14610144578063f3b7dead1461016457600080fd5b8063204e1c7a14610080578063715018a6146100bc5780637eff275e146100d35780638da5cb5b146100f3575b600080fd5b34801561008c57600080fd5b506100a061009b366004610499565b610184565b6040516001600160a01b03909116815260200160405180910390f35b3480156100c857600080fd5b506100d1610215565b005b3480156100df57600080fd5b506100d16100ee3660046104bd565b610229565b3480156100ff57600080fd5b506000546001600160a01b03166100a0565b6100d161011f36600461050c565b610291565b34801561013057600080fd5b506100d161013f3660046104bd565b610300565b34801561015057600080fd5b506100d161015f366004610499565b610336565b34801561017057600080fd5b506100a061017f366004610499565b6103b4565b6000806000836001600160a01b03166040516101aa90635c60da1b60e01b815260040190565b600060405180830381855afa9150503d80600081146101e5576040519150601f19603f3d011682016040523d82523d6000602084013e6101ea565b606091505b5091509150816101f957600080fd5b8080602001905181019061020d91906105e2565b949350505050565b61021d6103da565b6102276000610434565b565b6102316103da565b6040516308f2839760e41b81526001600160a01b038281166004830152831690638f283970906024015b600060405180830381600087803b15801561027557600080fd5b505af1158015610289573d6000803e3d6000fd5b505050505050565b6102996103da565b60405163278f794360e11b81526001600160a01b03841690634f1ef2869034906102c990869086906004016105ff565b6000604051808303818588803b1580156102e257600080fd5b505af11580156102f6573d6000803e3d6000fd5b5050505050505050565b6103086103da565b604051631b2ce7f360e11b81526001600160a01b038281166004830152831690633659cfe69060240161025b565b61033e6103da565b6001600160a01b0381166103a85760405162461bcd60e51b815260206004820152602660248201527f4f776e61626c653a206e6577206f776e657220697320746865207a65726f206160448201526564647265737360d01b60648201526084015b60405180910390fd5b6103b181610434565b50565b6000806000836001600160a01b03166040516101aa906303e1469160e61b815260040190565b6000546001600160a01b031633146102275760405162461bcd60e51b815260206004820181905260248201527f4f776e61626c653a2063616c6c6572206973206e6f7420746865206f776e6572604482015260640161039f565b600080546001600160a01b038381166001600160a01b0319831681178455604051919092169283917f8be0079c531659141344cd1fd0a4f28419497f9722a3daafe3b4186f6b6457e09190a35050565b6001600160a01b03811681146103b157600080fd5b6000602082840312156104ab57600080fd5b81356104b681610484565b9392505050565b600080604083850312156104d057600080fd5b82356104db81610484565b915060208301356104eb81610484565b809150509250929050565b634e487b7160e01b600052604160045260246000fd5b60008060006060848603121561052157600080fd5b833561052c81610484565b9250602084013561053c81610484565b9150604084013567ffffffffffffffff8082111561055957600080fd5b818601915086601f83011261056d57600080fd5b81358181111561057f5761057f6104f6565b604051601f8201601f19908116603f011681019083821181831017156105a7576105a76104f6565b816040528281528960208487010111156105c057600080fd5b8260208601602083013760006020848301015280955050505050509250925092565b6000602082840312156105f457600080fd5b81516104b681610484565b60018060a01b038316815260006020604081840152835180604085015260005b8181101561063b5785810183015185820160600152820161061f565b506000606082860101526060601f19601f83011685010192505050939250505056",
        "nonce": "0x478",
        "chainId": "0xa4ec"
      },
      "additionalContracts": [],
      "isFixedGasLimit": false
    },
    {
      "hash": "0x7935fc12e327feb1613c3041e8870b644a1b8377829975f8ffc6e6b3716db30c",
      "transactionType": "CALL",
      "contractName": "ProxyAdmin.0.8.18",
      "contractAddress": "0x10c69b37ca78ef9d9294eaed1d84d8a63bb61c85",
      "function": "transferOwnership(address)",
      "arguments": [
        "0x14204392270CD38D02C43465909Cade33BF5D6E5"
      ],
      "transaction": {
        "from": "0x2ceade86a04e474f3cf9bd87208514d818010627",
        "to": "0x10c69b37ca78ef9d9294eaed1d84d8a63bb61c85",
        "gas": "0xa367",
        "value": "0x0",
        "input": "0xf2fde38b00000000000000000000000014204392270cd38d02c43465909cade33bf5d6e5",
        "nonce": "0x479",
        "chainId": "0xa4ec"
      },
      "additionalContracts": [],
      "isFixedGasLimit": false
    },
    {
      "hash": "0x07d78c91541331daf4b8e2d91e9390fefcec1b58fffd2d8d3e769dc141819d14",
      "transactionType": "CREATE2",
      "contractName": "TransparentUpgradeableProxy.0.8.18",
      "contractAddress": "0x96186ad22e1aa1da8ae55615f6bc8db6088d9b26",
      "function": null,
      "arguments": [
        "0xFa06e5CDaEDdf7b895E4E066e6b758C621f2024F",
        "0x10C69B37Ca78ef9d9294EAeD1D84D8a63BB61c85",
        "0x"
      ],
      "transaction": {
        "from": "0x2ceade86a04e474f3cf9bd87208514d818010627",
        "to": "0x4e59b44847b379578588920ca78fbf26c0b4956c",
        "gas": "0xc8cf5",
        "value": "0x0",
        "input": "0xade9ac522898f8fdf8a5f9b1afe46ca45600acd3823dbf49d05aff77266f6c70608060405260405162000e8a38038062000e8a833981016040819052620000269162000497565b828162000036828260006200004d565b50620000449050826200008a565b505050620005ca565b6200005883620000e5565b600082511180620000665750805b1562000085576200008383836200012760201b620001691760201c565b505b505050565b7f7e644d79422f17c01e4894b5f4f588d331ebfa28653d42ae832dc59e38c9798f620000b562000156565b604080516001600160a01b03928316815291841660208301520160405180910390a1620000e2816200018f565b50565b620000f08162000244565b6040516001600160a01b038216907fbc7cd75a20ee27fd9adebab32041f755214dbc6bffa90cc0225b39da2e5c2d3b90600090a250565b60606200014f838360405180606001604052806027815260200162000e6360279139620002f8565b9392505050565b60006200018060008051602062000e4383398151915260001b6200037760201b620001951760201c565b546001600160a01b0316919050565b6001600160a01b038116620001fa5760405162461bcd60e51b815260206004820152602660248201527f455243313936373a206e65772061646d696e20697320746865207a65726f206160448201526564647265737360d01b60648201526084015b60405180910390fd5b806200022360008051602062000e4383398151915260001b6200037760201b620001951760201c565b80546001600160a01b0319166001600160a01b039290921691909117905550565b6200025a816200037a60201b620001981760201c565b620002be5760405162461bcd60e51b815260206004820152602d60248201527f455243313936373a206e657720696d706c656d656e746174696f6e206973206e60448201526c1bdd08184818dbdb9d1c9858dd609a1b6064820152608401620001f1565b80620002237f360894a13ba1a3210667c828492db98dca3e2076cc3735a920a3ca505d382bbc60001b6200037760201b620001951760201c565b6060600080856001600160a01b03168560405162000317919062000577565b600060405180830381855af49150503d806000811462000354576040519150601f19603f3d011682016040523d82523d6000602084013e62000359565b606091505b5090925090506200036d8683838762000389565b9695505050505050565b90565b6001600160a01b03163b151590565b60608315620003fd578251600003620003f5576001600160a01b0385163b620003f55760405162461bcd60e51b815260206004820152601d60248201527f416464726573733a2063616c6c20746f206e6f6e2d636f6e74726163740000006044820152606401620001f1565b508162000409565b62000409838362000411565b949350505050565b815115620004225781518083602001fd5b8060405162461bcd60e51b8152600401620001f1919062000595565b80516001600160a01b03811681146200045657600080fd5b919050565b634e487b7160e01b600052604160045260246000fd5b60005b838110156200048e57818101518382015260200162000474565b50506000910152565b600080600060608486031215620004ad57600080fd5b620004b8846200043e565b9250620004c8602085016200043e565b60408501519092506001600160401b0380821115620004e657600080fd5b818601915086601f830112620004fb57600080fd5b8151818111156200051057620005106200045b565b604051601f8201601f19908116603f011681019083821181831017156200053b576200053b6200045b565b816040528281528960208487010111156200055557600080fd5b6200056883602083016020880162000471565b80955050505050509250925092565b600082516200058b81846020870162000471565b9190910192915050565b6020815260008251806020840152620005b681604085016020870162000471565b601f01601f19169190910160400192915050565b61086980620005da6000396000f3fe60806040523661001357610011610017565b005b6100115b61001f6101a7565b6001600160a01b0316330361015f5760606001600160e01b0319600035166364d3180d60e11b810161005a576100536101da565b9150610157565b63587086bd60e11b6001600160e01b031982160161007a57610053610231565b63070d7c6960e41b6001600160e01b031982160161009a57610053610277565b621eb96f60e61b6001600160e01b03198216016100b9576100536102a8565b63a39f25e560e01b6001600160e01b03198216016100d9576100536102e8565b60405162461bcd60e51b815260206004820152604260248201527f5472616e73706172656e745570677261646561626c6550726f78793a2061646d60448201527f696e2063616e6e6f742066616c6c6261636b20746f2070726f78792074617267606482015261195d60f21b608482015260a4015b60405180910390fd5b815160208301f35b6101676102fc565b565b606061018e83836040518060600160405280602781526020016108426027913961030c565b9392505050565b90565b6001600160a01b03163b151590565b60007fb53127684a568b3173ae13b9f8a6016e243e63b6e8ee1178d6a717850b5d61035b546001600160a01b0316919050565b60606101e4610384565b60006101f33660048184610695565b81019061020091906106db565b905061021d8160405180602001604052806000815250600061038f565b505060408051602081019091526000815290565b60606000806102433660048184610695565b810190610250919061070c565b915091506102608282600161038f565b604051806020016040528060008152509250505090565b6060610281610384565b60006102903660048184610695565b81019061029d91906106db565b905061021d816103bb565b60606102b2610384565b60006102bc6101a7565b604080516001600160a01b03831660208201529192500160405160208183030381529060405291505090565b60606102f2610384565b60006102bc610412565b610167610307610412565b610421565b6060600080856001600160a01b03168560405161032991906107f2565b600060405180830381855af49150503d8060008114610364576040519150601f19603f3d011682016040523d82523d6000602084013e610369565b606091505b509150915061037a86838387610445565b9695505050505050565b341561016757600080fd5b610398836104c6565b6000825111806103a55750805b156103b6576103b48383610169565b505b505050565b7f7e644d79422f17c01e4894b5f4f588d331ebfa28653d42ae832dc59e38c9798f6103e46101a7565b604080516001600160a01b03928316815291841660208301520160405180910390a161040f81610506565b50565b600061041c6105af565b905090565b3660008037600080366000845af43d6000803e808015610440573d6000f35b3d6000fd5b606083156104b45782516000036104ad576001600160a01b0385163b6104ad5760405162461bcd60e51b815260206004820152601d60248201527f416464726573733a2063616c6c20746f206e6f6e2d636f6e7472616374000000604482015260640161014e565b50816104be565b6104be83836105d7565b949350505050565b6104cf81610601565b6040516001600160a01b038216907fbc7cd75a20ee27fd9adebab32041f755214dbc6bffa90cc0225b39da2e5c2d3b90600090a250565b6001600160a01b03811661056b5760405162461bcd60e51b815260206004820152602660248201527f455243313936373a206e65772061646d696e20697320746865207a65726f206160448201526564647265737360d01b606482015260840161014e565b807fb53127684a568b3173ae13b9f8a6016e243e63b6e8ee1178d6a717850b5d61035b80546001600160a01b0319166001600160a01b039290921691909117905550565b60007f360894a13ba1a3210667c828492db98dca3e2076cc3735a920a3ca505d382bbc6101cb565b8151156105e75781518083602001fd5b8060405162461bcd60e51b815260040161014e919061080e565b6001600160a01b0381163b61066e5760405162461bcd60e51b815260206004820152602d60248201527f455243313936373a206e657720696d706c656d656e746174696f6e206973206e60448201526c1bdd08184818dbdb9d1c9858dd609a1b606482015260840161014e565b807f360894a13ba1a3210667c828492db98dca3e2076cc3735a920a3ca505d382bbc61058e565b600080858511156106a557600080fd5b838611156106b257600080fd5b5050820193919092039150565b80356001600160a01b03811681146106d657600080fd5b919050565b6000602082840312156106ed57600080fd5b61018e826106bf565b634e487b7160e01b600052604160045260246000fd5b6000806040838503121561071f57600080fd5b610728836106bf565b9150602083013567ffffffffffffffff8082111561074557600080fd5b818501915085601f83011261075957600080fd5b81358181111561076b5761076b6106f6565b604051601f8201601f19908116603f01168101908382118183101715610793576107936106f6565b816040528281528860208487010111156107ac57600080fd5b8260208601602083013760006020848301015280955050505050509250929050565b60005b838110156107e95781810151838201526020016107d1565b50506000910152565b600082516108048184602087016107ce565b9190910192915050565b602081526000825180602084015261082d8160408501602087016107ce565b601f01601f1916919091016040019291505056fe416464726573733a206c6f772d6c6576656c2064656c65676174652063616c6c206661696c6564b53127684a568b3173ae13b9f8a6016e243e63b6e8ee1178d6a717850b5d6103416464726573733a206c6f772d6c6576656c2064656c65676174652063616c6c206661696c6564000000000000000000000000fa06e5cdaeddf7b895e4e066e6b758c621f2024f00000000000000000000000010c69b37ca78ef9d9294eaed1d84d8a63bb61c8500000000000000000000000000000000000000000000000000000000000000600000000000000000000000000000000000000000000000000000000000000000",
        "nonce": "0x47a",
        "chainId": "0xa4ec"
      },
      "additionalContracts": [],
      "isFixedGasLimit": false
    },
    {
      "hash": "0xec1bbaea48bc929d3e8c55766dcd471b4beea1af676a58109aa929022a9c42ed",
      "transactionType": "CREATE2",
      "contractName": "TransparentUpgradeableProxy.0.8.18",
      "contractAddress": "0xcb17d7086a4b617b12c944f7b7f2a3973897fe0b",
      "function": null,
      "arguments": [
        "0xb96894E856046eb2Ff67b866B924546ee919a456",
        "0x10C69B37Ca78ef9d9294EAeD1D84D8a63BB61c85",
        "0x"
      ],
      "transaction": {
        "from": "0x2ceade86a04e474f3cf9bd87208514d818010627",
        "to": "0x4e59b44847b379578588920ca78fbf26c0b4956c",
        "gas": "0xc8d05",
        "value": "0x0",
        "input": "0x3e57a0c82ddb91e8fa3bca08b66c777cd2e5ee2707d07aebc4483a361060dab3608060405260405162000e8a38038062000e8a833981016040819052620000269162000497565b828162000036828260006200004d565b50620000449050826200008a565b505050620005ca565b6200005883620000e5565b600082511180620000665750805b1562000085576200008383836200012760201b620001691760201c565b505b505050565b7f7e644d79422f17c01e4894b5f4f588d331ebfa28653d42ae832dc59e38c9798f620000b562000156565b604080516001600160a01b03928316815291841660208301520160405180910390a1620000e2816200018f565b50565b620000f08162000244565b6040516001600160a01b038216907fbc7cd75a20ee27fd9adebab32041f755214dbc6bffa90cc0225b39da2e5c2d3b90600090a250565b60606200014f838360405180606001604052806027815260200162000e6360279139620002f8565b9392505050565b60006200018060008051602062000e4383398151915260001b6200037760201b620001951760201c565b546001600160a01b0316919050565b6001600160a01b038116620001fa5760405162461bcd60e51b815260206004820152602660248201527f455243313936373a206e65772061646d696e20697320746865207a65726f206160448201526564647265737360d01b60648201526084015b60405180910390fd5b806200022360008051602062000e4383398151915260001b6200037760201b620001951760201c565b80546001600160a01b0319166001600160a01b039290921691909117905550565b6200025a816200037a60201b620001981760201c565b620002be5760405162461bcd60e51b815260206004820152602d60248201527f455243313936373a206e657720696d706c656d656e746174696f6e206973206e60448201526c1bdd08184818dbdb9d1c9858dd609a1b6064820152608401620001f1565b80620002237f360894a13ba1a3210667c828492db98dca3e2076cc3735a920a3ca505d382bbc60001b6200037760201b620001951760201c565b6060600080856001600160a01b03168560405162000317919062000577565b600060405180830381855af49150503d806000811462000354576040519150601f19603f3d011682016040523d82523d6000602084013e62000359565b606091505b5090925090506200036d8683838762000389565b9695505050505050565b90565b6001600160a01b03163b151590565b60608315620003fd578251600003620003f5576001600160a01b0385163b620003f55760405162461bcd60e51b815260206004820152601d60248201527f416464726573733a2063616c6c20746f206e6f6e2d636f6e74726163740000006044820152606401620001f1565b508162000409565b62000409838362000411565b949350505050565b815115620004225781518083602001fd5b8060405162461bcd60e51b8152600401620001f1919062000595565b80516001600160a01b03811681146200045657600080fd5b919050565b634e487b7160e01b600052604160045260246000fd5b60005b838110156200048e57818101518382015260200162000474565b50506000910152565b600080600060608486031215620004ad57600080fd5b620004b8846200043e565b9250620004c8602085016200043e565b60408501519092506001600160401b0380821115620004e657600080fd5b818601915086601f830112620004fb57600080fd5b8151818111156200051057620005106200045b565b604051601f8201601f19908116603f011681019083821181831017156200053b576200053b6200045b565b816040528281528960208487010111156200055557600080fd5b6200056883602083016020880162000471565b80955050505050509250925092565b600082516200058b81846020870162000471565b9190910192915050565b6020815260008251806020840152620005b681604085016020870162000471565b601f01601f19169190910160400192915050565b61086980620005da6000396000f3fe60806040523661001357610011610017565b005b6100115b61001f6101a7565b6001600160a01b0316330361015f5760606001600160e01b0319600035166364d3180d60e11b810161005a576100536101da565b9150610157565b63587086bd60e11b6001600160e01b031982160161007a57610053610231565b63070d7c6960e41b6001600160e01b031982160161009a57610053610277565b621eb96f60e61b6001600160e01b03198216016100b9576100536102a8565b63a39f25e560e01b6001600160e01b03198216016100d9576100536102e8565b60405162461bcd60e51b815260206004820152604260248201527f5472616e73706172656e745570677261646561626c6550726f78793a2061646d60448201527f696e2063616e6e6f742066616c6c6261636b20746f2070726f78792074617267606482015261195d60f21b608482015260a4015b60405180910390fd5b815160208301f35b6101676102fc565b565b606061018e83836040518060600160405280602781526020016108426027913961030c565b9392505050565b90565b6001600160a01b03163b151590565b60007fb53127684a568b3173ae13b9f8a6016e243e63b6e8ee1178d6a717850b5d61035b546001600160a01b0316919050565b60606101e4610384565b60006101f33660048184610695565b81019061020091906106db565b905061021d8160405180602001604052806000815250600061038f565b505060408051602081019091526000815290565b60606000806102433660048184610695565b810190610250919061070c565b915091506102608282600161038f565b604051806020016040528060008152509250505090565b6060610281610384565b60006102903660048184610695565b81019061029d91906106db565b905061021d816103bb565b60606102b2610384565b60006102bc6101a7565b604080516001600160a01b03831660208201529192500160405160208183030381529060405291505090565b60606102f2610384565b60006102bc610412565b610167610307610412565b610421565b6060600080856001600160a01b03168560405161032991906107f2565b600060405180830381855af49150503d8060008114610364576040519150601f19603f3d011682016040523d82523d6000602084013e610369565b606091505b509150915061037a86838387610445565b9695505050505050565b341561016757600080fd5b610398836104c6565b6000825111806103a55750805b156103b6576103b48383610169565b505b505050565b7f7e644d79422f17c01e4894b5f4f588d331ebfa28653d42ae832dc59e38c9798f6103e46101a7565b604080516001600160a01b03928316815291841660208301520160405180910390a161040f81610506565b50565b600061041c6105af565b905090565b3660008037600080366000845af43d6000803e808015610440573d6000f35b3d6000fd5b606083156104b45782516000036104ad576001600160a01b0385163b6104ad5760405162461bcd60e51b815260206004820152601d60248201527f416464726573733a2063616c6c20746f206e6f6e2d636f6e7472616374000000604482015260640161014e565b50816104be565b6104be83836105d7565b949350505050565b6104cf81610601565b6040516001600160a01b038216907fbc7cd75a20ee27fd9adebab32041f755214dbc6bffa90cc0225b39da2e5c2d3b90600090a250565b6001600160a01b03811661056b5760405162461bcd60e51b815260206004820152602660248201527f455243313936373a206e65772061646d696e20697320746865207a65726f206160448201526564647265737360d01b606482015260840161014e565b807fb53127684a568b3173ae13b9f8a6016e243e63b6e8ee1178d6a717850b5d61035b80546001600160a01b0319166001600160a01b039290921691909117905550565b60007f360894a13ba1a3210667c828492db98dca3e2076cc3735a920a3ca505d382bbc6101cb565b8151156105e75781518083602001fd5b8060405162461bcd60e51b815260040161014e919061080e565b6001600160a01b0381163b61066e5760405162461bcd60e51b815260206004820152602d60248201527f455243313936373a206e657720696d706c656d656e746174696f6e206973206e60448201526c1bdd08184818dbdb9d1c9858dd609a1b606482015260840161014e565b807f360894a13ba1a3210667c828492db98dca3e2076cc3735a920a3ca505d382bbc61058e565b600080858511156106a557600080fd5b838611156106b257600080fd5b5050820193919092039150565b80356001600160a01b03811681146106d657600080fd5b919050565b6000602082840312156106ed57600080fd5b61018e826106bf565b634e487b7160e01b600052604160045260246000fd5b6000806040838503121561071f57600080fd5b610728836106bf565b9150602083013567ffffffffffffffff8082111561074557600080fd5b818501915085601f83011261075957600080fd5b81358181111561076b5761076b6106f6565b604051601f8201601f19908116603f01168101908382118183101715610793576107936106f6565b816040528281528860208487010111156107ac57600080fd5b8260208601602083013760006020848301015280955050505050509250929050565b60005b838110156107e95781810151838201526020016107d1565b50506000910152565b600082516108048184602087016107ce565b9190910192915050565b602081526000825180602084015261082d8160408501602087016107ce565b601f01601f1916919091016040019291505056fe416464726573733a206c6f772d6c6576656c2064656c65676174652063616c6c206661696c6564b53127684a568b3173ae13b9f8a6016e243e63b6e8ee1178d6a717850b5d6103416464726573733a206c6f772d6c6576656c2064656c65676174652063616c6c206661696c6564000000000000000000000000b96894e856046eb2ff67b866b924546ee919a45600000000000000000000000010c69b37ca78ef9d9294eaed1d84d8a63bb61c8500000000000000000000000000000000000000000000000000000000000000600000000000000000000000000000000000000000000000000000000000000000",
        "nonce": "0x47b",
        "chainId": "0xa4ec"
      },
      "additionalContracts": [],
      "isFixedGasLimit": false
    },
    {
      "hash": "0x13c02fed5abfedd01b0e13032f0a92c043ee6b9054dcd3b435ddf0622bc7beca",
      "transactionType": "CREATE2",
      "contractName": "TransparentUpgradeableProxy.0.8.18",
      "contractAddress": "0xb68ac9fa09b6d1d957a48d833c7f9b058f9c4e6f",
      "function": null,
      "arguments": [
        "0x616583e0cc1e50592e941d214f5A6D7318165b05",
        "0x10C69B37Ca78ef9d9294EAeD1D84D8a63BB61c85",
        "0x"
      ],
      "transaction": {
        "from": "0x2ceade86a04e474f3cf9bd87208514d818010627",
        "to": "0x4e59b44847b379578588920ca78fbf26c0b4956c",
        "gas": "0xc8d05",
        "value": "0x0",
        "input": "0x402aed703999474863cb99086e4b98ba9e8c9f393e57b71c7d861373beadbb99608060405260405162000e8a38038062000e8a833981016040819052620000269162000497565b828162000036828260006200004d565b50620000449050826200008a565b505050620005ca565b6200005883620000e5565b600082511180620000665750805b1562000085576200008383836200012760201b620001691760201c565b505b505050565b7f7e644d79422f17c01e4894b5f4f588d331ebfa28653d42ae832dc59e38c9798f620000b562000156565b604080516001600160a01b03928316815291841660208301520160405180910390a1620000e2816200018f565b50565b620000f08162000244565b6040516001600160a01b038216907fbc7cd75a20ee27fd9adebab32041f755214dbc6bffa90cc0225b39da2e5c2d3b90600090a250565b60606200014f838360405180606001604052806027815260200162000e6360279139620002f8565b9392505050565b60006200018060008051602062000e4383398151915260001b6200037760201b620001951760201c565b546001600160a01b0316919050565b6001600160a01b038116620001fa5760405162461bcd60e51b815260206004820152602660248201527f455243313936373a206e65772061646d696e20697320746865207a65726f206160448201526564647265737360d01b60648201526084015b60405180910390fd5b806200022360008051602062000e4383398151915260001b6200037760201b620001951760201c565b80546001600160a01b0319166001600160a01b039290921691909117905550565b6200025a816200037a60201b620001981760201c565b620002be5760405162461bcd60e51b815260206004820152602d60248201527f455243313936373a206e657720696d706c656d656e746174696f6e206973206e60448201526c1bdd08184818dbdb9d1c9858dd609a1b6064820152608401620001f1565b80620002237f360894a13ba1a3210667c828492db98dca3e2076cc3735a920a3ca505d382bbc60001b6200037760201b620001951760201c565b6060600080856001600160a01b03168560405162000317919062000577565b600060405180830381855af49150503d806000811462000354576040519150601f19603f3d011682016040523d82523d6000602084013e62000359565b606091505b5090925090506200036d8683838762000389565b9695505050505050565b90565b6001600160a01b03163b151590565b60608315620003fd578251600003620003f5576001600160a01b0385163b620003f55760405162461bcd60e51b815260206004820152601d60248201527f416464726573733a2063616c6c20746f206e6f6e2d636f6e74726163740000006044820152606401620001f1565b508162000409565b62000409838362000411565b949350505050565b815115620004225781518083602001fd5b8060405162461bcd60e51b8152600401620001f1919062000595565b80516001600160a01b03811681146200045657600080fd5b919050565b634e487b7160e01b600052604160045260246000fd5b60005b838110156200048e57818101518382015260200162000474565b50506000910152565b600080600060608486031215620004ad57600080fd5b620004b8846200043e565b9250620004c8602085016200043e565b60408501519092506001600160401b0380821115620004e657600080fd5b818601915086601f830112620004fb57600080fd5b8151818111156200051057620005106200045b565b604051601f8201601f19908116603f011681019083821181831017156200053b576200053b6200045b565b816040528281528960208487010111156200055557600080fd5b6200056883602083016020880162000471565b80955050505050509250925092565b600082516200058b81846020870162000471565b9190910192915050565b6020815260008251806020840152620005b681604085016020870162000471565b601f01601f19169190910160400192915050565b61086980620005da6000396000f3fe60806040523661001357610011610017565b005b6100115b61001f6101a7565b6001600160a01b0316330361015f5760606001600160e01b0319600035166364d3180d60e11b810161005a576100536101da565b9150610157565b63587086bd60e11b6001600160e01b031982160161007a57610053610231565b63070d7c6960e41b6001600160e01b031982160161009a57610053610277565b621eb96f60e61b6001600160e01b03198216016100b9576100536102a8565b63a39f25e560e01b6001600160e01b03198216016100d9576100536102e8565b60405162461bcd60e51b815260206004820152604260248201527f5472616e73706172656e745570677261646561626c6550726f78793a2061646d60448201527f696e2063616e6e6f742066616c6c6261636b20746f2070726f78792074617267606482015261195d60f21b608482015260a4015b60405180910390fd5b815160208301f35b6101676102fc565b565b606061018e83836040518060600160405280602781526020016108426027913961030c565b9392505050565b90565b6001600160a01b03163b151590565b60007fb53127684a568b3173ae13b9f8a6016e243e63b6e8ee1178d6a717850b5d61035b546001600160a01b0316919050565b60606101e4610384565b60006101f33660048184610695565b81019061020091906106db565b905061021d8160405180602001604052806000815250600061038f565b505060408051602081019091526000815290565b60606000806102433660048184610695565b810190610250919061070c565b915091506102608282600161038f565b604051806020016040528060008152509250505090565b6060610281610384565b60006102903660048184610695565b81019061029d91906106db565b905061021d816103bb565b60606102b2610384565b60006102bc6101a7565b604080516001600160a01b03831660208201529192500160405160208183030381529060405291505090565b60606102f2610384565b60006102bc610412565b610167610307610412565b610421565b6060600080856001600160a01b03168560405161032991906107f2565b600060405180830381855af49150503d8060008114610364576040519150601f19603f3d011682016040523d82523d6000602084013e610369565b606091505b509150915061037a86838387610445565b9695505050505050565b341561016757600080fd5b610398836104c6565b6000825111806103a55750805b156103b6576103b48383610169565b505b505050565b7f7e644d79422f17c01e4894b5f4f588d331ebfa28653d42ae832dc59e38c9798f6103e46101a7565b604080516001600160a01b03928316815291841660208301520160405180910390a161040f81610506565b50565b600061041c6105af565b905090565b3660008037600080366000845af43d6000803e808015610440573d6000f35b3d6000fd5b606083156104b45782516000036104ad576001600160a01b0385163b6104ad5760405162461bcd60e51b815260206004820152601d60248201527f416464726573733a2063616c6c20746f206e6f6e2d636f6e7472616374000000604482015260640161014e565b50816104be565b6104be83836105d7565b949350505050565b6104cf81610601565b6040516001600160a01b038216907fbc7cd75a20ee27fd9adebab32041f755214dbc6bffa90cc0225b39da2e5c2d3b90600090a250565b6001600160a01b03811661056b5760405162461bcd60e51b815260206004820152602660248201527f455243313936373a206e65772061646d696e20697320746865207a65726f206160448201526564647265737360d01b606482015260840161014e565b807fb53127684a568b3173ae13b9f8a6016e243e63b6e8ee1178d6a717850b5d61035b80546001600160a01b0319166001600160a01b039290921691909117905550565b60007f360894a13ba1a3210667c828492db98dca3e2076cc3735a920a3ca505d382bbc6101cb565b8151156105e75781518083602001fd5b8060405162461bcd60e51b815260040161014e919061080e565b6001600160a01b0381163b61066e5760405162461bcd60e51b815260206004820152602d60248201527f455243313936373a206e657720696d706c656d656e746174696f6e206973206e60448201526c1bdd08184818dbdb9d1c9858dd609a1b606482015260840161014e565b807f360894a13ba1a3210667c828492db98dca3e2076cc3735a920a3ca505d382bbc61058e565b600080858511156106a557600080fd5b838611156106b257600080fd5b5050820193919092039150565b80356001600160a01b03811681146106d657600080fd5b919050565b6000602082840312156106ed57600080fd5b61018e826106bf565b634e487b7160e01b600052604160045260246000fd5b6000806040838503121561071f57600080fd5b610728836106bf565b9150602083013567ffffffffffffffff8082111561074557600080fd5b818501915085601f83011261075957600080fd5b81358181111561076b5761076b6106f6565b604051601f8201601f19908116603f01168101908382118183101715610793576107936106f6565b816040528281528860208487010111156107ac57600080fd5b8260208601602083013760006020848301015280955050505050509250929050565b60005b838110156107e95781810151838201526020016107d1565b50506000910152565b600082516108048184602087016107ce565b9190910192915050565b602081526000825180602084015261082d8160408501602087016107ce565b601f01601f1916919091016040019291505056fe416464726573733a206c6f772d6c6576656c2064656c65676174652063616c6c206661696c6564b53127684a568b3173ae13b9f8a6016e243e63b6e8ee1178d6a717850b5d6103416464726573733a206c6f772d6c6576656c2064656c65676174652063616c6c206661696c6564000000000000000000000000616583e0cc1e50592e941d214f5a6d7318165b0500000000000000000000000010c69b37ca78ef9d9294eaed1d84d8a63bb61c8500000000000000000000000000000000000000000000000000000000000000600000000000000000000000000000000000000000000000000000000000000000",
        "nonce": "0x47c",
        "chainId": "0xa4ec"
      },
      "additionalContracts": [],
      "isFixedGasLimit": false
    },
    {
      "hash": "0x9f7e0f8473923dfd75b7cb9d58e8d9989923f9bee1585ef70ef638346071dc5a",
      "transactionType": "CREATE2",
      "contractName": "TransparentUpgradeableProxy.0.8.18",
      "contractAddress": "0x9b637df37641643efad754474d9b67e30c377cc7",
      "function": null,
      "arguments": [
        "0xd4edC433326E539cF2caCc0c0FB092177A6cE8F5",
        "0x10C69B37Ca78ef9d9294EAeD1D84D8a63BB61c85",
        "0x"
      ],
      "transaction": {
        "from": "0x2ceade86a04e474f3cf9bd87208514d818010627",
        "to": "0x4e59b44847b379578588920ca78fbf26c0b4956c",
        "gas": "0xc8d05",
        "value": "0x0",
        "input": "0x076fc3943b9525b9fe69ab42d7e613f8929020780a4230ba46e6a4cbf86ce2e7608060405260405162000e8a38038062000e8a833981016040819052620000269162000497565b828162000036828260006200004d565b50620000449050826200008a565b505050620005ca565b6200005883620000e5565b600082511180620000665750805b1562000085576200008383836200012760201b620001691760201c565b505b505050565b7f7e644d79422f17c01e4894b5f4f588d331ebfa28653d42ae832dc59e38c9798f620000b562000156565b604080516001600160a01b03928316815291841660208301520160405180910390a1620000e2816200018f565b50565b620000f08162000244565b6040516001600160a01b038216907fbc7cd75a20ee27fd9adebab32041f755214dbc6bffa90cc0225b39da2e5c2d3b90600090a250565b60606200014f838360405180606001604052806027815260200162000e6360279139620002f8565b9392505050565b60006200018060008051602062000e4383398151915260001b6200037760201b620001951760201c565b546001600160a01b0316919050565b6001600160a01b038116620001fa5760405162461bcd60e51b815260206004820152602660248201527f455243313936373a206e65772061646d696e20697320746865207a65726f206160448201526564647265737360d01b60648201526084015b60405180910390fd5b806200022360008051602062000e4383398151915260001b6200037760201b620001951760201c565b80546001600160a01b0319166001600160a01b039290921691909117905550565b6200025a816200037a60201b620001981760201c565b620002be5760405162461bcd60e51b815260206004820152602d60248201527f455243313936373a206e657720696d706c656d656e746174696f6e206973206e60448201526c1bdd08184818dbdb9d1c9858dd609a1b6064820152608401620001f1565b80620002237f360894a13ba1a3210667c828492db98dca3e2076cc3735a920a3ca505d382bbc60001b6200037760201b620001951760201c565b6060600080856001600160a01b03168560405162000317919062000577565b600060405180830381855af49150503d806000811462000354576040519150601f19603f3d011682016040523d82523d6000602084013e62000359565b606091505b5090925090506200036d8683838762000389565b9695505050505050565b90565b6001600160a01b03163b151590565b60608315620003fd578251600003620003f5576001600160a01b0385163b620003f55760405162461bcd60e51b815260206004820152601d60248201527f416464726573733a2063616c6c20746f206e6f6e2d636f6e74726163740000006044820152606401620001f1565b508162000409565b62000409838362000411565b949350505050565b815115620004225781518083602001fd5b8060405162461bcd60e51b8152600401620001f1919062000595565b80516001600160a01b03811681146200045657600080fd5b919050565b634e487b7160e01b600052604160045260246000fd5b60005b838110156200048e57818101518382015260200162000474565b50506000910152565b600080600060608486031215620004ad57600080fd5b620004b8846200043e565b9250620004c8602085016200043e565b60408501519092506001600160401b0380821115620004e657600080fd5b818601915086601f830112620004fb57600080fd5b8151818111156200051057620005106200045b565b604051601f8201601f19908116603f011681019083821181831017156200053b576200053b6200045b565b816040528281528960208487010111156200055557600080fd5b6200056883602083016020880162000471565b80955050505050509250925092565b600082516200058b81846020870162000471565b9190910192915050565b6020815260008251806020840152620005b681604085016020870162000471565b601f01601f19169190910160400192915050565b61086980620005da6000396000f3fe60806040523661001357610011610017565b005b6100115b61001f6101a7565b6001600160a01b0316330361015f5760606001600160e01b0319600035166364d3180d60e11b810161005a576100536101da565b9150610157565b63587086bd60e11b6001600160e01b031982160161007a57610053610231565b63070d7c6960e41b6001600160e01b031982160161009a57610053610277565b621eb96f60e61b6001600160e01b03198216016100b9576100536102a8565b63a39f25e560e01b6001600160e01b03198216016100d9576100536102e8565b60405162461bcd60e51b815260206004820152604260248201527f5472616e73706172656e745570677261646561626c6550726f78793a2061646d60448201527f696e2063616e6e6f742066616c6c6261636b20746f2070726f78792074617267606482015261195d60f21b608482015260a4015b60405180910390fd5b815160208301f35b6101676102fc565b565b606061018e83836040518060600160405280602781526020016108426027913961030c565b9392505050565b90565b6001600160a01b03163b151590565b60007fb53127684a568b3173ae13b9f8a6016e243e63b6e8ee1178d6a717850b5d61035b546001600160a01b0316919050565b60606101e4610384565b60006101f33660048184610695565b81019061020091906106db565b905061021d8160405180602001604052806000815250600061038f565b505060408051602081019091526000815290565b60606000806102433660048184610695565b810190610250919061070c565b915091506102608282600161038f565b604051806020016040528060008152509250505090565b6060610281610384565b60006102903660048184610695565b81019061029d91906106db565b905061021d816103bb565b60606102b2610384565b60006102bc6101a7565b604080516001600160a01b03831660208201529192500160405160208183030381529060405291505090565b60606102f2610384565b60006102bc610412565b610167610307610412565b610421565b6060600080856001600160a01b03168560405161032991906107f2565b600060405180830381855af49150503d8060008114610364576040519150601f19603f3d011682016040523d82523d6000602084013e610369565b606091505b509150915061037a86838387610445565b9695505050505050565b341561016757600080fd5b610398836104c6565b6000825111806103a55750805b156103b6576103b48383610169565b505b505050565b7f7e644d79422f17c01e4894b5f4f588d331ebfa28653d42ae832dc59e38c9798f6103e46101a7565b604080516001600160a01b03928316815291841660208301520160405180910390a161040f81610506565b50565b600061041c6105af565b905090565b3660008037600080366000845af43d6000803e808015610440573d6000f35b3d6000fd5b606083156104b45782516000036104ad576001600160a01b0385163b6104ad5760405162461bcd60e51b815260206004820152601d60248201527f416464726573733a2063616c6c20746f206e6f6e2d636f6e7472616374000000604482015260640161014e565b50816104be565b6104be83836105d7565b949350505050565b6104cf81610601565b6040516001600160a01b038216907fbc7cd75a20ee27fd9adebab32041f755214dbc6bffa90cc0225b39da2e5c2d3b90600090a250565b6001600160a01b03811661056b5760405162461bcd60e51b815260206004820152602660248201527f455243313936373a206e65772061646d696e20697320746865207a65726f206160448201526564647265737360d01b606482015260840161014e565b807fb53127684a568b3173ae13b9f8a6016e243e63b6e8ee1178d6a717850b5d61035b80546001600160a01b0319166001600160a01b039290921691909117905550565b60007f360894a13ba1a3210667c828492db98dca3e2076cc3735a920a3ca505d382bbc6101cb565b8151156105e75781518083602001fd5b8060405162461bcd60e51b815260040161014e919061080e565b6001600160a01b0381163b61066e5760405162461bcd60e51b815260206004820152602d60248201527f455243313936373a206e657720696d706c656d656e746174696f6e206973206e60448201526c1bdd08184818dbdb9d1c9858dd609a1b606482015260840161014e565b807f360894a13ba1a3210667c828492db98dca3e2076cc3735a920a3ca505d382bbc61058e565b600080858511156106a557600080fd5b838611156106b257600080fd5b5050820193919092039150565b80356001600160a01b03811681146106d657600080fd5b919050565b6000602082840312156106ed57600080fd5b61018e826106bf565b634e487b7160e01b600052604160045260246000fd5b6000806040838503121561071f57600080fd5b610728836106bf565b9150602083013567ffffffffffffffff8082111561074557600080fd5b818501915085601f83011261075957600080fd5b81358181111561076b5761076b6106f6565b604051601f8201601f19908116603f01168101908382118183101715610793576107936106f6565b816040528281528860208487010111156107ac57600080fd5b8260208601602083013760006020848301015280955050505050509250929050565b60005b838110156107e95781810151838201526020016107d1565b50506000910152565b600082516108048184602087016107ce565b9190910192915050565b602081526000825180602084015261082d8160408501602087016107ce565b601f01601f1916919091016040019291505056fe416464726573733a206c6f772d6c6576656c2064656c65676174652063616c6c206661696c6564b53127684a568b3173ae13b9f8a6016e243e63b6e8ee1178d6a717850b5d6103416464726573733a206c6f772d6c6576656c2064656c65676174652063616c6c206661696c6564000000000000000000000000d4edc433326e539cf2cacc0c0fb092177a6ce8f500000000000000000000000010c69b37ca78ef9d9294eaed1d84d8a63bb61c8500000000000000000000000000000000000000000000000000000000000000600000000000000000000000000000000000000000000000000000000000000000",
        "nonce": "0x47d",
        "chainId": "0xa4ec"
      },
      "additionalContracts": [],
      "isFixedGasLimit": false
    },
    {
      "hash": "0x158e29c4b2138c3e995771c4f4228da8dbd98a3534134930113f99b1f27f6783",
      "transactionType": "CALL",
      "contractName": "TransparentUpgradeableProxy.0.8.18",
      "contractAddress": "0x96186ad22e1aa1da8ae55615f6bc8db6088d9b26",
      "function": null,
      "arguments": null,
      "transaction": {
        "from": "0x2ceade86a04e474f3cf9bd87208514d818010627",
        "to": "0x96186ad22e1aa1da8ae55615f6bc8db6088d9b26",
        "gas": "0x8567a",
        "value": "0x0",
        "input": "0x72a6b8b0000000000000000000000000000000000000000000000000000000000000ce1000000000000000000000000000000000000000000000000000000000bbf81e0000000000000000000000000000000000000000000000d3c21bcecceda100000000000000000000000000000000000000000000000000000000000000000000000000000000000000000000000000000000000000000000000000000000000000000000000000000000000000000000000000000000000000000000000000016000000000000000000000000000000000000000000000000000000000000001c000000000000000000000000000000000000000000000000000000000000000000000000000000000000000000000000000000000000000000000000000000000000000000000000000000000000000000000000000000000000000000000022000000000000000000000000000000000000000000000000000000000000002600000000000000000000000000000000000000000000000000000000000000002635553440000000000000000000000000000000000000000000000000000000063474c4400000000000000000000000000000000000000000000000000000000000000000000000000000000000000000000000000000000000000000000000200000000000000000000000000000000000000000000d3c21bcecceda0ffffff00000000000000000000000000000000000000000000000000000000000000010000000000000000000000000000000000000000000000000000000000000001000000000000000000000000eed145d8d962146afc568e9579948576f63d5dc2000000000000000000000000000000000000000000000000000000000000000100000000000000000000000000000000000000000000d3c21bcecceda1000000",
        "nonce": "0x47e",
        "chainId": "0xa4ec"
      },
      "additionalContracts": [],
      "isFixedGasLimit": false
    },
    {
      "hash": "0x0cdb144a97bfbbab6707bfe5657576415ffbbdce743a31c14282328b2fb31a17",
      "transactionType": "CALL",
      "contractName": "TransparentUpgradeableProxy.0.8.18",
      "contractAddress": "0xb68ac9fa09b6d1d957a48d833c7f9b058f9c4e6f",
      "function": null,
      "arguments": null,
      "transaction": {
        "from": "0x2ceade86a04e474f3cf9bd87208514d818010627",
        "to": "0xb68ac9fa09b6d1d957a48d833c7f9b058f9c4e6f",
        "gas": "0x306c22",
        "value": "0x0",
        "input": "0xf8c8765e000000000000000000000000cb17d7086a4b617b12c944f7b7f2a3973897fe0b00000000000000000000000096186ad22e1aa1da8ae55615f6bc8db6088d9b260000000000000000000000009b637df37641643efad754474d9b67e30c377cc700000000000000000000000014204392270cd38d02c43465909cade33bf5d6e5",
        "nonce": "0x47f",
        "chainId": "0xa4ec"
      },
      "additionalContracts": [],
      "isFixedGasLimit": false
    },
    {
      "hash": "0x19a58c3f21c075ba6ab821446546f27b9ef9a54edac235f17a98b3b1e6912f19",
      "transactionType": "CALL",
      "contractName": "TransparentUpgradeableProxy.0.8.18",
      "contractAddress": "0x9b637df37641643efad754474d9b67e30c377cc7",
      "function": null,
      "arguments": null,
      "transaction": {
        "from": "0x2ceade86a04e474f3cf9bd87208514d818010627",
        "to": "0x9b637df37641643efad754474d9b67e30c377cc7",
        "gas": "0x3a203",
        "value": "0x0",
        "input": "0xf8c8765e000000000000000000000000b68ac9fa09b6d1d957a48d833c7f9b058f9c4e6f000000000000000000000000b67d723ad4e71e23b780b917e55f6f58fc18cc9e00000000000000000000000096186ad22e1aa1da8ae55615f6bc8db6088d9b2600000000000000000000000014204392270cd38d02c43465909cade33bf5d6e5",
        "nonce": "0x480",
        "chainId": "0xa4ec"
      },
      "additionalContracts": [],
      "isFixedGasLimit": false
    },
    {
      "hash": "0x15f08e7e4168de7706023faaa7ec3917353ea40be00af81b261e4c849d995de5",
      "transactionType": "CALL",
      "contractName": "TransparentUpgradeableProxy.0.8.18",
      "contractAddress": "0xcb17d7086a4b617b12c944f7b7f2a3973897fe0b",
      "function": null,
      "arguments": null,
      "transaction": {
        "from": "0x2ceade86a04e474f3cf9bd87208514d818010627",
        "to": "0xcb17d7086a4b617b12c944f7b7f2a3973897fe0b",
        "gas": "0x34821",
        "value": "0x0",
        "input": "0x73cf25f8000000000000000000000000000000000000000000000000000000000000004000000000000000000000000000000000000000000000000000000000000000800000000000000000000000000000000000000000000000000000000000000001000000000000000000000000b68ac9fa09b6d1d957a48d833c7f9b058f9c4e6f000000000000000000000000000000000000000000000000000000000000000100000000000000000000000096186ad22e1aa1da8ae55615f6bc8db6088d9b26",
        "nonce": "0x481",
        "chainId": "0xa4ec"
      },
      "additionalContracts": [],
      "isFixedGasLimit": false
    },
    {
      "hash": "0xc574683dc4d1666d756f70deb6debd24f2858fdcff6f3ef0615dd6e4b41708ff",
      "transactionType": "CALL",
      "contractName": "TransparentUpgradeableProxy.0.8.18",
      "contractAddress": "0x96186ad22e1aa1da8ae55615f6bc8db6088d9b26",
      "function": null,
      "arguments": null,
      "transaction": {
        "from": "0x2ceade86a04e474f3cf9bd87208514d818010627",
        "to": "0x96186ad22e1aa1da8ae55615f6bc8db6088d9b26",
        "gas": "0x215fa",
        "value": "0x0",
        "input": "0xd48bfca7000000000000000000000000fa51efdc0910ccda91732e6806912fa12e2fd475",
        "nonce": "0x482",
        "chainId": "0xa4ec"
      },
      "additionalContracts": [],
      "isFixedGasLimit": false
    },
    {
      "hash": "0x8c226439a53cc4de9700b8700f90af811a5665b853968f04d13c86c74a069cf9",
      "transactionType": "CALL",
      "contractName": "TransparentUpgradeableProxy.0.8.18",
      "contractAddress": "0x96186ad22e1aa1da8ae55615f6bc8db6088d9b26",
      "function": null,
      "arguments": null,
      "transaction": {
        "from": "0x2ceade86a04e474f3cf9bd87208514d818010627",
        "to": "0x96186ad22e1aa1da8ae55615f6bc8db6088d9b26",
        "gas": "0x2352e",
        "value": "0x0",
        "input": "0xf0b7182b000000000000000000000000cb17d7086a4b617b12c944f7b7f2a3973897fe0b",
        "nonce": "0x483",
        "chainId": "0xa4ec"
      },
      "additionalContracts": [],
      "isFixedGasLimit": false
    },
    {
      "hash": "0x4f46f154f8f283bb92b1a8aba994f47fd4bf43a2ffdd457b50351bf6b87fa084",
      "transactionType": "CALL",
      "contractName": "TransparentUpgradeableProxy.0.8.18",
      "contractAddress": "0x96186ad22e1aa1da8ae55615f6bc8db6088d9b26",
      "function": null,
      "arguments": null,
      "transaction": {
        "from": "0x2ceade86a04e474f3cf9bd87208514d818010627",
        "to": "0x96186ad22e1aa1da8ae55615f6bc8db6088d9b26",
        "gas": "0x125e2",
        "value": "0x0",
        "input": "0xe7e31e7a00000000000000000000000014204392270cd38d02c43465909cade33bf5d6e5",
        "nonce": "0x484",
        "chainId": "0xa4ec"
      },
      "additionalContracts": [],
      "isFixedGasLimit": false
    },
    {
      "hash": "0xf52348dc151bf1d4f30b4631e5f0711e11d0f6d4671c8e71f2c01b356b8d7a81",
      "transactionType": "CALL",
      "contractName": "TransparentUpgradeableProxy.0.8.18",
      "contractAddress": "0x96186ad22e1aa1da8ae55615f6bc8db6088d9b26",
      "function": null,
      "arguments": null,
      "transaction": {
        "from": "0x2ceade86a04e474f3cf9bd87208514d818010627",
        "to": "0x96186ad22e1aa1da8ae55615f6bc8db6088d9b26",
        "gas": "0x23566",
        "value": "0x0",
        "input": "0x2201596800000000000000000000000014204392270cd38d02c43465909cade33bf5d6e5",
        "nonce": "0x485",
        "chainId": "0xa4ec"
      },
      "additionalContracts": [],
      "isFixedGasLimit": false
    },
    {
      "hash": "0x1d433fae249846f1258c16b2d9de83dae25afda20db8f57b8fcb4fc0f4aa7ea9",
      "transactionType": "CALL",
      "contractName": "TransparentUpgradeableProxy.0.8.18",
      "contractAddress": "0xcb17d7086a4b617b12c944f7b7f2a3973897fe0b",
      "function": null,
      "arguments": null,
      "transaction": {
        "from": "0x2ceade86a04e474f3cf9bd87208514d818010627",
        "to": "0xcb17d7086a4b617b12c944f7b7f2a3973897fe0b",
        "gas": "0x174a2",
        "value": "0x0",
        "input": "0xa9b5aab32e04a1379be2d5201bd2ccb939f2dc93c4fd9c23cca80e8c8d658bd0f96fd08d000000000000000000000000eed145d8d962146afc568e9579948576f63d5dc20000000000000000000000000000000000000000000000000000000000093a800000000000000000000000000000000000000000000000000000000000278d000000000000000000000000000000000000000000000000000000000000009c40000000000000000000000000000000000000000000000000000000000001388000000000000000000000000000000000000000000000000000000000000000000000000000000000000000000000000000000000000000000000000000000003",
        "nonce": "0x486",
        "chainId": "0xa4ec"
      },
      "additionalContracts": [],
      "isFixedGasLimit": false
    },
    {
      "hash": "0x933187b24bb8ef391711f791d8da54d657e9430d8af7947a4caf161ac64a8b8b",
      "transactionType": "CALL",
      "contractName": "TransparentUpgradeableProxy.0.8.18",
      "contractAddress": "0xcb17d7086a4b617b12c944f7b7f2a3973897fe0b",
      "function": null,
      "arguments": null,
      "transaction": {
        "from": "0x2ceade86a04e474f3cf9bd87208514d818010627",
        "to": "0xcb17d7086a4b617b12c944f7b7f2a3973897fe0b",
        "gas": "0xc187",
        "value": "0x0",
        "input": "0xf2fde38b00000000000000000000000014204392270cd38d02c43465909cade33bf5d6e5",
        "nonce": "0x487",
        "chainId": "0xa4ec"
      },
      "additionalContracts": [],
      "isFixedGasLimit": false
    },
    {
      "hash": "0x088979a138181f3ef860ec56dcae39c4893e9623c5606bf92ce59cfc6af77e4b",
      "transactionType": "CALL",
      "contractName": "TransparentUpgradeableProxy.0.8.18",
      "contractAddress": "0x96186ad22e1aa1da8ae55615f6bc8db6088d9b26",
      "function": null,
      "arguments": null,
      "transaction": {
        "from": "0x2ceade86a04e474f3cf9bd87208514d818010627",
        "to": "0x96186ad22e1aa1da8ae55615f6bc8db6088d9b26",
        "gas": "0xcd07",
        "value": "0x0",
        "input": "0xf2fde38b00000000000000000000000014204392270cd38d02c43465909cade33bf5d6e5",
        "nonce": "0x488",
        "chainId": "0xa4ec"
      },
      "additionalContracts": [],
      "isFixedGasLimit": false
    },
    {
      "hash": "0x084c18423d60028cf88628561f95dd2f84e0a82fdcc232c202fd547389270617",
      "transactionType": "CALL",
      "contractName": "TransparentUpgradeableProxy.0.8.18",
      "contractAddress": "0xb68ac9fa09b6d1d957a48d833c7f9b058f9c4e6f",
      "function": null,
      "arguments": null,
      "transaction": {
        "from": "0x2ceade86a04e474f3cf9bd87208514d818010627",
        "to": "0xb68ac9fa09b6d1d957a48d833c7f9b058f9c4e6f",
        "gas": "0xc11d",
        "value": "0x0",
        "input": "0xf2fde38b00000000000000000000000014204392270cd38d02c43465909cade33bf5d6e5",
        "nonce": "0x489",
        "chainId": "0xa4ec"
      },
      "additionalContracts": [],
      "isFixedGasLimit": false
    },
    {
      "hash": "0xb909a3c3e658d0c6e1ba810039b7ce8ebabe121e53ecefb73821b207d6fe689a",
      "transactionType": "CALL",
      "contractName": "TransparentUpgradeableProxy.0.8.18",
      "contractAddress": "0x9b637df37641643efad754474d9b67e30c377cc7",
      "function": null,
      "arguments": null,
      "transaction": {
        "from": "0x2ceade86a04e474f3cf9bd87208514d818010627",
        "to": "0x9b637df37641643efad754474d9b67e30c377cc7",
        "gas": "0xcc70",
        "value": "0x0",
        "input": "0xf2fde38b00000000000000000000000014204392270cd38d02c43465909cade33bf5d6e5",
        "nonce": "0x48a",
        "chainId": "0xa4ec"
      },
      "additionalContracts": [],
      "isFixedGasLimit": false
    }
  ],
  "receipts": [
    {
      "status": "0x1",
      "cumulativeGasUsed": "0x69029",
      "logs": [
        {
          "address": "0x10c69b37ca78ef9d9294eaed1d84d8a63bb61c85",
          "topics": [
            "0x8be0079c531659141344cd1fd0a4f28419497f9722a3daafe3b4186f6b6457e0",
            "0x0000000000000000000000000000000000000000000000000000000000000000",
            "0x0000000000000000000000002ceade86a04e474f3cf9bd87208514d818010627"
          ],
          "data": "0x",
          "blockHash": "0x9bda04a384f57f2310d1c3a61cc8f8cba052c7496c5641ccd255807522e011dc",
          "blockNumber": "0x1d9c1b8",
          "blockTimestamp": "0x67e2c703",
          "transactionHash": "0xffe2f0970e00fbe2dd2e181cc8cd62854f8dbe512b526ad92c22cce1d6fba451",
          "transactionIndex": "0x0",
          "logIndex": "0x0",
          "removed": false
        }
      ],
      "logsBloom": "0x00000000000000000000000000000000000000000000000000800000000000000000000000000000000000000800000000080000000000000000000000000800000000000000000000000000000000000001000000000000000000000000000000000000020000000001000000000800000000000000000000000000000000400020000000000000000000000000000000000000000000000000000000000000000000000000000000000000000000000000000000000000000000000000000000000000000000000000000000000000001000000000000000000000000020000000000000000000000000000000000000000000000000000000000000000000",
      "type": "0x0",
      "transactionHash": "0xffe2f0970e00fbe2dd2e181cc8cd62854f8dbe512b526ad92c22cce1d6fba451",
      "transactionIndex": "0x0",
      "blockHash": "0x9bda04a384f57f2310d1c3a61cc8f8cba052c7496c5641ccd255807522e011dc",
      "blockNumber": "0x1d9c1b8",
      "gasUsed": "0x69029",
      "effectiveGasPrice": "0x581672100",
      "blobGasPrice": "0x1",
      "from": "0x2ceade86a04e474f3cf9bd87208514d818010627",
      "to": null,
      "contractAddress": "0x10c69b37ca78ef9d9294eaed1d84d8a63bb61c85"
    },
    {
      "status": "0x1",
      "cumulativeGasUsed": "0x6fbb",
      "logs": [
        {
          "address": "0x10c69b37ca78ef9d9294eaed1d84d8a63bb61c85",
          "topics": [
            "0x8be0079c531659141344cd1fd0a4f28419497f9722a3daafe3b4186f6b6457e0",
            "0x0000000000000000000000002ceade86a04e474f3cf9bd87208514d818010627",
            "0x00000000000000000000000014204392270cd38d02c43465909cade33bf5d6e5"
          ],
          "data": "0x",
          "blockHash": "0x18e9d010c28de449c5f04bf42194d832172bd138306b569cfe60e3ca9c55c886",
          "blockNumber": "0x1d9c1b9",
          "blockTimestamp": "0x67e2c703",
          "transactionHash": "0x7935fc12e327feb1613c3041e8870b644a1b8377829975f8ffc6e6b3716db30c",
          "transactionIndex": "0x0",
          "logIndex": "0x0",
          "removed": false
        }
      ],
      "logsBloom": "0x00000000000000000000000000000000000000000000000000800000000000000000000000000000000000000800000000080000000000000000000000000800000000000000000000000000000040000001000000000000000000000000000000800000400000000001000000000000000000000000000000000000000000400020000000000000000000000000000000000000000000000000000000000000000000000000000000000000000000000000000000000000000000000000000000000000000000000000000000000000001000000000000000000000000000000000000000000000000000000000000000000000000000000000000000000000",
      "type": "0x0",
      "transactionHash": "0x7935fc12e327feb1613c3041e8870b644a1b8377829975f8ffc6e6b3716db30c",
      "transactionIndex": "0x0",
      "blockHash": "0x18e9d010c28de449c5f04bf42194d832172bd138306b569cfe60e3ca9c55c886",
      "blockNumber": "0x1d9c1b9",
      "gasUsed": "0x6fbb",
      "effectiveGasPrice": "0x581672100",
      "blobGasPrice": "0x1",
      "from": "0x2ceade86a04e474f3cf9bd87208514d818010627",
      "to": "0x10c69b37ca78ef9d9294eaed1d84d8a63bb61c85",
      "contractAddress": null
    },
    {
      "status": "0x1",
      "cumulativeGasUsed": "0x91620",
      "logs": [
        {
          "address": "0x96186ad22e1aa1da8ae55615f6bc8db6088d9b26",
          "topics": [
            "0xbc7cd75a20ee27fd9adebab32041f755214dbc6bffa90cc0225b39da2e5c2d3b",
            "0x000000000000000000000000fa06e5cdaeddf7b895e4e066e6b758c621f2024f"
          ],
          "data": "0x",
          "blockHash": "0x538f486f72a7f3127712bbfebd47a292843df868dd4c7f166d742b2fec75accd",
          "blockNumber": "0x1d9c1ba",
          "blockTimestamp": "0x67e2c703",
          "transactionHash": "0x07d78c91541331daf4b8e2d91e9390fefcec1b58fffd2d8d3e769dc141819d14",
          "transactionIndex": "0x0",
          "logIndex": "0x0",
          "removed": false
        },
        {
          "address": "0x96186ad22e1aa1da8ae55615f6bc8db6088d9b26",
          "topics": [
            "0x7e644d79422f17c01e4894b5f4f588d331ebfa28653d42ae832dc59e38c9798f"
          ],
          "data": "0x000000000000000000000000000000000000000000000000000000000000000000000000000000000000000010c69b37ca78ef9d9294eaed1d84d8a63bb61c85",
          "blockHash": "0x538f486f72a7f3127712bbfebd47a292843df868dd4c7f166d742b2fec75accd",
          "blockNumber": "0x1d9c1ba",
          "blockTimestamp": "0x67e2c703",
          "transactionHash": "0x07d78c91541331daf4b8e2d91e9390fefcec1b58fffd2d8d3e769dc141819d14",
          "transactionIndex": "0x0",
          "logIndex": "0x1",
          "removed": false
        }
      ],
      "logsBloom": "0x00000000000000000000000000000000400000000000000000000000000000000000000000000000000000000000400000000000000000000000000000000000000000000000000000000000000002080000000000000000000000000400000000000000000000000000000000000000000000800000000000000000000000200000000000000000000000000000000000000000000000000000000000800000000000000000000000000000000000000000000000000000000000000000000000000020000000000000000000000000000000000400000004000000000000000000000000000000000000008000000000000000000000000000000000000000",
      "type": "0x0",
      "transactionHash": "0x07d78c91541331daf4b8e2d91e9390fefcec1b58fffd2d8d3e769dc141819d14",
      "transactionIndex": "0x0",
      "blockHash": "0x538f486f72a7f3127712bbfebd47a292843df868dd4c7f166d742b2fec75accd",
      "blockNumber": "0x1d9c1ba",
      "gasUsed": "0x91620",
      "effectiveGasPrice": "0x581672100",
      "blobGasPrice": "0x1",
      "from": "0x2ceade86a04e474f3cf9bd87208514d818010627",
      "to": "0x4e59b44847b379578588920ca78fbf26c0b4956c",
      "contractAddress": null
    },
    {
      "status": "0x1",
      "cumulativeGasUsed": "0x9162c",
      "logs": [
        {
          "address": "0xcb17d7086a4b617b12c944f7b7f2a3973897fe0b",
          "topics": [
            "0xbc7cd75a20ee27fd9adebab32041f755214dbc6bffa90cc0225b39da2e5c2d3b",
            "0x000000000000000000000000b96894e856046eb2ff67b866b924546ee919a456"
          ],
          "data": "0x",
          "blockHash": "0x399d54bf8aa1ee4cfe46227722fb1085cedd30f19cea32a3e5687d583b4967b7",
          "blockNumber": "0x1d9c1bb",
          "blockTimestamp": "0x67e2c704",
          "transactionHash": "0xec1bbaea48bc929d3e8c55766dcd471b4beea1af676a58109aa929022a9c42ed",
          "transactionIndex": "0x0",
          "logIndex": "0x0",
          "removed": false
        },
        {
          "address": "0xcb17d7086a4b617b12c944f7b7f2a3973897fe0b",
          "topics": [
            "0x7e644d79422f17c01e4894b5f4f588d331ebfa28653d42ae832dc59e38c9798f"
          ],
          "data": "0x000000000000000000000000000000000000000000000000000000000000000000000000000000000000000010c69b37ca78ef9d9294eaed1d84d8a63bb61c85",
          "blockHash": "0x399d54bf8aa1ee4cfe46227722fb1085cedd30f19cea32a3e5687d583b4967b7",
          "blockNumber": "0x1d9c1bb",
          "blockTimestamp": "0x67e2c704",
          "transactionHash": "0xec1bbaea48bc929d3e8c55766dcd471b4beea1af676a58109aa929022a9c42ed",
          "transactionIndex": "0x0",
          "logIndex": "0x1",
          "removed": false
        }
      ],
      "logsBloom": "0x00000000000000000000000000000000400000000000000000000000000000000000000000000000000000000000000000000000000000000000000000000000000000000000000000000000000002000000000000000000000000000000000000000000000000000000000000000000000000800000000000000040000000000000000000000000000000000000000000000000000000000000000000800000000000000000000000040000800002000000000000000000000000000000010000000020000000000000000000000000000000000400000000000000000200000000000000000000000000000000000000000000000000000000000000000000",
      "type": "0x0",
      "transactionHash": "0xec1bbaea48bc929d3e8c55766dcd471b4beea1af676a58109aa929022a9c42ed",
      "transactionIndex": "0x0",
      "blockHash": "0x399d54bf8aa1ee4cfe46227722fb1085cedd30f19cea32a3e5687d583b4967b7",
      "blockNumber": "0x1d9c1bb",
      "gasUsed": "0x9162c",
      "effectiveGasPrice": "0x581672100",
      "blobGasPrice": "0x1",
      "from": "0x2ceade86a04e474f3cf9bd87208514d818010627",
      "to": "0x4e59b44847b379578588920ca78fbf26c0b4956c",
      "contractAddress": null
    },
    {
      "status": "0x1",
      "cumulativeGasUsed": "0x9162c",
      "logs": [
        {
          "address": "0xb68ac9fa09b6d1d957a48d833c7f9b058f9c4e6f",
          "topics": [
            "0xbc7cd75a20ee27fd9adebab32041f755214dbc6bffa90cc0225b39da2e5c2d3b",
            "0x000000000000000000000000616583e0cc1e50592e941d214f5a6d7318165b05"
          ],
          "data": "0x",
          "blockHash": "0x3240337c59ee7a8a41e85826e4af2d4107b265b1cde35bbd6ce65958bd72e06e",
          "blockNumber": "0x1d9c1bc",
          "blockTimestamp": "0x67e2c704",
          "transactionHash": "0x13c02fed5abfedd01b0e13032f0a92c043ee6b9054dcd3b435ddf0622bc7beca",
          "transactionIndex": "0x0",
          "logIndex": "0x0",
          "removed": false
        },
        {
          "address": "0xb68ac9fa09b6d1d957a48d833c7f9b058f9c4e6f",
          "topics": [
            "0x7e644d79422f17c01e4894b5f4f588d331ebfa28653d42ae832dc59e38c9798f"
          ],
          "data": "0x000000000000000000000000000000000000000000000000000000000000000000000000000000000000000010c69b37ca78ef9d9294eaed1d84d8a63bb61c85",
          "blockHash": "0x3240337c59ee7a8a41e85826e4af2d4107b265b1cde35bbd6ce65958bd72e06e",
          "blockNumber": "0x1d9c1bc",
          "blockTimestamp": "0x67e2c704",
          "transactionHash": "0x13c02fed5abfedd01b0e13032f0a92c043ee6b9054dcd3b435ddf0622bc7beca",
          "transactionIndex": "0x0",
          "logIndex": "0x1",
          "removed": false
        }
      ],
      "logsBloom": "0x00000000000000000000000000000000400000000000000000000000000000000000020000000000000000000000000000000000000000000000000000000000000000000000000004000000000002000000000000000000000000000000000000000000000000000000000000000000000000800000000040000000000000000000000000000000000000000000000000000000000000000000000000800000000000000000000000000000000000000000000000000000000000000000000000040020000000000000000000000000000000000400000001000000000000000000000000000000000000800000000000000000000000000000000000000000",
      "type": "0x0",
      "transactionHash": "0x13c02fed5abfedd01b0e13032f0a92c043ee6b9054dcd3b435ddf0622bc7beca",
      "transactionIndex": "0x0",
      "blockHash": "0x3240337c59ee7a8a41e85826e4af2d4107b265b1cde35bbd6ce65958bd72e06e",
      "blockNumber": "0x1d9c1bc",
      "gasUsed": "0x9162c",
      "effectiveGasPrice": "0x581672100",
      "blobGasPrice": "0x1",
      "from": "0x2ceade86a04e474f3cf9bd87208514d818010627",
      "to": "0x4e59b44847b379578588920ca78fbf26c0b4956c",
      "contractAddress": null
    },
    {
      "status": "0x1",
      "cumulativeGasUsed": "0x9162c",
      "logs": [
        {
          "address": "0x9b637df37641643efad754474d9b67e30c377cc7",
          "topics": [
            "0xbc7cd75a20ee27fd9adebab32041f755214dbc6bffa90cc0225b39da2e5c2d3b",
            "0x000000000000000000000000d4edc433326e539cf2cacc0c0fb092177a6ce8f5"
          ],
          "data": "0x",
          "blockHash": "0x58852a4b5c30687bddef467d3fb924b81a1d43fcda8a9c6ada11893bfc4490b8",
          "blockNumber": "0x1d9c1bd",
          "blockTimestamp": "0x67e2c704",
          "transactionHash": "0x9f7e0f8473923dfd75b7cb9d58e8d9989923f9bee1585ef70ef638346071dc5a",
          "transactionIndex": "0x0",
          "logIndex": "0x0",
          "removed": false
        },
        {
          "address": "0x9b637df37641643efad754474d9b67e30c377cc7",
          "topics": [
            "0x7e644d79422f17c01e4894b5f4f588d331ebfa28653d42ae832dc59e38c9798f"
          ],
          "data": "0x000000000000000000000000000000000000000000000000000000000000000000000000000000000000000010c69b37ca78ef9d9294eaed1d84d8a63bb61c85",
          "blockHash": "0x58852a4b5c30687bddef467d3fb924b81a1d43fcda8a9c6ada11893bfc4490b8",
          "blockNumber": "0x1d9c1bd",
          "blockTimestamp": "0x67e2c704",
          "transactionHash": "0x9f7e0f8473923dfd75b7cb9d58e8d9989923f9bee1585ef70ef638346071dc5a",
          "transactionIndex": "0x0",
          "logIndex": "0x1",
          "removed": false
        }
      ],
      "logsBloom": "0x00000000000000000000000000000001400000000000000000000000000000000000000000000000000000000000000000000000000000000000000000000000000000000000000000000000000002000000000000002000000000000000000000000000000000000000000000000000000000800000000000000000000010000000000000000000000000000000000000000000000000000000000000800000000000000001000000000000000000000000000000000000000000000000000000000020000000000000000000000000000100000400000000000000000000000000000080000000000000000000000000000000000000000000000000000000",
      "type": "0x0",
      "transactionHash": "0x9f7e0f8473923dfd75b7cb9d58e8d9989923f9bee1585ef70ef638346071dc5a",
      "transactionIndex": "0x0",
      "blockHash": "0x58852a4b5c30687bddef467d3fb924b81a1d43fcda8a9c6ada11893bfc4490b8",
      "blockNumber": "0x1d9c1bd",
      "gasUsed": "0x9162c",
      "effectiveGasPrice": "0x581672100",
      "blobGasPrice": "0x1",
      "from": "0x2ceade86a04e474f3cf9bd87208514d818010627",
      "to": "0x4e59b44847b379578588920ca78fbf26c0b4956c",
      "contractAddress": null
    },
    {
      "status": "0x1",
      "cumulativeGasUsed": "0x5b379",
      "logs": [
        {
          "address": "0x96186ad22e1aa1da8ae55615f6bc8db6088d9b26",
          "topics": [
            "0x8be0079c531659141344cd1fd0a4f28419497f9722a3daafe3b4186f6b6457e0",
            "0x0000000000000000000000000000000000000000000000000000000000000000",
            "0x0000000000000000000000002ceade86a04e474f3cf9bd87208514d818010627"
          ],
          "data": "0x",
          "blockHash": "0x541fdfe905b249994585d781008b67c8a2540331cffa106c18eb98d50534a09e",
          "blockNumber": "0x1d9c1be",
          "blockTimestamp": "0x67e2c704",
          "transactionHash": "0x158e29c4b2138c3e995771c4f4228da8dbd98a3534134930113f99b1f27f6783",
          "transactionIndex": "0x0",
          "logIndex": "0x0",
          "removed": false
        },
        {
          "address": "0x96186ad22e1aa1da8ae55615f6bc8db6088d9b26",
          "topics": [
            "0x27fe5f0c1c3b1ed427cc63d0f05759ffdecf9aec9e18d31ef366fc8a6cb5dc3b",
            "0x000000000000000000000000000000000000000000000000000000000000ce10"
          ],
          "data": "0x",
          "blockHash": "0x541fdfe905b249994585d781008b67c8a2540331cffa106c18eb98d50534a09e",
          "blockNumber": "0x1d9c1be",
          "blockTimestamp": "0x67e2c704",
          "transactionHash": "0x158e29c4b2138c3e995771c4f4228da8dbd98a3534134930113f99b1f27f6783",
          "transactionIndex": "0x0",
          "logIndex": "0x1",
          "removed": false
        },
        {
          "address": "0x96186ad22e1aa1da8ae55615f6bc8db6088d9b26",
          "topics": [
            "0x7bfe94ca3147f135fcd6d94ebf61d33fa34fbe904f933ccae66911b9548544f2"
          ],
          "data": "0x00000000000000000000000000000000000000000000000000000000bbf81e00",
          "blockHash": "0x541fdfe905b249994585d781008b67c8a2540331cffa106c18eb98d50534a09e",
          "blockNumber": "0x1d9c1be",
          "blockTimestamp": "0x67e2c704",
          "transactionHash": "0x158e29c4b2138c3e995771c4f4228da8dbd98a3534134930113f99b1f27f6783",
          "transactionIndex": "0x0",
          "logIndex": "0x2",
          "removed": false
        },
        {
          "address": "0x96186ad22e1aa1da8ae55615f6bc8db6088d9b26",
          "topics": [
            "0xb08f0607338ad77f5b08ccf831e533cefcc2d373c173e87a8f61144f1d82be1e"
          ],
          "data": "0x00000000000000000000000000000000000000000000d3c21bcecceda1000000",
          "blockHash": "0x541fdfe905b249994585d781008b67c8a2540331cffa106c18eb98d50534a09e",
          "blockNumber": "0x1d9c1be",
          "blockTimestamp": "0x67e2c704",
          "transactionHash": "0x158e29c4b2138c3e995771c4f4228da8dbd98a3534134930113f99b1f27f6783",
          "transactionIndex": "0x0",
          "logIndex": "0x3",
          "removed": false
        },
        {
          "address": "0x96186ad22e1aa1da8ae55615f6bc8db6088d9b26",
          "topics": [
            "0x55b488abd19ae7621712324d3d42c2ef7a9575f64f5503103286a1161fb40855"
          ],
          "data": "0x000000000000000000000000000000000000000000000000000000000000004000000000000000000000000000000000000000000000000000000000000000a00000000000000000000000000000000000000000000000000000000000000002635553440000000000000000000000000000000000000000000000000000000063474c4400000000000000000000000000000000000000000000000000000000000000000000000000000000000000000000000000000000000000000000000200000000000000000000000000000000000000000000d3c21bcecceda0ffffff0000000000000000000000000000000000000000000000000000000000000001",
          "blockHash": "0x541fdfe905b249994585d781008b67c8a2540331cffa106c18eb98d50534a09e",
          "blockNumber": "0x1d9c1be",
          "blockTimestamp": "0x67e2c704",
          "transactionHash": "0x158e29c4b2138c3e995771c4f4228da8dbd98a3534134930113f99b1f27f6783",
          "transactionIndex": "0x0",
          "logIndex": "0x4",
          "removed": false
        },
        {
          "address": "0x96186ad22e1aa1da8ae55615f6bc8db6088d9b26",
          "topics": [
            "0xfe69856ffb1b1d6cb00c1d8151726e6e95032b1666282eeb293ecadd58b29a6e"
          ],
          "data": "0x0000000000000000000000000000000000000000000000000000000000000000",
          "blockHash": "0x541fdfe905b249994585d781008b67c8a2540331cffa106c18eb98d50534a09e",
          "blockNumber": "0x1d9c1be",
          "blockTimestamp": "0x67e2c704",
          "transactionHash": "0x158e29c4b2138c3e995771c4f4228da8dbd98a3534134930113f99b1f27f6783",
          "transactionIndex": "0x0",
          "logIndex": "0x5",
          "removed": false
        },
        {
          "address": "0x96186ad22e1aa1da8ae55615f6bc8db6088d9b26",
          "topics": [
            "0x4da8e8b2223fbbb897200fb9dfb6b986c1b4188621114d407ee8ec363569fc37"
          ],
          "data": "0x0000000000000000000000000000000000000000000000000000000000000000",
          "blockHash": "0x541fdfe905b249994585d781008b67c8a2540331cffa106c18eb98d50534a09e",
          "blockNumber": "0x1d9c1be",
          "blockTimestamp": "0x67e2c704",
          "transactionHash": "0x158e29c4b2138c3e995771c4f4228da8dbd98a3534134930113f99b1f27f6783",
          "transactionIndex": "0x0",
          "logIndex": "0x6",
          "removed": false
        },
        {
          "address": "0x96186ad22e1aa1da8ae55615f6bc8db6088d9b26",
          "topics": [
            "0x0c7515883121475b5d9289febf21a9de4ad53f18349a856d90c7acd6e099600b"
          ],
          "data": "0x000000000000000000000000eed145d8d962146afc568e9579948576f63d5dc2",
          "blockHash": "0x541fdfe905b249994585d781008b67c8a2540331cffa106c18eb98d50534a09e",
          "blockNumber": "0x1d9c1be",
          "blockTimestamp": "0x67e2c704",
          "transactionHash": "0x158e29c4b2138c3e995771c4f4228da8dbd98a3534134930113f99b1f27f6783",
          "transactionIndex": "0x0",
          "logIndex": "0x7",
          "removed": false
        },
        {
          "address": "0x96186ad22e1aa1da8ae55615f6bc8db6088d9b26",
          "topics": [
            "0x15ff5079dfbf448e4bb45ac83498c2ecb0833ad35916946bb683ccb49f8013a3"
          ],
          "data": "0x000000000000000000000000eed145d8d962146afc568e9579948576f63d5dc200000000000000000000000000000000000000000000d3c21bcecceda1000000",
          "blockHash": "0x541fdfe905b249994585d781008b67c8a2540331cffa106c18eb98d50534a09e",
          "blockNumber": "0x1d9c1be",
          "blockTimestamp": "0x67e2c704",
          "transactionHash": "0x158e29c4b2138c3e995771c4f4228da8dbd98a3534134930113f99b1f27f6783",
          "transactionIndex": "0x0",
          "logIndex": "0x8",
          "removed": false
        }
      ],
      "logsBloom": "0x00000000000000001000000000000000000000000000000000800000000002000000000000200000000000000800400000080000000000000030000001000000004000000000000000000000000000004001000000000000000004040000040080080000020000000001000000000800000000020000000000000000000000400000000000024000000000000000000100000000000000000008000000000000000000000000000000000000000000000000000000010000080000000000000000000004000000000000000000000000000800000080000006000000000020000000000000000008000000008000000000000000000000000000100000000000",
      "type": "0x0",
      "transactionHash": "0x158e29c4b2138c3e995771c4f4228da8dbd98a3534134930113f99b1f27f6783",
      "transactionIndex": "0x0",
      "blockHash": "0x541fdfe905b249994585d781008b67c8a2540331cffa106c18eb98d50534a09e",
      "blockNumber": "0x1d9c1be",
      "gasUsed": "0x5b379",
      "effectiveGasPrice": "0x581672100",
      "blobGasPrice": "0x1",
      "from": "0x2ceade86a04e474f3cf9bd87208514d818010627",
      "to": "0x96186ad22e1aa1da8ae55615f6bc8db6088d9b26",
      "contractAddress": null
    },
    {
      "status": "0x1",
      "cumulativeGasUsed": "0x28c20d",
      "logs": [
        {
          "address": "0xb68ac9fa09b6d1d957a48d833c7f9b058f9c4e6f",
          "topics": [
            "0x8be0079c531659141344cd1fd0a4f28419497f9722a3daafe3b4186f6b6457e0",
            "0x0000000000000000000000000000000000000000000000000000000000000000",
            "0x0000000000000000000000002ceade86a04e474f3cf9bd87208514d818010627"
          ],
          "data": "0x",
          "blockHash": "0x541fdfe905b249994585d781008b67c8a2540331cffa106c18eb98d50534a09e",
          "blockNumber": "0x1d9c1be",
          "blockTimestamp": "0x67e2c704",
          "transactionHash": "0x0cdb144a97bfbbab6707bfe5657576415ffbbdce743a31c14282328b2fb31a17",
          "transactionIndex": "0x1",
          "logIndex": "0x9",
          "removed": false
        },
        {
          "address": "0xb68ac9fa09b6d1d957a48d833c7f9b058f9c4e6f",
          "topics": [
            "0x865dab7821134b6eb27cba259b40e33bbc1b898e970a535a18a83147f380a51f",
            "0x000000000000000000000000cb17d7086a4b617b12c944f7b7f2a3973897fe0b"
          ],
          "data": "0x",
          "blockHash": "0x541fdfe905b249994585d781008b67c8a2540331cffa106c18eb98d50534a09e",
          "blockNumber": "0x1d9c1be",
          "blockTimestamp": "0x67e2c704",
          "transactionHash": "0x0cdb144a97bfbbab6707bfe5657576415ffbbdce743a31c14282328b2fb31a17",
          "transactionIndex": "0x1",
          "logIndex": "0xa",
          "removed": false
        },
        {
          "address": "0xb68ac9fa09b6d1d957a48d833c7f9b058f9c4e6f",
          "topics": [
            "0x0b248ab246a87e452fbedee8dc12dfc53e3f3bfdc6920999062c56dea4ab522a",
            "0x00000000000000000000000096186ad22e1aa1da8ae55615f6bc8db6088d9b26"
          ],
          "data": "0x",
          "blockHash": "0x541fdfe905b249994585d781008b67c8a2540331cffa106c18eb98d50534a09e",
          "blockNumber": "0x1d9c1be",
          "blockTimestamp": "0x67e2c704",
          "transactionHash": "0x0cdb144a97bfbbab6707bfe5657576415ffbbdce743a31c14282328b2fb31a17",
          "transactionIndex": "0x1",
          "logIndex": "0xb",
          "removed": false
        },
        {
          "address": "0xb68ac9fa09b6d1d957a48d833c7f9b058f9c4e6f",
          "topics": [
            "0x6791df7c014d19acfc9b7e3a5d48588a876b014fdd3321f193fef6b0ae785c24",
            "0x0000000000000000000000009b637df37641643efad754474d9b67e30c377cc7"
          ],
          "data": "0x",
          "blockHash": "0x541fdfe905b249994585d781008b67c8a2540331cffa106c18eb98d50534a09e",
          "blockNumber": "0x1d9c1be",
          "blockTimestamp": "0x67e2c704",
          "transactionHash": "0x0cdb144a97bfbbab6707bfe5657576415ffbbdce743a31c14282328b2fb31a17",
          "transactionIndex": "0x1",
          "logIndex": "0xc",
          "removed": false
        },
        {
          "address": "0xb68ac9fa09b6d1d957a48d833c7f9b058f9c4e6f",
          "topics": [
            "0x67b34afe551279f03ead7ef1a0ecd16bec18f83ab1a9834c7fda2627374aae9a",
            "0x00000000000000000000000014204392270cd38d02c43465909cade33bf5d6e5"
          ],
          "data": "0x",
          "blockHash": "0x541fdfe905b249994585d781008b67c8a2540331cffa106c18eb98d50534a09e",
          "blockNumber": "0x1d9c1be",
          "blockTimestamp": "0x67e2c704",
          "transactionHash": "0x0cdb144a97bfbbab6707bfe5657576415ffbbdce743a31c14282328b2fb31a17",
          "transactionIndex": "0x1",
          "logIndex": "0xd",
          "removed": false
        },
        {
          "address": "0xb68ac9fa09b6d1d957a48d833c7f9b058f9c4e6f",
          "topics": [
            "0x7f26b83ff96e1f2b6a682f133852f6798a09c465da95921460cefb3847402498"
          ],
          "data": "0x0000000000000000000000000000000000000000000000000000000000000001",
          "blockHash": "0x541fdfe905b249994585d781008b67c8a2540331cffa106c18eb98d50534a09e",
          "blockNumber": "0x1d9c1be",
          "blockTimestamp": "0x67e2c704",
          "transactionHash": "0x0cdb144a97bfbbab6707bfe5657576415ffbbdce743a31c14282328b2fb31a17",
          "transactionIndex": "0x1",
          "logIndex": "0xe",
          "removed": false
        }
      ],
      "logsBloom": "0x00000000000000000001000000060080000100000000000000800000000000000000020000000000000000000800000000080000000000000000000000000000000000000000000004000001000040000001020000000000000000000000000000800000420200000001000000000800000000000000000040000000000801400000000000000000000004000000000200000000000080000000002000000000000000000000000000000000020400000000804000800000000000000000000000002000000000000000000000040000000000020000000000000000000020000000000000000000000000000000004000000000000002000000000000000000",
      "type": "0x0",
      "transactionHash": "0x0cdb144a97bfbbab6707bfe5657576415ffbbdce743a31c14282328b2fb31a17",
      "transactionIndex": "0x1",
      "blockHash": "0x541fdfe905b249994585d781008b67c8a2540331cffa106c18eb98d50534a09e",
      "blockNumber": "0x1d9c1be",
      "gasUsed": "0x230e94",
      "effectiveGasPrice": "0x581672100",
      "blobGasPrice": "0x1",
      "from": "0x2ceade86a04e474f3cf9bd87208514d818010627",
      "to": "0xb68ac9fa09b6d1d957a48d833c7f9b058f9c4e6f",
      "contractAddress": null
    },
    {
      "status": "0x1",
      "cumulativeGasUsed": "0x2a150",
      "logs": [
        {
          "address": "0x9b637df37641643efad754474d9b67e30c377cc7",
          "topics": [
            "0x8be0079c531659141344cd1fd0a4f28419497f9722a3daafe3b4186f6b6457e0",
            "0x0000000000000000000000000000000000000000000000000000000000000000",
            "0x0000000000000000000000002ceade86a04e474f3cf9bd87208514d818010627"
          ],
          "data": "0x",
          "blockHash": "0xb058cbba39e7abf8e5d44578ce79f2d50c82e80cd51975d72dc269c0ed17770c",
          "blockNumber": "0x1d9c1bf",
          "blockTimestamp": "0x67e2c704",
          "transactionHash": "0x19a58c3f21c075ba6ab821446546f27b9ef9a54edac235f17a98b3b1e6912f19",
          "transactionIndex": "0x0",
          "logIndex": "0x0",
          "removed": false
        },
        {
          "address": "0x9b637df37641643efad754474d9b67e30c377cc7",
          "topics": [
            "0xbbee0329d0a3c6241c11b82178f5039a54f654d789f3d9cbb471bf12f0c77e8f",
            "0x000000000000000000000000b68ac9fa09b6d1d957a48d833c7f9b058f9c4e6f"
          ],
          "data": "0x",
          "blockHash": "0xb058cbba39e7abf8e5d44578ce79f2d50c82e80cd51975d72dc269c0ed17770c",
          "blockNumber": "0x1d9c1bf",
          "blockTimestamp": "0x67e2c704",
          "transactionHash": "0x19a58c3f21c075ba6ab821446546f27b9ef9a54edac235f17a98b3b1e6912f19",
          "transactionIndex": "0x0",
          "logIndex": "0x1",
          "removed": false
        },
        {
          "address": "0x9b637df37641643efad754474d9b67e30c377cc7",
          "topics": [
            "0x37bb6eaf6f31a018c4328eb0343706d73df678b663b21b972351d2528f755af5",
            "0x000000000000000000000000b67d723ad4e71e23b780b917e55f6f58fc18cc9e"
          ],
          "data": "0x",
          "blockHash": "0xb058cbba39e7abf8e5d44578ce79f2d50c82e80cd51975d72dc269c0ed17770c",
          "blockNumber": "0x1d9c1bf",
          "blockTimestamp": "0x67e2c704",
          "transactionHash": "0x19a58c3f21c075ba6ab821446546f27b9ef9a54edac235f17a98b3b1e6912f19",
          "transactionIndex": "0x0",
          "logIndex": "0x2",
          "removed": false
        },
        {
          "address": "0x9b637df37641643efad754474d9b67e30c377cc7",
          "topics": [
            "0x0b248ab246a87e452fbedee8dc12dfc53e3f3bfdc6920999062c56dea4ab522a",
            "0x00000000000000000000000096186ad22e1aa1da8ae55615f6bc8db6088d9b26"
          ],
          "data": "0x",
          "blockHash": "0xb058cbba39e7abf8e5d44578ce79f2d50c82e80cd51975d72dc269c0ed17770c",
          "blockNumber": "0x1d9c1bf",
          "blockTimestamp": "0x67e2c704",
          "transactionHash": "0x19a58c3f21c075ba6ab821446546f27b9ef9a54edac235f17a98b3b1e6912f19",
          "transactionIndex": "0x0",
          "logIndex": "0x3",
          "removed": false
        },
        {
          "address": "0x9b637df37641643efad754474d9b67e30c377cc7",
          "topics": [
            "0x67b34afe551279f03ead7ef1a0ecd16bec18f83ab1a9834c7fda2627374aae9a",
            "0x00000000000000000000000014204392270cd38d02c43465909cade33bf5d6e5"
          ],
          "data": "0x",
          "blockHash": "0xb058cbba39e7abf8e5d44578ce79f2d50c82e80cd51975d72dc269c0ed17770c",
          "blockNumber": "0x1d9c1bf",
          "blockTimestamp": "0x67e2c704",
          "transactionHash": "0x19a58c3f21c075ba6ab821446546f27b9ef9a54edac235f17a98b3b1e6912f19",
          "transactionIndex": "0x0",
          "logIndex": "0x4",
          "removed": false
        },
        {
          "address": "0x9b637df37641643efad754474d9b67e30c377cc7",
          "topics": [
            "0x7f26b83ff96e1f2b6a682f133852f6798a09c465da95921460cefb3847402498"
          ],
          "data": "0x0000000000000000000000000000000000000000000000000000000000000001",
          "blockHash": "0xb058cbba39e7abf8e5d44578ce79f2d50c82e80cd51975d72dc269c0ed17770c",
          "blockNumber": "0x1d9c1bf",
          "blockTimestamp": "0x67e2c704",
          "transactionHash": "0x19a58c3f21c075ba6ab821446546f27b9ef9a54edac235f17a98b3b1e6912f19",
          "transactionIndex": "0x0",
          "logIndex": "0x5",
          "removed": false
        }
      ],
      "logsBloom": "0x00000000000000000000000000000000000100000000000000800000000000000000000010000000000000000800000000080200000000000000000000000000000000000000000000000000000040000201020000002000000000000000000000840000420200040001000000000800000000000200000000000000000000400000000000000000000004000000000200000000000080000000002040000000000000100001400000000000000400000000004000000000000000000000000000002000000800000002000000040000000100000000000000000000080020000000000000000000000000000000000000000000000002000000000000000000",
      "type": "0x0",
      "transactionHash": "0x19a58c3f21c075ba6ab821446546f27b9ef9a54edac235f17a98b3b1e6912f19",
      "transactionIndex": "0x0",
      "blockHash": "0xb058cbba39e7abf8e5d44578ce79f2d50c82e80cd51975d72dc269c0ed17770c",
      "blockNumber": "0x1d9c1bf",
      "gasUsed": "0x2a150",
      "effectiveGasPrice": "0x581672100",
      "blobGasPrice": "0x1",
      "from": "0x2ceade86a04e474f3cf9bd87208514d818010627",
      "to": "0x9b637df37641643efad754474d9b67e30c377cc7",
      "contractAddress": null
    },
    {
      "status": "0x1",
      "cumulativeGasUsed": "0x4dfc3",
      "logs": [
        {
          "address": "0xcb17d7086a4b617b12c944f7b7f2a3973897fe0b",
          "topics": [
            "0x8be0079c531659141344cd1fd0a4f28419497f9722a3daafe3b4186f6b6457e0",
            "0x0000000000000000000000000000000000000000000000000000000000000000",
            "0x0000000000000000000000002ceade86a04e474f3cf9bd87208514d818010627"
          ],
          "data": "0x",
          "blockHash": "0xb058cbba39e7abf8e5d44578ce79f2d50c82e80cd51975d72dc269c0ed17770c",
          "blockNumber": "0x1d9c1bf",
          "blockTimestamp": "0x67e2c704",
          "transactionHash": "0x15f08e7e4168de7706023faaa7ec3917353ea40be00af81b261e4c849d995de5",
          "transactionIndex": "0x1",
          "logIndex": "0x6",
          "removed": false
        },
        {
          "address": "0xcb17d7086a4b617b12c944f7b7f2a3973897fe0b",
          "topics": [
            "0x2ee2cb0721ec60b86190cae5c48e25064b69b35abad32452a4ec99d232033de2",
            "0x000000000000000000000000b68ac9fa09b6d1d957a48d833c7f9b058f9c4e6f"
          ],
          "data": "0x",
          "blockHash": "0xb058cbba39e7abf8e5d44578ce79f2d50c82e80cd51975d72dc269c0ed17770c",
          "blockNumber": "0x1d9c1bf",
          "blockTimestamp": "0x67e2c704",
          "transactionHash": "0x15f08e7e4168de7706023faaa7ec3917353ea40be00af81b261e4c849d995de5",
          "transactionIndex": "0x1",
          "logIndex": "0x7",
          "removed": false
        },
        {
          "address": "0xcb17d7086a4b617b12c944f7b7f2a3973897fe0b",
          "topics": [
            "0xb69e1c416d8be92ac92c8e97e77c4626fba5e6ab50161099f659ea3303479e50",
            "0x000000000000000000000000b68ac9fa09b6d1d957a48d833c7f9b058f9c4e6f",
            "0x00000000000000000000000096186ad22e1aa1da8ae55615f6bc8db6088d9b26"
          ],
          "data": "0x",
          "blockHash": "0xb058cbba39e7abf8e5d44578ce79f2d50c82e80cd51975d72dc269c0ed17770c",
          "blockNumber": "0x1d9c1bf",
          "blockTimestamp": "0x67e2c704",
          "transactionHash": "0x15f08e7e4168de7706023faaa7ec3917353ea40be00af81b261e4c849d995de5",
          "transactionIndex": "0x1",
          "logIndex": "0x8",
          "removed": false
        }
      ],
      "logsBloom": "0x00000000000100100000000000000000000100000000000000800000000000000000000000000000000000000800000000080200000000000000000000080000000000000000000000000000000000000001000000000000000000000000000000000000020000040001000000000800000000000200000000000040000000400000000000001000000000000000000200000000000000000000000000000000000000000000000000000020000000000000004000000200000000000000010000000000000000000000000000000000000000000000000000000000000220000000000000000000000000000000000000000000000000000000000000000000",
      "type": "0x0",
      "transactionHash": "0x15f08e7e4168de7706023faaa7ec3917353ea40be00af81b261e4c849d995de5",
      "transactionIndex": "0x1",
      "blockHash": "0xb058cbba39e7abf8e5d44578ce79f2d50c82e80cd51975d72dc269c0ed17770c",
      "blockNumber": "0x1d9c1bf",
      "gasUsed": "0x23e73",
      "effectiveGasPrice": "0x581672100",
      "blobGasPrice": "0x1",
      "from": "0x2ceade86a04e474f3cf9bd87208514d818010627",
      "to": "0xcb17d7086a4b617b12c944f7b7f2a3973897fe0b",
      "contractAddress": null
    },
    {
      "status": "0x1",
      "cumulativeGasUsed": "0x18298",
      "logs": [
        {
          "address": "0x96186ad22e1aa1da8ae55615f6bc8db6088d9b26",
          "topics": [
            "0x784c8f4dbf0ffedd6e72c76501c545a70f8b203b30a26ce542bf92ba87c248a4",
            "0x000000000000000000000000fa51efdc0910ccda91732e6806912fa12e2fd475"
          ],
          "data": "0x",
          "blockHash": "0xf24abe749e29c74fdf26ad031588f42b5a6440b4e7d205ef51999836da962c27",
          "blockNumber": "0x1d9c1c0",
          "blockTimestamp": "0x67e2c704",
          "transactionHash": "0xc574683dc4d1666d756f70deb6debd24f2858fdcff6f3ef0615dd6e4b41708ff",
          "transactionIndex": "0x0",
          "logIndex": "0x0",
          "removed": false
        }
      ],
      "logsBloom": "0x00000000000000000000000000000000000000000000000000000000000000000000000000000000000000000000400000000000000000000000000000000000000000000000000000000000000000000000000000000000000000000000000000000000000000000000000000000000000000000000200000000000000000008000000010000000000000000000000100000000000000000000000000000000000000000000000000200000000000000000000000000000000000000000000000000000000000000000000000000000000000000000000004000000000000000000000000000000000000008000000000000000000000001000000000000000",
      "type": "0x0",
      "transactionHash": "0xc574683dc4d1666d756f70deb6debd24f2858fdcff6f3ef0615dd6e4b41708ff",
      "transactionIndex": "0x0",
      "blockHash": "0xf24abe749e29c74fdf26ad031588f42b5a6440b4e7d205ef51999836da962c27",
      "blockNumber": "0x1d9c1c0",
      "gasUsed": "0x18298",
      "effectiveGasPrice": "0x581672100",
      "blobGasPrice": "0x1",
      "from": "0x2ceade86a04e474f3cf9bd87208514d818010627",
      "to": "0x96186ad22e1aa1da8ae55615f6bc8db6088d9b26",
      "contractAddress": null
    },
    {
      "status": "0x1",
      "cumulativeGasUsed": "0x18273",
      "logs": [
        {
          "address": "0x96186ad22e1aa1da8ae55615f6bc8db6088d9b26",
          "topics": [
            "0x71bccdb89fff4d914e3d2e472b327e3debaf4c4d6f1dfe528f430447e4cbcf5f",
            "0x000000000000000000000000cb17d7086a4b617b12c944f7b7f2a3973897fe0b"
          ],
          "data": "0x",
          "blockHash": "0xebae6253954bb9e9f232c4683f75fe01cff2f01f81b45f95a1cb31a459ea4ada",
          "blockNumber": "0x1d9c1c1",
          "blockTimestamp": "0x67e2c704",
          "transactionHash": "0x8c226439a53cc4de9700b8700f90af811a5665b853968f04d13c86c74a069cf9",
          "transactionIndex": "0x0",
          "logIndex": "0x0",
          "removed": false
        }
      ],
      "logsBloom": "0x00000000000000000000000000020080000000000000000000000000000000000000000000000000000000000000400000000000000000000000000000000000000000000000000000000000000000000000000000000000000000000000000000000000000000000040000000000000000000000000000000000000000000000000000000000000000000000000000000000000000000000000000000000000000000000000000000000000000000000000000000800000008000000000000000000000000000000000000000000000000000000000000004000000000000000000000000000000000000008000000004000000000000000000000000000000",
      "type": "0x0",
      "transactionHash": "0x8c226439a53cc4de9700b8700f90af811a5665b853968f04d13c86c74a069cf9",
      "transactionIndex": "0x0",
      "blockHash": "0xebae6253954bb9e9f232c4683f75fe01cff2f01f81b45f95a1cb31a459ea4ada",
      "blockNumber": "0x1d9c1c1",
      "gasUsed": "0x18273",
      "effectiveGasPrice": "0x581672100",
      "blobGasPrice": "0x1",
      "from": "0x2ceade86a04e474f3cf9bd87208514d818010627",
      "to": "0x96186ad22e1aa1da8ae55615f6bc8db6088d9b26",
      "contractAddress": null
    },
    {
      "status": "0x1",
      "cumulativeGasUsed": "0xd4c5",
      "logs": [
        {
          "address": "0x96186ad22e1aa1da8ae55615f6bc8db6088d9b26",
          "topics": [
            "0x3139419c41cdd7abca84fa19dd21118cd285d3e2ce1a9444e8161ce9fa62fdcd",
            "0x00000000000000000000000014204392270cd38d02c43465909cade33bf5d6e5"
          ],
          "data": "0x",
          "blockHash": "0x0faebb5790f927dedbd61e04f26535a7972df3fd755396b95d32afc3ac777abe",
          "blockNumber": "0x1d9c1c2",
          "blockTimestamp": "0x67e2c704",
          "transactionHash": "0x4f46f154f8f283bb92b1a8aba994f47fd4bf43a2ffdd457b50351bf6b87fa084",
          "transactionIndex": "0x0",
          "logIndex": "0x0",
          "removed": false
        }
      ],
      "logsBloom": "0x00000000000000000000000000000000000000000000000000000000000000000000000000000000000000000000400000000000000000000000000000000000000000000000000000000000000040000000000000000000400000000000000000800000400000000000000000000000000000000000000000000000000000000000000000000000000000000000000000000000000000000000000000000000000000000000000000000000000000000000000000000000000000000000000000000000000000000000000000000000000000000000000004000000000000000000000000000000000000008000000000000004000000000000000000000004",
      "type": "0x0",
      "transactionHash": "0x4f46f154f8f283bb92b1a8aba994f47fd4bf43a2ffdd457b50351bf6b87fa084",
      "transactionIndex": "0x0",
      "blockHash": "0x0faebb5790f927dedbd61e04f26535a7972df3fd755396b95d32afc3ac777abe",
      "blockNumber": "0x1d9c1c2",
      "gasUsed": "0xd4c5",
      "effectiveGasPrice": "0x581672100",
      "blobGasPrice": "0x1",
      "from": "0x2ceade86a04e474f3cf9bd87208514d818010627",
      "to": "0x96186ad22e1aa1da8ae55615f6bc8db6088d9b26",
      "contractAddress": null
    },
    {
      "status": "0x1",
      "cumulativeGasUsed": "0x18299",
      "logs": [
        {
          "address": "0x96186ad22e1aa1da8ae55615f6bc8db6088d9b26",
          "topics": [
            "0xd78793225285ecf9cf5f0f84b1cdc335c2cb4d6810ff0b9fd156ad6026c89cea",
            "0x00000000000000000000000014204392270cd38d02c43465909cade33bf5d6e5"
          ],
          "data": "0x",
          "blockHash": "0x6f4e9d7e3ec979a40ebc599c8cad61dc79798f48cf690fdd8f15eaa9a10b8557",
          "blockNumber": "0x1d9c1c3",
          "blockTimestamp": "0x67e2c704",
          "transactionHash": "0xf52348dc151bf1d4f30b4631e5f0711e11d0f6d4671c8e71f2c01b356b8d7a81",
          "transactionIndex": "0x0",
          "logIndex": "0x0",
          "removed": false
        }
      ],
      "logsBloom": "0x00000000000000000000000000000000000000000000000000000000000000000000000000000000000000000000400000000000000000000000000000000000000000000000000000000000000040000000000000000000000000000000000001800100400000000000000000000000000000000000000000000000000000000000000000000000000000000000000000000000000000000000000000000000000000000000000000000000000000000000000000000000000000000000000000000000000000000000000000000000000000000000000004000000000000000000000000000000000000008000000000000000000000000000010000000000",
      "type": "0x0",
      "transactionHash": "0xf52348dc151bf1d4f30b4631e5f0711e11d0f6d4671c8e71f2c01b356b8d7a81",
      "transactionIndex": "0x0",
      "blockHash": "0x6f4e9d7e3ec979a40ebc599c8cad61dc79798f48cf690fdd8f15eaa9a10b8557",
      "blockNumber": "0x1d9c1c3",
      "gasUsed": "0x18299",
      "effectiveGasPrice": "0x581672100",
      "blobGasPrice": "0x1",
      "from": "0x2ceade86a04e474f3cf9bd87208514d818010627",
      "to": "0x96186ad22e1aa1da8ae55615f6bc8db6088d9b26",
      "contractAddress": null
    },
    {
      "status": "0x1",
      "cumulativeGasUsed": "0x28164",
      "logs": [
        {
          "address": "0xcb17d7086a4b617b12c944f7b7f2a3973897fe0b",
          "topics": [
            "0x1a082a1efaf1549c18917ddcb1f759680c29371609e24f4b946e93acf4ce5ad2"
          ],
          "data": "0x2e04a1379be2d5201bd2ccb939f2dc93c4fd9c23cca80e8c8d658bd0f96fd08d000000000000000000000000eed145d8d962146afc568e9579948576f63d5dc20000000000000000000000000000000000000000000000000000000000093a800000000000000000000000000000000000000000000000000000000000278d000000000000000000000000000000000000000000000000000000000000009c40000000000000000000000000000000000000000000000000000000000001388000000000000000000000000000000000000000000000000000000000000000000000000000000000000000000000000000000000000000000000000000000003",
          "blockHash": "0x6f4e9d7e3ec979a40ebc599c8cad61dc79798f48cf690fdd8f15eaa9a10b8557",
          "blockNumber": "0x1d9c1c3",
          "blockTimestamp": "0x67e2c704",
          "transactionHash": "0x1d433fae249846f1258c16b2d9de83dae25afda20db8f57b8fcb4fc0f4aa7ea9",
          "transactionIndex": "0x1",
          "logIndex": "0x1",
          "removed": false
        }
      ],
      "logsBloom": "0x00000000000000000000000000000000000000000000000000000000000000000000000000000000000000000000000000000000000000000000020000000000000000000000000000000000000000000000000000000000000000000000000000000000000000000000000000000000000000000000000000000040000000000000000000000000000000000000000000000000000000000000000000000000000000000000000000000000000000000000000000000000000000000000010000000000000000000000000000000000000000000000000000000000000200000000000000000000000000000000000000000000000010000010000000000000",
      "type": "0x0",
      "transactionHash": "0x1d433fae249846f1258c16b2d9de83dae25afda20db8f57b8fcb4fc0f4aa7ea9",
      "transactionIndex": "0x1",
      "blockHash": "0x6f4e9d7e3ec979a40ebc599c8cad61dc79798f48cf690fdd8f15eaa9a10b8557",
      "blockNumber": "0x1d9c1c3",
      "gasUsed": "0xfecb",
      "effectiveGasPrice": "0x581672100",
      "blobGasPrice": "0x1",
      "from": "0x2ceade86a04e474f3cf9bd87208514d818010627",
      "to": "0xcb17d7086a4b617b12c944f7b7f2a3973897fe0b",
      "contractAddress": null
    },
    {
      "status": "0x1",
      "cumulativeGasUsed": "0x8c1d",
      "logs": [
        {
          "address": "0xcb17d7086a4b617b12c944f7b7f2a3973897fe0b",
          "topics": [
            "0x8be0079c531659141344cd1fd0a4f28419497f9722a3daafe3b4186f6b6457e0",
            "0x0000000000000000000000002ceade86a04e474f3cf9bd87208514d818010627",
            "0x00000000000000000000000014204392270cd38d02c43465909cade33bf5d6e5"
          ],
          "data": "0x",
          "blockHash": "0x3c3131042ce17b0353dc73d3b6a24fee4af476c1bed77550388e09ffaad03665",
          "blockNumber": "0x1d9c1c4",
          "blockTimestamp": "0x67e2c704",
          "transactionHash": "0x933187b24bb8ef391711f791d8da54d657e9430d8af7947a4caf161ac64a8b8b",
          "transactionIndex": "0x0",
          "logIndex": "0x0",
          "removed": false
        }
      ],
      "logsBloom": "0x00000000000000000000000000000000000000000000000000800000000000000000000000000000000000000800000000080000000000000000000000000000000000000000000000000000000040000001000000000000000000000000000000800000400000000001000000000000000000000000000000000040000000400000000000000000000000000000000000000000000000000000000000000000000000000000000000000000000000000000000000000000000000000000010000000000000000000000000000000000000000000000000000000000000200000000000000000000000000000000000000000000000000000000000000000000",
      "type": "0x0",
      "transactionHash": "0x933187b24bb8ef391711f791d8da54d657e9430d8af7947a4caf161ac64a8b8b",
      "transactionIndex": "0x0",
      "blockHash": "0x3c3131042ce17b0353dc73d3b6a24fee4af476c1bed77550388e09ffaad03665",
      "blockNumber": "0x1d9c1c4",
      "gasUsed": "0x8c1d",
      "effectiveGasPrice": "0x581672100",
      "blobGasPrice": "0x1",
      "from": "0x2ceade86a04e474f3cf9bd87208514d818010627",
      "to": "0xcb17d7086a4b617b12c944f7b7f2a3973897fe0b",
      "contractAddress": null
    },
    {
      "status": "0x1",
      "cumulativeGasUsed": "0x1184e",
      "logs": [
        {
          "address": "0x96186ad22e1aa1da8ae55615f6bc8db6088d9b26",
          "topics": [
            "0x8be0079c531659141344cd1fd0a4f28419497f9722a3daafe3b4186f6b6457e0",
            "0x0000000000000000000000002ceade86a04e474f3cf9bd87208514d818010627",
            "0x00000000000000000000000014204392270cd38d02c43465909cade33bf5d6e5"
          ],
          "data": "0x",
          "blockHash": "0x3c3131042ce17b0353dc73d3b6a24fee4af476c1bed77550388e09ffaad03665",
          "blockNumber": "0x1d9c1c4",
          "blockTimestamp": "0x67e2c704",
          "transactionHash": "0x088979a138181f3ef860ec56dcae39c4893e9623c5606bf92ce59cfc6af77e4b",
          "transactionIndex": "0x1",
          "logIndex": "0x1",
          "removed": false
        }
      ],
      "logsBloom": "0x00000000000000000000000000000000000000000000000000800000000000000000000000000000000000000800400000080000000000000000000000000000000000000000000000000000000040000001000000000000000000000000000000800000400000000001000000000000000000000000000000000000000000400000000000000000000000000000000000000000000000000000000000000000000000000000000000000000000000000000000000000000000000000000000000000000000000000000000000000000000000000000000004000000000000000000000000000000000000008000000000000000000000000000000000000000",
      "type": "0x0",
      "transactionHash": "0x088979a138181f3ef860ec56dcae39c4893e9623c5606bf92ce59cfc6af77e4b",
      "transactionIndex": "0x1",
      "blockHash": "0x3c3131042ce17b0353dc73d3b6a24fee4af476c1bed77550388e09ffaad03665",
      "blockNumber": "0x1d9c1c4",
      "gasUsed": "0x8c31",
      "effectiveGasPrice": "0x581672100",
      "blobGasPrice": "0x1",
      "from": "0x2ceade86a04e474f3cf9bd87208514d818010627",
      "to": "0x96186ad22e1aa1da8ae55615f6bc8db6088d9b26",
      "contractAddress": null
    },
    {
      "status": "0x1",
      "cumulativeGasUsed": "0x8bd0",
      "logs": [
        {
          "address": "0xb68ac9fa09b6d1d957a48d833c7f9b058f9c4e6f",
          "topics": [
            "0x8be0079c531659141344cd1fd0a4f28419497f9722a3daafe3b4186f6b6457e0",
            "0x0000000000000000000000002ceade86a04e474f3cf9bd87208514d818010627",
            "0x00000000000000000000000014204392270cd38d02c43465909cade33bf5d6e5"
          ],
          "data": "0x",
          "blockHash": "0x626943fe530909b8759202cbe932cfd929e9775d5b9ba66b668dcc53e6e477fe",
          "blockNumber": "0x1d9c1c5",
          "blockTimestamp": "0x67e2c704",
          "transactionHash": "0x084c18423d60028cf88628561f95dd2f84e0a82fdcc232c202fd547389270617",
          "transactionIndex": "0x0",
          "logIndex": "0x0",
          "removed": false
        }
      ],
      "logsBloom": "0x00000000000000000000000000000000000000000000000000800000000000000000020000000000000000000800000000080000000000000000000000000000000000000000000004000000000040000001000000000000000000000000000000800000400000000001000000000000000000000000000040000000000000400000000000000000000000000000000000000000000000000000000000000000000000000000000000000000000000000000000000000000000000000000000000000000000000000000000000000000000000000000000000000000000000000000000000000000000000000000000000000000000000000000000000000000",
      "type": "0x0",
      "transactionHash": "0x084c18423d60028cf88628561f95dd2f84e0a82fdcc232c202fd547389270617",
      "transactionIndex": "0x0",
      "blockHash": "0x626943fe530909b8759202cbe932cfd929e9775d5b9ba66b668dcc53e6e477fe",
      "blockNumber": "0x1d9c1c5",
      "gasUsed": "0x8bd0",
      "effectiveGasPrice": "0x581672100",
      "blobGasPrice": "0x1",
      "from": "0x2ceade86a04e474f3cf9bd87208514d818010627",
      "to": "0xb68ac9fa09b6d1d957a48d833c7f9b058f9c4e6f",
      "contractAddress": null
    },
    {
      "status": "0x1",
      "cumulativeGasUsed": "0x8bca",
      "logs": [
        {
          "address": "0x9b637df37641643efad754474d9b67e30c377cc7",
          "topics": [
            "0x8be0079c531659141344cd1fd0a4f28419497f9722a3daafe3b4186f6b6457e0",
            "0x0000000000000000000000002ceade86a04e474f3cf9bd87208514d818010627",
            "0x00000000000000000000000014204392270cd38d02c43465909cade33bf5d6e5"
          ],
          "data": "0x",
          "blockHash": "0xefb64c48fef06d2468059db2fd4affaef7f303eb8f5f7abcd2a9c26bfcf7f252",
          "blockNumber": "0x1d9c1c6",
          "blockTimestamp": "0x67e2c704",
          "transactionHash": "0xb909a3c3e658d0c6e1ba810039b7ce8ebabe121e53ecefb73821b207d6fe689a",
          "transactionIndex": "0x0",
          "logIndex": "0x0",
          "removed": false
        }
      ],
      "logsBloom": "0x00000000000000000000000000000000000000000000000000800000000000000000000000000000000000000800000000080000000000000000000000000000000000000000000000000000000040000001000000002000000000000000000000800000400000000001000000000000000000000000000000000000000000400000000000000000000000000000000000000000000000000000000000000000000000000001000000000000000000000000000000000000000000000000000000000000000000000000000000000000000100000000000000000000000000000000000000000000000000000000000000000000000000000000000000000000",
      "type": "0x0",
      "transactionHash": "0xb909a3c3e658d0c6e1ba810039b7ce8ebabe121e53ecefb73821b207d6fe689a",
      "transactionIndex": "0x0",
      "blockHash": "0xefb64c48fef06d2468059db2fd4affaef7f303eb8f5f7abcd2a9c26bfcf7f252",
      "blockNumber": "0x1d9c1c6",
      "gasUsed": "0x8bca",
      "effectiveGasPrice": "0x581672100",
      "blobGasPrice": "0x1",
      "from": "0x2ceade86a04e474f3cf9bd87208514d818010627",
      "to": "0x9b637df37641643efad754474d9b67e30c377cc7",
      "contractAddress": null
    }
  ],
  "libraries": [],
  "pending": [],
  "returns": {},
  "timestamp": 1742915334,
  "chain": 42220,
  "commit": "4ac122d"
}