{
  "transactions": [
    {
      "hash": "0x96a8f30cc9e53711060fff71f100bfc446b53aac3666a6d29b63d7ff1c83ba5d",
      "transactionType": "CALL",
      "contractName": null,
      "contractAddress": "0x36b0273c0537d73265ae2607a3e9be949bff97c8",
      "function": "genericCall(address,bytes,address,uint256)",
      "arguments": [
        "0x27ad26f569439De66cC0D5e8D7A3ABc5DF512a52",
        "0x2c56721b000000000000000000000000000000000000000000000000000000000000004000000000000000000000000000000000000000000000000000000000000000a000000000000000000000000000000000000000000000000000000000000000024d6f636b5553444300000000000000000000000000000000000000000000000063474c4400000000000000000000000000000000000000000000000000000000000000000000000000000000000000000000000000000000000000000000000200000000000000000000000000000000000000000000d3c21bcecceda0ffffff0000000000000000000000000000000000000000000000000000000000000001",
        "0xC47747659b74Cc23210DD851b254260b0B039eED",
        "0"
      ],
      "transaction": {
        "from": "0x2ceade86a04e474f3cf9bd87208514d818010627",
        "to": "0x36b0273c0537d73265ae2607a3e9be949bff97c8",
        "gas": "0x13028",
        "value": "0x0",
        "input": "0xd1b7089a00000000000000000000000027ad26f569439de66cc0d5e8d7a3abc5df512a520000000000000000000000000000000000000000000000000000000000000080000000000000000000000000c47747659b74cc23210dd851b254260b0b039eed000000000000000000000000000000000000000000000000000000000000000000000000000000000000000000000000000000000000000000000000000001042c56721b000000000000000000000000000000000000000000000000000000000000004000000000000000000000000000000000000000000000000000000000000000a000000000000000000000000000000000000000000000000000000000000000024d6f636b5553444300000000000000000000000000000000000000000000000063474c4400000000000000000000000000000000000000000000000000000000000000000000000000000000000000000000000000000000000000000000000200000000000000000000000000000000000000000000d3c21bcecceda0ffffff000000000000000000000000000000000000000000000000000000000000000100000000000000000000000000000000000000000000000000000000",
        "nonce": "0x77",
        "chainId": "0x32"
      },
      "additionalContracts": [],
      "isFixedGasLimit": false
    }
  ],
  "receipts": [
    {
      "status": "0x1",
      "cumulativeGasUsed": "0x1d45e",
      "logs": [
        {
          "address": "0xc47747659b74cc23210dd851b254260b0b039eed",
          "topics": [
            "0x534b52c783549f909f9e743120524d0b7154058e4a54cdc895c2c0b587a1c7e0",
            "0x00000000000000000000000027ad26f569439de66cc0d5e8d7a3abc5df512a52"
          ],
          "data": "0x00000000000000000000000000000000000000000000000000000000000000600000000000000000000000000000000000000000000000000000000000000000000000000000000000000000000000000000000000000000000000000000000100000000000000000000000000000000000000000000000000000000000001042c56721b000000000000000000000000000000000000000000000000000000000000004000000000000000000000000000000000000000000000000000000000000000a000000000000000000000000000000000000000000000000000000000000000024d6f636b5553444300000000000000000000000000000000000000000000000063474c4400000000000000000000000000000000000000000000000000000000000000000000000000000000000000000000000000000000000000000000000200000000000000000000000000000000000000000000d3c21bcecceda0ffffff000000000000000000000000000000000000000000000000000000000000000100000000000000000000000000000000000000000000000000000000",
          "blockHash": "0x632d229c82465c7f5747a6d309a6ac1feea790b529a0b242a28ca9551c30bef9",
          "blockNumber": "0x596335d",
          "transactionHash": "0x96a8f30cc9e53711060fff71f100bfc446b53aac3666a6d29b63d7ff1c83ba5d",
          "transactionIndex": "0x2",
          "logIndex": "0x1",
          "removed": false
        }
      ],
      "logsBloom": "0x00000000000000000000000000000000000000000000000000000000000000080000000000000000000000000000000010000000010000000000000000000000000000000000000000000000000080000000000000000000000000000000000000000000000000000000000000000000000000000000000000040000000000000000010000000001000000000000000000000000000000000000000000000000000000000000000000000000000000000000000020000000000000000000000000000000000000000000000000000000000000000000000000100000000000000000000000000000000000000000000000000000000000000000000000000000",
      "type": "0x0",
      "transactionHash": "0x96a8f30cc9e53711060fff71f100bfc446b53aac3666a6d29b63d7ff1c83ba5d",
      "transactionIndex": "0x2",
      "blockHash": "0x632d229c82465c7f5747a6d309a6ac1feea790b529a0b242a28ca9551c30bef9",
      "blockNumber": "0x596335d",
      "gasUsed": "0xb751",
      "effectiveGasPrice": "0x0",
      "from": "0x2ceade86a04e474f3cf9bd87208514d818010627",
      "to": "0x36b0273c0537d73265ae2607a3e9be949bff97c8",
      "contractAddress": null
    }
  ],
  "libraries": [],
  "pending": [],
  "returns": {},
  "timestamp": 1758132525975,
  "chain": 50,
  "commit": "584d168"
}