{
  "transactions": [
    {
      "hash": "0xc1b2c0e8e7cf0ce88200d2d1f24cfdbb876e7a3d5cc46de84c9eb534dbec0412",
      "transactionType": "CALL",
      "contractName": null,
      "contractAddress": "0x36b0273c0537d73265ae2607a3e9be949bff97c8",
      "function": "genericCall(address,bytes,address,uint256)",
      "arguments": [
        "0x27ad26f569439De66cC0D5e8D7A3ABc5DF512a52",
        "0x70022cb4000000000000000000000000396a429fe95f21475860593c86cc9c17d39f7f690000000000000000000000000000000000000000000000000000000000000000",
        "0xC47747659b74Cc23210DD851b254260b0B039eED",
        "0"
      ],
      "transaction": {
        "from": "0x2ceade86a04e474f3cf9bd87208514d818010627",
        "to": "0x36b0273c0537d73265ae2607a3e9be949bff97c8",
        "gas": "0x13fc7",
        "value": "0x0",
        "input": "0xd1b7089a00000000000000000000000027ad26f569439de66cc0d5e8d7a3abc5df512a520000000000000000000000000000000000000000000000000000000000000080000000000000000000000000c47747659b74cc23210dd851b254260b0b039eed0000000000000000000000000000000000000000000000000000000000000000000000000000000000000000000000000000000000000000000000000000004470022cb4000000000000000000000000396a429fe95f21475860593c86cc9c17d39f7f69000000000000000000000000000000000000000000000000000000000000000000000000000000000000000000000000000000000000000000000000",
        "nonce": "0x74",
        "chainId": "0x32"
      },
      "additionalContracts": [],
      "isFixedGasLimit": false
    },
    {
      "hash": "0xca47b1f56f61d83c2acfaf07503ab7600f618cf64643a9b009da7fa4ba52c5a8",
      "transactionType": "CALL",
      "contractName": null,
      "contractAddress": "0x36b0273c0537d73265ae2607a3e9be949bff97c8",
      "function": "genericCall(address,bytes,address,uint256)",
      "arguments": [
        "0x27ad26f569439De66cC0D5e8D7A3ABc5DF512a52",
        "0x965366f3000000000000000000000000cce5f6b605164b7784b4719829d84b0f7493b906",
        "0xC47747659b74Cc23210DD851b254260b0B039eED",
        "0"
      ],
      "transaction": {
        "from": "0x2ceade86a04e474f3cf9bd87208514d818010627",
        "to": "0x36b0273c0537d73265ae2607a3e9be949bff97c8",
        "gas": "0x2bdeb",
        "value": "0x0",
        "input": "0xd1b7089a00000000000000000000000027ad26f569439de66cc0d5e8d7a3abc5df512a520000000000000000000000000000000000000000000000000000000000000080000000000000000000000000c47747659b74cc23210dd851b254260b0b039eed00000000000000000000000000000000000000000000000000000000000000000000000000000000000000000000000000000000000000000000000000000024965366f3000000000000000000000000cce5f6b605164b7784b4719829d84b0f7493b90600000000000000000000000000000000000000000000000000000000",
        "nonce": "0x75",
        "chainId": "0x32"
      },
      "additionalContracts": [],
      "isFixedGasLimit": false
    }
  ],
  "receipts": [
    {
      "status": "0x1",
      "cumulativeGasUsed": "0xb23cc",
      "logs": [
        {
          "address": "0x27ad26f569439de66cc0d5e8d7a3abc5df512a52",
          "topics": [
            "0x4336391ada1af9dcb966fed43ebafa4404719b6d8e42c765ab28e3abc9a24e7a"
          ],
          "data": "0x000000000000000000000000396a429fe95f21475860593c86cc9c17d39f7f69",
          "blockHash": "0xa218f863ae710f2fbd381c53d3b8dedf17999ed8fec3a33d3dceb21347f0201a",
          "blockNumber": "0x596318f",
          "transactionHash": "0xc1b2c0e8e7cf0ce88200d2d1f24cfdbb876e7a3d5cc46de84c9eb534dbec0412",
          "transactionIndex": "0x9",
          "logIndex": "0x5",
          "removed": false
        },
        {
          "address": "0xc47747659b74cc23210dd851b254260b0b039eed",
          "topics": [
            "0x534b52c783549f909f9e743120524d0b7154058e4a54cdc895c2c0b587a1c7e0",
            "0x00000000000000000000000027ad26f569439de66cc0d5e8d7a3abc5df512a52"
          ],
          "data": "0x000000000000000000000000000000000000000000000000000000000000006000000000000000000000000000000000000000000000000000000000000000000000000000000000000000000000000000000000000000000000000000000001000000000000000000000000000000000000000000000000000000000000004470022cb4000000000000000000000000396a429fe95f21475860593c86cc9c17d39f7f69000000000000000000000000000000000000000000000000000000000000000000000000000000000000000000000000000000000000000000000000",
          "blockHash": "0xa218f863ae710f2fbd381c53d3b8dedf17999ed8fec3a33d3dceb21347f0201a",
          "blockNumber": "0x596318f",
          "transactionHash": "0xc1b2c0e8e7cf0ce88200d2d1f24cfdbb876e7a3d5cc46de84c9eb534dbec0412",
          "transactionIndex": "0x9",
          "logIndex": "0x6",
          "removed": false
        }
      ],
      "logsBloom": "0x00000000000000000000000000000000000000000000000008000000000000080000000000000000000000000000000010800000010000000000000000000000000000000000000000000000000080000000000000000000000000000000000000000000000000000000000000000000000000000000000000040000000000000000010000000001000000000000000000000000000000020000000000000000000000000000000000000000004000000000000020000000000000000000000000020000000000000000000000000400000000000000000000100000000000000000000000000000000000000000000000000000000000000000000000000000",
      "type": "0x0",
      "transactionHash": "0xc1b2c0e8e7cf0ce88200d2d1f24cfdbb876e7a3d5cc46de84c9eb534dbec0412",
      "transactionIndex": "0x9",
      "blockHash": "0xa218f863ae710f2fbd381c53d3b8dedf17999ed8fec3a33d3dceb21347f0201a",
      "blockNumber": "0x596318f",
      "gasUsed": "0x8c72",
      "effectiveGasPrice": "0x0",
      "from": "0x2ceade86a04e474f3cf9bd87208514d818010627",
      "to": "0x36b0273c0537d73265ae2607a3e9be949bff97c8",
      "contractAddress": null
    },
    {
      "status": "0x1",
      "cumulativeGasUsed": "0xccba6",
      "logs": [
        {
          "address": "0x27ad26f569439de66cc0d5e8d7a3abc5df512a52",
          "topics": [
            "0x0c7515883121475b5d9289febf21a9de4ad53f18349a856d90c7acd6e099600b"
          ],
          "data": "0x000000000000000000000000cce5f6b605164b7784b4719829d84b0f7493b906",
          "blockHash": "0xa218f863ae710f2fbd381c53d3b8dedf17999ed8fec3a33d3dceb21347f0201a",
          "blockNumber": "0x596318f",
          "transactionHash": "0xca47b1f56f61d83c2acfaf07503ab7600f618cf64643a9b009da7fa4ba52c5a8",
          "transactionIndex": "0xa",
          "logIndex": "0x7",
          "removed": false
        },
        {
          "address": "0xc47747659b74cc23210dd851b254260b0b039eed",
          "topics": [
            "0x534b52c783549f909f9e743120524d0b7154058e4a54cdc895c2c0b587a1c7e0",
            "0x00000000000000000000000027ad26f569439de66cc0d5e8d7a3abc5df512a52"
          ],
          "data": "0x0000000000000000000000000000000000000000000000000000000000000060000000000000000000000000000000000000000000000000000000000000000000000000000000000000000000000000000000000000000000000000000000010000000000000000000000000000000000000000000000000000000000000024965366f3000000000000000000000000cce5f6b605164b7784b4719829d84b0f7493b90600000000000000000000000000000000000000000000000000000000",
          "blockHash": "0xa218f863ae710f2fbd381c53d3b8dedf17999ed8fec3a33d3dceb21347f0201a",
          "blockNumber": "0x596318f",
          "transactionHash": "0xca47b1f56f61d83c2acfaf07503ab7600f618cf64643a9b009da7fa4ba52c5a8",
          "transactionIndex": "0xa",
          "logIndex": "0x8",
          "removed": false
        }
      ],
      "logsBloom": "0x00000000000000000000000000000000000000000000000008000000000000080000000000000000000000000000000010000000010000000000000001000000000000000000000000000000000080000000000000000000000000000000040000000000000000000000000000000000000000000000000000040000000000000000010000000001000000000000000000000000000000000000000000000000000000000000000000000000004000000000000020000000080000000000000000000000000000000000000000000400000000000000000000100000000000000000000000000000000000000000000000000000000000000000000000000000",
      "type": "0x0",
      "transactionHash": "0xca47b1f56f61d83c2acfaf07503ab7600f618cf64643a9b009da7fa4ba52c5a8",
      "transactionIndex": "0xa",
      "blockHash": "0xa218f863ae710f2fbd381c53d3b8dedf17999ed8fec3a33d3dceb21347f0201a",
      "blockNumber": "0x596318f",
      "gasUsed": "0x1a7da",
      "effectiveGasPrice": "0x0",
      "from": "0x2ceade86a04e474f3cf9bd87208514d818010627",
      "to": "0x36b0273c0537d73265ae2607a3e9be949bff97c8",
      "contractAddress": null
    }
  ],
  "libraries": [],
  "pending": [],
  "returns": {},
  "timestamp": 1758131419648,
  "chain": 50,
  "commit": "584d168"
}