{
  "transactions": [
    {
      "hash": "0x7cb1ab8ef5d9335d4acfc922e565defaa744f6d3534f44b30b7c3692dd9831d3",
      "transactionType": "CALL",
      "contractName": null,
      "contractAddress": "0x36b0273c0537d73265ae2607a3e9be949bff97c8",
      "function": "genericCall(address,bytes,address,uint256)",
      "arguments": [
        "0x1Fad5a713Da1F51E2A1Ac4Ca2E1d621919F0ABA0",
        "0xaec36c1f000000000000000000000000396a429fe95f21475860593c86cc9c17d39f7f69000000000000000000000000a13625a72aef90645cfce34e25c114629d7855e700000000000000000000000000000000000000000cecb8f27f4200f3a00000000000000000000000000000000000000000000000000000000000002e90edd00000000000000000000000000000000000000000000000000000000000027bc86a00000000000000000000000000000000000000000000000000000000000f4240",
        "0xC47747659b74Cc23210DD851b254260b0B039eED",
        "0"
      ],
      "transaction": {
        "from": "0x2ceade86a04e474f3cf9bd87208514d818010627",
        "to": "0x36b0273c0537d73265ae2607a3e9be949bff97c8",
        "gas": "0x660f6",
        "value": "0x0",
        "input": "0xd1b7089a0000000000000000000000001fad5a713da1f51e2a1ac4ca2e1d621919f0aba00000000000000000000000000000000000000000000000000000000000000080000000000000000000000000c47747659b74cc23210dd851b254260b0b039eed000000000000000000000000000000000000000000000000000000000000000000000000000000000000000000000000000000000000000000000000000000c4aec36c1f000000000000000000000000396a429fe95f21475860593c86cc9c17d39f7f69000000000000000000000000a13625a72aef90645cfce34e25c114629d7855e700000000000000000000000000000000000000000cecb8f27f4200f3a00000000000000000000000000000000000000000000000000000000000002e90edd00000000000000000000000000000000000000000000000000000000000027bc86a00000000000000000000000000000000000000000000000000000000000f424000000000000000000000000000000000000000000000000000000000",
        "nonce": "0x61",
        "chainId": "0x32"
      },
      "additionalContracts": [],
      "isFixedGasLimit": false
    },
    {
      "hash": "0xe4abe0680a7df6baf33d602980133e0943c266066ec84a4b76f6ddf2ce90f614",
      "transactionType": "CALL",
      "contractName": null,
      "contractAddress": "0x36b0273c0537d73265ae2607a3e9be949bff97c8",
      "function": "genericCall(address,bytes,address,uint256)",
      "arguments": [
        "0xE69Bd25Ca06264780E377E8d81a59271299Adb36",
        "0xbfcec94bf8d028730f58a008390c265fca425bb912e4c7efa370d4cef756a06f5029acd20000000000000000000000000000000000000000000000000001067ef2fcfa000000000000000000000000000000000000000000000000000000000000015180",
        "0xC47747659b74Cc23210DD851b254260b0B039eED",
        "0"
      ],
      "transaction": {
        "from": "0x2ceade86a04e474f3cf9bd87208514d818010627",
        "to": "0x36b0273c0537d73265ae2607a3e9be949bff97c8",
        "gas": "0x144b4",
        "value": "0x0",
        "input": "0xd1b7089a000000000000000000000000e69bd25ca06264780e377e8d81a59271299adb360000000000000000000000000000000000000000000000000000000000000080000000000000000000000000c47747659b74cc23210dd851b254260b0b039eed00000000000000000000000000000000000000000000000000000000000000000000000000000000000000000000000000000000000000000000000000000064bfcec94bf8d028730f58a008390c265fca425bb912e4c7efa370d4cef756a06f5029acd20000000000000000000000000000000000000000000000000001067ef2fcfa00000000000000000000000000000000000000000000000000000000000001518000000000000000000000000000000000000000000000000000000000",
        "nonce": "0x62",
        "chainId": "0x32"
      },
      "additionalContracts": [],
      "isFixedGasLimit": false
    }
  ],
  "receipts": [
    {
      "status": "0x1",
      "cumulativeGasUsed": "0x49e3d",
      "logs": [
        {
          "address": "0x1fad5a713da1f51e2a1ac4ca2e1d621919f0aba0",
          "topics": [
            "0xef64f1477da1dc2a681adfafd64ea6aea317bc2b4b289d3cb83ed28e06a0eca7",
            "0xf8d028730f58a008390c265fca425bb912e4c7efa370d4cef756a06f5029acd2",
            "0x000000000000000000000000396a429fe95f21475860593c86cc9c17d39f7f69",
            "0x000000000000000000000000a13625a72aef90645cfce34e25c114629d7855e7"
          ],
          "data": "0x",
          "blockHash": "0x61809d0d2214f7a29264b828190bbc9605977fccbaa10fde19dbc89809234b57",
          "blockNumber": "0x595faf7",
          "blockTimestamp": "0x68ca8140",
          "transactionHash": "0x7cb1ab8ef5d9335d4acfc922e565defaa744f6d3534f44b30b7c3692dd9831d3",
          "transactionIndex": "0x0",
          "logIndex": "0x0",
          "removed": false
        },
        {
          "address": "0xc47747659b74cc23210dd851b254260b0b039eed",
          "topics": [
            "0x534b52c783549f909f9e743120524d0b7154058e4a54cdc895c2c0b587a1c7e0",
            "0x0000000000000000000000001fad5a713da1f51e2a1ac4ca2e1d621919f0aba0"
          ],
          "data": "0x00000000000000000000000000000000000000000000000000000000000000600000000000000000000000000000000000000000000000000000000000000000000000000000000000000000000000000000000000000000000000000000000100000000000000000000000000000000000000000000000000000000000000c4aec36c1f000000000000000000000000396a429fe95f21475860593c86cc9c17d39f7f69000000000000000000000000a13625a72aef90645cfce34e25c114629d7855e700000000000000000000000000000000000000000cecb8f27f4200f3a00000000000000000000000000000000000000000000000000000000000002e90edd00000000000000000000000000000000000000000000000000000000000027bc86a00000000000000000000000000000000000000000000000000000000000f424000000000000000000000000000000000000000000000000000000000",
          "blockHash": "0x61809d0d2214f7a29264b828190bbc9605977fccbaa10fde19dbc89809234b57",
          "blockNumber": "0x595faf7",
          "blockTimestamp": "0x68ca8140",
          "transactionHash": "0x7cb1ab8ef5d9335d4acfc922e565defaa744f6d3534f44b30b7c3692dd9831d3",
          "transactionIndex": "0x0",
          "logIndex": "0x1",
          "removed": false
        }
      ],
      "logsBloom": "0x00000000000000000800000004000000000000100000002004000000000000000000000000000000000000000000000001000000010000000000000000000004000008000000000000000000000000000000000000000000000010040000000000000000000000000000000000000000000000000000400000040000000000000200010010000001000000000000020000000000000000000000000000000000000000000080000000000000400000000000000020000000000000000000000000400000000000000000000000000000000000000000000000100000000000000000000000000000000000000000000000000000000000000000000080000000",
      "type": "0x0",
      "transactionHash": "0x7cb1ab8ef5d9335d4acfc922e565defaa744f6d3534f44b30b7c3692dd9831d3",
      "transactionIndex": "0x0",
      "blockHash": "0x61809d0d2214f7a29264b828190bbc9605977fccbaa10fde19dbc89809234b57",
      "blockNumber": "0x595faf7",
      "gasUsed": "0x49e3d",
      "effectiveGasPrice": "0x77359400",
      "blobGasPrice": "0x1",
      "from": "0x2ceade86a04e474f3cf9bd87208514d818010627",
      "to": "0x36b0273c0537d73265ae2607a3e9be949bff97c8",
      "contractAddress": null
    },
    {
      "status": "0x1",
      "cumulativeGasUsed": "0x58952",
      "logs": [
        {
          "address": "0xe69bd25ca06264780e377e8d81a59271299adb36",
          "topics": [
            "0xec7bd652042d4e7ac612fa1ad2901ce09f76d87ddf816a2c139dd24e3485e3ae",
            "0xf8d028730f58a008390c265fca425bb912e4c7efa370d4cef756a06f5029acd2"
          ],
          "data": "0x0000000000000000000000000000000000000000000000000001067ef2fcfa000000000000000000000000000000000000000000000000000000000000015180",
          "blockHash": "0x61809d0d2214f7a29264b828190bbc9605977fccbaa10fde19dbc89809234b57",
          "blockNumber": "0x595faf7",
          "blockTimestamp": "0x68ca8140",
          "transactionHash": "0xe4abe0680a7df6baf33d602980133e0943c266066ec84a4b76f6ddf2ce90f614",
          "transactionIndex": "0x1",
          "logIndex": "0x2",
          "removed": false
        },
        {
          "address": "0xc47747659b74cc23210dd851b254260b0b039eed",
          "topics": [
            "0x534b52c783549f909f9e743120524d0b7154058e4a54cdc895c2c0b587a1c7e0",
            "0x000000000000000000000000e69bd25ca06264780e377e8d81a59271299adb36"
          ],
          "data": "0x0000000000000000000000000000000000000000000000000000000000000060000000000000000000000000000000000000000000000000000000000000000000000000000000000000000000000000000000000000000000000000000000010000000000000000000000000000000000000000000000000000000000000064bfcec94bf8d028730f58a008390c265fca425bb912e4c7efa370d4cef756a06f5029acd20000000000000000000000000000000000000000000000000001067ef2fcfa00000000000000000000000000000000000000000000000000000000000001518000000000000000000000000000000000000000000000000000000000",
          "blockHash": "0x61809d0d2214f7a29264b828190bbc9605977fccbaa10fde19dbc89809234b57",
          "blockNumber": "0x595faf7",
          "blockTimestamp": "0x68ca8140",
          "transactionHash": "0xe4abe0680a7df6baf33d602980133e0943c266066ec84a4b76f6ddf2ce90f614",
          "transactionIndex": "0x1",
          "logIndex": "0x3",
          "removed": false
        }
      ],
      "logsBloom": "0x00000000000000000000000000000000800000100000000000000000000000000000000000000000000000000100000000000000010000000000000000000000000080000000000000000000000000000000000000000000000010000000000000000000000000000000000000000000000000000000000000040000000000000100010000000001000000000000000000000000000000000000000000000000000000000000000000000000040000800000000020000000000000000000000000000000000000000000000000000000000000400000000000100000000000000000000000000000000000000000000000000000200000000000080080000000",
      "type": "0x0",
      "transactionHash": "0xe4abe0680a7df6baf33d602980133e0943c266066ec84a4b76f6ddf2ce90f614",
      "transactionIndex": "0x1",
      "blockHash": "0x61809d0d2214f7a29264b828190bbc9605977fccbaa10fde19dbc89809234b57",
      "blockNumber": "0x595faf7",
      "gasUsed": "0xeb15",
      "effectiveGasPrice": "0x77359400",
      "blobGasPrice": "0x1",
      "from": "0x2ceade86a04e474f3cf9bd87208514d818010627",
      "to": "0x36b0273c0537d73265ae2607a3e9be949bff97c8",
      "contractAddress": null
    }
  ],
  "libraries": [],
  "pending": [],
  "returns": {},
  "timestamp": 1758101825,
  "chain": 50,
  "commit": "9c50913"
}