{
  "transactions": [
    {
      "hash": "0x6b1730d901044020af7cbd97e4f57006916f4a4897b949fae04490a950e9ae62",
      "transactionType": "CALL",
      "contractName": null,
      "contractAddress": "0x36b0273c0537d73265ae2607a3e9be949bff97c8",
      "function": "genericCall(address,bytes,address,uint256)",
      "arguments": [
        "0x1Fad5a713Da1F51E2A1Ac4Ca2E1d621919F0ABA0",
        "0xaec36c1f000000000000000000000000396a429fe95f21475860593c86cc9c17d39f7f69000000000000000000000000a13625a72aef90645cfce34e25c114629d7855e700000000000000000000000000000000000000000cecb8f27f4200f3a00000000000000000000000000000000000000000000000000000000000002e90edd00000000000000000000000000000000000000000000000000000000000027bc86a00000000000000000000000000000000000000000000000000000000000f4240",
        "0xC47747659b74Cc23210DD851b254260b0B039eED",
        "0"
      ],
      "transaction": {
        "from": "0x2ceade86a04e474f3cf9bd87208514d818010627",
        "to": "0x36b0273c0537d73265ae2607a3e9be949bff97c8",
        "gas": "0x1888a0",
        "value": "0x0",
        "input": "0xd1b7089a0000000000000000000000001fad5a713da1f51e2a1ac4ca2e1d621919f0aba00000000000000000000000000000000000000000000000000000000000000080000000000000000000000000c47747659b74cc23210dd851b254260b0b039eed000000000000000000000000000000000000000000000000000000000000000000000000000000000000000000000000000000000000000000000000000000c4aec36c1f000000000000000000000000396a429fe95f21475860593c86cc9c17d39f7f69000000000000000000000000a13625a72aef90645cfce34e25c114629d7855e700000000000000000000000000000000000000000cecb8f27f4200f3a00000000000000000000000000000000000000000000000000000000000002e90edd00000000000000000000000000000000000000000000000000000000000027bc86a00000000000000000000000000000000000000000000000000000000000f424000000000000000000000000000000000000000000000000000000000",
        "nonce": "0x6b",
        "chainId": "0x32"
      },
      "additionalContracts": [],
      "isFixedGasLimit": false
    },
    {
      "hash": "0x08d04d7a107423ec0e625c60ffb64638279362508de93ce463b49f029323104b",
      "transactionType": "CALL",
      "contractName": null,
      "contractAddress": "0x36b0273c0537d73265ae2607a3e9be949bff97c8",
      "function": "genericCall(address,bytes,address,uint256)",
      "arguments": [
        "0xE69Bd25Ca06264780E377E8d81a59271299Adb36",
        "0xbfcec94bf8d028730f58a008390c265fca425bb912e4c7efa370d4cef756a06f5029acd20000000000000000000000000000000000000000000000000001067ef2fcfa000000000000000000000000000000000000000000000000000000000000015180",
        "0xC47747659b74Cc23210DD851b254260b0B039eED",
        "0"
      ],
      "transaction": {
        "from": "0x2ceade86a04e474f3cf9bd87208514d818010627",
        "to": "0x36b0273c0537d73265ae2607a3e9be949bff97c8",
        "gas": "0x4e0de",
        "value": "0x0",
        "input": "0xd1b7089a000000000000000000000000e69bd25ca06264780e377e8d81a59271299adb360000000000000000000000000000000000000000000000000000000000000080000000000000000000000000c47747659b74cc23210dd851b254260b0b039eed00000000000000000000000000000000000000000000000000000000000000000000000000000000000000000000000000000000000000000000000000000064bfcec94bf8d028730f58a008390c265fca425bb912e4c7efa370d4cef756a06f5029acd20000000000000000000000000000000000000000000000000001067ef2fcfa00000000000000000000000000000000000000000000000000000000000001518000000000000000000000000000000000000000000000000000000000",
        "nonce": "0x6c",
        "chainId": "0x32"
      },
      "additionalContracts": [],
      "isFixedGasLimit": false
    }
  ],
  "receipts": [
    {
      "status": "0x1",
      "cumulativeGasUsed": "0x1d8637",
      "logs": [
        {
          "address": "0xc47747659b74cc23210dd851b254260b0b039eed",
          "topics": [
            "0x534b52c783549f909f9e743120524d0b7154058e4a54cdc895c2c0b587a1c7e0",
            "0x0000000000000000000000001fad5a713da1f51e2a1ac4ca2e1d621919f0aba0"
          ],
          "data": "0x00000000000000000000000000000000000000000000000000000000000000600000000000000000000000000000000000000000000000000000000000000000000000000000000000000000000000000000000000000000000000000000000000000000000000000000000000000000000000000000000000000000000000c4aec36c1f000000000000000000000000396a429fe95f21475860593c86cc9c17d39f7f69000000000000000000000000a13625a72aef90645cfce34e25c114629d7855e700000000000000000000000000000000000000000cecb8f27f4200f3a00000000000000000000000000000000000000000000000000000000000002e90edd00000000000000000000000000000000000000000000000000000000000027bc86a00000000000000000000000000000000000000000000000000000000000f424000000000000000000000000000000000000000000000000000000000",
          "blockHash": "0xe07d50a5bae045f0282f84899a2940ef5317a739d3b36e8fa40a249a0ec10b69",
          "blockNumber": "0x5960a9c",
          "transactionHash": "0x6b1730d901044020af7cbd97e4f57006916f4a4897b949fae04490a950e9ae62",
          "transactionIndex": "0x8",
          "logIndex": "0xb",
          "removed": false
        }
      ],
      "logsBloom": "0x00000000000000000000000000000000000000000000000000000000000000000000000000000000000000000000000000000000010000000000000000000000000008000000000000000000000000000000000000000000000000000000000000000000000000000000000000000000000000000000400000040000000000000000010000000001000000000000020000000000000000000000000000000000000000000000000000000000000000000000000020000000000000000000000000000000000000000000000000000000000000000000000000100000000000000000000000000000000000000000000000000000000000000000000000000000",
      "type": "0x0",
      "transactionHash": "0x6b1730d901044020af7cbd97e4f57006916f4a4897b949fae04490a950e9ae62",
      "transactionIndex": "0x8",
      "blockHash": "0xe07d50a5bae045f0282f84899a2940ef5317a739d3b36e8fa40a249a0ec10b69",
      "blockNumber": "0x5960a9c",
      "gasUsed": "0x172dc3",
      "effectiveGasPrice": "0x2e90edd00",
      "from": "0x2ceade86a04e474f3cf9bd87208514d818010627",
      "to": "0x36b0273c0537d73265ae2607a3e9be949bff97c8",
      "contractAddress": null
    },
    {
      "status": "0x1",
      "cumulativeGasUsed": "0x1e47a0",
      "logs": [
        {
          "address": "0xe69bd25ca06264780e377e8d81a59271299adb36",
          "topics": [
            "0xec7bd652042d4e7ac612fa1ad2901ce09f76d87ddf816a2c139dd24e3485e3ae",
            "0xf8d028730f58a008390c265fca425bb912e4c7efa370d4cef756a06f5029acd2"
          ],
          "data": "0x0000000000000000000000000000000000000000000000000001067ef2fcfa000000000000000000000000000000000000000000000000000000000000015180",
          "blockHash": "0xe07d50a5bae045f0282f84899a2940ef5317a739d3b36e8fa40a249a0ec10b69",
          "blockNumber": "0x5960a9c",
          "transactionHash": "0x08d04d7a107423ec0e625c60ffb64638279362508de93ce463b49f029323104b",
          "transactionIndex": "0x9",
          "logIndex": "0xc",
          "removed": false
        },
        {
          "address": "0xc47747659b74cc23210dd851b254260b0b039eed",
          "topics": [
            "0x534b52c783549f909f9e743120524d0b7154058e4a54cdc895c2c0b587a1c7e0",
            "0x000000000000000000000000e69bd25ca06264780e377e8d81a59271299adb36"
          ],
          "data": "0x0000000000000000000000000000000000000000000000000000000000000060000000000000000000000000000000000000000000000000000000000000000000000000000000000000000000000000000000000000000000000000000000010000000000000000000000000000000000000000000000000000000000000064bfcec94bf8d028730f58a008390c265fca425bb912e4c7efa370d4cef756a06f5029acd20000000000000000000000000000000000000000000000000001067ef2fcfa00000000000000000000000000000000000000000000000000000000000001518000000000000000000000000000000000000000000000000000000000",
          "blockHash": "0xe07d50a5bae045f0282f84899a2940ef5317a739d3b36e8fa40a249a0ec10b69",
          "blockNumber": "0x5960a9c",
          "transactionHash": "0x08d04d7a107423ec0e625c60ffb64638279362508de93ce463b49f029323104b",
          "transactionIndex": "0x9",
          "logIndex": "0xd",
          "removed": false
        }
      ],
      "logsBloom": "0x00000000000000000000000000000000800000100000000000000000000000000000000000000000000000000100000000000000010000000000000000000000000080000000000000000000000000000000000000000000000010000000000000000000000000000000000000000000000000000000000000040000000000000100010000000001000000000000000000000000000000000000000000000000000000000000000000000000040000800000000020000000000000000000000000000000000000000000000000000000000000400000000000100000000000000000000000000000000000000000000000000000200000000000080080000000",
      "type": "0x0",
      "transactionHash": "0x08d04d7a107423ec0e625c60ffb64638279362508de93ce463b49f029323104b",
      "transactionIndex": "0x9",
      "blockHash": "0xe07d50a5bae045f0282f84899a2940ef5317a739d3b36e8fa40a249a0ec10b69",
      "blockNumber": "0x5960a9c",
      "gasUsed": "0xc169",
      "effectiveGasPrice": "0x2e90edd00",
      "from": "0x2ceade86a04e474f3cf9bd87208514d818010627",
      "to": "0x36b0273c0537d73265ae2607a3e9be949bff97c8",
      "contractAddress": null
    }
  ],
  "libraries": [],
  "pending": [],
  "returns": {},
  "timestamp": 1758110163,
  "chain": 50,
  "commit": "9c50913"
}