{
  "transactions": [
    {
      "hash": "0xe906a16187b8c31dd1c8f0d420fa1500bebd29b24ae8dce8dd55daaec80f260c",
      "transactionType": "CALL",
      "contractName": null,
      "contractAddress": "0x36b0273c0537d73265ae2607a3e9be949bff97c8",
      "function": "genericCall(address,bytes,address,uint256)",
      "arguments": [
        "0x1Fad5a713Da1F51E2A1Ac4Ca2E1d621919F0ABA0",
        "0xaec36c1f000000000000000000000000396a429fe95f21475860593c86cc9c17d39f7f69000000000000000000000000a13625a72aef90645cfce34e25c114629d7855e700000000000000000000000000000000000000000cecb8f27f4200f3a00000000000000000000000000000000000000000000000000000000000002e90edd00000000000000000000000000000000000000000000000000000000000027bc86a00000000000000000000000000000000000000000000000000000000000f4240",
        "0xC47747659b74Cc23210DD851b254260b0B039eED",
        "0"
      ],
      "transaction": {
        "from": "0x2ceade86a04e474f3cf9bd87208514d818010627",
        "to": "0x36b0273c0537d73265ae2607a3e9be949bff97c8",
        "gas": "0x660f6",
        "value": "0x0",
        "input": "0xd1b7089a0000000000000000000000001fad5a713da1f51e2a1ac4ca2e1d621919f0aba00000000000000000000000000000000000000000000000000000000000000080000000000000000000000000c47747659b74cc23210dd851b254260b0b039eed000000000000000000000000000000000000000000000000000000000000000000000000000000000000000000000000000000000000000000000000000000c4aec36c1f000000000000000000000000396a429fe95f21475860593c86cc9c17d39f7f69000000000000000000000000a13625a72aef90645cfce34e25c114629d7855e700000000000000000000000000000000000000000cecb8f27f4200f3a00000000000000000000000000000000000000000000000000000000000002e90edd00000000000000000000000000000000000000000000000000000000000027bc86a00000000000000000000000000000000000000000000000000000000000f424000000000000000000000000000000000000000000000000000000000",
        "nonce": "0x5f",
        "chainId": "0x32"
      },
      "additionalContracts": [],
      "isFixedGasLimit": false
    },
    {
      "hash": "0xebfcb9069f21cb2cab676f1c3d24b72d211a40ed5fbb870789877a32113f6774",
      "transactionType": "CALL",
      "contractName": null,
      "contractAddress": "0x36b0273c0537d73265ae2607a3e9be949bff97c8",
      "function": "genericCall(address,bytes,address,uint256)",
      "arguments": [
        "0xE69Bd25Ca06264780E377E8d81a59271299Adb36",
        "0xbfcec94bf8d028730f58a008390c265fca425bb912e4c7efa370d4cef756a06f5029acd20000000000000000000000000000000000000000000000000001067ef2fcfa000000000000000000000000000000000000000000000000000000000000015180",
        "0xC47747659b74Cc23210DD851b254260b0B039eED",
        "0"
      ],
      "transaction": {
        "from": "0x2ceade86a04e474f3cf9bd87208514d818010627",
        "to": "0x36b0273c0537d73265ae2607a3e9be949bff97c8",
        "gas": "0x1c97e",
        "value": "0x0",
        "input": "0xd1b7089a000000000000000000000000e69bd25ca06264780e377e8d81a59271299adb360000000000000000000000000000000000000000000000000000000000000080000000000000000000000000c47747659b74cc23210dd851b254260b0b039eed00000000000000000000000000000000000000000000000000000000000000000000000000000000000000000000000000000000000000000000000000000064bfcec94bf8d028730f58a008390c265fca425bb912e4c7efa370d4cef756a06f5029acd20000000000000000000000000000000000000000000000000001067ef2fcfa00000000000000000000000000000000000000000000000000000000000001518000000000000000000000000000000000000000000000000000000000",
        "nonce": "0x60",
        "chainId": "0x32"
      },
      "additionalContracts": [],
      "isFixedGasLimit": false
    }
  ],
  "receipts": [
    {
      "status": "0x1",
      "cumulativeGasUsed": "0x118a88",
      "logs": [
        {
          "address": "0xc47747659b74cc23210dd851b254260b0b039eed",
          "topics": [
            "0x534b52c783549f909f9e743120524d0b7154058e4a54cdc895c2c0b587a1c7e0",
            "0x0000000000000000000000001fad5a713da1f51e2a1ac4ca2e1d621919f0aba0"
          ],
          "data": "0x00000000000000000000000000000000000000000000000000000000000000600000000000000000000000000000000000000000000000000000000000000000000000000000000000000000000000000000000000000000000000000000000000000000000000000000000000000000000000000000000000000000000000c4aec36c1f000000000000000000000000396a429fe95f21475860593c86cc9c17d39f7f69000000000000000000000000a13625a72aef90645cfce34e25c114629d7855e700000000000000000000000000000000000000000cecb8f27f4200f3a00000000000000000000000000000000000000000000000000000000000002e90edd00000000000000000000000000000000000000000000000000000000000027bc86a00000000000000000000000000000000000000000000000000000000000f424000000000000000000000000000000000000000000000000000000000",
          "blockHash": "0x1b8652b738ed38703f32a9ba9ddf20adb5fced894dae938a3a2e673f57b8a476",
          "blockNumber": "0x595fae2",
          "transactionHash": "0xe906a16187b8c31dd1c8f0d420fa1500bebd29b24ae8dce8dd55daaec80f260c",
          "transactionIndex": "0x7",
          "logIndex": "0x11",
          "removed": false
        }
      ],
      "logsBloom": "0x00000000000000000000000000000000000000000000000000000000000000000000000000000000000000000000000000000000010000000000000000000000000008000000000000000000000000000000000000000000000000000000000000000000000000000000000000000000000000000000400000040000000000000000010000000001000000000000020000000000000000000000000000000000000000000000000000000000000000000000000020000000000000000000000000000000000000000000000000000000000000000000000000100000000000000000000000000000000000000000000000000000000000000000000000000000",
      "type": "0x0",
      "transactionHash": "0xe906a16187b8c31dd1c8f0d420fa1500bebd29b24ae8dce8dd55daaec80f260c",
      "transactionIndex": "0x7",
      "blockHash": "0x1b8652b738ed38703f32a9ba9ddf20adb5fced894dae938a3a2e673f57b8a476",
      "blockNumber": "0x595fae2",
      "gasUsed": "0x621d6",
      "effectiveGasPrice": "0x2e90edd00",
      "from": "0x2ceade86a04e474f3cf9bd87208514d818010627",
      "to": "0x36b0273c0537d73265ae2607a3e9be949bff97c8",
      "contractAddress": null
    },
    {
      "status": "0x1",
      "cumulativeGasUsed": "0x1296f1",
      "logs": [
        {
          "address": "0xe69bd25ca06264780e377e8d81a59271299adb36",
          "topics": [
            "0xec7bd652042d4e7ac612fa1ad2901ce09f76d87ddf816a2c139dd24e3485e3ae",
            "0xf8d028730f58a008390c265fca425bb912e4c7efa370d4cef756a06f5029acd2"
          ],
          "data": "0x0000000000000000000000000000000000000000000000000001067ef2fcfa000000000000000000000000000000000000000000000000000000000000015180",
          "blockHash": "0x1b8652b738ed38703f32a9ba9ddf20adb5fced894dae938a3a2e673f57b8a476",
          "blockNumber": "0x595fae2",
          "transactionHash": "0xebfcb9069f21cb2cab676f1c3d24b72d211a40ed5fbb870789877a32113f6774",
          "transactionIndex": "0x8",
          "logIndex": "0x12",
          "removed": false
        },
        {
          "address": "0xc47747659b74cc23210dd851b254260b0b039eed",
          "topics": [
            "0x534b52c783549f909f9e743120524d0b7154058e4a54cdc895c2c0b587a1c7e0",
            "0x000000000000000000000000e69bd25ca06264780e377e8d81a59271299adb36"
          ],
          "data": "0x0000000000000000000000000000000000000000000000000000000000000060000000000000000000000000000000000000000000000000000000000000000000000000000000000000000000000000000000000000000000000000000000010000000000000000000000000000000000000000000000000000000000000064bfcec94bf8d028730f58a008390c265fca425bb912e4c7efa370d4cef756a06f5029acd20000000000000000000000000000000000000000000000000001067ef2fcfa00000000000000000000000000000000000000000000000000000000000001518000000000000000000000000000000000000000000000000000000000",
          "blockHash": "0x1b8652b738ed38703f32a9ba9ddf20adb5fced894dae938a3a2e673f57b8a476",
          "blockNumber": "0x595fae2",
          "transactionHash": "0xebfcb9069f21cb2cab676f1c3d24b72d211a40ed5fbb870789877a32113f6774",
          "transactionIndex": "0x8",
          "logIndex": "0x13",
          "removed": false
        }
      ],
      "logsBloom": "0x00000000000000000000000000000000800000100000000000000000000000000000000000000000000000000100000000000000010000000000000000000000000080000000000000000000000000000000000000000000000010000000000000000000000000000000000000000000000000000000000000040000000000000100010000000001000000000000000000000000000000000000000000000000000000000000000000000000040000800000000020000000000000000000000000000000000000000000000000000000000000400000000000100000000000000000000000000000000000000000000000000000200000000000080080000000",
      "type": "0x0",
      "transactionHash": "0xebfcb9069f21cb2cab676f1c3d24b72d211a40ed5fbb870789877a32113f6774",
      "transactionIndex": "0x8",
      "blockHash": "0x1b8652b738ed38703f32a9ba9ddf20adb5fced894dae938a3a2e673f57b8a476",
      "blockNumber": "0x595fae2",
      "gasUsed": "0x10c69",
      "effectiveGasPrice": "0x2e90edd00",
      "from": "0x2ceade86a04e474f3cf9bd87208514d818010627",
      "to": "0x36b0273c0537d73265ae2607a3e9be949bff97c8",
      "contractAddress": null
    }
  ],
  "libraries": [],
  "pending": [],
  "returns": {},
  "timestamp": 1758101760,
  "chain": 50,
  "commit": "9c50913"
}