{
  "transactions": [
    {
      "hash": "0x52d651929148a87558ee15b819795c0e735843afd0e9de7b6e9e90ee24d5c367",
      "transactionType": "CALL",
      "contractName": null,
      "contractAddress": "0x36b0273c0537d73265ae2607a3e9be949bff97c8",
      "function": "genericCall(address,bytes,address,uint256)",
      "arguments": [
        "0xA13625A72Aef90645CfCe34e25c114629d7855e7",
        "0x983b2d56000000000000000000000000e69bd25ca06264780e377e8d81a59271299adb36",
        "0xC47747659b74Cc23210DD851b254260b0B039eED",
        "0"
      ],
      "transaction": {
        "from": "0x2ceade86a04e474f3cf9bd87208514d818010627",
        "to": "0x36b0273c0537d73265ae2607a3e9be949bff97c8",
        "gas": "0x2ea10",
        "value": "0x0",
        "input": "0xd1b7089a000000000000000000000000a13625a72aef90645cfce34e25c114629d7855e70000000000000000000000000000000000000000000000000000000000000080000000000000000000000000c47747659b74cc23210dd851b254260b0b039eed00000000000000000000000000000000000000000000000000000000000000000000000000000000000000000000000000000000000000000000000000000024983b2d56000000000000000000000000e69bd25ca06264780e377e8d81a59271299adb3600000000000000000000000000000000000000000000000000000000",
        "nonce": "0xaf",
        "chainId": "0x32"
      },
      "additionalContracts": [],
      "isFixedGasLimit": false
    }
  ],
  "receipts": [
    {
      "status": "0x1",
      "cumulativeGasUsed": "0x1c8c5",
      "logs": [
        {
          "address": "0xa13625a72aef90645cfce34e25c114629d7855e7",
          "topics": [
            "0x2f8788117e7eff1d82e926ec794901d17c78024a50270940304540a733656f0d",
            "0x9f2df0fed2c77648de5860a4cc508cd0818c85b8b8a1ab4ceeef8d981c8956a6",
            "0x000000000000000000000000e69bd25ca06264780e377e8d81a59271299adb36",
            "0x000000000000000000000000c47747659b74cc23210dd851b254260b0b039eed"
          ],
          "data": "0x",
          "blockHash": "0x1c317c751f1f90e3a38f7d32cc2cf677c1942bcf86a7ed9132354eb75bbe85fb",
          "blockNumber": "0x599cabf",
          "transactionHash": "0x52d651929148a87558ee15b819795c0e735843afd0e9de7b6e9e90ee24d5c367",
          "transactionIndex": "0x0",
          "logIndex": "0x0",
          "removed": false
        },
        {
          "address": "0xc47747659b74cc23210dd851b254260b0b039eed",
          "topics": [
            "0x534b52c783549f909f9e743120524d0b7154058e4a54cdc895c2c0b587a1c7e0",
            "0x000000000000000000000000a13625a72aef90645cfce34e25c114629d7855e7"
          ],
          "data": "0x0000000000000000000000000000000000000000000000000000000000000060000000000000000000000000000000000000000000000000000000000000000000000000000000000000000000000000000000000000000000000000000000010000000000000000000000000000000000000000000000000000000000000024983b2d56000000000000000000000000e69bd25ca06264780e377e8d81a59271299adb3600000000000000000000000000000000000000000000000000000000",
          "blockHash": "0x1c317c751f1f90e3a38f7d32cc2cf677c1942bcf86a7ed9132354eb75bbe85fb",
          "blockNumber": "0x599cabf",
          "transactionHash": "0x52d651929148a87558ee15b819795c0e735843afd0e9de7b6e9e90ee24d5c367",
          "transactionIndex": "0x0",
          "logIndex": "0x1",
          "removed": false
        }
      ],
      "logsBloom": "0x00000004000000000000000000000000000000000800000004000000000000000000000000000000000000000100004000000000010000000000000000000000000000000000000000000000000000000000000000000000000000000000000000000010000000000000000000000000000000000000000000040000001000000000010010000005000000002000000000000000000000000000000000000000000000000000000000000000000000800000000020000000001000000000000000600000000000000000000000000000001000000000200100100000000000000000000000000000000000000000000000000000000000000000080000000000",
      "type": "0x0",
      "transactionHash": "0x52d651929148a87558ee15b819795c0e735843afd0e9de7b6e9e90ee24d5c367",
      "transactionIndex": "0x0",
      "blockHash": "0x1c317c751f1f90e3a38f7d32cc2cf677c1942bcf86a7ed9132354eb75bbe85fb",
      "blockNumber": "0x599cabf",
      "gasUsed": "0x1c8c5",
      "effectiveGasPrice": "0x0",
      "from": "0x2ceade86a04e474f3cf9bd87208514d818010627",
      "to": "0x36b0273c0537d73265ae2607a3e9be949bff97c8",
      "contractAddress": null
    }
  ],
  "libraries": [],
  "pending": [],
  "returns": {},
  "timestamp": 1758634944286,
  "chain": 50,
  "commit": "395589e"
}