{
  "transactions": [
    {
      "hash": "0xcce0a543be6e29c1ef481182c1f27ec1cfe4c38fee05c9f75c69a8a5d42563c3",
      "transactionType": "CALL",
      "contractName": null,
      "contractAddress": "0x36b0273c0537d73265ae2607a3e9be949bff97c8",
      "function": "genericCall(address,bytes,address,uint256)",
      "arguments": [
        "0x1Fad5a713Da1F51E2A1Ac4Ca2E1d621919F0ABA0",
        "0xaec36c1f000000000000000000000000cce5f6b605164b7784b4719829d84b0f7493b906000000000000000000000000a13625a72aef90645cfce34e25c114629d7855e700000000000000000000000000000000000000000cecb8f27f4200f3a00000000000000000000000000000000000000000000000000000000000002e90edd00000000000000000000000000000000000000000000000000000000000027bc86a00000000000000000000000000000000000000000000000000000000000f4240",
        "0xC47747659b74Cc23210DD851b254260b0B039eED",
        "0"
      ],
      "transaction": {
        "from": "0x2ceade86a04e474f3cf9bd87208514d818010627",
        "to": "0x36b0273c0537d73265ae2607a3e9be949bff97c8",
        "gas": "0x65f27",
        "value": "0x0",
        "input": "0xd1b7089a0000000000000000000000001fad5a713da1f51e2a1ac4ca2e1d621919f0aba00000000000000000000000000000000000000000000000000000000000000080000000000000000000000000c47747659b74cc23210dd851b254260b0b039eed000000000000000000000000000000000000000000000000000000000000000000000000000000000000000000000000000000000000000000000000000000c4aec36c1f000000000000000000000000cce5f6b605164b7784b4719829d84b0f7493b906000000000000000000000000a13625a72aef90645cfce34e25c114629d7855e700000000000000000000000000000000000000000cecb8f27f4200f3a00000000000000000000000000000000000000000000000000000000000002e90edd00000000000000000000000000000000000000000000000000000000000027bc86a00000000000000000000000000000000000000000000000000000000000f424000000000000000000000000000000000000000000000000000000000",
        "nonce": "0x8e",
        "chainId": "0x32"
      },
      "additionalContracts": [],
      "isFixedGasLimit": false
    },
    {
      "hash": "0xb0e3384d333ee25b1586b09c0118449968eaf81eaf7950eba9e0765a84311f55",
      "transactionType": "CALL",
      "contractName": null,
      "contractAddress": "0x36b0273c0537d73265ae2607a3e9be949bff97c8",
      "function": "genericCall(address,bytes,address,uint256)",
      "arguments": [
        "0xE69Bd25Ca06264780E377E8d81a59271299Adb36",
        "0xbfcec94bf8d028730f58a008390c265fca425bb912e4c7efa370d4cef756a06f5029acd20000000000000000000000000000000000000000000000000001067ef2fcfa000000000000000000000000000000000000000000000000000000000000015180",
        "0xC47747659b74Cc23210DD851b254260b0B039eED",
        "0"
      ],
      "transaction": {
        "from": "0x2ceade86a04e474f3cf9bd87208514d818010627",
        "to": "0x36b0273c0537d73265ae2607a3e9be949bff97c8",
        "gas": "0x144b4",
        "value": "0x0",
        "input": "0xd1b7089a000000000000000000000000e69bd25ca06264780e377e8d81a59271299adb360000000000000000000000000000000000000000000000000000000000000080000000000000000000000000c47747659b74cc23210dd851b254260b0b039eed00000000000000000000000000000000000000000000000000000000000000000000000000000000000000000000000000000000000000000000000000000064bfcec94bf8d028730f58a008390c265fca425bb912e4c7efa370d4cef756a06f5029acd20000000000000000000000000000000000000000000000000001067ef2fcfa00000000000000000000000000000000000000000000000000000000000001518000000000000000000000000000000000000000000000000000000000",
        "nonce": "0x8f",
        "chainId": "0x32"
      },
      "additionalContracts": [],
      "isFixedGasLimit": false
    }
  ],
  "receipts": [
    {
      "status": "0x1",
      "cumulativeGasUsed": "0x513b1",
      "logs": [
        {
          "address": "0x1fad5a713da1f51e2a1ac4ca2e1d621919f0aba0",
          "topics": [
            "0xef64f1477da1dc2a681adfafd64ea6aea317bc2b4b289d3cb83ed28e06a0eca7",
            "0xf8d028730f58a008390c265fca425bb912e4c7efa370d4cef756a06f5029acd2",
            "0x000000000000000000000000cce5f6b605164b7784b4719829d84b0f7493b906",
            "0x000000000000000000000000a13625a72aef90645cfce34e25c114629d7855e7"
          ],
          "data": "0x",
          "blockHash": "0x414208018128aed72abe457b2d1b36ef3621fa7c26e7a807ce07c2c5c3112f2f",
          "blockNumber": "0x596e2b0",
          "transactionHash": "0xcce0a543be6e29c1ef481182c1f27ec1cfe4c38fee05c9f75c69a8a5d42563c3",
          "transactionIndex": "0x2",
          "logIndex": "0x0",
          "removed": false
        },
        {
          "address": "0xc47747659b74cc23210dd851b254260b0b039eed",
          "topics": [
            "0x534b52c783549f909f9e743120524d0b7154058e4a54cdc895c2c0b587a1c7e0",
            "0x0000000000000000000000001fad5a713da1f51e2a1ac4ca2e1d621919f0aba0"
          ],
          "data": "0x00000000000000000000000000000000000000000000000000000000000000600000000000000000000000000000000000000000000000000000000000000000000000000000000000000000000000000000000000000000000000000000000100000000000000000000000000000000000000000000000000000000000000c4aec36c1f000000000000000000000000cce5f6b605164b7784b4719829d84b0f7493b906000000000000000000000000a13625a72aef90645cfce34e25c114629d7855e700000000000000000000000000000000000000000cecb8f27f4200f3a00000000000000000000000000000000000000000000000000000000000002e90edd00000000000000000000000000000000000000000000000000000000000027bc86a00000000000000000000000000000000000000000000000000000000000f424000000000000000000000000000000000000000000000000000000000",
          "blockHash": "0x414208018128aed72abe457b2d1b36ef3621fa7c26e7a807ce07c2c5c3112f2f",
          "blockNumber": "0x596e2b0",
          "transactionHash": "0xcce0a543be6e29c1ef481182c1f27ec1cfe4c38fee05c9f75c69a8a5d42563c3",
          "transactionIndex": "0x2",
          "logIndex": "0x1",
          "removed": false
        }
      ],
      "logsBloom": "0x00000000000000000800000004000000000000100000000004000000000000000200000000000000000000000000000001000000010000000000000000000004000008000000000000000000000000000000000000000000000010000000000000000000000000000000000000000000000000000000400000040000000000000200010010000001000000000000020000000000000000000000000000000000000000000080000000000000000000000000000020000000000000000000000000400000000000000000000000000000000000000000000000100000000000000000000000000000000000100000000000000000000010000000000080000000",
      "type": "0x0",
      "transactionHash": "0xcce0a543be6e29c1ef481182c1f27ec1cfe4c38fee05c9f75c69a8a5d42563c3",
      "transactionIndex": "0x2",
      "blockHash": "0x414208018128aed72abe457b2d1b36ef3621fa7c26e7a807ce07c2c5c3112f2f",
      "blockNumber": "0x596e2b0",
      "gasUsed": "0x417fe",
      "effectiveGasPrice": "0x0",
      "from": "0x2ceade86a04e474f3cf9bd87208514d818010627",
      "to": "0x36b0273c0537d73265ae2607a3e9be949bff97c8",
      "contractAddress": null
    },
    {
      "status": "0x1",
      "cumulativeGasUsed": "0x5d51a",
      "logs": [
        {
          "address": "0xe69bd25ca06264780e377e8d81a59271299adb36",
          "topics": [
            "0xec7bd652042d4e7ac612fa1ad2901ce09f76d87ddf816a2c139dd24e3485e3ae",
            "0xf8d028730f58a008390c265fca425bb912e4c7efa370d4cef756a06f5029acd2"
          ],
          "data": "0x0000000000000000000000000000000000000000000000000001067ef2fcfa000000000000000000000000000000000000000000000000000000000000015180",
          "blockHash": "0x414208018128aed72abe457b2d1b36ef3621fa7c26e7a807ce07c2c5c3112f2f",
          "blockNumber": "0x596e2b0",
          "transactionHash": "0xb0e3384d333ee25b1586b09c0118449968eaf81eaf7950eba9e0765a84311f55",
          "transactionIndex": "0x3",
          "logIndex": "0x2",
          "removed": false
        },
        {
          "address": "0xc47747659b74cc23210dd851b254260b0b039eed",
          "topics": [
            "0x534b52c783549f909f9e743120524d0b7154058e4a54cdc895c2c0b587a1c7e0",
            "0x000000000000000000000000e69bd25ca06264780e377e8d81a59271299adb36"
          ],
          "data": "0x0000000000000000000000000000000000000000000000000000000000000060000000000000000000000000000000000000000000000000000000000000000000000000000000000000000000000000000000000000000000000000000000010000000000000000000000000000000000000000000000000000000000000064bfcec94bf8d028730f58a008390c265fca425bb912e4c7efa370d4cef756a06f5029acd20000000000000000000000000000000000000000000000000001067ef2fcfa00000000000000000000000000000000000000000000000000000000000001518000000000000000000000000000000000000000000000000000000000",
          "blockHash": "0x414208018128aed72abe457b2d1b36ef3621fa7c26e7a807ce07c2c5c3112f2f",
          "blockNumber": "0x596e2b0",
          "transactionHash": "0xb0e3384d333ee25b1586b09c0118449968eaf81eaf7950eba9e0765a84311f55",
          "transactionIndex": "0x3",
          "logIndex": "0x3",
          "removed": false
        }
      ],
      "logsBloom": "0x00000000000000000000000000000000800000100000000000000000000000000000000000000000000000000100000000000000010000000000000000000000000080000000000000000000000000000000000000000000000010000000000000000000000000000000000000000000000000000000000000040000000000000100010000000001000000000000000000000000000000000000000000000000000000000000000000000000040000800000000020000000000000000000000000000000000000000000000000000000000000400000000000100000000000000000000000000000000000000000000000000000200000000000080080000000",
      "type": "0x0",
      "transactionHash": "0xb0e3384d333ee25b1586b09c0118449968eaf81eaf7950eba9e0765a84311f55",
      "transactionIndex": "0x3",
      "blockHash": "0x414208018128aed72abe457b2d1b36ef3621fa7c26e7a807ce07c2c5c3112f2f",
      "blockNumber": "0x596e2b0",
      "gasUsed": "0xc169",
      "effectiveGasPrice": "0x0",
      "from": "0x2ceade86a04e474f3cf9bd87208514d818010627",
      "to": "0x36b0273c0537d73265ae2607a3e9be949bff97c8",
      "contractAddress": null
    }
  ],
  "libraries": [],
  "pending": [],
  "returns": {},
  "timestamp": 1758228467244,
  "chain": 50,
  "commit": "bf78720"
}