{
  "transactions": [
    {
      "hash": "0x9e285ea800ded459f7c2785bc995fe902b7f0596fe27a779fedf95d64ac765b9",
      "transactionType": "CALL",
      "contractName": null,
      "contractAddress": "0x36b0273c0537d73265ae2607a3e9be949bff97c8",
      "function": "genericCall(address,bytes,address,uint256)",
      "arguments": [
        "0x1Fad5a713Da1F51E2A1Ac4Ca2E1d621919F0ABA0",
        "0xaec36c1f000000000000000000000000396a429fe95f21475860593c86cc9c17d39f7f69000000000000000000000000a13625a72aef90645cfce34e25c114629d7855e700000000000000000000000000000000000000000cecb8f27f4200f3a00000000000000000000000000000000000000000000000000000000000002e90edd00000000000000000000000000000000000000000000000000000000000027bc86a00000000000000000000000000000000000000000000000000000000000f4240",
        "0xC47747659b74Cc23210DD851b254260b0B039eED",
        "0"
      ],
      "transaction": {
        "from": "0x2ceade86a04e474f3cf9bd87208514d818010627",
        "to": "0x36b0273c0537d73265ae2607a3e9be949bff97c8",
        "gas": "0x660f6",
        "value": "0x0",
        "input": "0xd1b7089a0000000000000000000000001fad5a713da1f51e2a1ac4ca2e1d621919f0aba00000000000000000000000000000000000000000000000000000000000000080000000000000000000000000c47747659b74cc23210dd851b254260b0b039eed000000000000000000000000000000000000000000000000000000000000000000000000000000000000000000000000000000000000000000000000000000c4aec36c1f000000000000000000000000396a429fe95f21475860593c86cc9c17d39f7f69000000000000000000000000a13625a72aef90645cfce34e25c114629d7855e700000000000000000000000000000000000000000cecb8f27f4200f3a00000000000000000000000000000000000000000000000000000000000002e90edd00000000000000000000000000000000000000000000000000000000000027bc86a00000000000000000000000000000000000000000000000000000000000f424000000000000000000000000000000000000000000000000000000000",
        "nonce": "0x73",
        "chainId": "0x32"
      },
      "additionalContracts": [],
      "isFixedGasLimit": false
    }
  ],
  "receipts": [
    {
      "status": "0x1",
      "cumulativeGasUsed": "0x621d6",
      "logs": [
        {
          "address": "0xc47747659b74cc23210dd851b254260b0b039eed",
          "topics": [
            "0x534b52c783549f909f9e743120524d0b7154058e4a54cdc895c2c0b587a1c7e0",
            "0x0000000000000000000000001fad5a713da1f51e2a1ac4ca2e1d621919f0aba0"
          ],
          "data": "0x00000000000000000000000000000000000000000000000000000000000000600000000000000000000000000000000000000000000000000000000000000000000000000000000000000000000000000000000000000000000000000000000000000000000000000000000000000000000000000000000000000000000000c4aec36c1f000000000000000000000000396a429fe95f21475860593c86cc9c17d39f7f69000000000000000000000000a13625a72aef90645cfce34e25c114629d7855e700000000000000000000000000000000000000000cecb8f27f4200f3a00000000000000000000000000000000000000000000000000000000000002e90edd00000000000000000000000000000000000000000000000000000000000027bc86a00000000000000000000000000000000000000000000000000000000000f424000000000000000000000000000000000000000000000000000000000",
          "blockHash": "0x1f06625d91923e3e63e0708d4a516a3808765db5cc05a554f9cb2b05f0af771c",
          "blockNumber": "0x5961363",
          "transactionHash": "0x9e285ea800ded459f7c2785bc995fe902b7f0596fe27a779fedf95d64ac765b9",
          "transactionIndex": "0x0",
          "logIndex": "0x0",
          "removed": false
        }
      ],
      "logsBloom": "0x00000000000000000000000000000000000000000000000000000000000000000000000000000000000000000000000000000000010000000000000000000000000008000000000000000000000000000000000000000000000000000000000000000000000000000000000000000000000000000000400000040000000000000000010000000001000000000000020000000000000000000000000000000000000000000000000000000000000000000000000020000000000000000000000000000000000000000000000000000000000000000000000000100000000000000000000000000000000000000000000000000000000000000000000000000000",
      "type": "0x0",
      "transactionHash": "0x9e285ea800ded459f7c2785bc995fe902b7f0596fe27a779fedf95d64ac765b9",
      "transactionIndex": "0x0",
      "blockHash": "0x1f06625d91923e3e63e0708d4a516a3808765db5cc05a554f9cb2b05f0af771c",
      "blockNumber": "0x5961363",
      "gasUsed": "0x621d6",
      "effectiveGasPrice": "0x0",
      "from": "0x2ceade86a04e474f3cf9bd87208514d818010627",
      "to": "0x36b0273c0537d73265ae2607a3e9be949bff97c8",
      "contractAddress": null
    }
  ],
  "libraries": [],
  "pending": [],
  "returns": {},
  "timestamp": 1758114907,
  "chain": 50,
  "commit": "9c50913"
}