{
  "transactions": [
    {
      "hash": "0x81ae86f4ebe2dff5bb8dde8a69237632d27dfab83dc01e23860c453c74029069",
      "transactionType": "CREATE",
      "contractName": "ProxyAdmin.0.8.18",
      "contractAddress": "0x54f44fbe2943c2196d94831288e716cdeaf56579",
      "function": null,
      "arguments": null,
      "transaction": {
        "from": "0x5d2720b76bbcc2d4f77600c4c9d392bb59a0b0e0",
        "gas": "0x88835",
        "value": "0x0",
        "input": "0x608060405234801561001057600080fd5b5061001a3361001f565b61006f565b600080546001600160a01b038381166001600160a01b0319831681178455604051919092169283917f8be0079c531659141344cd1fd0a4f28419497f9722a3daafe3b4186f6b6457e09190a35050565b61065d8061007e6000396000f3fe60806040526004361061007b5760003560e01c80639623609d1161004e5780639623609d1461011157806399a88ec414610124578063f2fde38b14610144578063f3b7dead1461016457600080fd5b8063204e1c7a14610080578063715018a6146100bc5780637eff275e146100d35780638da5cb5b146100f3575b600080fd5b34801561008c57600080fd5b506100a061009b366004610499565b610184565b6040516001600160a01b03909116815260200160405180910390f35b3480156100c857600080fd5b506100d1610215565b005b3480156100df57600080fd5b506100d16100ee3660046104bd565b610229565b3480156100ff57600080fd5b506000546001600160a01b03166100a0565b6100d161011f36600461050c565b610291565b34801561013057600080fd5b506100d161013f3660046104bd565b610300565b34801561015057600080fd5b506100d161015f366004610499565b610336565b34801561017057600080fd5b506100a061017f366004610499565b6103b4565b6000806000836001600160a01b03166040516101aa90635c60da1b60e01b815260040190565b600060405180830381855afa9150503d80600081146101e5576040519150601f19603f3d011682016040523d82523d6000602084013e6101ea565b606091505b5091509150816101f957600080fd5b8080602001905181019061020d91906105e2565b949350505050565b61021d6103da565b6102276000610434565b565b6102316103da565b6040516308f2839760e41b81526001600160a01b038281166004830152831690638f283970906024015b600060405180830381600087803b15801561027557600080fd5b505af1158015610289573d6000803e3d6000fd5b505050505050565b6102996103da565b60405163278f794360e11b81526001600160a01b03841690634f1ef2869034906102c990869086906004016105ff565b6000604051808303818588803b1580156102e257600080fd5b505af11580156102f6573d6000803e3d6000fd5b5050505050505050565b6103086103da565b604051631b2ce7f360e11b81526001600160a01b038281166004830152831690633659cfe69060240161025b565b61033e6103da565b6001600160a01b0381166103a85760405162461bcd60e51b815260206004820152602660248201527f4f776e61626c653a206e6577206f776e657220697320746865207a65726f206160448201526564647265737360d01b60648201526084015b60405180910390fd5b6103b181610434565b50565b6000806000836001600160a01b03166040516101aa906303e1469160e61b815260040190565b6000546001600160a01b031633146102275760405162461bcd60e51b815260206004820181905260248201527f4f776e61626c653a2063616c6c6572206973206e6f7420746865206f776e6572604482015260640161039f565b600080546001600160a01b038381166001600160a01b0319831681178455604051919092169283917f8be0079c531659141344cd1fd0a4f28419497f9722a3daafe3b4186f6b6457e09190a35050565b6001600160a01b03811681146103b157600080fd5b6000602082840312156104ab57600080fd5b81356104b681610484565b9392505050565b600080604083850312156104d057600080fd5b82356104db81610484565b915060208301356104eb81610484565b809150509250929050565b634e487b7160e01b600052604160045260246000fd5b60008060006060848603121561052157600080fd5b833561052c81610484565b9250602084013561053c81610484565b9150604084013567ffffffffffffffff8082111561055957600080fd5b818601915086601f83011261056d57600080fd5b81358181111561057f5761057f6104f6565b604051601f8201601f19908116603f011681019083821181831017156105a7576105a76104f6565b816040528281528960208487010111156105c057600080fd5b8260208601602083013760006020848301015280955050505050509250925092565b6000602082840312156105f457600080fd5b81516104b681610484565b60018060a01b038316815260006020604081840152835180604085015260005b8181101561063b5785810183015185820160600152820161061f565b506000606082860101526060601f19601f83011685010192505050939250505056",
        "nonce": "0xa",
        "chainId": "0x32"
      },
      "additionalContracts": [],
      "isFixedGasLimit": false
    },
    {
      "hash": "0x9e2760f11ed27ba080efbbd0b9cd3f9c25d1b4c0800d68176ad32c5340333939",
      "transactionType": "CALL",
      "contractName": "ProxyAdmin.0.8.18",
      "contractAddress": "0x54f44fbe2943c2196d94831288e716cdeaf56579",
      "function": "transferOwnership(address)",
      "arguments": [
        "0xC47747659b74Cc23210DD851b254260b0B039eED"
      ],
      "transaction": {
        "from": "0x5d2720b76bbcc2d4f77600c4c9d392bb59a0b0e0",
        "to": "0x54f44fbe2943c2196d94831288e716cdeaf56579",
        "gas": "0xa367",
        "value": "0x0",
        "input": "0xf2fde38b000000000000000000000000c47747659b74cc23210dd851b254260b0b039eed",
        "nonce": "0xb",
        "chainId": "0x32"
      },
      "additionalContracts": [],
      "isFixedGasLimit": false
    },
    {
      "hash": "0xbd20654efc6abbbf0172c6b0d54149f48c5f833c5f654606c4a69d815fe0166a",
      "transactionType": "CREATE2",
      "contractName": "TransparentUpgradeableProxy.0.8.18",
      "contractAddress": "0x34f260fcce222aff0da07ed12e239af38a144682",
      "function": null,
      "arguments": [
        "0x6F40C52C7862d920f4c5becf78bCcA90C3370485",
        "0x54f44fBE2943c2196D94831288E716cdeAF56579",
        "0x"
      ],
      "transaction": {
        "from": "0x5d2720b76bbcc2d4f77600c4c9d392bb59a0b0e0",
        "to": "0x4e59b44847b379578588920ca78fbf26c0b4956c",
        "gas": "0xc8d05",
        "value": "0x0",
        "input": "0xb2e3a2958bb44cd3c7f5de385e93e77c08bb9bbda3ab50bb52e8d6f5cd9087fc608060405260405162000e8a38038062000e8a833981016040819052620000269162000497565b828162000036828260006200004d565b50620000449050826200008a565b505050620005ca565b6200005883620000e5565b600082511180620000665750805b1562000085576200008383836200012760201b620001691760201c565b505b505050565b7f7e644d79422f17c01e4894b5f4f588d331ebfa28653d42ae832dc59e38c9798f620000b562000156565b604080516001600160a01b03928316815291841660208301520160405180910390a1620000e2816200018f565b50565b620000f08162000244565b6040516001600160a01b038216907fbc7cd75a20ee27fd9adebab32041f755214dbc6bffa90cc0225b39da2e5c2d3b90600090a250565b60606200014f838360405180606001604052806027815260200162000e6360279139620002f8565b9392505050565b60006200018060008051602062000e4383398151915260001b6200037760201b620001951760201c565b546001600160a01b0316919050565b6001600160a01b038116620001fa5760405162461bcd60e51b815260206004820152602660248201527f455243313936373a206e65772061646d696e20697320746865207a65726f206160448201526564647265737360d01b60648201526084015b60405180910390fd5b806200022360008051602062000e4383398151915260001b6200037760201b620001951760201c565b80546001600160a01b0319166001600160a01b039290921691909117905550565b6200025a816200037a60201b620001981760201c565b620002be5760405162461bcd60e51b815260206004820152602d60248201527f455243313936373a206e657720696d706c656d656e746174696f6e206973206e60448201526c1bdd08184818dbdb9d1c9858dd609a1b6064820152608401620001f1565b80620002237f360894a13ba1a3210667c828492db98dca3e2076cc3735a920a3ca505d382bbc60001b6200037760201b620001951760201c565b6060600080856001600160a01b03168560405162000317919062000577565b600060405180830381855af49150503d806000811462000354576040519150601f19603f3d011682016040523d82523d6000602084013e62000359565b606091505b5090925090506200036d8683838762000389565b9695505050505050565b90565b6001600160a01b03163b151590565b60608315620003fd578251600003620003f5576001600160a01b0385163b620003f55760405162461bcd60e51b815260206004820152601d60248201527f416464726573733a2063616c6c20746f206e6f6e2d636f6e74726163740000006044820152606401620001f1565b508162000409565b62000409838362000411565b949350505050565b815115620004225781518083602001fd5b8060405162461bcd60e51b8152600401620001f1919062000595565b80516001600160a01b03811681146200045657600080fd5b919050565b634e487b7160e01b600052604160045260246000fd5b60005b838110156200048e57818101518382015260200162000474565b50506000910152565b600080600060608486031215620004ad57600080fd5b620004b8846200043e565b9250620004c8602085016200043e565b60408501519092506001600160401b0380821115620004e657600080fd5b818601915086601f830112620004fb57600080fd5b8151818111156200051057620005106200045b565b604051601f8201601f19908116603f011681019083821181831017156200053b576200053b6200045b565b816040528281528960208487010111156200055557600080fd5b6200056883602083016020880162000471565b80955050505050509250925092565b600082516200058b81846020870162000471565b9190910192915050565b6020815260008251806020840152620005b681604085016020870162000471565b601f01601f19169190910160400192915050565b61086980620005da6000396000f3fe60806040523661001357610011610017565b005b6100115b61001f6101a7565b6001600160a01b0316330361015f5760606001600160e01b0319600035166364d3180d60e11b810161005a576100536101da565b9150610157565b63587086bd60e11b6001600160e01b031982160161007a57610053610231565b63070d7c6960e41b6001600160e01b031982160161009a57610053610277565b621eb96f60e61b6001600160e01b03198216016100b9576100536102a8565b63a39f25e560e01b6001600160e01b03198216016100d9576100536102e8565b60405162461bcd60e51b815260206004820152604260248201527f5472616e73706172656e745570677261646561626c6550726f78793a2061646d60448201527f696e2063616e6e6f742066616c6c6261636b20746f2070726f78792074617267606482015261195d60f21b608482015260a4015b60405180910390fd5b815160208301f35b6101676102fc565b565b606061018e83836040518060600160405280602781526020016108426027913961030c565b9392505050565b90565b6001600160a01b03163b151590565b60007fb53127684a568b3173ae13b9f8a6016e243e63b6e8ee1178d6a717850b5d61035b546001600160a01b0316919050565b60606101e4610384565b60006101f33660048184610695565b81019061020091906106db565b905061021d8160405180602001604052806000815250600061038f565b505060408051602081019091526000815290565b60606000806102433660048184610695565b810190610250919061070c565b915091506102608282600161038f565b604051806020016040528060008152509250505090565b6060610281610384565b60006102903660048184610695565b81019061029d91906106db565b905061021d816103bb565b60606102b2610384565b60006102bc6101a7565b604080516001600160a01b03831660208201529192500160405160208183030381529060405291505090565b60606102f2610384565b60006102bc610412565b610167610307610412565b610421565b6060600080856001600160a01b03168560405161032991906107f2565b600060405180830381855af49150503d8060008114610364576040519150601f19603f3d011682016040523d82523d6000602084013e610369565b606091505b509150915061037a86838387610445565b9695505050505050565b341561016757600080fd5b610398836104c6565b6000825111806103a55750805b156103b6576103b48383610169565b505b505050565b7f7e644d79422f17c01e4894b5f4f588d331ebfa28653d42ae832dc59e38c9798f6103e46101a7565b604080516001600160a01b03928316815291841660208301520160405180910390a161040f81610506565b50565b600061041c6105af565b905090565b3660008037600080366000845af43d6000803e808015610440573d6000f35b3d6000fd5b606083156104b45782516000036104ad576001600160a01b0385163b6104ad5760405162461bcd60e51b815260206004820152601d60248201527f416464726573733a2063616c6c20746f206e6f6e2d636f6e7472616374000000604482015260640161014e565b50816104be565b6104be83836105d7565b949350505050565b6104cf81610601565b6040516001600160a01b038216907fbc7cd75a20ee27fd9adebab32041f755214dbc6bffa90cc0225b39da2e5c2d3b90600090a250565b6001600160a01b03811661056b5760405162461bcd60e51b815260206004820152602660248201527f455243313936373a206e65772061646d696e20697320746865207a65726f206160448201526564647265737360d01b606482015260840161014e565b807fb53127684a568b3173ae13b9f8a6016e243e63b6e8ee1178d6a717850b5d61035b80546001600160a01b0319166001600160a01b039290921691909117905550565b60007f360894a13ba1a3210667c828492db98dca3e2076cc3735a920a3ca505d382bbc6101cb565b8151156105e75781518083602001fd5b8060405162461bcd60e51b815260040161014e919061080e565b6001600160a01b0381163b61066e5760405162461bcd60e51b815260206004820152602d60248201527f455243313936373a206e657720696d706c656d656e746174696f6e206973206e60448201526c1bdd08184818dbdb9d1c9858dd609a1b606482015260840161014e565b807f360894a13ba1a3210667c828492db98dca3e2076cc3735a920a3ca505d382bbc61058e565b600080858511156106a557600080fd5b838611156106b257600080fd5b5050820193919092039150565b80356001600160a01b03811681146106d657600080fd5b919050565b6000602082840312156106ed57600080fd5b61018e826106bf565b634e487b7160e01b600052604160045260246000fd5b6000806040838503121561071f57600080fd5b610728836106bf565b9150602083013567ffffffffffffffff8082111561074557600080fd5b818501915085601f83011261075957600080fd5b81358181111561076b5761076b6106f6565b604051601f8201601f19908116603f01168101908382118183101715610793576107936106f6565b816040528281528860208487010111156107ac57600080fd5b8260208601602083013760006020848301015280955050505050509250929050565b60005b838110156107e95781810151838201526020016107d1565b50506000910152565b600082516108048184602087016107ce565b9190910192915050565b602081526000825180602084015261082d8160408501602087016107ce565b601f01601f1916919091016040019291505056fe416464726573733a206c6f772d6c6576656c2064656c65676174652063616c6c206661696c6564b53127684a568b3173ae13b9f8a6016e243e63b6e8ee1178d6a717850b5d6103416464726573733a206c6f772d6c6576656c2064656c65676174652063616c6c206661696c65640000000000000000000000006f40c52c7862d920f4c5becf78bcca90c337048500000000000000000000000054f44fbe2943c2196d94831288e716cdeaf5657900000000000000000000000000000000000000000000000000000000000000600000000000000000000000000000000000000000000000000000000000000000",
        "nonce": "0xc",
        "chainId": "0x32"
      },
      "additionalContracts": [],
      "isFixedGasLimit": false
    },
    {
      "hash": "0xe9bc3b5a4ac8611635b9cbd3bd6d58f72c3bd208bac1d0b2a4915ef9e2f82084",
      "transactionType": "CREATE2",
      "contractName": "TransparentUpgradeableProxy.0.8.18",
      "contractAddress": "0x27ad26f569439de66cc0d5e8d7a3abc5df512a52",
      "function": null,
      "arguments": [
        "0xF036896E9441ecaeB1b6D2Fc1b982021eed2b439",
        "0x54f44fBE2943c2196D94831288E716cdeAF56579",
        "0x"
      ],
      "transaction": {
        "from": "0x5d2720b76bbcc2d4f77600c4c9d392bb59a0b0e0",
        "to": "0x4e59b44847b379578588920ca78fbf26c0b4956c",
        "gas": "0xc8cf5",
        "value": "0x0",
        "input": "0x7050f07a910039c4dd0743e5e5e572e3034b25a32be803a99867d090b32f273d608060405260405162000e8a38038062000e8a833981016040819052620000269162000497565b828162000036828260006200004d565b50620000449050826200008a565b505050620005ca565b6200005883620000e5565b600082511180620000665750805b1562000085576200008383836200012760201b620001691760201c565b505b505050565b7f7e644d79422f17c01e4894b5f4f588d331ebfa28653d42ae832dc59e38c9798f620000b562000156565b604080516001600160a01b03928316815291841660208301520160405180910390a1620000e2816200018f565b50565b620000f08162000244565b6040516001600160a01b038216907fbc7cd75a20ee27fd9adebab32041f755214dbc6bffa90cc0225b39da2e5c2d3b90600090a250565b60606200014f838360405180606001604052806027815260200162000e6360279139620002f8565b9392505050565b60006200018060008051602062000e4383398151915260001b6200037760201b620001951760201c565b546001600160a01b0316919050565b6001600160a01b038116620001fa5760405162461bcd60e51b815260206004820152602660248201527f455243313936373a206e65772061646d696e20697320746865207a65726f206160448201526564647265737360d01b60648201526084015b60405180910390fd5b806200022360008051602062000e4383398151915260001b6200037760201b620001951760201c565b80546001600160a01b0319166001600160a01b039290921691909117905550565b6200025a816200037a60201b620001981760201c565b620002be5760405162461bcd60e51b815260206004820152602d60248201527f455243313936373a206e657720696d706c656d656e746174696f6e206973206e60448201526c1bdd08184818dbdb9d1c9858dd609a1b6064820152608401620001f1565b80620002237f360894a13ba1a3210667c828492db98dca3e2076cc3735a920a3ca505d382bbc60001b6200037760201b620001951760201c565b6060600080856001600160a01b03168560405162000317919062000577565b600060405180830381855af49150503d806000811462000354576040519150601f19603f3d011682016040523d82523d6000602084013e62000359565b606091505b5090925090506200036d8683838762000389565b9695505050505050565b90565b6001600160a01b03163b151590565b60608315620003fd578251600003620003f5576001600160a01b0385163b620003f55760405162461bcd60e51b815260206004820152601d60248201527f416464726573733a2063616c6c20746f206e6f6e2d636f6e74726163740000006044820152606401620001f1565b508162000409565b62000409838362000411565b949350505050565b815115620004225781518083602001fd5b8060405162461bcd60e51b8152600401620001f1919062000595565b80516001600160a01b03811681146200045657600080fd5b919050565b634e487b7160e01b600052604160045260246000fd5b60005b838110156200048e57818101518382015260200162000474565b50506000910152565b600080600060608486031215620004ad57600080fd5b620004b8846200043e565b9250620004c8602085016200043e565b60408501519092506001600160401b0380821115620004e657600080fd5b818601915086601f830112620004fb57600080fd5b8151818111156200051057620005106200045b565b604051601f8201601f19908116603f011681019083821181831017156200053b576200053b6200045b565b816040528281528960208487010111156200055557600080fd5b6200056883602083016020880162000471565b80955050505050509250925092565b600082516200058b81846020870162000471565b9190910192915050565b6020815260008251806020840152620005b681604085016020870162000471565b601f01601f19169190910160400192915050565b61086980620005da6000396000f3fe60806040523661001357610011610017565b005b6100115b61001f6101a7565b6001600160a01b0316330361015f5760606001600160e01b0319600035166364d3180d60e11b810161005a576100536101da565b9150610157565b63587086bd60e11b6001600160e01b031982160161007a57610053610231565b63070d7c6960e41b6001600160e01b031982160161009a57610053610277565b621eb96f60e61b6001600160e01b03198216016100b9576100536102a8565b63a39f25e560e01b6001600160e01b03198216016100d9576100536102e8565b60405162461bcd60e51b815260206004820152604260248201527f5472616e73706172656e745570677261646561626c6550726f78793a2061646d60448201527f696e2063616e6e6f742066616c6c6261636b20746f2070726f78792074617267606482015261195d60f21b608482015260a4015b60405180910390fd5b815160208301f35b6101676102fc565b565b606061018e83836040518060600160405280602781526020016108426027913961030c565b9392505050565b90565b6001600160a01b03163b151590565b60007fb53127684a568b3173ae13b9f8a6016e243e63b6e8ee1178d6a717850b5d61035b546001600160a01b0316919050565b60606101e4610384565b60006101f33660048184610695565b81019061020091906106db565b905061021d8160405180602001604052806000815250600061038f565b505060408051602081019091526000815290565b60606000806102433660048184610695565b810190610250919061070c565b915091506102608282600161038f565b604051806020016040528060008152509250505090565b6060610281610384565b60006102903660048184610695565b81019061029d91906106db565b905061021d816103bb565b60606102b2610384565b60006102bc6101a7565b604080516001600160a01b03831660208201529192500160405160208183030381529060405291505090565b60606102f2610384565b60006102bc610412565b610167610307610412565b610421565b6060600080856001600160a01b03168560405161032991906107f2565b600060405180830381855af49150503d8060008114610364576040519150601f19603f3d011682016040523d82523d6000602084013e610369565b606091505b509150915061037a86838387610445565b9695505050505050565b341561016757600080fd5b610398836104c6565b6000825111806103a55750805b156103b6576103b48383610169565b505b505050565b7f7e644d79422f17c01e4894b5f4f588d331ebfa28653d42ae832dc59e38c9798f6103e46101a7565b604080516001600160a01b03928316815291841660208301520160405180910390a161040f81610506565b50565b600061041c6105af565b905090565b3660008037600080366000845af43d6000803e808015610440573d6000f35b3d6000fd5b606083156104b45782516000036104ad576001600160a01b0385163b6104ad5760405162461bcd60e51b815260206004820152601d60248201527f416464726573733a2063616c6c20746f206e6f6e2d636f6e7472616374000000604482015260640161014e565b50816104be565b6104be83836105d7565b949350505050565b6104cf81610601565b6040516001600160a01b038216907fbc7cd75a20ee27fd9adebab32041f755214dbc6bffa90cc0225b39da2e5c2d3b90600090a250565b6001600160a01b03811661056b5760405162461bcd60e51b815260206004820152602660248201527f455243313936373a206e65772061646d696e20697320746865207a65726f206160448201526564647265737360d01b606482015260840161014e565b807fb53127684a568b3173ae13b9f8a6016e243e63b6e8ee1178d6a717850b5d61035b80546001600160a01b0319166001600160a01b039290921691909117905550565b60007f360894a13ba1a3210667c828492db98dca3e2076cc3735a920a3ca505d382bbc6101cb565b8151156105e75781518083602001fd5b8060405162461bcd60e51b815260040161014e919061080e565b6001600160a01b0381163b61066e5760405162461bcd60e51b815260206004820152602d60248201527f455243313936373a206e657720696d706c656d656e746174696f6e206973206e60448201526c1bdd08184818dbdb9d1c9858dd609a1b606482015260840161014e565b807f360894a13ba1a3210667c828492db98dca3e2076cc3735a920a3ca505d382bbc61058e565b600080858511156106a557600080fd5b838611156106b257600080fd5b5050820193919092039150565b80356001600160a01b03811681146106d657600080fd5b919050565b6000602082840312156106ed57600080fd5b61018e826106bf565b634e487b7160e01b600052604160045260246000fd5b6000806040838503121561071f57600080fd5b610728836106bf565b9150602083013567ffffffffffffffff8082111561074557600080fd5b818501915085601f83011261075957600080fd5b81358181111561076b5761076b6106f6565b604051601f8201601f19908116603f01168101908382118183101715610793576107936106f6565b816040528281528860208487010111156107ac57600080fd5b8260208601602083013760006020848301015280955050505050509250929050565b60005b838110156107e95781810151838201526020016107d1565b50506000910152565b600082516108048184602087016107ce565b9190910192915050565b602081526000825180602084015261082d8160408501602087016107ce565b601f01601f1916919091016040019291505056fe416464726573733a206c6f772d6c6576656c2064656c65676174652063616c6c206661696c6564b53127684a568b3173ae13b9f8a6016e243e63b6e8ee1178d6a717850b5d6103416464726573733a206c6f772d6c6576656c2064656c65676174652063616c6c206661696c6564000000000000000000000000f036896e9441ecaeb1b6d2fc1b982021eed2b43900000000000000000000000054f44fbe2943c2196d94831288e716cdeaf5657900000000000000000000000000000000000000000000000000000000000000600000000000000000000000000000000000000000000000000000000000000000",
        "nonce": "0xd",
        "chainId": "0x32"
      },
      "additionalContracts": [],
      "isFixedGasLimit": false
    },
    {
      "hash": "0x9f6bd0de3b7911e0402abdce08b4af33cd5ae7882f4dc074a92cdb46c671ad9d",
      "transactionType": "CREATE2",
      "contractName": "TransparentUpgradeableProxy.0.8.18",
      "contractAddress": "0x6ef11986dc7ebde345134068877efecd18d7430c",
      "function": null,
      "arguments": [
        "0x3A731f40908D6E3dD0883223b107d01F8a75F16A",
        "0x54f44fBE2943c2196D94831288E716cdeAF56579",
        "0x"
      ],
      "transaction": {
        "from": "0x5d2720b76bbcc2d4f77600c4c9d392bb59a0b0e0",
        "to": "0x4e59b44847b379578588920ca78fbf26c0b4956c",
        "gas": "0xc8cf5",
        "value": "0x0",
        "input": "0x06d3fe6e4bfec000fb21def8e7e349f2d592209273ad09eb5aba523e18176203608060405260405162000e8a38038062000e8a833981016040819052620000269162000497565b828162000036828260006200004d565b50620000449050826200008a565b505050620005ca565b6200005883620000e5565b600082511180620000665750805b1562000085576200008383836200012760201b620001691760201c565b505b505050565b7f7e644d79422f17c01e4894b5f4f588d331ebfa28653d42ae832dc59e38c9798f620000b562000156565b604080516001600160a01b03928316815291841660208301520160405180910390a1620000e2816200018f565b50565b620000f08162000244565b6040516001600160a01b038216907fbc7cd75a20ee27fd9adebab32041f755214dbc6bffa90cc0225b39da2e5c2d3b90600090a250565b60606200014f838360405180606001604052806027815260200162000e6360279139620002f8565b9392505050565b60006200018060008051602062000e4383398151915260001b6200037760201b620001951760201c565b546001600160a01b0316919050565b6001600160a01b038116620001fa5760405162461bcd60e51b815260206004820152602660248201527f455243313936373a206e65772061646d696e20697320746865207a65726f206160448201526564647265737360d01b60648201526084015b60405180910390fd5b806200022360008051602062000e4383398151915260001b6200037760201b620001951760201c565b80546001600160a01b0319166001600160a01b039290921691909117905550565b6200025a816200037a60201b620001981760201c565b620002be5760405162461bcd60e51b815260206004820152602d60248201527f455243313936373a206e657720696d706c656d656e746174696f6e206973206e60448201526c1bdd08184818dbdb9d1c9858dd609a1b6064820152608401620001f1565b80620002237f360894a13ba1a3210667c828492db98dca3e2076cc3735a920a3ca505d382bbc60001b6200037760201b620001951760201c565b6060600080856001600160a01b03168560405162000317919062000577565b600060405180830381855af49150503d806000811462000354576040519150601f19603f3d011682016040523d82523d6000602084013e62000359565b606091505b5090925090506200036d8683838762000389565b9695505050505050565b90565b6001600160a01b03163b151590565b60608315620003fd578251600003620003f5576001600160a01b0385163b620003f55760405162461bcd60e51b815260206004820152601d60248201527f416464726573733a2063616c6c20746f206e6f6e2d636f6e74726163740000006044820152606401620001f1565b508162000409565b62000409838362000411565b949350505050565b815115620004225781518083602001fd5b8060405162461bcd60e51b8152600401620001f1919062000595565b80516001600160a01b03811681146200045657600080fd5b919050565b634e487b7160e01b600052604160045260246000fd5b60005b838110156200048e57818101518382015260200162000474565b50506000910152565b600080600060608486031215620004ad57600080fd5b620004b8846200043e565b9250620004c8602085016200043e565b60408501519092506001600160401b0380821115620004e657600080fd5b818601915086601f830112620004fb57600080fd5b8151818111156200051057620005106200045b565b604051601f8201601f19908116603f011681019083821181831017156200053b576200053b6200045b565b816040528281528960208487010111156200055557600080fd5b6200056883602083016020880162000471565b80955050505050509250925092565b600082516200058b81846020870162000471565b9190910192915050565b6020815260008251806020840152620005b681604085016020870162000471565b601f01601f19169190910160400192915050565b61086980620005da6000396000f3fe60806040523661001357610011610017565b005b6100115b61001f6101a7565b6001600160a01b0316330361015f5760606001600160e01b0319600035166364d3180d60e11b810161005a576100536101da565b9150610157565b63587086bd60e11b6001600160e01b031982160161007a57610053610231565b63070d7c6960e41b6001600160e01b031982160161009a57610053610277565b621eb96f60e61b6001600160e01b03198216016100b9576100536102a8565b63a39f25e560e01b6001600160e01b03198216016100d9576100536102e8565b60405162461bcd60e51b815260206004820152604260248201527f5472616e73706172656e745570677261646561626c6550726f78793a2061646d60448201527f696e2063616e6e6f742066616c6c6261636b20746f2070726f78792074617267606482015261195d60f21b608482015260a4015b60405180910390fd5b815160208301f35b6101676102fc565b565b606061018e83836040518060600160405280602781526020016108426027913961030c565b9392505050565b90565b6001600160a01b03163b151590565b60007fb53127684a568b3173ae13b9f8a6016e243e63b6e8ee1178d6a717850b5d61035b546001600160a01b0316919050565b60606101e4610384565b60006101f33660048184610695565b81019061020091906106db565b905061021d8160405180602001604052806000815250600061038f565b505060408051602081019091526000815290565b60606000806102433660048184610695565b810190610250919061070c565b915091506102608282600161038f565b604051806020016040528060008152509250505090565b6060610281610384565b60006102903660048184610695565b81019061029d91906106db565b905061021d816103bb565b60606102b2610384565b60006102bc6101a7565b604080516001600160a01b03831660208201529192500160405160208183030381529060405291505090565b60606102f2610384565b60006102bc610412565b610167610307610412565b610421565b6060600080856001600160a01b03168560405161032991906107f2565b600060405180830381855af49150503d8060008114610364576040519150601f19603f3d011682016040523d82523d6000602084013e610369565b606091505b509150915061037a86838387610445565b9695505050505050565b341561016757600080fd5b610398836104c6565b6000825111806103a55750805b156103b6576103b48383610169565b505b505050565b7f7e644d79422f17c01e4894b5f4f588d331ebfa28653d42ae832dc59e38c9798f6103e46101a7565b604080516001600160a01b03928316815291841660208301520160405180910390a161040f81610506565b50565b600061041c6105af565b905090565b3660008037600080366000845af43d6000803e808015610440573d6000f35b3d6000fd5b606083156104b45782516000036104ad576001600160a01b0385163b6104ad5760405162461bcd60e51b815260206004820152601d60248201527f416464726573733a2063616c6c20746f206e6f6e2d636f6e7472616374000000604482015260640161014e565b50816104be565b6104be83836105d7565b949350505050565b6104cf81610601565b6040516001600160a01b038216907fbc7cd75a20ee27fd9adebab32041f755214dbc6bffa90cc0225b39da2e5c2d3b90600090a250565b6001600160a01b03811661056b5760405162461bcd60e51b815260206004820152602660248201527f455243313936373a206e65772061646d696e20697320746865207a65726f206160448201526564647265737360d01b606482015260840161014e565b807fb53127684a568b3173ae13b9f8a6016e243e63b6e8ee1178d6a717850b5d61035b80546001600160a01b0319166001600160a01b039290921691909117905550565b60007f360894a13ba1a3210667c828492db98dca3e2076cc3735a920a3ca505d382bbc6101cb565b8151156105e75781518083602001fd5b8060405162461bcd60e51b815260040161014e919061080e565b6001600160a01b0381163b61066e5760405162461bcd60e51b815260206004820152602d60248201527f455243313936373a206e657720696d706c656d656e746174696f6e206973206e60448201526c1bdd08184818dbdb9d1c9858dd609a1b606482015260840161014e565b807f360894a13ba1a3210667c828492db98dca3e2076cc3735a920a3ca505d382bbc61058e565b600080858511156106a557600080fd5b838611156106b257600080fd5b5050820193919092039150565b80356001600160a01b03811681146106d657600080fd5b919050565b6000602082840312156106ed57600080fd5b61018e826106bf565b634e487b7160e01b600052604160045260246000fd5b6000806040838503121561071f57600080fd5b610728836106bf565b9150602083013567ffffffffffffffff8082111561074557600080fd5b818501915085601f83011261075957600080fd5b81358181111561076b5761076b6106f6565b604051601f8201601f19908116603f01168101908382118183101715610793576107936106f6565b816040528281528860208487010111156107ac57600080fd5b8260208601602083013760006020848301015280955050505050509250929050565b60005b838110156107e95781810151838201526020016107d1565b50506000910152565b600082516108048184602087016107ce565b9190910192915050565b602081526000825180602084015261082d8160408501602087016107ce565b601f01601f1916919091016040019291505056fe416464726573733a206c6f772d6c6576656c2064656c65676174652063616c6c206661696c6564b53127684a568b3173ae13b9f8a6016e243e63b6e8ee1178d6a717850b5d6103416464726573733a206c6f772d6c6576656c2064656c65676174652063616c6c206661696c65640000000000000000000000003a731f40908d6e3dd0883223b107d01f8a75f16a00000000000000000000000054f44fbe2943c2196d94831288e716cdeaf5657900000000000000000000000000000000000000000000000000000000000000600000000000000000000000000000000000000000000000000000000000000000",
        "nonce": "0xe",
        "chainId": "0x32"
      },
      "additionalContracts": [],
      "isFixedGasLimit": false
    },
    {
      "hash": "0x1cef1c2f4ee64a865d1c098bc56f27ce7ced0afa3743b9bdc887ac6f8cd356df",
      "transactionType": "CREATE2",
      "contractName": "TransparentUpgradeableProxy.0.8.18",
      "contractAddress": "0x1fad5a713da1f51e2a1ac4ca2e1d621919f0aba0",
      "function": null,
      "arguments": [
        "0xd9cE916d711977d5B27697a13964556b4fB8aF1d",
        "0x54f44fBE2943c2196D94831288E716cdeAF56579",
        "0x"
      ],
      "transaction": {
        "from": "0x5d2720b76bbcc2d4f77600c4c9d392bb59a0b0e0",
        "to": "0x4e59b44847b379578588920ca78fbf26c0b4956c",
        "gas": "0xc8d05",
        "value": "0x0",
        "input": "0xa15afeaf3dd550dd994e4636376e4c62f3eca9e4a66fa3e2881ea522ec89cea9608060405260405162000e8a38038062000e8a833981016040819052620000269162000497565b828162000036828260006200004d565b50620000449050826200008a565b505050620005ca565b6200005883620000e5565b600082511180620000665750805b1562000085576200008383836200012760201b620001691760201c565b505b505050565b7f7e644d79422f17c01e4894b5f4f588d331ebfa28653d42ae832dc59e38c9798f620000b562000156565b604080516001600160a01b03928316815291841660208301520160405180910390a1620000e2816200018f565b50565b620000f08162000244565b6040516001600160a01b038216907fbc7cd75a20ee27fd9adebab32041f755214dbc6bffa90cc0225b39da2e5c2d3b90600090a250565b60606200014f838360405180606001604052806027815260200162000e6360279139620002f8565b9392505050565b60006200018060008051602062000e4383398151915260001b6200037760201b620001951760201c565b546001600160a01b0316919050565b6001600160a01b038116620001fa5760405162461bcd60e51b815260206004820152602660248201527f455243313936373a206e65772061646d696e20697320746865207a65726f206160448201526564647265737360d01b60648201526084015b60405180910390fd5b806200022360008051602062000e4383398151915260001b6200037760201b620001951760201c565b80546001600160a01b0319166001600160a01b039290921691909117905550565b6200025a816200037a60201b620001981760201c565b620002be5760405162461bcd60e51b815260206004820152602d60248201527f455243313936373a206e657720696d706c656d656e746174696f6e206973206e60448201526c1bdd08184818dbdb9d1c9858dd609a1b6064820152608401620001f1565b80620002237f360894a13ba1a3210667c828492db98dca3e2076cc3735a920a3ca505d382bbc60001b6200037760201b620001951760201c565b6060600080856001600160a01b03168560405162000317919062000577565b600060405180830381855af49150503d806000811462000354576040519150601f19603f3d011682016040523d82523d6000602084013e62000359565b606091505b5090925090506200036d8683838762000389565b9695505050505050565b90565b6001600160a01b03163b151590565b60608315620003fd578251600003620003f5576001600160a01b0385163b620003f55760405162461bcd60e51b815260206004820152601d60248201527f416464726573733a2063616c6c20746f206e6f6e2d636f6e74726163740000006044820152606401620001f1565b508162000409565b62000409838362000411565b949350505050565b815115620004225781518083602001fd5b8060405162461bcd60e51b8152600401620001f1919062000595565b80516001600160a01b03811681146200045657600080fd5b919050565b634e487b7160e01b600052604160045260246000fd5b60005b838110156200048e57818101518382015260200162000474565b50506000910152565b600080600060608486031215620004ad57600080fd5b620004b8846200043e565b9250620004c8602085016200043e565b60408501519092506001600160401b0380821115620004e657600080fd5b818601915086601f830112620004fb57600080fd5b8151818111156200051057620005106200045b565b604051601f8201601f19908116603f011681019083821181831017156200053b576200053b6200045b565b816040528281528960208487010111156200055557600080fd5b6200056883602083016020880162000471565b80955050505050509250925092565b600082516200058b81846020870162000471565b9190910192915050565b6020815260008251806020840152620005b681604085016020870162000471565b601f01601f19169190910160400192915050565b61086980620005da6000396000f3fe60806040523661001357610011610017565b005b6100115b61001f6101a7565b6001600160a01b0316330361015f5760606001600160e01b0319600035166364d3180d60e11b810161005a576100536101da565b9150610157565b63587086bd60e11b6001600160e01b031982160161007a57610053610231565b63070d7c6960e41b6001600160e01b031982160161009a57610053610277565b621eb96f60e61b6001600160e01b03198216016100b9576100536102a8565b63a39f25e560e01b6001600160e01b03198216016100d9576100536102e8565b60405162461bcd60e51b815260206004820152604260248201527f5472616e73706172656e745570677261646561626c6550726f78793a2061646d60448201527f696e2063616e6e6f742066616c6c6261636b20746f2070726f78792074617267606482015261195d60f21b608482015260a4015b60405180910390fd5b815160208301f35b6101676102fc565b565b606061018e83836040518060600160405280602781526020016108426027913961030c565b9392505050565b90565b6001600160a01b03163b151590565b60007fb53127684a568b3173ae13b9f8a6016e243e63b6e8ee1178d6a717850b5d61035b546001600160a01b0316919050565b60606101e4610384565b60006101f33660048184610695565b81019061020091906106db565b905061021d8160405180602001604052806000815250600061038f565b505060408051602081019091526000815290565b60606000806102433660048184610695565b810190610250919061070c565b915091506102608282600161038f565b604051806020016040528060008152509250505090565b6060610281610384565b60006102903660048184610695565b81019061029d91906106db565b905061021d816103bb565b60606102b2610384565b60006102bc6101a7565b604080516001600160a01b03831660208201529192500160405160208183030381529060405291505090565b60606102f2610384565b60006102bc610412565b610167610307610412565b610421565b6060600080856001600160a01b03168560405161032991906107f2565b600060405180830381855af49150503d8060008114610364576040519150601f19603f3d011682016040523d82523d6000602084013e610369565b606091505b509150915061037a86838387610445565b9695505050505050565b341561016757600080fd5b610398836104c6565b6000825111806103a55750805b156103b6576103b48383610169565b505b505050565b7f7e644d79422f17c01e4894b5f4f588d331ebfa28653d42ae832dc59e38c9798f6103e46101a7565b604080516001600160a01b03928316815291841660208301520160405180910390a161040f81610506565b50565b600061041c6105af565b905090565b3660008037600080366000845af43d6000803e808015610440573d6000f35b3d6000fd5b606083156104b45782516000036104ad576001600160a01b0385163b6104ad5760405162461bcd60e51b815260206004820152601d60248201527f416464726573733a2063616c6c20746f206e6f6e2d636f6e7472616374000000604482015260640161014e565b50816104be565b6104be83836105d7565b949350505050565b6104cf81610601565b6040516001600160a01b038216907fbc7cd75a20ee27fd9adebab32041f755214dbc6bffa90cc0225b39da2e5c2d3b90600090a250565b6001600160a01b03811661056b5760405162461bcd60e51b815260206004820152602660248201527f455243313936373a206e65772061646d696e20697320746865207a65726f206160448201526564647265737360d01b606482015260840161014e565b807fb53127684a568b3173ae13b9f8a6016e243e63b6e8ee1178d6a717850b5d61035b80546001600160a01b0319166001600160a01b039290921691909117905550565b60007f360894a13ba1a3210667c828492db98dca3e2076cc3735a920a3ca505d382bbc6101cb565b8151156105e75781518083602001fd5b8060405162461bcd60e51b815260040161014e919061080e565b6001600160a01b0381163b61066e5760405162461bcd60e51b815260206004820152602d60248201527f455243313936373a206e657720696d706c656d656e746174696f6e206973206e60448201526c1bdd08184818dbdb9d1c9858dd609a1b606482015260840161014e565b807f360894a13ba1a3210667c828492db98dca3e2076cc3735a920a3ca505d382bbc61058e565b600080858511156106a557600080fd5b838611156106b257600080fd5b5050820193919092039150565b80356001600160a01b03811681146106d657600080fd5b919050565b6000602082840312156106ed57600080fd5b61018e826106bf565b634e487b7160e01b600052604160045260246000fd5b6000806040838503121561071f57600080fd5b610728836106bf565b9150602083013567ffffffffffffffff8082111561074557600080fd5b818501915085601f83011261075957600080fd5b81358181111561076b5761076b6106f6565b604051601f8201601f19908116603f01168101908382118183101715610793576107936106f6565b816040528281528860208487010111156107ac57600080fd5b8260208601602083013760006020848301015280955050505050509250929050565b60005b838110156107e95781810151838201526020016107d1565b50506000910152565b600082516108048184602087016107ce565b9190910192915050565b602081526000825180602084015261082d8160408501602087016107ce565b601f01601f1916919091016040019291505056fe416464726573733a206c6f772d6c6576656c2064656c65676174652063616c6c206661696c6564b53127684a568b3173ae13b9f8a6016e243e63b6e8ee1178d6a717850b5d6103416464726573733a206c6f772d6c6576656c2064656c65676174652063616c6c206661696c6564000000000000000000000000d9ce916d711977d5b27697a13964556b4fb8af1d00000000000000000000000054f44fbe2943c2196d94831288e716cdeaf5657900000000000000000000000000000000000000000000000000000000000000600000000000000000000000000000000000000000000000000000000000000000",
        "nonce": "0xf",
        "chainId": "0x32"
      },
      "additionalContracts": [],
      "isFixedGasLimit": false
    },
    {
      "hash": "0xf1b86bf81ab1d7cf31ee1774f467995971edc4d9c8e98633a4b72089ed26162a",
      "transactionType": "CREATE2",
      "contractName": "TransparentUpgradeableProxy.0.8.18",
      "contractAddress": "0xe69bd25ca06264780e377e8d81a59271299adb36",
      "function": null,
      "arguments": [
        "0x7288d592e1B9013c668801F722Be650993D2925A",
        "0x54f44fBE2943c2196D94831288E716cdeAF56579",
        "0x"
      ],
      "transaction": {
        "from": "0x5d2720b76bbcc2d4f77600c4c9d392bb59a0b0e0",
        "to": "0x4e59b44847b379578588920ca78fbf26c0b4956c",
        "gas": "0xc8d05",
        "value": "0x0",
        "input": "0x8dadb8c324b184c5831aa96cdd33914f5ff450c5b6941e1bfc68834c8995f13d608060405260405162000e8a38038062000e8a833981016040819052620000269162000497565b828162000036828260006200004d565b50620000449050826200008a565b505050620005ca565b6200005883620000e5565b600082511180620000665750805b1562000085576200008383836200012760201b620001691760201c565b505b505050565b7f7e644d79422f17c01e4894b5f4f588d331ebfa28653d42ae832dc59e38c9798f620000b562000156565b604080516001600160a01b03928316815291841660208301520160405180910390a1620000e2816200018f565b50565b620000f08162000244565b6040516001600160a01b038216907fbc7cd75a20ee27fd9adebab32041f755214dbc6bffa90cc0225b39da2e5c2d3b90600090a250565b60606200014f838360405180606001604052806027815260200162000e6360279139620002f8565b9392505050565b60006200018060008051602062000e4383398151915260001b6200037760201b620001951760201c565b546001600160a01b0316919050565b6001600160a01b038116620001fa5760405162461bcd60e51b815260206004820152602660248201527f455243313936373a206e65772061646d696e20697320746865207a65726f206160448201526564647265737360d01b60648201526084015b60405180910390fd5b806200022360008051602062000e4383398151915260001b6200037760201b620001951760201c565b80546001600160a01b0319166001600160a01b039290921691909117905550565b6200025a816200037a60201b620001981760201c565b620002be5760405162461bcd60e51b815260206004820152602d60248201527f455243313936373a206e657720696d706c656d656e746174696f6e206973206e60448201526c1bdd08184818dbdb9d1c9858dd609a1b6064820152608401620001f1565b80620002237f360894a13ba1a3210667c828492db98dca3e2076cc3735a920a3ca505d382bbc60001b6200037760201b620001951760201c565b6060600080856001600160a01b03168560405162000317919062000577565b600060405180830381855af49150503d806000811462000354576040519150601f19603f3d011682016040523d82523d6000602084013e62000359565b606091505b5090925090506200036d8683838762000389565b9695505050505050565b90565b6001600160a01b03163b151590565b60608315620003fd578251600003620003f5576001600160a01b0385163b620003f55760405162461bcd60e51b815260206004820152601d60248201527f416464726573733a2063616c6c20746f206e6f6e2d636f6e74726163740000006044820152606401620001f1565b508162000409565b62000409838362000411565b949350505050565b815115620004225781518083602001fd5b8060405162461bcd60e51b8152600401620001f1919062000595565b80516001600160a01b03811681146200045657600080fd5b919050565b634e487b7160e01b600052604160045260246000fd5b60005b838110156200048e57818101518382015260200162000474565b50506000910152565b600080600060608486031215620004ad57600080fd5b620004b8846200043e565b9250620004c8602085016200043e565b60408501519092506001600160401b0380821115620004e657600080fd5b818601915086601f830112620004fb57600080fd5b8151818111156200051057620005106200045b565b604051601f8201601f19908116603f011681019083821181831017156200053b576200053b6200045b565b816040528281528960208487010111156200055557600080fd5b6200056883602083016020880162000471565b80955050505050509250925092565b600082516200058b81846020870162000471565b9190910192915050565b6020815260008251806020840152620005b681604085016020870162000471565b601f01601f19169190910160400192915050565b61086980620005da6000396000f3fe60806040523661001357610011610017565b005b6100115b61001f6101a7565b6001600160a01b0316330361015f5760606001600160e01b0319600035166364d3180d60e11b810161005a576100536101da565b9150610157565b63587086bd60e11b6001600160e01b031982160161007a57610053610231565b63070d7c6960e41b6001600160e01b031982160161009a57610053610277565b621eb96f60e61b6001600160e01b03198216016100b9576100536102a8565b63a39f25e560e01b6001600160e01b03198216016100d9576100536102e8565b60405162461bcd60e51b815260206004820152604260248201527f5472616e73706172656e745570677261646561626c6550726f78793a2061646d60448201527f696e2063616e6e6f742066616c6c6261636b20746f2070726f78792074617267606482015261195d60f21b608482015260a4015b60405180910390fd5b815160208301f35b6101676102fc565b565b606061018e83836040518060600160405280602781526020016108426027913961030c565b9392505050565b90565b6001600160a01b03163b151590565b60007fb53127684a568b3173ae13b9f8a6016e243e63b6e8ee1178d6a717850b5d61035b546001600160a01b0316919050565b60606101e4610384565b60006101f33660048184610695565b81019061020091906106db565b905061021d8160405180602001604052806000815250600061038f565b505060408051602081019091526000815290565b60606000806102433660048184610695565b810190610250919061070c565b915091506102608282600161038f565b604051806020016040528060008152509250505090565b6060610281610384565b60006102903660048184610695565b81019061029d91906106db565b905061021d816103bb565b60606102b2610384565b60006102bc6101a7565b604080516001600160a01b03831660208201529192500160405160208183030381529060405291505090565b60606102f2610384565b60006102bc610412565b610167610307610412565b610421565b6060600080856001600160a01b03168560405161032991906107f2565b600060405180830381855af49150503d8060008114610364576040519150601f19603f3d011682016040523d82523d6000602084013e610369565b606091505b509150915061037a86838387610445565b9695505050505050565b341561016757600080fd5b610398836104c6565b6000825111806103a55750805b156103b6576103b48383610169565b505b505050565b7f7e644d79422f17c01e4894b5f4f588d331ebfa28653d42ae832dc59e38c9798f6103e46101a7565b604080516001600160a01b03928316815291841660208301520160405180910390a161040f81610506565b50565b600061041c6105af565b905090565b3660008037600080366000845af43d6000803e808015610440573d6000f35b3d6000fd5b606083156104b45782516000036104ad576001600160a01b0385163b6104ad5760405162461bcd60e51b815260206004820152601d60248201527f416464726573733a2063616c6c20746f206e6f6e2d636f6e7472616374000000604482015260640161014e565b50816104be565b6104be83836105d7565b949350505050565b6104cf81610601565b6040516001600160a01b038216907fbc7cd75a20ee27fd9adebab32041f755214dbc6bffa90cc0225b39da2e5c2d3b90600090a250565b6001600160a01b03811661056b5760405162461bcd60e51b815260206004820152602660248201527f455243313936373a206e65772061646d696e20697320746865207a65726f206160448201526564647265737360d01b606482015260840161014e565b807fb53127684a568b3173ae13b9f8a6016e243e63b6e8ee1178d6a717850b5d61035b80546001600160a01b0319166001600160a01b039290921691909117905550565b60007f360894a13ba1a3210667c828492db98dca3e2076cc3735a920a3ca505d382bbc6101cb565b8151156105e75781518083602001fd5b8060405162461bcd60e51b815260040161014e919061080e565b6001600160a01b0381163b61066e5760405162461bcd60e51b815260206004820152602d60248201527f455243313936373a206e657720696d706c656d656e746174696f6e206973206e60448201526c1bdd08184818dbdb9d1c9858dd609a1b606482015260840161014e565b807f360894a13ba1a3210667c828492db98dca3e2076cc3735a920a3ca505d382bbc61058e565b600080858511156106a557600080fd5b838611156106b257600080fd5b5050820193919092039150565b80356001600160a01b03811681146106d657600080fd5b919050565b6000602082840312156106ed57600080fd5b61018e826106bf565b634e487b7160e01b600052604160045260246000fd5b6000806040838503121561071f57600080fd5b610728836106bf565b9150602083013567ffffffffffffffff8082111561074557600080fd5b818501915085601f83011261075957600080fd5b81358181111561076b5761076b6106f6565b604051601f8201601f19908116603f01168101908382118183101715610793576107936106f6565b816040528281528860208487010111156107ac57600080fd5b8260208601602083013760006020848301015280955050505050509250929050565b60005b838110156107e95781810151838201526020016107d1565b50506000910152565b600082516108048184602087016107ce565b9190910192915050565b602081526000825180602084015261082d8160408501602087016107ce565b601f01601f1916919091016040019291505056fe416464726573733a206c6f772d6c6576656c2064656c65676174652063616c6c206661696c6564b53127684a568b3173ae13b9f8a6016e243e63b6e8ee1178d6a717850b5d6103416464726573733a206c6f772d6c6576656c2064656c65676174652063616c6c206661696c65640000000000000000000000007288d592e1b9013c668801f722be650993d2925a00000000000000000000000054f44fbe2943c2196d94831288e716cdeaf5657900000000000000000000000000000000000000000000000000000000000000600000000000000000000000000000000000000000000000000000000000000000",
        "nonce": "0x10",
        "chainId": "0x32"
      },
      "additionalContracts": [],
      "isFixedGasLimit": false
    },
    {
      "hash": "0xae1fa2614d7960997756e7f0ffac6fa0fd8e11d2dfd056977846ff4d43cf3c07",
      "transactionType": "CALL",
      "contractName": "TransparentUpgradeableProxy.0.8.18",
      "contractAddress": "0x34f260fcce222aff0da07ed12e239af38a144682",
      "function": null,
      "arguments": null,
      "transaction": {
        "from": "0x5d2720b76bbcc2d4f77600c4c9d392bb59a0b0e0",
        "to": "0x34f260fcce222aff0da07ed12e239af38a144682",
        "gas": "0x11c4d",
        "value": "0x0",
        "input": "0x8129fc1c",
        "nonce": "0x11",
        "chainId": "0x32"
      },
      "additionalContracts": [],
      "isFixedGasLimit": false
    },
    {
      "hash": "0x57f5cdfcfa2af70a44424d77bd77c17df4fb43e6d5daadcf610a5db019c21e62",
      "transactionType": "CALL",
      "contractName": "TransparentUpgradeableProxy.0.8.18",
      "contractAddress": "0x34f260fcce222aff0da07ed12e239af38a144682",
      "function": null,
      "arguments": null,
      "transaction": {
        "from": "0x5d2720b76bbcc2d4f77600c4c9d392bb59a0b0e0",
        "to": "0x34f260fcce222aff0da07ed12e239af38a144682",
        "gas": "0xcce7",
        "value": "0x0",
        "input": "0xf2fde38b000000000000000000000000c47747659b74cc23210dd851b254260b0b039eed",
        "nonce": "0x12",
        "chainId": "0x32"
      },
      "additionalContracts": [],
      "isFixedGasLimit": false
    },
    {
      "hash": "0xcec10ce1db94a2458704aedc9bfbcbef624976fa81b8a8bd103983da39b2e8c7",
      "transactionType": "CALL",
      "contractName": "TransparentUpgradeableProxy.0.8.18",
      "contractAddress": "0x27ad26f569439de66cc0d5e8d7a3abc5df512a52",
      "function": null,
      "arguments": null,
      "transaction": {
        "from": "0x5d2720b76bbcc2d4f77600c4c9d392bb59a0b0e0",
        "to": "0x27ad26f569439de66cc0d5e8d7a3abc5df512a52",
        "gas": "0x857b6",
        "value": "0x0",
        "input": "0x72a6b8b000000000000000000000000034f260fcce222aff0da07ed12e239af38a14468200000000000000000000000000000000000000000000000000000000bbf81e0000000000000000000000000000000000000000000000d3c21bcecceda100000000000000000000000000000000000000000000000000000000000000000000000000000000000000000000000000000000000000000000000000000000000000000000000000000000000000000000000000000000000000000000000000016000000000000000000000000000000000000000000000000000000000000001c000000000000000000000000000000000000000000000000000000000000000000000000000000000000000000000000000000000000000000000000000000000000000000000000000000000000000000000000000000000000000000000022000000000000000000000000000000000000000000000000000000000000002600000000000000000000000000000000000000000000000000000000000000002635553440000000000000000000000000000000000000000000000000000000063474c4400000000000000000000000000000000000000000000000000000000000000000000000000000000000000000000000000000000000000000000000200000000000000000000000000000000000000000000d3c21bcecceda0ffffff00000000000000000000000000000000000000000000000000000000000000010000000000000000000000000000000000000000000000000000000000000001000000000000000000000000396a429fe95f21475860593c86cc9c17d39f7f69000000000000000000000000000000000000000000000000000000000000000100000000000000000000000000000000000000000000d3c21bcecceda1000000",
        "nonce": "0x13",
        "chainId": "0x32"
      },
      "additionalContracts": [],
      "isFixedGasLimit": false
    },
    {
      "hash": "0x655228fe6da0c35158298868eda0a2797df5f4194a0990888b34c27142305b04",
      "transactionType": "CALL",
      "contractName": "TransparentUpgradeableProxy.0.8.18",
      "contractAddress": "0x1fad5a713da1f51e2a1ac4ca2e1d621919f0aba0",
      "function": null,
      "arguments": null,
      "transaction": {
        "from": "0x5d2720b76bbcc2d4f77600c4c9d392bb59a0b0e0",
        "to": "0x1fad5a713da1f51e2a1ac4ca2e1d621919f0aba0",
        "gas": "0x306c22",
        "value": "0x0",
        "input": "0xf8c8765e0000000000000000000000006ef11986dc7ebde345134068877efecd18d7430c00000000000000000000000027ad26f569439de66cc0d5e8d7a3abc5df512a52000000000000000000000000e69bd25ca06264780e377e8d81a59271299adb36000000000000000000000000c47747659b74cc23210dd851b254260b0b039eed",
        "nonce": "0x14",
        "chainId": "0x32"
      },
      "additionalContracts": [],
      "isFixedGasLimit": false
    },
    {
      "hash": "0x2182a7585b9d6230bb5421ae48e789770b0e4a0db19604fcf384d51a7ce51697",
      "transactionType": "CALL",
      "contractName": "TransparentUpgradeableProxy.0.8.18",
      "contractAddress": "0xe69bd25ca06264780e377e8d81a59271299adb36",
      "function": null,
      "arguments": null,
      "transaction": {
        "from": "0x5d2720b76bbcc2d4f77600c4c9d392bb59a0b0e0",
        "to": "0xe69bd25ca06264780e377e8d81a59271299adb36",
        "gas": "0x3a203",
        "value": "0x0",
        "input": "0xf8c8765e0000000000000000000000001fad5a713da1f51e2a1ac4ca2e1d621919f0aba0000000000000000000000000e68b7960b17bd49693b0219a42c5ffe86f512e6f00000000000000000000000027ad26f569439de66cc0d5e8d7a3abc5df512a52000000000000000000000000c47747659b74cc23210dd851b254260b0b039eed",
        "nonce": "0x15",
        "chainId": "0x32"
      },
      "additionalContracts": [],
      "isFixedGasLimit": false
    },
    {
      "hash": "0xa95a15b8c134fb2e5bdadde6f2341b63949886b0172fa7359ba426cc84a18827",
      "transactionType": "CALL",
      "contractName": "TransparentUpgradeableProxy.0.8.18",
      "contractAddress": "0x6ef11986dc7ebde345134068877efecd18d7430c",
      "function": null,
      "arguments": null,
      "transaction": {
        "from": "0x5d2720b76bbcc2d4f77600c4c9d392bb59a0b0e0",
        "to": "0x6ef11986dc7ebde345134068877efecd18d7430c",
        "gas": "0x34821",
        "value": "0x0",
        "input": "0x73cf25f80000000000000000000000000000000000000000000000000000000000000040000000000000000000000000000000000000000000000000000000000000008000000000000000000000000000000000000000000000000000000000000000010000000000000000000000001fad5a713da1f51e2a1ac4ca2e1d621919f0aba0000000000000000000000000000000000000000000000000000000000000000100000000000000000000000027ad26f569439de66cc0d5e8d7a3abc5df512a52",
        "nonce": "0x16",
        "chainId": "0x32"
      },
      "additionalContracts": [],
      "isFixedGasLimit": false
    },
    {
      "hash": "0xe15079b922b93f726581e8c6405b0c54ae1d2c70bd40ef8917177430e9f8761e",
      "transactionType": "CALL",
      "contractName": "TransparentUpgradeableProxy.0.8.18",
      "contractAddress": "0x27ad26f569439de66cc0d5e8d7a3abc5df512a52",
      "function": null,
      "arguments": null,
      "transaction": {
        "from": "0x5d2720b76bbcc2d4f77600c4c9d392bb59a0b0e0",
        "to": "0x27ad26f569439de66cc0d5e8d7a3abc5df512a52",
        "gas": "0x215fa",
        "value": "0x0",
        "input": "0xd48bfca7000000000000000000000000a13625a72aef90645cfce34e25c114629d7855e7",
        "nonce": "0x17",
        "chainId": "0x32"
      },
      "additionalContracts": [],
      "isFixedGasLimit": false
    },
    {
      "hash": "0xac1864b8869efa00adb50d3535517120dd51b3b2a0e6e558e9604998343bf04c",
      "transactionType": "CALL",
      "contractName": "TransparentUpgradeableProxy.0.8.18",
      "contractAddress": "0x27ad26f569439de66cc0d5e8d7a3abc5df512a52",
      "function": null,
      "arguments": null,
      "transaction": {
        "from": "0x5d2720b76bbcc2d4f77600c4c9d392bb59a0b0e0",
        "to": "0x27ad26f569439de66cc0d5e8d7a3abc5df512a52",
        "gas": "0x2352e",
        "value": "0x0",
        "input": "0xf0b7182b0000000000000000000000006ef11986dc7ebde345134068877efecd18d7430c",
        "nonce": "0x18",
        "chainId": "0x32"
      },
      "additionalContracts": [],
      "isFixedGasLimit": false
    },
    {
      "hash": "0x6ee9da7b9f06fa8abb6b3d1ee0823b453ec42350555c9b65af47eb72b893a43b",
      "transactionType": "CALL",
      "contractName": "TransparentUpgradeableProxy.0.8.18",
      "contractAddress": "0x27ad26f569439de66cc0d5e8d7a3abc5df512a52",
      "function": null,
      "arguments": null,
      "transaction": {
        "from": "0x5d2720b76bbcc2d4f77600c4c9d392bb59a0b0e0",
        "to": "0x27ad26f569439de66cc0d5e8d7a3abc5df512a52",
        "gas": "0x125e2",
        "value": "0x0",
        "input": "0xe7e31e7a000000000000000000000000c47747659b74cc23210dd851b254260b0b039eed",
        "nonce": "0x19",
        "chainId": "0x32"
      },
      "additionalContracts": [],
      "isFixedGasLimit": false
    },
    {
      "hash": "0x0ca340860f7a0082c972a632d64789a1bec368f705be79999bf9bd850b66df92",
      "transactionType": "CALL",
      "contractName": "TransparentUpgradeableProxy.0.8.18",
      "contractAddress": "0x27ad26f569439de66cc0d5e8d7a3abc5df512a52",
      "function": null,
      "arguments": null,
      "transaction": {
        "from": "0x5d2720b76bbcc2d4f77600c4c9d392bb59a0b0e0",
        "to": "0x27ad26f569439de66cc0d5e8d7a3abc5df512a52",
        "gas": "0x23566",
        "value": "0x0",
        "input": "0x22015968000000000000000000000000c47747659b74cc23210dd851b254260b0b039eed",
        "nonce": "0x1a",
        "chainId": "0x32"
      },
      "additionalContracts": [],
      "isFixedGasLimit": false
    },
    {
      "hash": "0xff254cd3bd77308ab94d543ff6e9b910bc7ea86b72b0670a7a194a4fc738d2e9",
      "transactionType": "CALL",
      "contractName": "TransparentUpgradeableProxy.0.8.18",
      "contractAddress": "0x6ef11986dc7ebde345134068877efecd18d7430c",
      "function": null,
      "arguments": null,
      "transaction": {
        "from": "0x5d2720b76bbcc2d4f77600c4c9d392bb59a0b0e0",
        "to": "0x6ef11986dc7ebde345134068877efecd18d7430c",
        "gas": "0x1fea6",
        "value": "0x0",
        "input": "0xa868d140f8d028730f58a008390c265fca425bb912e4c7efa370d4cef756a06f5029acd2000000000000000000000000396a429fe95f21475860593c86cc9c17d39f7f690000000000000000000000000000000000000000000000000000000000093a800000000000000000000000000000000000000000000000000000000000278d000000000000000000000000000000000000000000000000000000000000009c400000000000000000000000000000000000000000000000000000000000009c400000000000000000000000000000000000000000000000000000000000013880000000000000000000000000000000000000000000000000000000000001388000000000000000000000000000000000000000000000000000000000000000000000000000000000000000000000000000000000000000000000000000000003",
        "nonce": "0x1b",
        "chainId": "0x32"
      },
      "additionalContracts": [],
      "isFixedGasLimit": false
    },
    {
      "hash": "0x44b7170d5095a5505c1b4e7e8512323312a64fc279d1cf75a9da6a505b2d808d",
      "transactionType": "CALL",
      "contractName": "TransparentUpgradeableProxy.0.8.18",
      "contractAddress": "0x6ef11986dc7ebde345134068877efecd18d7430c",
      "function": null,
      "arguments": null,
      "transaction": {
        "from": "0x5d2720b76bbcc2d4f77600c4c9d392bb59a0b0e0",
        "to": "0x6ef11986dc7ebde345134068877efecd18d7430c",
        "gas": "0xc187",
        "value": "0x0",
        "input": "0xf2fde38b000000000000000000000000c47747659b74cc23210dd851b254260b0b039eed",
        "nonce": "0x1c",
        "chainId": "0x32"
      },
      "additionalContracts": [],
      "isFixedGasLimit": false
    },
    {
      "hash": "0xe9a07517a3fd63fc24a0ec8cafb4b8f310d56902356ae826b16f90e4113bb264",
      "transactionType": "CALL",
      "contractName": "TransparentUpgradeableProxy.0.8.18",
      "contractAddress": "0x27ad26f569439de66cc0d5e8d7a3abc5df512a52",
      "function": null,
      "arguments": null,
      "transaction": {
        "from": "0x5d2720b76bbcc2d4f77600c4c9d392bb59a0b0e0",
        "to": "0x27ad26f569439de66cc0d5e8d7a3abc5df512a52",
        "gas": "0xcd07",
        "value": "0x0",
        "input": "0xf2fde38b000000000000000000000000c47747659b74cc23210dd851b254260b0b039eed",
        "nonce": "0x1d",
        "chainId": "0x32"
      },
      "additionalContracts": [],
      "isFixedGasLimit": false
    },
    {
      "hash": "0x32f64c0ed6be139a38055375626a540ac22cf623a089356a0856610e7131df86",
      "transactionType": "CALL",
      "contractName": "TransparentUpgradeableProxy.0.8.18",
      "contractAddress": "0x1fad5a713da1f51e2a1ac4ca2e1d621919f0aba0",
      "function": null,
      "arguments": null,
      "transaction": {
        "from": "0x5d2720b76bbcc2d4f77600c4c9d392bb59a0b0e0",
        "to": "0x1fad5a713da1f51e2a1ac4ca2e1d621919f0aba0",
        "gas": "0xc11d",
        "value": "0x0",
        "input": "0xf2fde38b000000000000000000000000c47747659b74cc23210dd851b254260b0b039eed",
        "nonce": "0x1e",
        "chainId": "0x32"
      },
      "additionalContracts": [],
      "isFixedGasLimit": false
    },
    {
      "hash": "0xa55cbad0ec677e35c0cb5dff7933170dcd4d79e53d4531dbf45353b29325fc37",
      "transactionType": "CALL",
      "contractName": "TransparentUpgradeableProxy.0.8.18",
      "contractAddress": "0xe69bd25ca06264780e377e8d81a59271299adb36",
      "function": null,
      "arguments": null,
      "transaction": {
        "from": "0x5d2720b76bbcc2d4f77600c4c9d392bb59a0b0e0",
        "to": "0xe69bd25ca06264780e377e8d81a59271299adb36",
        "gas": "0xcc70",
        "value": "0x0",
        "input": "0xf2fde38b000000000000000000000000c47747659b74cc23210dd851b254260b0b039eed",
        "nonce": "0x1f",
        "chainId": "0x32"
      },
      "additionalContracts": [],
      "isFixedGasLimit": false
    }
  ],
  "receipts": [
    {
      "status": "0x1",
      "cumulativeGasUsed": "0xd8d8f",
      "logs": [
        {
          "address": "0x54f44fbe2943c2196d94831288e716cdeaf56579",
          "topics": [
            "0x8be0079c531659141344cd1fd0a4f28419497f9722a3daafe3b4186f6b6457e0",
            "0x0000000000000000000000000000000000000000000000000000000000000000",
            "0x0000000000000000000000005d2720b76bbcc2d4f77600c4c9d392bb59a0b0e0"
          ],
          "data": "0x",
          "blockHash": "0x393bf010615ae463c07a87cc0f89b9aa764d15f17f2e4baea73bc1d67c7fe3ea",
          "blockNumber": "0x590aa0a",
          "transactionHash": "0x81ae86f4ebe2dff5bb8dde8a69237632d27dfab83dc01e23860c453c74029069",
          "transactionIndex": "0x4",
          "logIndex": "0x7",
          "removed": false
        }
      ],
      "logsBloom": "0x00000000000000008000000000000000000000000000000000800000000000000000000000000000000000000000000000000000000000000000004000000000000001000008000000000000000000000001000000000000000000000000000000000000020000000000000000000800000000000000000000000000000000400000000000000000000000000000000000000000000000000000000000000000000000000000000000000000200000000000000000000000080000000000000000000000000000000000000000000000000000000000000000000000000020000000000000000000000000000000000000000000000000000000000000000000",
      "type": "0x0",
      "transactionHash": "0x81ae86f4ebe2dff5bb8dde8a69237632d27dfab83dc01e23860c453c74029069",
      "transactionIndex": "0x4",
      "blockHash": "0x393bf010615ae463c07a87cc0f89b9aa764d15f17f2e4baea73bc1d67c7fe3ea",
      "blockNumber": "0x590aa0a",
      "gasUsed": "0x7deaf",
      "effectiveGasPrice": "0x0",
      "from": "0x5d2720b76bbcc2d4f77600c4c9d392bb59a0b0e0",
      "to": null,
      "contractAddress": "0x54f44fbe2943c2196d94831288e716cdeaf56579"
    },
    {
      "status": "0x1",
      "cumulativeGasUsed": "0xe0806",
      "logs": [
        {
          "address": "0x54f44fbe2943c2196d94831288e716cdeaf56579",
          "topics": [
            "0x8be0079c531659141344cd1fd0a4f28419497f9722a3daafe3b4186f6b6457e0",
            "0x0000000000000000000000005d2720b76bbcc2d4f77600c4c9d392bb59a0b0e0",
            "0x000000000000000000000000c47747659b74cc23210dd851b254260b0b039eed"
          ],
          "data": "0x",
          "blockHash": "0x393bf010615ae463c07a87cc0f89b9aa764d15f17f2e4baea73bc1d67c7fe3ea",
          "blockNumber": "0x590aa0a",
          "transactionHash": "0x9e2760f11ed27ba080efbbd0b9cd3f9c25d1b4c0800d68176ad32c5340333939",
          "transactionIndex": "0x5",
          "logIndex": "0x8",
          "removed": false
        }
      ],
      "logsBloom": "0x00000000000000008000000000000000000000000000000000800000000000000000000000000000000000000000000000000000000000000000004000000000000001000008000000000000000000000001000000000000000000000000000000000010000000000000000000000000000000000000000000000000000000400000000000000004000000000000000000000000000000000000000000000000000000000000000000000000200000000000000000000000080000000000000000000000000000000000000000000000000000000000200000000000000000000000000000000000000000000000000000000000000000000000000000000000",
      "type": "0x0",
      "transactionHash": "0x9e2760f11ed27ba080efbbd0b9cd3f9c25d1b4c0800d68176ad32c5340333939",
      "transactionIndex": "0x5",
      "blockHash": "0x393bf010615ae463c07a87cc0f89b9aa764d15f17f2e4baea73bc1d67c7fe3ea",
      "blockNumber": "0x590aa0a",
      "gasUsed": "0x7a77",
      "effectiveGasPrice": "0x0",
      "from": "0x5d2720b76bbcc2d4f77600c4c9d392bb59a0b0e0",
      "to": "0x54f44fbe2943c2196d94831288e716cdeaf56579",
      "contractAddress": null
    },
    {
      "status": "0x1",
      "cumulativeGasUsed": "0x19ea44",
      "logs": [
        {
          "address": "0x34f260fcce222aff0da07ed12e239af38a144682",
          "topics": [
            "0xbc7cd75a20ee27fd9adebab32041f755214dbc6bffa90cc0225b39da2e5c2d3b",
            "0x0000000000000000000000006f40c52c7862d920f4c5becf78bcca90c3370485"
          ],
          "data": "0x",
          "blockHash": "0x393bf010615ae463c07a87cc0f89b9aa764d15f17f2e4baea73bc1d67c7fe3ea",
          "blockNumber": "0x590aa0a",
          "transactionHash": "0xbd20654efc6abbbf0172c6b0d54149f48c5f833c5f654606c4a69d815fe0166a",
          "transactionIndex": "0x6",
          "logIndex": "0x9",
          "removed": false
        },
        {
          "address": "0x34f260fcce222aff0da07ed12e239af38a144682",
          "topics": [
            "0x7e644d79422f17c01e4894b5f4f588d331ebfa28653d42ae832dc59e38c9798f"
          ],
          "data": "0x000000000000000000000000000000000000000000000000000000000000000000000000000000000000000054f44fbe2943c2196d94831288e716cdeaf56579",
          "blockHash": "0x393bf010615ae463c07a87cc0f89b9aa764d15f17f2e4baea73bc1d67c7fe3ea",
          "blockNumber": "0x590aa0a",
          "transactionHash": "0xbd20654efc6abbbf0172c6b0d54149f48c5f833c5f654606c4a69d815fe0166a",
          "transactionIndex": "0x6",
          "logIndex": "0xa",
          "removed": false
        }
      ],
      "logsBloom": "0x00000000000000000000000000000000400000000000000000000000000000000000000000000000000000000000000000000000200000000000000000000000000000000000000000000000000002000000000000000000000000000000000000000000000000000000000000000000000000800000080000000000000002000000000000000000000000000000000000000000000000000000000000800000020000000000001000000000000000000000000000000000000000000000000000000020000000000000000000000000000000000400000000000000000000000000000000000000000000100000000000000000000000000000000000000000",
      "type": "0x0",
      "transactionHash": "0xbd20654efc6abbbf0172c6b0d54149f48c5f833c5f654606c4a69d815fe0166a",
      "transactionIndex": "0x6",
      "blockHash": "0x393bf010615ae463c07a87cc0f89b9aa764d15f17f2e4baea73bc1d67c7fe3ea",
      "blockNumber": "0x590aa0a",
      "gasUsed": "0xbe23e",
      "effectiveGasPrice": "0x0",
      "from": "0x5d2720b76bbcc2d4f77600c4c9d392bb59a0b0e0",
      "to": "0x4e59b44847b379578588920ca78fbf26c0b4956c",
      "contractAddress": null
    },
    {
      "status": "0x1",
      "cumulativeGasUsed": "0xbe1fe",
      "logs": [
        {
          "address": "0x27ad26f569439de66cc0d5e8d7a3abc5df512a52",
          "topics": [
            "0xbc7cd75a20ee27fd9adebab32041f755214dbc6bffa90cc0225b39da2e5c2d3b",
            "0x000000000000000000000000f036896e9441ecaeb1b6d2fc1b982021eed2b439"
          ],
          "data": "0x",
          "blockHash": "0x7d4fb9f1041ab32c5559dfe8b6ad744ba44913a3428adf3b6c84cb3cd8418c06",
          "blockNumber": "0x590aa0b",
          "transactionHash": "0xe9bc3b5a4ac8611635b9cbd3bd6d58f72c3bd208bac1d0b2a4915ef9e2f82084",
          "transactionIndex": "0x0",
          "logIndex": "0x0",
          "removed": false
        },
        {
          "address": "0x27ad26f569439de66cc0d5e8d7a3abc5df512a52",
          "topics": [
            "0x7e644d79422f17c01e4894b5f4f588d331ebfa28653d42ae832dc59e38c9798f"
          ],
          "data": "0x000000000000000000000000000000000000000000000000000000000000000000000000000000000000000054f44fbe2943c2196d94831288e716cdeaf56579",
          "blockHash": "0x7d4fb9f1041ab32c5559dfe8b6ad744ba44913a3428adf3b6c84cb3cd8418c06",
          "blockNumber": "0x590aa0b",
          "transactionHash": "0xe9bc3b5a4ac8611635b9cbd3bd6d58f72c3bd208bac1d0b2a4915ef9e2f82084",
          "transactionIndex": "0x0",
          "logIndex": "0x1",
          "removed": false
        }
      ],
      "logsBloom": "0x00000000000000000000000000000000400000000000000008000000000000000000000000000000000000000000000000000000000000000000000000000020000000000000000000000000000002000000000000000000000000000000000000000000000000000000000000000000000000800002000000000000000000000000000000000000000000000000000000000000000000000000000000800000000000000000000000000000004000000000000000000000000000000000000000000020000000000000000000000400000000000400000000000000000200000000000000000000000000000000000000000000000000000000000000000000",
      "type": "0x0",
      "transactionHash": "0xe9bc3b5a4ac8611635b9cbd3bd6d58f72c3bd208bac1d0b2a4915ef9e2f82084",
      "transactionIndex": "0x0",
      "blockHash": "0x7d4fb9f1041ab32c5559dfe8b6ad744ba44913a3428adf3b6c84cb3cd8418c06",
      "blockNumber": "0x590aa0b",
      "gasUsed": "0xbe1fe",
      "effectiveGasPrice": "0x0",
      "from": "0x5d2720b76bbcc2d4f77600c4c9d392bb59a0b0e0",
      "to": "0x4e59b44847b379578588920ca78fbf26c0b4956c",
      "contractAddress": null
    },
    {
      "status": "0x1",
      "cumulativeGasUsed": "0x17c3fc",
      "logs": [
        {
          "address": "0x6ef11986dc7ebde345134068877efecd18d7430c",
          "topics": [
            "0xbc7cd75a20ee27fd9adebab32041f755214dbc6bffa90cc0225b39da2e5c2d3b",
            "0x0000000000000000000000003a731f40908d6e3dd0883223b107d01f8a75f16a"
          ],
          "data": "0x",
          "blockHash": "0x7d4fb9f1041ab32c5559dfe8b6ad744ba44913a3428adf3b6c84cb3cd8418c06",
          "blockNumber": "0x590aa0b",
          "transactionHash": "0x9f6bd0de3b7911e0402abdce08b4af33cd5ae7882f4dc074a92cdb46c671ad9d",
          "transactionIndex": "0x1",
          "logIndex": "0x2",
          "removed": false
        },
        {
          "address": "0x6ef11986dc7ebde345134068877efecd18d7430c",
          "topics": [
            "0x7e644d79422f17c01e4894b5f4f588d331ebfa28653d42ae832dc59e38c9798f"
          ],
          "data": "0x000000000000000000000000000000000000000000000000000000000000000000000000000000000000000054f44fbe2943c2196d94831288e716cdeaf56579",
          "blockHash": "0x7d4fb9f1041ab32c5559dfe8b6ad744ba44913a3428adf3b6c84cb3cd8418c06",
          "blockNumber": "0x590aa0b",
          "transactionHash": "0x9f6bd0de3b7911e0402abdce08b4af33cd5ae7882f4dc074a92cdb46c671ad9d",
          "transactionIndex": "0x1",
          "logIndex": "0x3",
          "removed": false
        }
      ],
      "logsBloom": "0x00000000000000000000000000000000400000000000000000000000000000000000000000000000000000000000000000000000000000000000000000000000000000000000000000000000000002000000000000000000000080000000000000000000000000000000000000000000000000800000000000000000000000000000000000000000000000000040000000040000000000000000000000800000000000000000000000000000000000000000000000000000000000000000000000000020000000000000000000000000000000000400000000000000000000000000000000000000000010000004000000000000000000000000000000000000",
      "type": "0x0",
      "transactionHash": "0x9f6bd0de3b7911e0402abdce08b4af33cd5ae7882f4dc074a92cdb46c671ad9d",
      "transactionIndex": "0x1",
      "blockHash": "0x7d4fb9f1041ab32c5559dfe8b6ad744ba44913a3428adf3b6c84cb3cd8418c06",
      "blockNumber": "0x590aa0b",
      "gasUsed": "0xbe1fe",
      "effectiveGasPrice": "0x0",
      "from": "0x5d2720b76bbcc2d4f77600c4c9d392bb59a0b0e0",
      "to": "0x4e59b44847b379578588920ca78fbf26c0b4956c",
      "contractAddress": null
    },
    {
      "status": "0x1",
      "cumulativeGasUsed": "0x23a63a",
      "logs": [
        {
          "address": "0x1fad5a713da1f51e2a1ac4ca2e1d621919f0aba0",
          "topics": [
            "0xbc7cd75a20ee27fd9adebab32041f755214dbc6bffa90cc0225b39da2e5c2d3b",
            "0x000000000000000000000000d9ce916d711977d5b27697a13964556b4fb8af1d"
          ],
          "data": "0x",
          "blockHash": "0x7d4fb9f1041ab32c5559dfe8b6ad744ba44913a3428adf3b6c84cb3cd8418c06",
          "blockNumber": "0x590aa0b",
          "transactionHash": "0x1cef1c2f4ee64a865d1c098bc56f27ce7ced0afa3743b9bdc887ac6f8cd356df",
          "transactionIndex": "0x2",
          "logIndex": "0x4",
          "removed": false
        },
        {
          "address": "0x1fad5a713da1f51e2a1ac4ca2e1d621919f0aba0",
          "topics": [
            "0x7e644d79422f17c01e4894b5f4f588d331ebfa28653d42ae832dc59e38c9798f"
          ],
          "data": "0x000000000000000000000000000000000000000000000000000000000000000000000000000000000000000054f44fbe2943c2196d94831288e716cdeaf56579",
          "blockHash": "0x7d4fb9f1041ab32c5559dfe8b6ad744ba44913a3428adf3b6c84cb3cd8418c06",
          "blockNumber": "0x590aa0b",
          "transactionHash": "0x1cef1c2f4ee64a865d1c098bc56f27ce7ced0afa3743b9bdc887ac6f8cd356df",
          "transactionIndex": "0x2",
          "logIndex": "0x5",
          "removed": false
        }
      ],
      "logsBloom": "0x00000000000000000000000004000000400000000008000000000000000000000000000000000000000000000000000001000000000000000000000000000000000000000000000000000000000002000000000000000000000000000000000000000000000000000000000000000000000000800000000000001000000000000200000000000000000000000000000000000000000000000000000000800000000000000000000000000000000000000000000040000000000000000000000000000020000000000000000000000000000000000400000000000000000000000000000000000000000000000000000000000000000000000000000000000000",
      "type": "0x0",
      "transactionHash": "0x1cef1c2f4ee64a865d1c098bc56f27ce7ced0afa3743b9bdc887ac6f8cd356df",
      "transactionIndex": "0x2",
      "blockHash": "0x7d4fb9f1041ab32c5559dfe8b6ad744ba44913a3428adf3b6c84cb3cd8418c06",
      "blockNumber": "0x590aa0b",
      "gasUsed": "0xbe23e",
      "effectiveGasPrice": "0x0",
      "from": "0x5d2720b76bbcc2d4f77600c4c9d392bb59a0b0e0",
      "to": "0x4e59b44847b379578588920ca78fbf26c0b4956c",
      "contractAddress": null
    },
    {
      "status": "0x1",
      "cumulativeGasUsed": "0x2f8878",
      "logs": [
        {
          "address": "0xe69bd25ca06264780e377e8d81a59271299adb36",
          "topics": [
            "0xbc7cd75a20ee27fd9adebab32041f755214dbc6bffa90cc0225b39da2e5c2d3b",
            "0x0000000000000000000000007288d592e1b9013c668801f722be650993d2925a"
          ],
          "data": "0x",
          "blockHash": "0x7d4fb9f1041ab32c5559dfe8b6ad744ba44913a3428adf3b6c84cb3cd8418c06",
          "blockNumber": "0x590aa0b",
          "transactionHash": "0xf1b86bf81ab1d7cf31ee1774f467995971edc4d9c8e98633a4b72089ed26162a",
          "transactionIndex": "0x3",
          "logIndex": "0x6",
          "removed": false
        },
        {
          "address": "0xe69bd25ca06264780e377e8d81a59271299adb36",
          "topics": [
            "0x7e644d79422f17c01e4894b5f4f588d331ebfa28653d42ae832dc59e38c9798f"
          ],
          "data": "0x000000000000000000000000000000000000000000000000000000000000000000000000000000000000000054f44fbe2943c2196d94831288e716cdeaf56579",
          "blockHash": "0x7d4fb9f1041ab32c5559dfe8b6ad744ba44913a3428adf3b6c84cb3cd8418c06",
          "blockNumber": "0x590aa0b",
          "transactionHash": "0xf1b86bf81ab1d7cf31ee1774f467995971edc4d9c8e98633a4b72089ed26162a",
          "transactionIndex": "0x3",
          "logIndex": "0x7",
          "removed": false
        }
      ],
      "logsBloom": "0x00000000000000000000000000000000c00000000000000000000000000000000000000000000000000000000000000000000000000080000000000000000000000000000000000000000000000002000000000000000000000000000000000000000000000000000000000000000000000000800000000000000000000000000100000000000000000000000000000000000000000000000000000000800000000000000000000000000000080000000000000000000000000000000000000000000020000000000000000000000000000000400400000000000000000000000000000000000000000000000000000000100000000000000000000000000000",
      "type": "0x0",
      "transactionHash": "0xf1b86bf81ab1d7cf31ee1774f467995971edc4d9c8e98633a4b72089ed26162a",
      "transactionIndex": "0x3",
      "blockHash": "0x7d4fb9f1041ab32c5559dfe8b6ad744ba44913a3428adf3b6c84cb3cd8418c06",
      "blockNumber": "0x590aa0b",
      "gasUsed": "0xbe23e",
      "effectiveGasPrice": "0x0",
      "from": "0x5d2720b76bbcc2d4f77600c4c9d392bb59a0b0e0",
      "to": "0x4e59b44847b379578588920ca78fbf26c0b4956c",
      "contractAddress": null
    },
    {
      "status": "0x1",
      "cumulativeGasUsed": "0x304b65",
      "logs": [
        {
          "address": "0x34f260fcce222aff0da07ed12e239af38a144682",
          "topics": [
            "0x8be0079c531659141344cd1fd0a4f28419497f9722a3daafe3b4186f6b6457e0",
            "0x0000000000000000000000000000000000000000000000000000000000000000",
            "0x0000000000000000000000005d2720b76bbcc2d4f77600c4c9d392bb59a0b0e0"
          ],
          "data": "0x",
          "blockHash": "0x7d4fb9f1041ab32c5559dfe8b6ad744ba44913a3428adf3b6c84cb3cd8418c06",
          "blockNumber": "0x590aa0b",
          "transactionHash": "0xae1fa2614d7960997756e7f0ffac6fa0fd8e11d2dfd056977846ff4d43cf3c07",
          "transactionIndex": "0x4",
          "logIndex": "0x8",
          "removed": false
        }
      ],
      "logsBloom": "0x00000000000000008000000000000000000000000000000000800000000000000000000000000000000000000000000000000000000000000000004000000000000000000000000000000000000000000001000000000000000000000000000000000000020000000000000000000800000000000000080000000000000002400000000000000000000000000000000000000000000000000000000000000000020000000000000000000000000000000000000000000000080000000000000000000000000000000000000000000000000000000000000000000000000020000000000000000000000000000000000000000000000000000000000000000000",
      "type": "0x0",
      "transactionHash": "0xae1fa2614d7960997756e7f0ffac6fa0fd8e11d2dfd056977846ff4d43cf3c07",
      "transactionIndex": "0x4",
      "blockHash": "0x7d4fb9f1041ab32c5559dfe8b6ad744ba44913a3428adf3b6c84cb3cd8418c06",
      "blockNumber": "0x590aa0b",
      "gasUsed": "0xc2ed",
      "effectiveGasPrice": "0x0",
      "from": "0x5d2720b76bbcc2d4f77600c4c9d392bb59a0b0e0",
      "to": "0x34f260fcce222aff0da07ed12e239af38a144682",
      "contractAddress": null
    },
    {
      "status": "0x1",
      "cumulativeGasUsed": "0x30d364",
      "logs": [
        {
          "address": "0x34f260fcce222aff0da07ed12e239af38a144682",
          "topics": [
            "0x8be0079c531659141344cd1fd0a4f28419497f9722a3daafe3b4186f6b6457e0",
            "0x0000000000000000000000005d2720b76bbcc2d4f77600c4c9d392bb59a0b0e0",
            "0x000000000000000000000000c47747659b74cc23210dd851b254260b0b039eed"
          ],
          "data": "0x",
          "blockHash": "0x7d4fb9f1041ab32c5559dfe8b6ad744ba44913a3428adf3b6c84cb3cd8418c06",
          "blockNumber": "0x590aa0b",
          "transactionHash": "0x57f5cdfcfa2af70a44424d77bd77c17df4fb43e6d5daadcf610a5db019c21e62",
          "transactionIndex": "0x5",
          "logIndex": "0x9",
          "removed": false
        }
      ],
      "logsBloom": "0x00000000000000008000000000000000000000000000000000800000000000000000000000000000000000000000000000000000000000000000004000000000000000000000000000000000000000000001000000000000000000000000000000000010000000000000000000000000000000000000080000000000000002400000000000000004000000000000000000000000000000000000000000000000020000000000000000000000000000000000000000000000080000000000000000000000000000000000000000000000000000000000200000000000000000000000000000000000000000000000000000000000000000000000000000000000",
      "type": "0x0",
      "transactionHash": "0x57f5cdfcfa2af70a44424d77bd77c17df4fb43e6d5daadcf610a5db019c21e62",
      "transactionIndex": "0x5",
      "blockHash": "0x7d4fb9f1041ab32c5559dfe8b6ad744ba44913a3428adf3b6c84cb3cd8418c06",
      "blockNumber": "0x590aa0b",
      "gasUsed": "0x87ff",
      "effectiveGasPrice": "0x0",
      "from": "0x5d2720b76bbcc2d4f77600c4c9d392bb59a0b0e0",
      "to": "0x34f260fcce222aff0da07ed12e239af38a144682",
      "contractAddress": null
    },
    {
      "status": "0x1",
      "cumulativeGasUsed": "0x364a51",
      "logs": [
        {
          "address": "0x27ad26f569439de66cc0d5e8d7a3abc5df512a52",
          "topics": [
            "0x8be0079c531659141344cd1fd0a4f28419497f9722a3daafe3b4186f6b6457e0",
            "0x0000000000000000000000000000000000000000000000000000000000000000",
            "0x0000000000000000000000005d2720b76bbcc2d4f77600c4c9d392bb59a0b0e0"
          ],
          "data": "0x",
          "blockHash": "0x7d4fb9f1041ab32c5559dfe8b6ad744ba44913a3428adf3b6c84cb3cd8418c06",
          "blockNumber": "0x590aa0b",
          "transactionHash": "0xcec10ce1db94a2458704aedc9bfbcbef624976fa81b8a8bd103983da39b2e8c7",
          "transactionIndex": "0x6",
          "logIndex": "0xa",
          "removed": false
        },
        {
          "address": "0x27ad26f569439de66cc0d5e8d7a3abc5df512a52",
          "topics": [
            "0x27fe5f0c1c3b1ed427cc63d0f05759ffdecf9aec9e18d31ef366fc8a6cb5dc3b",
            "0x00000000000000000000000034f260fcce222aff0da07ed12e239af38a144682"
          ],
          "data": "0x",
          "blockHash": "0x7d4fb9f1041ab32c5559dfe8b6ad744ba44913a3428adf3b6c84cb3cd8418c06",
          "blockNumber": "0x590aa0b",
          "transactionHash": "0xcec10ce1db94a2458704aedc9bfbcbef624976fa81b8a8bd103983da39b2e8c7",
          "transactionIndex": "0x6",
          "logIndex": "0xb",
          "removed": false
        },
        {
          "address": "0x27ad26f569439de66cc0d5e8d7a3abc5df512a52",
          "topics": [
            "0x7bfe94ca3147f135fcd6d94ebf61d33fa34fbe904f933ccae66911b9548544f2"
          ],
          "data": "0x00000000000000000000000000000000000000000000000000000000bbf81e00",
          "blockHash": "0x7d4fb9f1041ab32c5559dfe8b6ad744ba44913a3428adf3b6c84cb3cd8418c06",
          "blockNumber": "0x590aa0b",
          "transactionHash": "0xcec10ce1db94a2458704aedc9bfbcbef624976fa81b8a8bd103983da39b2e8c7",
          "transactionIndex": "0x6",
          "logIndex": "0xc",
          "removed": false
        },
        {
          "address": "0x27ad26f569439de66cc0d5e8d7a3abc5df512a52",
          "topics": [
            "0xb08f0607338ad77f5b08ccf831e533cefcc2d373c173e87a8f61144f1d82be1e"
          ],
          "data": "0x00000000000000000000000000000000000000000000d3c21bcecceda1000000",
          "blockHash": "0x7d4fb9f1041ab32c5559dfe8b6ad744ba44913a3428adf3b6c84cb3cd8418c06",
          "blockNumber": "0x590aa0b",
          "transactionHash": "0xcec10ce1db94a2458704aedc9bfbcbef624976fa81b8a8bd103983da39b2e8c7",
          "transactionIndex": "0x6",
          "logIndex": "0xd",
          "removed": false
        },
        {
          "address": "0x27ad26f569439de66cc0d5e8d7a3abc5df512a52",
          "topics": [
            "0x55b488abd19ae7621712324d3d42c2ef7a9575f64f5503103286a1161fb40855"
          ],
          "data": "0x000000000000000000000000000000000000000000000000000000000000004000000000000000000000000000000000000000000000000000000000000000a00000000000000000000000000000000000000000000000000000000000000002635553440000000000000000000000000000000000000000000000000000000063474c4400000000000000000000000000000000000000000000000000000000000000000000000000000000000000000000000000000000000000000000000200000000000000000000000000000000000000000000d3c21bcecceda0ffffff0000000000000000000000000000000000000000000000000000000000000001",
          "blockHash": "0x7d4fb9f1041ab32c5559dfe8b6ad744ba44913a3428adf3b6c84cb3cd8418c06",
          "blockNumber": "0x590aa0b",
          "transactionHash": "0xcec10ce1db94a2458704aedc9bfbcbef624976fa81b8a8bd103983da39b2e8c7",
          "transactionIndex": "0x6",
          "logIndex": "0xe",
          "removed": false
        },
        {
          "address": "0x27ad26f569439de66cc0d5e8d7a3abc5df512a52",
          "topics": [
            "0xfe69856ffb1b1d6cb00c1d8151726e6e95032b1666282eeb293ecadd58b29a6e"
          ],
          "data": "0x0000000000000000000000000000000000000000000000000000000000000000",
          "blockHash": "0x7d4fb9f1041ab32c5559dfe8b6ad744ba44913a3428adf3b6c84cb3cd8418c06",
          "blockNumber": "0x590aa0b",
          "transactionHash": "0xcec10ce1db94a2458704aedc9bfbcbef624976fa81b8a8bd103983da39b2e8c7",
          "transactionIndex": "0x6",
          "logIndex": "0xf",
          "removed": false
        },
        {
          "address": "0x27ad26f569439de66cc0d5e8d7a3abc5df512a52",
          "topics": [
            "0x4da8e8b2223fbbb897200fb9dfb6b986c1b4188621114d407ee8ec363569fc37"
          ],
          "data": "0x0000000000000000000000000000000000000000000000000000000000000000",
          "blockHash": "0x7d4fb9f1041ab32c5559dfe8b6ad744ba44913a3428adf3b6c84cb3cd8418c06",
          "blockNumber": "0x590aa0b",
          "transactionHash": "0xcec10ce1db94a2458704aedc9bfbcbef624976fa81b8a8bd103983da39b2e8c7",
          "transactionIndex": "0x6",
          "logIndex": "0x10",
          "removed": false
        },
        {
          "address": "0x27ad26f569439de66cc0d5e8d7a3abc5df512a52",
          "topics": [
            "0x0c7515883121475b5d9289febf21a9de4ad53f18349a856d90c7acd6e099600b"
          ],
          "data": "0x000000000000000000000000396a429fe95f21475860593c86cc9c17d39f7f69",
          "blockHash": "0x7d4fb9f1041ab32c5559dfe8b6ad744ba44913a3428adf3b6c84cb3cd8418c06",
          "blockNumber": "0x590aa0b",
          "transactionHash": "0xcec10ce1db94a2458704aedc9bfbcbef624976fa81b8a8bd103983da39b2e8c7",
          "transactionIndex": "0x6",
          "logIndex": "0x11",
          "removed": false
        },
        {
          "address": "0x27ad26f569439de66cc0d5e8d7a3abc5df512a52",
          "topics": [
            "0x15ff5079dfbf448e4bb45ac83498c2ecb0833ad35916946bb683ccb49f8013a3"
          ],
          "data": "0x000000000000000000000000396a429fe95f21475860593c86cc9c17d39f7f6900000000000000000000000000000000000000000000d3c21bcecceda1000000",
          "blockHash": "0x7d4fb9f1041ab32c5559dfe8b6ad744ba44913a3428adf3b6c84cb3cd8418c06",
          "blockNumber": "0x590aa0b",
          "transactionHash": "0xcec10ce1db94a2458704aedc9bfbcbef624976fa81b8a8bd103983da39b2e8c7",
          "transactionIndex": "0x6",
          "logIndex": "0x12",
          "removed": false
        }
      ],
      "logsBloom": "0x00000000000000009000000000000000000000000000000008800000000002000000000000200000000000010000000000000000000000000010004001000000004400000000000000000000000000004001000000000000000004040000040080080000020000000000000000000800000000020000000000000000000000400000000000020000000000000000000140000000000000000008000000000000000000000000000000000000004000000000000000010000080000000000000000000000000000000000000000000400000800000080000002000000000020000000000000000008000000000000000000000000000000000000100000000000",
      "type": "0x0",
      "transactionHash": "0xcec10ce1db94a2458704aedc9bfbcbef624976fa81b8a8bd103983da39b2e8c7",
      "transactionIndex": "0x6",
      "blockHash": "0x7d4fb9f1041ab32c5559dfe8b6ad744ba44913a3428adf3b6c84cb3cd8418c06",
      "blockNumber": "0x590aa0b",
      "gasUsed": "0x576ed",
      "effectiveGasPrice": "0x0",
      "from": "0x5d2720b76bbcc2d4f77600c4c9d392bb59a0b0e0",
      "to": "0x27ad26f569439de66cc0d5e8d7a3abc5df512a52",
      "contractAddress": null
    },
    {
      "status": "0x1",
      "cumulativeGasUsed": "0x564d15",
      "logs": [
        {
          "address": "0x1fad5a713da1f51e2a1ac4ca2e1d621919f0aba0",
          "topics": [
            "0x8be0079c531659141344cd1fd0a4f28419497f9722a3daafe3b4186f6b6457e0",
            "0x0000000000000000000000000000000000000000000000000000000000000000",
            "0x0000000000000000000000005d2720b76bbcc2d4f77600c4c9d392bb59a0b0e0"
          ],
          "data": "0x",
          "blockHash": "0x7d4fb9f1041ab32c5559dfe8b6ad744ba44913a3428adf3b6c84cb3cd8418c06",
          "blockNumber": "0x590aa0b",
          "transactionHash": "0x655228fe6da0c35158298868eda0a2797df5f4194a0990888b34c27142305b04",
          "transactionIndex": "0x7",
          "logIndex": "0x13",
          "removed": false
        },
        {
          "address": "0x1fad5a713da1f51e2a1ac4ca2e1d621919f0aba0",
          "topics": [
            "0x865dab7821134b6eb27cba259b40e33bbc1b898e970a535a18a83147f380a51f",
            "0x0000000000000000000000006ef11986dc7ebde345134068877efecd18d7430c"
          ],
          "data": "0x",
          "blockHash": "0x7d4fb9f1041ab32c5559dfe8b6ad744ba44913a3428adf3b6c84cb3cd8418c06",
          "blockNumber": "0x590aa0b",
          "transactionHash": "0x655228fe6da0c35158298868eda0a2797df5f4194a0990888b34c27142305b04",
          "transactionIndex": "0x7",
          "logIndex": "0x14",
          "removed": false
        },
        {
          "address": "0x1fad5a713da1f51e2a1ac4ca2e1d621919f0aba0",
          "topics": [
            "0x0b248ab246a87e452fbedee8dc12dfc53e3f3bfdc6920999062c56dea4ab522a",
            "0x00000000000000000000000027ad26f569439de66cc0d5e8d7a3abc5df512a52"
          ],
          "data": "0x",
          "blockHash": "0x7d4fb9f1041ab32c5559dfe8b6ad744ba44913a3428adf3b6c84cb3cd8418c06",
          "blockNumber": "0x590aa0b",
          "transactionHash": "0x655228fe6da0c35158298868eda0a2797df5f4194a0990888b34c27142305b04",
          "transactionIndex": "0x7",
          "logIndex": "0x15",
          "removed": false
        },
        {
          "address": "0x1fad5a713da1f51e2a1ac4ca2e1d621919f0aba0",
          "topics": [
            "0x6791df7c014d19acfc9b7e3a5d48588a876b014fdd3321f193fef6b0ae785c24",
            "0x000000000000000000000000e69bd25ca06264780e377e8d81a59271299adb36"
          ],
          "data": "0x",
          "blockHash": "0x7d4fb9f1041ab32c5559dfe8b6ad744ba44913a3428adf3b6c84cb3cd8418c06",
          "blockNumber": "0x590aa0b",
          "transactionHash": "0x655228fe6da0c35158298868eda0a2797df5f4194a0990888b34c27142305b04",
          "transactionIndex": "0x7",
          "logIndex": "0x16",
          "removed": false
        },
        {
          "address": "0x1fad5a713da1f51e2a1ac4ca2e1d621919f0aba0",
          "topics": [
            "0x67b34afe551279f03ead7ef1a0ecd16bec18f83ab1a9834c7fda2627374aae9a",
            "0x000000000000000000000000c47747659b74cc23210dd851b254260b0b039eed"
          ],
          "data": "0x",
          "blockHash": "0x7d4fb9f1041ab32c5559dfe8b6ad744ba44913a3428adf3b6c84cb3cd8418c06",
          "blockNumber": "0x590aa0b",
          "transactionHash": "0x655228fe6da0c35158298868eda0a2797df5f4194a0990888b34c27142305b04",
          "transactionIndex": "0x7",
          "logIndex": "0x17",
          "removed": false
        },
        {
          "address": "0x1fad5a713da1f51e2a1ac4ca2e1d621919f0aba0",
          "topics": [
            "0x7f26b83ff96e1f2b6a682f133852f6798a09c465da95921460cefb3847402498"
          ],
          "data": "0x0000000000000000000000000000000000000000000000000000000000000001",
          "blockHash": "0x7d4fb9f1041ab32c5559dfe8b6ad744ba44913a3428adf3b6c84cb3cd8418c06",
          "blockNumber": "0x590aa0b",
          "transactionHash": "0x655228fe6da0c35158298868eda0a2797df5f4194a0990888b34c27142305b04",
          "transactionIndex": "0x7",
          "logIndex": "0x18",
          "removed": false
        }
      ],
      "logsBloom": "0x00000000000000008000000004000000000000000000000000800000000000080000000000000000000000000100000011000000000000000000004000000000000000000000000000000001000080000001020010000000000000000000000000000010020200000000000000000800000000000000000000000000000801400200000000000004000004000000000000400000000080000000002000000000000000000000000000000000000400800000800000000000080000000000000000002000000000000000200000040000000000020000200000000000000020000000000000000000000000000000004000000000000002000000080000000000",
      "type": "0x0",
      "transactionHash": "0x655228fe6da0c35158298868eda0a2797df5f4194a0990888b34c27142305b04",
      "transactionIndex": "0x7",
      "blockHash": "0x7d4fb9f1041ab32c5559dfe8b6ad744ba44913a3428adf3b6c84cb3cd8418c06",
      "blockNumber": "0x590aa0b",
      "gasUsed": "0x2002c4",
      "effectiveGasPrice": "0x0",
      "from": "0x5d2720b76bbcc2d4f77600c4c9d392bb59a0b0e0",
      "to": "0x1fad5a713da1f51e2a1ac4ca2e1d621919f0aba0",
      "contractAddress": null
    },
    {
      "status": "0x1",
      "cumulativeGasUsed": "0x58ed7d",
      "logs": [
        {
          "address": "0xe69bd25ca06264780e377e8d81a59271299adb36",
          "topics": [
            "0x8be0079c531659141344cd1fd0a4f28419497f9722a3daafe3b4186f6b6457e0",
            "0x0000000000000000000000000000000000000000000000000000000000000000",
            "0x0000000000000000000000005d2720b76bbcc2d4f77600c4c9d392bb59a0b0e0"
          ],
          "data": "0x",
          "blockHash": "0x7d4fb9f1041ab32c5559dfe8b6ad744ba44913a3428adf3b6c84cb3cd8418c06",
          "blockNumber": "0x590aa0b",
          "transactionHash": "0x2182a7585b9d6230bb5421ae48e789770b0e4a0db19604fcf384d51a7ce51697",
          "transactionIndex": "0x8",
          "logIndex": "0x19",
          "removed": false
        },
        {
          "address": "0xe69bd25ca06264780e377e8d81a59271299adb36",
          "topics": [
            "0xbbee0329d0a3c6241c11b82178f5039a54f654d789f3d9cbb471bf12f0c77e8f",
            "0x0000000000000000000000001fad5a713da1f51e2a1ac4ca2e1d621919f0aba0"
          ],
          "data": "0x",
          "blockHash": "0x7d4fb9f1041ab32c5559dfe8b6ad744ba44913a3428adf3b6c84cb3cd8418c06",
          "blockNumber": "0x590aa0b",
          "transactionHash": "0x2182a7585b9d6230bb5421ae48e789770b0e4a0db19604fcf384d51a7ce51697",
          "transactionIndex": "0x8",
          "logIndex": "0x1a",
          "removed": false
        },
        {
          "address": "0xe69bd25ca06264780e377e8d81a59271299adb36",
          "topics": [
            "0x37bb6eaf6f31a018c4328eb0343706d73df678b663b21b972351d2528f755af5",
            "0x000000000000000000000000e68b7960b17bd49693b0219a42c5ffe86f512e6f"
          ],
          "data": "0x",
          "blockHash": "0x7d4fb9f1041ab32c5559dfe8b6ad744ba44913a3428adf3b6c84cb3cd8418c06",
          "blockNumber": "0x590aa0b",
          "transactionHash": "0x2182a7585b9d6230bb5421ae48e789770b0e4a0db19604fcf384d51a7ce51697",
          "transactionIndex": "0x8",
          "logIndex": "0x1b",
          "removed": false
        },
        {
          "address": "0xe69bd25ca06264780e377e8d81a59271299adb36",
          "topics": [
            "0x0b248ab246a87e452fbedee8dc12dfc53e3f3bfdc6920999062c56dea4ab522a",
            "0x00000000000000000000000027ad26f569439de66cc0d5e8d7a3abc5df512a52"
          ],
          "data": "0x",
          "blockHash": "0x7d4fb9f1041ab32c5559dfe8b6ad744ba44913a3428adf3b6c84cb3cd8418c06",
          "blockNumber": "0x590aa0b",
          "transactionHash": "0x2182a7585b9d6230bb5421ae48e789770b0e4a0db19604fcf384d51a7ce51697",
          "transactionIndex": "0x8",
          "logIndex": "0x1c",
          "removed": false
        },
        {
          "address": "0xe69bd25ca06264780e377e8d81a59271299adb36",
          "topics": [
            "0x67b34afe551279f03ead7ef1a0ecd16bec18f83ab1a9834c7fda2627374aae9a",
            "0x000000000000000000000000c47747659b74cc23210dd851b254260b0b039eed"
          ],
          "data": "0x",
          "blockHash": "0x7d4fb9f1041ab32c5559dfe8b6ad744ba44913a3428adf3b6c84cb3cd8418c06",
          "blockNumber": "0x590aa0b",
          "transactionHash": "0x2182a7585b9d6230bb5421ae48e789770b0e4a0db19604fcf384d51a7ce51697",
          "transactionIndex": "0x8",
          "logIndex": "0x1d",
          "removed": false
        },
        {
          "address": "0xe69bd25ca06264780e377e8d81a59271299adb36",
          "topics": [
            "0x7f26b83ff96e1f2b6a682f133852f6798a09c465da95921460cefb3847402498"
          ],
          "data": "0x0000000000000000000000000000000000000000000000000000000000000001",
          "blockHash": "0x7d4fb9f1041ab32c5559dfe8b6ad744ba44913a3428adf3b6c84cb3cd8418c06",
          "blockNumber": "0x590aa0b",
          "transactionHash": "0x2182a7585b9d6230bb5421ae48e789770b0e4a0db19604fcf384d51a7ce51697",
          "transactionIndex": "0x8",
          "logIndex": "0x1e",
          "removed": false
        }
      ],
      "logsBloom": "0x00000000000000008000000000000000800000000000000000800000000000080000000010000000000000000000000010000000000000000000004000000000000008000000000000000000000080000201020000000000000400000000000000000010020200000000000000000800000000000000400000000000000000400100000000000004000004000000020000000000000080000000002000000000000000100080400000000000000400000000000000000000080000000000000000002000000800000002000000040000000000400000200000000000000020000000000000000000000000000000000000000000000002000000000000001000",
      "type": "0x0",
      "transactionHash": "0x2182a7585b9d6230bb5421ae48e789770b0e4a0db19604fcf384d51a7ce51697",
      "transactionIndex": "0x8",
      "blockHash": "0x7d4fb9f1041ab32c5559dfe8b6ad744ba44913a3428adf3b6c84cb3cd8418c06",
      "blockNumber": "0x590aa0b",
      "gasUsed": "0x2a068",
      "effectiveGasPrice": "0x0",
      "from": "0x5d2720b76bbcc2d4f77600c4c9d392bb59a0b0e0",
      "to": "0xe69bd25ca06264780e377e8d81a59271299adb36",
      "contractAddress": null
    },
    {
      "status": "0x1",
      "cumulativeGasUsed": "0x5b1b20",
      "logs": [
        {
          "address": "0x6ef11986dc7ebde345134068877efecd18d7430c",
          "topics": [
            "0x8be0079c531659141344cd1fd0a4f28419497f9722a3daafe3b4186f6b6457e0",
            "0x0000000000000000000000000000000000000000000000000000000000000000",
            "0x0000000000000000000000005d2720b76bbcc2d4f77600c4c9d392bb59a0b0e0"
          ],
          "data": "0x",
          "blockHash": "0x7d4fb9f1041ab32c5559dfe8b6ad744ba44913a3428adf3b6c84cb3cd8418c06",
          "blockNumber": "0x590aa0b",
          "transactionHash": "0xa95a15b8c134fb2e5bdadde6f2341b63949886b0172fa7359ba426cc84a18827",
          "transactionIndex": "0x9",
          "logIndex": "0x1f",
          "removed": false
        },
        {
          "address": "0x6ef11986dc7ebde345134068877efecd18d7430c",
          "topics": [
            "0x2ee2cb0721ec60b86190cae5c48e25064b69b35abad32452a4ec99d232033de2",
            "0x0000000000000000000000001fad5a713da1f51e2a1ac4ca2e1d621919f0aba0"
          ],
          "data": "0x",
          "blockHash": "0x7d4fb9f1041ab32c5559dfe8b6ad744ba44913a3428adf3b6c84cb3cd8418c06",
          "blockNumber": "0x590aa0b",
          "transactionHash": "0xa95a15b8c134fb2e5bdadde6f2341b63949886b0172fa7359ba426cc84a18827",
          "transactionIndex": "0x9",
          "logIndex": "0x20",
          "removed": false
        },
        {
          "address": "0x6ef11986dc7ebde345134068877efecd18d7430c",
          "topics": [
            "0xb69e1c416d8be92ac92c8e97e77c4626fba5e6ab50161099f659ea3303479e50",
            "0x0000000000000000000000001fad5a713da1f51e2a1ac4ca2e1d621919f0aba0",
            "0x00000000000000000000000027ad26f569439de66cc0d5e8d7a3abc5df512a52"
          ],
          "data": "0x",
          "blockHash": "0x7d4fb9f1041ab32c5559dfe8b6ad744ba44913a3428adf3b6c84cb3cd8418c06",
          "blockNumber": "0x590aa0b",
          "transactionHash": "0xa95a15b8c134fb2e5bdadde6f2341b63949886b0172fa7359ba426cc84a18827",
          "transactionIndex": "0x9",
          "logIndex": "0x21",
          "removed": false
        }
      ],
      "logsBloom": "0x00000000000100108000000000000000000000000000000000800000000000080000000000000000000000000000000010000000000000000000004000080000000008000000000000000000000080000001000000000000000080000000000000000000020000000000000000000800000000000000400000000000000000400000000000001000000000000000020000040000000000000000000000000000000000000000000000000020000000000000000000000200080000000000000000000000000000000000000000000000000000000000000000000000000020000000000000000000000000000004000000000000000000000000000000000000",
      "type": "0x0",
      "transactionHash": "0xa95a15b8c134fb2e5bdadde6f2341b63949886b0172fa7359ba426cc84a18827",
      "transactionIndex": "0x9",
      "blockHash": "0x7d4fb9f1041ab32c5559dfe8b6ad744ba44913a3428adf3b6c84cb3cd8418c06",
      "blockNumber": "0x590aa0b",
      "gasUsed": "0x22da3",
      "effectiveGasPrice": "0x0",
      "from": "0x5d2720b76bbcc2d4f77600c4c9d392bb59a0b0e0",
      "to": "0x6ef11986dc7ebde345134068877efecd18d7430c",
      "contractAddress": null
    },
    {
      "status": "0x1",
      "cumulativeGasUsed": "0x5c7f70",
      "logs": [
        {
          "address": "0x27ad26f569439de66cc0d5e8d7a3abc5df512a52",
          "topics": [
            "0x784c8f4dbf0ffedd6e72c76501c545a70f8b203b30a26ce542bf92ba87c248a4",
            "0x000000000000000000000000a13625a72aef90645cfce34e25c114629d7855e7"
          ],
          "data": "0x",
          "blockHash": "0x7d4fb9f1041ab32c5559dfe8b6ad744ba44913a3428adf3b6c84cb3cd8418c06",
          "blockNumber": "0x590aa0b",
          "transactionHash": "0xe15079b922b93f726581e8c6405b0c54ae1d2c70bd40ef8917177430e9f8761e",
          "transactionIndex": "0xa",
          "logIndex": "0x22",
          "removed": false
        }
      ],
      "logsBloom": "0x0000000000000000000000000000000000000000000000000c000000000000000000000000000000000000000000000000000000000000000000000000000000000000000000000000000000000000000000000000000000000000000000000000000000000000000000000000000000000000000000200000000000000000000000000010000000000000000000000000000000000000000000000000000000000000000000000000200000004000000000000000000000000000000000000000400000000000000000000000000400000000000000000000000000000000000000000000000000000000000000000000000000000000001000000000000000",
      "type": "0x0",
      "transactionHash": "0xe15079b922b93f726581e8c6405b0c54ae1d2c70bd40ef8917177430e9f8761e",
      "transactionIndex": "0xa",
      "blockHash": "0x7d4fb9f1041ab32c5559dfe8b6ad744ba44913a3428adf3b6c84cb3cd8418c06",
      "blockNumber": "0x590aa0b",
      "gasUsed": "0x16450",
      "effectiveGasPrice": "0x0",
      "from": "0x5d2720b76bbcc2d4f77600c4c9d392bb59a0b0e0",
      "to": "0x27ad26f569439de66cc0d5e8d7a3abc5df512a52",
      "contractAddress": null
    },
    {
      "status": "0x1",
      "cumulativeGasUsed": "0x5de39b",
      "logs": [
        {
          "address": "0x27ad26f569439de66cc0d5e8d7a3abc5df512a52",
          "topics": [
            "0x71bccdb89fff4d914e3d2e472b327e3debaf4c4d6f1dfe528f430447e4cbcf5f",
            "0x0000000000000000000000006ef11986dc7ebde345134068877efecd18d7430c"
          ],
          "data": "0x",
          "blockHash": "0x7d4fb9f1041ab32c5559dfe8b6ad744ba44913a3428adf3b6c84cb3cd8418c06",
          "blockNumber": "0x590aa0b",
          "transactionHash": "0xac1864b8869efa00adb50d3535517120dd51b3b2a0e6e558e9604998343bf04c",
          "transactionIndex": "0xb",
          "logIndex": "0x23",
          "removed": false
        }
      ],
      "logsBloom": "0x00000000000000000000000000000000000000000000000008000000000000000000000000000000000000000000000000000000000000000000000000000000000000000000000000000000000000000000000010000000000000000000000000000000000000000040000000000000000000000000000000000000000000000000000000000000000000000000000000400000000000000000000000000000000000000000000000000000004000000000000000000000008000000000000000000000000000000000200000000400000000000000000000000000000000000000000000000000000000000000000004000000000000000000000000000000",
      "type": "0x0",
      "transactionHash": "0xac1864b8869efa00adb50d3535517120dd51b3b2a0e6e558e9604998343bf04c",
      "transactionIndex": "0xb",
      "blockHash": "0x7d4fb9f1041ab32c5559dfe8b6ad744ba44913a3428adf3b6c84cb3cd8418c06",
      "blockNumber": "0x590aa0b",
      "gasUsed": "0x1642b",
      "effectiveGasPrice": "0x0",
      "from": "0x5d2720b76bbcc2d4f77600c4c9d392bb59a0b0e0",
      "to": "0x27ad26f569439de66cc0d5e8d7a3abc5df512a52",
      "contractAddress": null
    },
    {
      "status": "0x1",
      "cumulativeGasUsed": "0x5ea184",
      "logs": [
        {
          "address": "0x27ad26f569439de66cc0d5e8d7a3abc5df512a52",
          "topics": [
            "0x3139419c41cdd7abca84fa19dd21118cd285d3e2ce1a9444e8161ce9fa62fdcd",
            "0x000000000000000000000000c47747659b74cc23210dd851b254260b0b039eed"
          ],
          "data": "0x",
          "blockHash": "0x7d4fb9f1041ab32c5559dfe8b6ad744ba44913a3428adf3b6c84cb3cd8418c06",
          "blockNumber": "0x590aa0b",
          "transactionHash": "0x6ee9da7b9f06fa8abb6b3d1ee0823b453ec42350555c9b65af47eb72b893a43b",
          "transactionIndex": "0xc",
          "logIndex": "0x24",
          "removed": false
        }
      ],
      "logsBloom": "0x00000000000000000000000000000000000000000000000008000000000000000000000000000000000000000000000000000000000000000000000000000000000000000000000000000000000000000000000000000000400000000000000000000010000000000000000000000000000000000000000000000000000000000000000000000004000000000000000000000000000000000000000000000000000000000000000000000000004000000000000000000000000000000000000000000000000000000000000000000400000000000000200000000000000000000000000000000000000000000000000000000004000000000000000000000004",
      "type": "0x0",
      "transactionHash": "0x6ee9da7b9f06fa8abb6b3d1ee0823b453ec42350555c9b65af47eb72b893a43b",
      "transactionIndex": "0xc",
      "blockHash": "0x7d4fb9f1041ab32c5559dfe8b6ad744ba44913a3428adf3b6c84cb3cd8418c06",
      "blockNumber": "0x590aa0b",
      "gasUsed": "0xbde9",
      "effectiveGasPrice": "0x0",
      "from": "0x5d2720b76bbcc2d4f77600c4c9d392bb59a0b0e0",
      "to": "0x27ad26f569439de66cc0d5e8d7a3abc5df512a52",
      "contractAddress": null
    },
    {
      "status": "0x1",
      "cumulativeGasUsed": "0x6005d5",
      "logs": [
        {
          "address": "0x27ad26f569439de66cc0d5e8d7a3abc5df512a52",
          "topics": [
            "0xd78793225285ecf9cf5f0f84b1cdc335c2cb4d6810ff0b9fd156ad6026c89cea",
            "0x000000000000000000000000c47747659b74cc23210dd851b254260b0b039eed"
          ],
          "data": "0x",
          "blockHash": "0x7d4fb9f1041ab32c5559dfe8b6ad744ba44913a3428adf3b6c84cb3cd8418c06",
          "blockNumber": "0x590aa0b",
          "transactionHash": "0x0ca340860f7a0082c972a632d64789a1bec368f705be79999bf9bd850b66df92",
          "transactionIndex": "0xd",
          "logIndex": "0x25",
          "removed": false
        }
      ],
      "logsBloom": "0x00000000000000000000000000000000000000000000000008000000000000000000000000000000000000000000000000000000000000000000000000000000000000000000000000000000000000000000000000000000000000000000000001000110000000000000000000000000000000000000000000000000000000000000000000000004000000000000000000000000000000000000000000000000000000000000000000000000004000000000000000000000000000000000000000000000000000000000000000000400000000000000200000000000000000000000000000000000000000000000000000000000000000000000010000000000",
      "type": "0x0",
      "transactionHash": "0x0ca340860f7a0082c972a632d64789a1bec368f705be79999bf9bd850b66df92",
      "transactionIndex": "0xd",
      "blockHash": "0x7d4fb9f1041ab32c5559dfe8b6ad744ba44913a3428adf3b6c84cb3cd8418c06",
      "blockNumber": "0x590aa0b",
      "gasUsed": "0x16451",
      "effectiveGasPrice": "0x0",
      "from": "0x5d2720b76bbcc2d4f77600c4c9d392bb59a0b0e0",
      "to": "0x27ad26f569439de66cc0d5e8d7a3abc5df512a52",
      "contractAddress": null
    },
    {
      "status": "0x1",
      "cumulativeGasUsed": "0x617cf3",
      "logs": [
        {
          "address": "0x6ef11986dc7ebde345134068877efecd18d7430c",
          "topics": [
            "0x3ed50aa123e1e547aa90fcf88624ef8278d253e252bb1feac75eda93e1905bb6"
          ],
          "data": "0xf8d028730f58a008390c265fca425bb912e4c7efa370d4cef756a06f5029acd2000000000000000000000000396a429fe95f21475860593c86cc9c17d39f7f690000000000000000000000000000000000000000000000000000000000093a800000000000000000000000000000000000000000000000000000000000278d000000000000000000000000000000000000000000000000000000000000009c400000000000000000000000000000000000000000000000000000000000009c400000000000000000000000000000000000000000000000000000000000013880000000000000000000000000000000000000000000000000000000000001388000000000000000000000000000000000000000000000000000000000000000000000000000000000000000000000000000000000000000000000000000000003",
          "blockHash": "0x7d4fb9f1041ab32c5559dfe8b6ad744ba44913a3428adf3b6c84cb3cd8418c06",
          "blockNumber": "0x590aa0b",
          "transactionHash": "0xff254cd3bd77308ab94d543ff6e9b910bc7ea86b72b0670a7a194a4fc738d2e9",
          "transactionIndex": "0xe",
          "logIndex": "0x26",
          "removed": false
        }
      ],
      "logsBloom": "0x00000000000000000000000000000000000000000000000000000000000000000000000000000000000000000000000000000000000000000000000000000000000000000000000000000000000000000000000000000000000080000000000000000000000000000000000000000000000000000000000000000000000000000000000000000000000000000000000000040000000000000000000080000000000100000000000000000000000000000000000000000000000000000000000000000000000000000000000000000000000000000000000000000000000000000000000000000000000008000004000000000000000000000000000000000000",
      "type": "0x0",
      "transactionHash": "0xff254cd3bd77308ab94d543ff6e9b910bc7ea86b72b0670a7a194a4fc738d2e9",
      "transactionIndex": "0xe",
      "blockHash": "0x7d4fb9f1041ab32c5559dfe8b6ad744ba44913a3428adf3b6c84cb3cd8418c06",
      "blockNumber": "0x590aa0b",
      "gasUsed": "0x1771e",
      "effectiveGasPrice": "0x0",
      "from": "0x5d2720b76bbcc2d4f77600c4c9d392bb59a0b0e0",
      "to": "0x6ef11986dc7ebde345134068877efecd18d7430c",
      "contractAddress": null
    },
    {
      "status": "0x1",
      "cumulativeGasUsed": "0x620238",
      "logs": [
        {
          "address": "0x6ef11986dc7ebde345134068877efecd18d7430c",
          "topics": [
            "0x8be0079c531659141344cd1fd0a4f28419497f9722a3daafe3b4186f6b6457e0",
            "0x0000000000000000000000005d2720b76bbcc2d4f77600c4c9d392bb59a0b0e0",
            "0x000000000000000000000000c47747659b74cc23210dd851b254260b0b039eed"
          ],
          "data": "0x",
          "blockHash": "0x7d4fb9f1041ab32c5559dfe8b6ad744ba44913a3428adf3b6c84cb3cd8418c06",
          "blockNumber": "0x590aa0b",
          "transactionHash": "0x44b7170d5095a5505c1b4e7e8512323312a64fc279d1cf75a9da6a505b2d808d",
          "transactionIndex": "0xf",
          "logIndex": "0x27",
          "removed": false
        }
      ],
      "logsBloom": "0x00000000000000008000000000000000000000000000000000800000000000000000000000000000000000000000000000000000000000000000004000000000000000000000000000000000000000000001000000000000000080000000000000000010000000000000000000000000000000000000000000000000000000400000000000000004000000000000000000040000000000000000000000000000000000000000000000000000000000000000000000000000080000000000000000000000000000000000000000000000000000000000200000000000000000000000000000000000000000000004000000000000000000000000000000000000",
      "type": "0x0",
      "transactionHash": "0x44b7170d5095a5505c1b4e7e8512323312a64fc279d1cf75a9da6a505b2d808d",
      "transactionIndex": "0xf",
      "blockHash": "0x7d4fb9f1041ab32c5559dfe8b6ad744ba44913a3428adf3b6c84cb3cd8418c06",
      "blockNumber": "0x590aa0b",
      "gasUsed": "0x8545",
      "effectiveGasPrice": "0x0",
      "from": "0x5d2720b76bbcc2d4f77600c4c9d392bb59a0b0e0",
      "to": "0x6ef11986dc7ebde345134068877efecd18d7430c",
      "contractAddress": null
    },
    {
      "status": "0x1",
      "cumulativeGasUsed": "0x628a4d",
      "logs": [
        {
          "address": "0x27ad26f569439de66cc0d5e8d7a3abc5df512a52",
          "topics": [
            "0x8be0079c531659141344cd1fd0a4f28419497f9722a3daafe3b4186f6b6457e0",
            "0x0000000000000000000000005d2720b76bbcc2d4f77600c4c9d392bb59a0b0e0",
            "0x000000000000000000000000c47747659b74cc23210dd851b254260b0b039eed"
          ],
          "data": "0x",
          "blockHash": "0x7d4fb9f1041ab32c5559dfe8b6ad744ba44913a3428adf3b6c84cb3cd8418c06",
          "blockNumber": "0x590aa0b",
          "transactionHash": "0xe9a07517a3fd63fc24a0ec8cafb4b8f310d56902356ae826b16f90e4113bb264",
          "transactionIndex": "0x10",
          "logIndex": "0x28",
          "removed": false
        }
      ],
      "logsBloom": "0x00000000000000008000000000000000000000000000000008800000000000000000000000000000000000000000000000000000000000000000004000000000000000000000000000000000000000000001000000000000000000000000000000000010000000000000000000000000000000000000000000000000000000400000000000000004000000000000000000000000000000000000000000000000000000000000000000000000004000000000000000000000080000000000000000000000000000000000000000000400000000000000200000000000000000000000000000000000000000000000000000000000000000000000000000000000",
      "type": "0x0",
      "transactionHash": "0xe9a07517a3fd63fc24a0ec8cafb4b8f310d56902356ae826b16f90e4113bb264",
      "transactionIndex": "0x10",
      "blockHash": "0x7d4fb9f1041ab32c5559dfe8b6ad744ba44913a3428adf3b6c84cb3cd8418c06",
      "blockNumber": "0x590aa0b",
      "gasUsed": "0x8815",
      "effectiveGasPrice": "0x0",
      "from": "0x5d2720b76bbcc2d4f77600c4c9d392bb59a0b0e0",
      "to": "0x27ad26f569439de66cc0d5e8d7a3abc5df512a52",
      "contractAddress": null
    },
    {
      "status": "0x1",
      "cumulativeGasUsed": "0x630f45",
      "logs": [
        {
          "address": "0x1fad5a713da1f51e2a1ac4ca2e1d621919f0aba0",
          "topics": [
            "0x8be0079c531659141344cd1fd0a4f28419497f9722a3daafe3b4186f6b6457e0",
            "0x0000000000000000000000005d2720b76bbcc2d4f77600c4c9d392bb59a0b0e0",
            "0x000000000000000000000000c47747659b74cc23210dd851b254260b0b039eed"
          ],
          "data": "0x",
          "blockHash": "0x7d4fb9f1041ab32c5559dfe8b6ad744ba44913a3428adf3b6c84cb3cd8418c06",
          "blockNumber": "0x590aa0b",
          "transactionHash": "0x32f64c0ed6be139a38055375626a540ac22cf623a089356a0856610e7131df86",
          "transactionIndex": "0x11",
          "logIndex": "0x29",
          "removed": false
        }
      ],
      "logsBloom": "0x00000000000000008000000004000000000000000000000000800000000000000000000000000000000000000000000001000000000000000000004000000000000000000000000000000000000000000001000000000000000000000000000000000010000000000000000000000000000000000000000000000000000000400200000000000004000000000000000000000000000000000000000000000000000000000000000000000000000000000000000000000000080000000000000000000000000000000000000000000000000000000000200000000000000000000000000000000000000000000000000000000000000000000000000000000000",
      "type": "0x0",
      "transactionHash": "0x32f64c0ed6be139a38055375626a540ac22cf623a089356a0856610e7131df86",
      "transactionIndex": "0x11",
      "blockHash": "0x7d4fb9f1041ab32c5559dfe8b6ad744ba44913a3428adf3b6c84cb3cd8418c06",
      "blockNumber": "0x590aa0b",
      "gasUsed": "0x84f8",
      "effectiveGasPrice": "0x0",
      "from": "0x5d2720b76bbcc2d4f77600c4c9d392bb59a0b0e0",
      "to": "0x1fad5a713da1f51e2a1ac4ca2e1d621919f0aba0",
      "contractAddress": null
    },
    {
      "status": "0x1",
      "cumulativeGasUsed": "0x639437",
      "logs": [
        {
          "address": "0xe69bd25ca06264780e377e8d81a59271299adb36",
          "topics": [
            "0x8be0079c531659141344cd1fd0a4f28419497f9722a3daafe3b4186f6b6457e0",
            "0x0000000000000000000000005d2720b76bbcc2d4f77600c4c9d392bb59a0b0e0",
            "0x000000000000000000000000c47747659b74cc23210dd851b254260b0b039eed"
          ],
          "data": "0x",
          "blockHash": "0x7d4fb9f1041ab32c5559dfe8b6ad744ba44913a3428adf3b6c84cb3cd8418c06",
          "blockNumber": "0x590aa0b",
          "transactionHash": "0xa55cbad0ec677e35c0cb5dff7933170dcd4d79e53d4531dbf45353b29325fc37",
          "transactionIndex": "0x12",
          "logIndex": "0x2a",
          "removed": false
        }
      ],
      "logsBloom": "0x00000000000000008000000000000000800000000000000000800000000000000000000000000000000000000000000000000000000000000000004000000000000000000000000000000000000000000001000000000000000000000000000000000010000000000000000000000000000000000000000000000000000000400100000000000004000000000000000000000000000000000000000000000000000000000000000000000000000000000000000000000000080000000000000000000000000000000000000000000000000000400000200000000000000000000000000000000000000000000000000000000000000000000000000000000000",
      "type": "0x0",
      "transactionHash": "0xa55cbad0ec677e35c0cb5dff7933170dcd4d79e53d4531dbf45353b29325fc37",
      "transactionIndex": "0x12",
      "blockHash": "0x7d4fb9f1041ab32c5559dfe8b6ad744ba44913a3428adf3b6c84cb3cd8418c06",
      "blockNumber": "0x590aa0b",
      "gasUsed": "0x84f2",
      "effectiveGasPrice": "0x0",
      "from": "0x5d2720b76bbcc2d4f77600c4c9d392bb59a0b0e0",
      "to": "0xe69bd25ca06264780e377e8d81a59271299adb36",
      "contractAddress": null
    }
  ],
  "libraries": [],
  "pending": [],
  "returns": {},
  "timestamp": 1757356784460,
  "chain": 50,
  "commit": "3499158"
}