{
  "transactions": [
    {
      "hash": "0xb08137030a62e9588d8c47e5e8647ca58efcbbb1788d6cc3f3cdda8842c1f2c6",
      "transactionType": "CALL",
      "contractName": null,
      "contractAddress": "0x12147ff996f20cca15eb35ad5c701822526ebb1a",
      "function": "setPrice(uint256)",
      "arguments": [
        "1100000000000000000"
      ],
      "transaction": {
        "from": "0x56fd3f2bee130e9867942d0f463a16fbe49b8d81",
        "to": "0x12147ff996f20cca15eb35ad5c701822526ebb1a",
        "gas": "0x8f53",
        "value": "0x0",
        "input": "0x91b7f5ed0000000000000000000000000000000000000000000000000f43fc2c04ee0000",
        "nonce": "0x1067",
        "chainId": "0xaef3"
      },
      "additionalContracts": [],
      "isFixedGasLimit": false
    },
    {
      "hash": "0x7e6de85081b903f906ca52ad38b6ca7502f3e4d963314a0ca4aea8b7f8b84a68",
      "transactionType": "CALL",
      "contractName": null,
      "contractAddress": "0x9e2d4412d0f434cc85500b79447d9323a7416f09",
      "function": "approve(address,uint256)",
      "arguments": [
        "0x67F5593588826046498A3db93CAB6be3d59D2c9a",
        "115792089237316195423570985008687907853269984665640564039457584007913129639935"
      ],
      "transaction": {
        "from": "0x56fd3f2bee130e9867942d0f463a16fbe49b8d81",
        "to": "0x9e2d4412d0f434cc85500b79447d9323a7416f09",
        "gas": "0xfbfa",
        "value": "0x0",
        "input": "0x095ea7b300000000000000000000000067f5593588826046498a3db93cab6be3d59d2c9affffffffffffffffffffffffffffffffffffffffffffffffffffffffffffffff",
        "nonce": "0x1068",
        "chainId": "0xaef3"
      },
      "additionalContracts": [],
      "isFixedGasLimit": false
    },
    {
      "hash": "0x7607b27751c7684023bccdaf1150051bef4205649809782f8d4c17c2667935c3",
      "transactionType": "CALL",
      "contractName": null,
      "contractAddress": "0x67f5593588826046498a3db93cab6be3d59d2c9a",
      "function": "openTrove(address,uint256,uint256,uint256,uint256,uint256,uint256,uint256,address,address,address)",
      "arguments": [
        "0x56fD3F2bEE130e9867942D0F463a16fBE49B8d81",
        "1750415956",
        "30000000000000000000000",
        "10000000000000000000000",
        "0",
        "0",
        "100000000000000000",
        "115792089237316195423570985008687907853269984665640564039457584007913129639935",
        "0x0000000000000000000000000000000000000000",
        "0x0000000000000000000000000000000000000000",
        "0x0000000000000000000000000000000000000000"
      ],
      "transaction": {
        "from": "0x56fd3f2bee130e9867942d0f463a16fbe49b8d81",
        "to": "0x67f5593588826046498a3db93cab6be3d59d2c9a",
        "gas": "0x105fc2",
        "value": "0x0",
        "input": "0x9cb90ba600000000000000000000000056fd3f2bee130e9867942d0f463a16fbe49b8d810000000000000000000000000000000000000000000000000000000068553a5400000000000000000000000000000000000000000000065a4da25d3016c0000000000000000000000000000000000000000000000000021e19e0c9bab240000000000000000000000000000000000000000000000000000000000000000000000000000000000000000000000000000000000000000000000000000000000000000000000000000000000000000000000000000000000000016345785d8a0000ffffffffffffffffffffffffffffffffffffffffffffffffffffffffffffffff000000000000000000000000000000000000000000000000000000000000000000000000000000000000000000000000000000000000000000000000000000000000000000000000000000000000000000000000000000000000000000000000",
        "nonce": "0x1069",
        "chainId": "0xaef3"
      },
      "additionalContracts": [],
      "isFixedGasLimit": false
    },
    {
      "hash": "0x37f3afb87820bce94e4b9797e2446e8fd91ce9bcc28e4be083fd4cacf80293ad",
      "transactionType": "CALL",
      "contractName": null,
      "contractAddress": "0x46504ef8f2fd6858e8a94c662350eb62ce1b627f",
      "function": "transfer(address,uint256)",
      "arguments": [
        "0xF50858a1C0507E57c08A2798dCcAecfDBB5feD50",
        "100000000000000000000"
      ],
      "transaction": {
        "from": "0x56fd3f2bee130e9867942d0f463a16fbe49b8d81",
        "to": "0x46504ef8f2fd6858e8a94c662350eb62ce1b627f",
        "gas": "0x14f55",
        "value": "0x0",
        "input": "0xa9059cbb000000000000000000000000f50858a1c0507e57c08a2798dccaecfdbb5fed500000000000000000000000000000000000000000000000056bc75e2d63100000",
        "nonce": "0x106a",
        "chainId": "0xaef3"
      },
      "additionalContracts": [],
      "isFixedGasLimit": false
    }
  ],
  "receipts": [
    {
      "status": "0x1",
      "cumulativeGasUsed": "0x19b86",
      "logs": [],
      "logsBloom": "0x00000000000000000000000000000000000000000000000000000000000000000000000000000000000000000000000000000000000000000000000000000000000000000000000000000000000000000000000000000000000000000000000000000000000000000000000000000000000000000000000000000000000000000000000000000000000000000000000000000000000000000000000000000000000000000000000000000000000000000000000000000000000000000000000000000000000000000000000000000000000000000000000000000000000000000000000000000000000000000000000000000000000000000000000000000000",
      "type": "0x0",
      "transactionHash": "0xb08137030a62e9588d8c47e5e8647ca58efcbbb1788d6cc3f3cdda8842c1f2c6",
      "transactionIndex": "0x2",
      "blockHash": "0xf0f7c4d4a514ac18013f501c7e341b5d6c0e82348ff8a58d15c4850c25d22264",
      "blockNumber": "0x2f2b5b5",
      "gasUsed": "0x67c4",
      "effectiveGasPrice": "0x5d22cfc40",
      "from": "0x56fd3f2bee130e9867942d0f463a16fbe49b8d81",
      "to": "0x12147ff996f20cca15eb35ad5c701822526ebb1a",
      "contractAddress": null,
      "l1BaseFeeScalar": "0x0",
      "l1BlobBaseFee": "0x1",
      "l1BlobBaseFeeScalar": "0x0",
      "l1Fee": "0x0",
      "l1GasPrice": "0xf",
      "l1GasUsed": "0x640"
    },
    {
      "status": "0x1",
      "cumulativeGasUsed": "0x251f4",
      "logs": [
        {
          "address": "0x9e2d4412d0f434cc85500b79447d9323a7416f09",
          "topics": [
            "0x8c5be1e5ebec7d5bd14f71427d1e84f3dd0314c0f7b2291e5b200ac8c7c3b925",
            "0x00000000000000000000000056fd3f2bee130e9867942d0f463a16fbe49b8d81",
            "0x00000000000000000000000067f5593588826046498a3db93cab6be3d59d2c9a"
          ],
          "data": "0xffffffffffffffffffffffffffffffffffffffffffffffffffffffffffffffff",
          "blockHash": "0xf0f7c4d4a514ac18013f501c7e341b5d6c0e82348ff8a58d15c4850c25d22264",
          "blockNumber": "0x2f2b5b5",
          "transactionHash": "0x7e6de85081b903f906ca52ad38b6ca7502f3e4d963314a0ca4aea8b7f8b84a68",
          "transactionIndex": "0x3",
          "logIndex": "0x1",
          "removed": false
        }
      ],
      "logsBloom": "0x00000000000000000000080000000000000000000000000020000000000000000000080000000000000000000000010000000000000000000000000000200000000000000000000000000000000000000000100000000000000000000000000000000000000000000000000000000000000000000000000000000000000000000000000000000000000000000000000000000000000000000000000000000000020000000000000000000000000000000400000000000000000010000000000002000000000000000000000000000000000000000000000000000000000000000014000000000000000000000000000000000000000000000000000000000000",
      "type": "0x0",
      "transactionHash": "0x7e6de85081b903f906ca52ad38b6ca7502f3e4d963314a0ca4aea8b7f8b84a68",
      "transactionIndex": "0x3",
      "blockHash": "0xf0f7c4d4a514ac18013f501c7e341b5d6c0e82348ff8a58d15c4850c25d22264",
      "blockNumber": "0x2f2b5b5",
      "gasUsed": "0xb66e",
      "effectiveGasPrice": "0x5d22cfc40",
      "from": "0x56fd3f2bee130e9867942d0f463a16fbe49b8d81",
      "to": "0x9e2d4412d0f434cc85500b79447d9323a7416f09",
      "contractAddress": null,
      "l1BaseFeeScalar": "0x0",
      "l1BlobBaseFee": "0x1",
      "l1BlobBaseFeeScalar": "0x0",
      "l1Fee": "0x0",
      "l1GasPrice": "0xf",
      "l1GasUsed": "0x640"
    },
    {
      "status": "0x1",
      "cumulativeGasUsed": "0xd841d",
      "logs": [
        {
          "address": "0x12147ff996f20cca15eb35ad5c701822526ebb1a",
          "topics": [
            "0x4d29de21de555af78a62fc82dd4bc05e9ae5b0660a37f04729527e0f22780cd3"
          ],
          "data": "0x0000000000000000000000000000000000000000000000000f43fc2c04ee0000",
          "blockHash": "0xf0f7c4d4a514ac18013f501c7e341b5d6c0e82348ff8a58d15c4850c25d22264",
          "blockNumber": "0x2f2b5b5",
          "transactionHash": "0x7607b27751c7684023bccdaf1150051bef4205649809782f8d4c17c2667935c3",
          "transactionIndex": "0x4",
          "logIndex": "0x2",
          "removed": false
        },
        {
          "address": "0x67f5593588826046498a3db93cab6be3d59d2c9a",
          "topics": [
            "0x3942babd464ceb1c7d319f75245a8cd41334592b45507f072e7020e63c22a8dc",
            "0x50e1fb81597fdb9bd2b1824f9851422ae0519fd66c27bec584a5d8fa2f42e3d6"
          ],
          "data": "0x0000000000000000000000000000000000000000000000000000000000000000",
          "blockHash": "0xf0f7c4d4a514ac18013f501c7e341b5d6c0e82348ff8a58d15c4850c25d22264",
          "blockNumber": "0x2f2b5b5",
          "transactionHash": "0x7607b27751c7684023bccdaf1150051bef4205649809782f8d4c17c2667935c3",
          "transactionIndex": "0x4",
          "logIndex": "0x3",
          "removed": false
        },
        {
          "address": "0x67f5593588826046498a3db93cab6be3d59d2c9a",
          "topics": [
            "0x649442545e0f313a6d8087b19bc47bd2bd9b63f79d23a773446e00d2ea01d169",
            "0x50e1fb81597fdb9bd2b1824f9851422ae0519fd66c27bec584a5d8fa2f42e3d6"
          ],
          "data": "0x00000000000000000000000000000000000000000000000000000000000000000000000000000000000000000000000000000000000000000000000000000000",
          "blockHash": "0xf0f7c4d4a514ac18013f501c7e341b5d6c0e82348ff8a58d15c4850c25d22264",
          "blockNumber": "0x2f2b5b5",
          "transactionHash": "0x7607b27751c7684023bccdaf1150051bef4205649809782f8d4c17c2667935c3",
          "transactionIndex": "0x4",
          "logIndex": "0x4",
          "removed": false
        },
        {
          "address": "0x46504ef8f2fd6858e8a94c662350eb62ce1b627f",
          "topics": [
            "0xddf252ad1be2c89b69c2b068fc378daa952ba7f163c4a11628f55a4df523b3ef",
            "0x0000000000000000000000000000000000000000000000000000000000000000",
            "0x00000000000000000000000056fd3f2bee130e9867942d0f463a16fbe49b8d81"
          ],
          "data": "0x00000000000000000000000000000000000000000000000042898f093095cee8",
          "blockHash": "0xf0f7c4d4a514ac18013f501c7e341b5d6c0e82348ff8a58d15c4850c25d22264",
          "blockNumber": "0x2f2b5b5",
          "transactionHash": "0x7607b27751c7684023bccdaf1150051bef4205649809782f8d4c17c2667935c3",
          "transactionIndex": "0x4",
          "logIndex": "0x5",
          "removed": false
        },
        {
          "address": "0x46504ef8f2fd6858e8a94c662350eb62ce1b627f",
          "topics": [
            "0xddf252ad1be2c89b69c2b068fc378daa952ba7f163c4a11628f55a4df523b3ef",
            "0x0000000000000000000000000000000000000000000000000000000000000000",
            "0x000000000000000000000000c74a5856070bddde7746b9c91353bd466eebe958"
          ],
          "data": "0x000000000000000000000000000000000000000000000000c79cad1b91c16cb5",
          "blockHash": "0xf0f7c4d4a514ac18013f501c7e341b5d6c0e82348ff8a58d15c4850c25d22264",
          "blockNumber": "0x2f2b5b5",
          "transactionHash": "0x7607b27751c7684023bccdaf1150051bef4205649809782f8d4c17c2667935c3",
          "transactionIndex": "0x4",
          "logIndex": "0x6",
          "removed": false
        },
        {
          "address": "0x9e2d4412d0f434cc85500b79447d9323a7416f09",
          "topics": [
            "0xddf252ad1be2c89b69c2b068fc378daa952ba7f163c4a11628f55a4df523b3ef",
            "0x00000000000000000000000056fd3f2bee130e9867942d0f463a16fbe49b8d81",
            "0x000000000000000000000000efa2b64170bb5eae5561e09e8675d0b0213d2809"
          ],
          "data": "0x00000000000000000000000000000000000000000000065a4da25d3016c00000",
          "blockHash": "0xf0f7c4d4a514ac18013f501c7e341b5d6c0e82348ff8a58d15c4850c25d22264",
          "blockNumber": "0x2f2b5b5",
          "transactionHash": "0x7607b27751c7684023bccdaf1150051bef4205649809782f8d4c17c2667935c3",
          "transactionIndex": "0x4",
          "logIndex": "0x7",
          "removed": false
        },
        {
          "address": "0xefa2b64170bb5eae5561e09e8675d0b0213d2809",
          "topics": [
            "0x9bbe217b4113a0fc957e51f8db99c9989f520e3c6bcca7a8e12c6316eaf995bf"
          ],
          "data": "0x00000000000000000000000000000000000000000000065a4da25d3016c00000",
          "blockHash": "0xf0f7c4d4a514ac18013f501c7e341b5d6c0e82348ff8a58d15c4850c25d22264",
          "blockNumber": "0x2f2b5b5",
          "transactionHash": "0x7607b27751c7684023bccdaf1150051bef4205649809782f8d4c17c2667935c3",
          "transactionIndex": "0x4",
          "logIndex": "0x8",
          "removed": false
        },
        {
          "address": "0x46504ef8f2fd6858e8a94c662350eb62ce1b627f",
          "topics": [
            "0xddf252ad1be2c89b69c2b068fc378daa952ba7f163c4a11628f55a4df523b3ef",
            "0x0000000000000000000000000000000000000000000000000000000000000000",
            "0x00000000000000000000000056fd3f2bee130e9867942d0f463a16fbe49b8d81"
          ],
          "data": "0x00000000000000000000000000000000000000000000021e19e0c9bab2400000",
          "blockHash": "0xf0f7c4d4a514ac18013f501c7e341b5d6c0e82348ff8a58d15c4850c25d22264",
          "blockNumber": "0x2f2b5b5",
          "transactionHash": "0x7607b27751c7684023bccdaf1150051bef4205649809782f8d4c17c2667935c3",
          "transactionIndex": "0x4",
          "logIndex": "0x9",
          "removed": false
        },
        {
          "address": "0x9e2d4412d0f434cc85500b79447d9323a7416f09",
          "topics": [
            "0xddf252ad1be2c89b69c2b068fc378daa952ba7f163c4a11628f55a4df523b3ef",
            "0x00000000000000000000000056fd3f2bee130e9867942d0f463a16fbe49b8d81",
            "0x0000000000000000000000005ad957426d00e4f1f1e473d5bcbc2c41324ace4c"
          ],
          "data": "0x00000000000000000000000000000000000000000000000000853a0d2313c000",
          "blockHash": "0xf0f7c4d4a514ac18013f501c7e341b5d6c0e82348ff8a58d15c4850c25d22264",
          "blockNumber": "0x2f2b5b5",
          "transactionHash": "0x7607b27751c7684023bccdaf1150051bef4205649809782f8d4c17c2667935c3",
          "transactionIndex": "0x4",
          "logIndex": "0xa",
          "removed": false
        },
        {
          "address": "0x6fd6303f462ba4bf8d26b1895fa13d0432b608c7",
          "topics": [
            "0xddf252ad1be2c89b69c2b068fc378daa952ba7f163c4a11628f55a4df523b3ef",
            "0x0000000000000000000000000000000000000000000000000000000000000000",
            "0x00000000000000000000000056fd3f2bee130e9867942d0f463a16fbe49b8d81",
            "0x50e1fb81597fdb9bd2b1824f9851422ae0519fd66c27bec584a5d8fa2f42e3d6"
          ],
          "data": "0x",
          "blockHash": "0xf0f7c4d4a514ac18013f501c7e341b5d6c0e82348ff8a58d15c4850c25d22264",
          "blockNumber": "0x2f2b5b5",
          "transactionHash": "0x7607b27751c7684023bccdaf1150051bef4205649809782f8d4c17c2667935c3",
          "transactionIndex": "0x4",
          "logIndex": "0xb",
          "removed": false
        },
        {
          "address": "0xdeaabcc9357940e1a2e6fc869fd9291401ac4758",
          "topics": [
            "0x0fba2673863b12c7b8463f3fa2f9b0cb1d534c573cdec5b5d895ee00d6ce6f5e",
            "0x50e1fb81597fdb9bd2b1824f9851422ae0519fd66c27bec584a5d8fa2f42e3d6"
          ],
          "data": "0x00000000000000000000000000000000000000000000021f240705df74973b9d00000000000000000000000000000000000000000000065a4da25d3016c0000000000000000000000000000000000000000000000000065a4da25d3016c00000000000000000000000000000000000000000000000000000016345785d8a000000000000000000000000000000000000000000000000000000000000000000000000000000000000000000000000000000000000000000000000000000000000",
          "blockHash": "0xf0f7c4d4a514ac18013f501c7e341b5d6c0e82348ff8a58d15c4850c25d22264",
          "blockNumber": "0x2f2b5b5",
          "transactionHash": "0x7607b27751c7684023bccdaf1150051bef4205649809782f8d4c17c2667935c3",
          "transactionIndex": "0x4",
          "logIndex": "0xc",
          "removed": false
        },
        {
          "address": "0xdeaabcc9357940e1a2e6fc869fd9291401ac4758",
          "topics": [
            "0x962110f281c1213763cd97a546b337b3cbfd25a31ea9723e9d8b7376ba45da1a",
            "0x50e1fb81597fdb9bd2b1824f9851422ae0519fd66c27bec584a5d8fa2f42e3d6"
          ],
          "data": "0x0000000000000000000000000000000000000000000000000000000000000000000000000000000000000000000000000000000000000000016345785d8a000000000000000000000000000000000000000000000000000000000000000000000000000000000000000000000000000000000000000000010a263c24c2573b9d00000000000000000000000000000000000000000000021e19e0c9bab2400000000000000000000000000000000000000000000000000000000000000000000000000000000000000000000000000000000000000000065a4da25d3016c00000",
          "blockHash": "0xf0f7c4d4a514ac18013f501c7e341b5d6c0e82348ff8a58d15c4850c25d22264",
          "blockNumber": "0x2f2b5b5",
          "transactionHash": "0x7607b27751c7684023bccdaf1150051bef4205649809782f8d4c17c2667935c3",
          "transactionIndex": "0x4",
          "logIndex": "0xd",
          "removed": false
        }
      ],
      "logsBloom": "0x00000028000000000000000000000000000010000000000020000010000012000000080000000000000400000000010008000041200000000000000004000000000000080000000000000008000000000800000400000082000000800000000000000000020000000000080000000800000000000000208000000010008000000000000000000000000000000000010000000000000000000000000000000000000000000000000000000000000010000400180800008000000000004000000402205002000000000400001000000000000001000000000000020010000020000404000808000000000200000000000000000020880000002000100000000000",
      "type": "0x0",
      "transactionHash": "0x7607b27751c7684023bccdaf1150051bef4205649809782f8d4c17c2667935c3",
      "transactionIndex": "0x4",
      "blockHash": "0xf0f7c4d4a514ac18013f501c7e341b5d6c0e82348ff8a58d15c4850c25d22264",
      "blockNumber": "0x2f2b5b5",
      "gasUsed": "0xb3229",
      "effectiveGasPrice": "0x5d22cfc40",
      "from": "0x56fd3f2bee130e9867942d0f463a16fbe49b8d81",
      "to": "0x67f5593588826046498a3db93cab6be3d59d2c9a",
      "contractAddress": null,
      "l1BaseFeeScalar": "0x0",
      "l1BlobBaseFee": "0x1",
      "l1BlobBaseFeeScalar": "0x0",
      "l1Fee": "0x0",
      "l1GasPrice": "0xf",
      "l1GasUsed": "0x843"
    },
    {
      "status": "0x1",
      "cumulativeGasUsed": "0xe6967",
      "logs": [
        {
          "address": "0x46504ef8f2fd6858e8a94c662350eb62ce1b627f",
          "topics": [
            "0xddf252ad1be2c89b69c2b068fc378daa952ba7f163c4a11628f55a4df523b3ef",
            "0x00000000000000000000000056fd3f2bee130e9867942d0f463a16fbe49b8d81",
            "0x000000000000000000000000f50858a1c0507e57c08a2798dccaecfdbb5fed50"
          ],
          "data": "0x0000000000000000000000000000000000000000000000056bc75e2d63100000",
          "blockHash": "0xf0f7c4d4a514ac18013f501c7e341b5d6c0e82348ff8a58d15c4850c25d22264",
          "blockNumber": "0x2f2b5b5",
          "transactionHash": "0x37f3afb87820bce94e4b9797e2446e8fd91ce9bcc28e4be083fd4cacf80293ad",
          "transactionIndex": "0x5",
          "logIndex": "0xe",
          "removed": false
        }
      ],
      "logsBloom": "0x00000000000000000000000000000000000000000000000020000000000000000000000000000000000400000000010000000000000000000000000000000000000000000000000000000008000000000000000000000000000000000000000000000000000000000000000000000000000000000000000000000010000000000040000000000000000000000000001000000000000000000000000000000000000000000000000000000000000000000000100000000000000000000000000000004002000000000000000004000000000000000000000000000000000000000004000000000000000000000000000000000000000000000000000000000000",
      "type": "0x0",
      "transactionHash": "0x37f3afb87820bce94e4b9797e2446e8fd91ce9bcc28e4be083fd4cacf80293ad",
      "transactionIndex": "0x5",
      "blockHash": "0xf0f7c4d4a514ac18013f501c7e341b5d6c0e82348ff8a58d15c4850c25d22264",
      "blockNumber": "0x2f2b5b5",
      "gasUsed": "0xe54a",
      "effectiveGasPrice": "0x5d22cfc40",
      "from": "0x56fd3f2bee130e9867942d0f463a16fbe49b8d81",
      "to": "0x46504ef8f2fd6858e8a94c662350eb62ce1b627f",
      "contractAddress": null,
      "l1BaseFeeScalar": "0x0",
      "l1BlobBaseFee": "0x1",
      "l1BlobBaseFeeScalar": "0x0",
      "l1Fee": "0x0",
      "l1GasPrice": "0xf",
      "l1GasUsed": "0x640"
    }
  ],
  "libraries": [],
  "pending": [],
  "returns": {},
  "timestamp": 1750415982,
  "chain": 44787,
  "commit": "31f7db1"
}