{
  "transactions": [
    {
      "hash": "0xbd87a776e9aa7a8da66f51e69cb0ff6a28729a0c6d85a6d9c0a15af2c721e1d5",
      "transactionType": "CALL",
      "contractName": null,
      "contractAddress": "0x1cbdc8c2f57c3988cbe1b7bd2a323aadb17379a7",
      "function": "initialize(address,uint256,uint256,uint256,uint256,bytes32[],uint256[],uint256,uint256,address[],uint256[])",
      "arguments": [
        "0x000000000000000000000000000000000000ce10",
        "3153600000",
        "1000000000000000000000000",
        "0",
        "0",
        "[0x6355534400000000000000000000000000000000000000000000000000000000, 0x63474c4400000000000000000000000000000000000000000000000000000000]",
        "[999999999999999999999999, 1]",
        "0",
        "0",
        "[0xeed145D8d962146AFc568E9579948576f63D5Dc2]",
        "[1000000000000000000000000]"
      ],
      "transaction": {
        "from": "0x2ceade86a04e474f3cf9bd87208514d818010627",
        "to": "0x1cbdc8c2f57c3988cbe1b7bd2a323aadb17379a7",
        "gas": "0x8567a",
        "value": "0x0",
        "input": "0x72a6b8b0000000000000000000000000000000000000000000000000000000000000ce1000000000000000000000000000000000000000000000000000000000bbf81e0000000000000000000000000000000000000000000000d3c21bcecceda100000000000000000000000000000000000000000000000000000000000000000000000000000000000000000000000000000000000000000000000000000000000000000000000000000000000000000000000000000000000000000000000000016000000000000000000000000000000000000000000000000000000000000001c000000000000000000000000000000000000000000000000000000000000000000000000000000000000000000000000000000000000000000000000000000000000000000000000000000000000000000000000000000000000000000000022000000000000000000000000000000000000000000000000000000000000002600000000000000000000000000000000000000000000000000000000000000002635553440000000000000000000000000000000000000000000000000000000063474c4400000000000000000000000000000000000000000000000000000000000000000000000000000000000000000000000000000000000000000000000200000000000000000000000000000000000000000000d3c21bcecceda0ffffff00000000000000000000000000000000000000000000000000000000000000010000000000000000000000000000000000000000000000000000000000000001000000000000000000000000eed145d8d962146afc568e9579948576f63d5dc2000000000000000000000000000000000000000000000000000000000000000100000000000000000000000000000000000000000000d3c21bcecceda1000000",
        "nonce": "0x38b",
        "chainId": "0xa4ec"
      },
      "additionalContracts": [],
      "isFixedGasLimit": false
    },
    {
      "hash": "0x98334e64d4beac89a7ddaf439ca11e8d22c346ef27278b67c163de0bc7d7a31b",
      "transactionType": "CALL",
      "contractName": null,
      "contractAddress": "0x1cbdc8c2f57c3988cbe1b7bd2a323aadb17379a7",
      "function": "addToken(address)",
      "arguments": [
        "0xFa51eFDc0910CCdA91732e6806912Fa12e2FD475"
      ],
      "transaction": {
        "from": "0x2ceade86a04e474f3cf9bd87208514d818010627",
        "to": "0x1cbdc8c2f57c3988cbe1b7bd2a323aadb17379a7",
        "gas": "0x215fa",
        "value": "0x0",
        "input": "0xd48bfca7000000000000000000000000fa51efdc0910ccda91732e6806912fa12e2fd475",
        "nonce": "0x38c",
        "chainId": "0xa4ec"
      },
      "additionalContracts": [],
      "isFixedGasLimit": false
    },
    {
      "hash": "0x5694ef8056fd7c14f6a401f660abf1b9faeff33007bb6457797677b10bf764ce",
      "transactionType": "CALL",
      "contractName": null,
      "contractAddress": "0x1cbdc8c2f57c3988cbe1b7bd2a323aadb17379a7",
      "function": "addExchangeSpender(address)",
      "arguments": [
        "0xE60cf1cb6a56131CE135c604D0BD67e84B57CA3C"
      ],
      "transaction": {
        "from": "0x2ceade86a04e474f3cf9bd87208514d818010627",
        "to": "0x1cbdc8c2f57c3988cbe1b7bd2a323aadb17379a7",
        "gas": "0x2352e",
        "value": "0x0",
        "input": "0xf0b7182b000000000000000000000000e60cf1cb6a56131ce135c604d0bd67e84b57ca3c",
        "nonce": "0x38d",
        "chainId": "0xa4ec"
      },
      "additionalContracts": [],
      "isFixedGasLimit": false
    },
    {
      "hash": "0x133f62aec12d2048ff88db6aa7f73388f7b154534f442a5d5803e5811d00f182",
      "transactionType": "CALL",
      "contractName": null,
      "contractAddress": "0x1cbdc8c2f57c3988cbe1b7bd2a323aadb17379a7",
      "function": "addSpender(address)",
      "arguments": [
        "0x14204392270CD38D02C43465909Cade33BF5D6E5"
      ],
      "transaction": {
        "from": "0x2ceade86a04e474f3cf9bd87208514d818010627",
        "to": "0x1cbdc8c2f57c3988cbe1b7bd2a323aadb17379a7",
        "gas": "0x125e2",
        "value": "0x0",
        "input": "0xe7e31e7a00000000000000000000000014204392270cd38d02c43465909cade33bf5d6e5",
        "nonce": "0x38e",
        "chainId": "0xa4ec"
      },
      "additionalContracts": [],
      "isFixedGasLimit": false
    },
    {
      "hash": "0xe6e368e8671f10a70533fe0f213be0e29d39c5bc30683c41f170b8091e7454ac",
      "transactionType": "CALL",
      "contractName": null,
      "contractAddress": "0x1cbdc8c2f57c3988cbe1b7bd2a323aadb17379a7",
      "function": "addOtherReserveAddress(address)",
      "arguments": [
        "0x14204392270CD38D02C43465909Cade33BF5D6E5"
      ],
      "transaction": {
        "from": "0x2ceade86a04e474f3cf9bd87208514d818010627",
        "to": "0x1cbdc8c2f57c3988cbe1b7bd2a323aadb17379a7",
        "gas": "0x23566",
        "value": "0x0",
        "input": "0x2201596800000000000000000000000014204392270cd38d02c43465909cade33bf5d6e5",
        "nonce": "0x38f",
        "chainId": "0xa4ec"
      },
      "additionalContracts": [],
      "isFixedGasLimit": false
    },
    {
      "hash": "0x3e0621651c475270b772eb56c762fd65a3237db592291f347c0ed726db0b3210",
      "transactionType": "CALL",
      "contractName": null,
      "contractAddress": "0x1cbdc8c2f57c3988cbe1b7bd2a323aadb17379a7",
      "function": "transferOwnership(address)",
      "arguments": [
        "0x14204392270CD38D02C43465909Cade33BF5D6E5"
      ],
      "transaction": {
        "from": "0x2ceade86a04e474f3cf9bd87208514d818010627",
        "to": "0x1cbdc8c2f57c3988cbe1b7bd2a323aadb17379a7",
        "gas": "0xcd07",
        "value": "0x0",
        "input": "0xf2fde38b00000000000000000000000014204392270cd38d02c43465909cade33bf5d6e5",
        "nonce": "0x390",
        "chainId": "0xa4ec"
      },
      "additionalContracts": [],
      "isFixedGasLimit": false
    }
  ],
  "receipts": [
    {
      "status": "0x1",
      "cumulativeGasUsed": "0x7959c",
      "logs": [
        {
          "address": "0x1cbdc8c2f57c3988cbe1b7bd2a323aadb17379a7",
          "topics": [
            "0x8be0079c531659141344cd1fd0a4f28419497f9722a3daafe3b4186f6b6457e0",
            "0x0000000000000000000000000000000000000000000000000000000000000000",
            "0x0000000000000000000000002ceade86a04e474f3cf9bd87208514d818010627"
          ],
          "data": "0x",
          "blockHash": "0xeffed7a0438c4f75ee97297084dbe1b746c65a2e029d560b6fa4998d1c28c182",
          "blockNumber": "0x1d5c2a7",
          "transactionHash": "0xbd87a776e9aa7a8da66f51e69cb0ff6a28729a0c6d85a6d9c0a15af2c721e1d5",
          "transactionIndex": "0x3",
          "logIndex": "0x3",
          "removed": false
        },
        {
          "address": "0x1cbdc8c2f57c3988cbe1b7bd2a323aadb17379a7",
          "topics": [
            "0x27fe5f0c1c3b1ed427cc63d0f05759ffdecf9aec9e18d31ef366fc8a6cb5dc3b",
            "0x000000000000000000000000000000000000000000000000000000000000ce10"
          ],
          "data": "0x",
          "blockHash": "0xeffed7a0438c4f75ee97297084dbe1b746c65a2e029d560b6fa4998d1c28c182",
          "blockNumber": "0x1d5c2a7",
          "transactionHash": "0xbd87a776e9aa7a8da66f51e69cb0ff6a28729a0c6d85a6d9c0a15af2c721e1d5",
          "transactionIndex": "0x3",
          "logIndex": "0x4",
          "removed": false
        },
        {
          "address": "0x1cbdc8c2f57c3988cbe1b7bd2a323aadb17379a7",
          "topics": [
            "0x7bfe94ca3147f135fcd6d94ebf61d33fa34fbe904f933ccae66911b9548544f2"
          ],
          "data": "0x00000000000000000000000000000000000000000000000000000000bbf81e00",
          "blockHash": "0xeffed7a0438c4f75ee97297084dbe1b746c65a2e029d560b6fa4998d1c28c182",
          "blockNumber": "0x1d5c2a7",
          "transactionHash": "0xbd87a776e9aa7a8da66f51e69cb0ff6a28729a0c6d85a6d9c0a15af2c721e1d5",
          "transactionIndex": "0x3",
          "logIndex": "0x5",
          "removed": false
        },
        {
          "address": "0x1cbdc8c2f57c3988cbe1b7bd2a323aadb17379a7",
          "topics": [
            "0xb08f0607338ad77f5b08ccf831e533cefcc2d373c173e87a8f61144f1d82be1e"
          ],
          "data": "0x00000000000000000000000000000000000000000000d3c21bcecceda1000000",
          "blockHash": "0xeffed7a0438c4f75ee97297084dbe1b746c65a2e029d560b6fa4998d1c28c182",
          "blockNumber": "0x1d5c2a7",
          "transactionHash": "0xbd87a776e9aa7a8da66f51e69cb0ff6a28729a0c6d85a6d9c0a15af2c721e1d5",
          "transactionIndex": "0x3",
          "logIndex": "0x6",
          "removed": false
        },
        {
          "address": "0x1cbdc8c2f57c3988cbe1b7bd2a323aadb17379a7",
          "topics": [
            "0x55b488abd19ae7621712324d3d42c2ef7a9575f64f5503103286a1161fb40855"
          ],
          "data": "0x000000000000000000000000000000000000000000000000000000000000004000000000000000000000000000000000000000000000000000000000000000a00000000000000000000000000000000000000000000000000000000000000002635553440000000000000000000000000000000000000000000000000000000063474c4400000000000000000000000000000000000000000000000000000000000000000000000000000000000000000000000000000000000000000000000200000000000000000000000000000000000000000000d3c21bcecceda0ffffff0000000000000000000000000000000000000000000000000000000000000001",
          "blockHash": "0xeffed7a0438c4f75ee97297084dbe1b746c65a2e029d560b6fa4998d1c28c182",
          "blockNumber": "0x1d5c2a7",
          "transactionHash": "0xbd87a776e9aa7a8da66f51e69cb0ff6a28729a0c6d85a6d9c0a15af2c721e1d5",
          "transactionIndex": "0x3",
          "logIndex": "0x7",
          "removed": false
        },
        {
          "address": "0x1cbdc8c2f57c3988cbe1b7bd2a323aadb17379a7",
          "topics": [
            "0xfe69856ffb1b1d6cb00c1d8151726e6e95032b1666282eeb293ecadd58b29a6e"
          ],
          "data": "0x0000000000000000000000000000000000000000000000000000000000000000",
          "blockHash": "0xeffed7a0438c4f75ee97297084dbe1b746c65a2e029d560b6fa4998d1c28c182",
          "blockNumber": "0x1d5c2a7",
          "transactionHash": "0xbd87a776e9aa7a8da66f51e69cb0ff6a28729a0c6d85a6d9c0a15af2c721e1d5",
          "transactionIndex": "0x3",
          "logIndex": "0x8",
          "removed": false
        },
        {
          "address": "0x1cbdc8c2f57c3988cbe1b7bd2a323aadb17379a7",
          "topics": [
            "0x4da8e8b2223fbbb897200fb9dfb6b986c1b4188621114d407ee8ec363569fc37"
          ],
          "data": "0x0000000000000000000000000000000000000000000000000000000000000000",
          "blockHash": "0xeffed7a0438c4f75ee97297084dbe1b746c65a2e029d560b6fa4998d1c28c182",
          "blockNumber": "0x1d5c2a7",
          "transactionHash": "0xbd87a776e9aa7a8da66f51e69cb0ff6a28729a0c6d85a6d9c0a15af2c721e1d5",
          "transactionIndex": "0x3",
          "logIndex": "0x9",
          "removed": false
        },
        {
          "address": "0x1cbdc8c2f57c3988cbe1b7bd2a323aadb17379a7",
          "topics": [
            "0x0c7515883121475b5d9289febf21a9de4ad53f18349a856d90c7acd6e099600b"
          ],
          "data": "0x000000000000000000000000eed145d8d962146afc568e9579948576f63d5dc2",
          "blockHash": "0xeffed7a0438c4f75ee97297084dbe1b746c65a2e029d560b6fa4998d1c28c182",
          "blockNumber": "0x1d5c2a7",
          "transactionHash": "0xbd87a776e9aa7a8da66f51e69cb0ff6a28729a0c6d85a6d9c0a15af2c721e1d5",
          "transactionIndex": "0x3",
          "logIndex": "0xa",
          "removed": false
        },
        {
          "address": "0x1cbdc8c2f57c3988cbe1b7bd2a323aadb17379a7",
          "topics": [
            "0x15ff5079dfbf448e4bb45ac83498c2ecb0833ad35916946bb683ccb49f8013a3"
          ],
          "data": "0x000000000000000000000000eed145d8d962146afc568e9579948576f63d5dc200000000000000000000000000000000000000000000d3c21bcecceda1000000",
          "blockHash": "0xeffed7a0438c4f75ee97297084dbe1b746c65a2e029d560b6fa4998d1c28c182",
          "blockNumber": "0x1d5c2a7",
          "transactionHash": "0xbd87a776e9aa7a8da66f51e69cb0ff6a28729a0c6d85a6d9c0a15af2c721e1d5",
          "transactionIndex": "0x3",
          "logIndex": "0xb",
          "removed": false
        }
      ],
      "logsBloom": "0x00000000000000001000000000000000000000000000000000800000000002000000000000200000000800000800000000080000000000000030000001000000004000000000000000000000000000004001000000000000000004040000040080080000020000000001000000000800000000020000000000000000000000400800000000024000000000000000000100000000000000000008000000000000000000000000000000000000000000000000000000010000080000000000000000000004000000000000000000000000000800000080000002000000000020000000000000000008000000000000000004000000000000000000100000000000",
      "type": "0x0",
      "transactionHash": "0xbd87a776e9aa7a8da66f51e69cb0ff6a28729a0c6d85a6d9c0a15af2c721e1d5",
      "transactionIndex": "0x3",
      "blockHash": "0xeffed7a0438c4f75ee97297084dbe1b746c65a2e029d560b6fa4998d1c28c182",
      "blockNumber": "0x1d5c2a7",
      "gasUsed": "0x5b379",
      "effectiveGasPrice": "0xba43b7400",
      "from": "0x2ceade86a04e474f3cf9bd87208514d818010627",
      "to": "0x1cbdc8c2f57c3988cbe1b7bd2a323aadb17379a7",
      "contractAddress": null
    },
    {
      "status": "0x1",
      "cumulativeGasUsed": "0x91834",
      "logs": [
        {
          "address": "0x1cbdc8c2f57c3988cbe1b7bd2a323aadb17379a7",
          "topics": [
            "0x784c8f4dbf0ffedd6e72c76501c545a70f8b203b30a26ce542bf92ba87c248a4",
            "0x000000000000000000000000fa51efdc0910ccda91732e6806912fa12e2fd475"
          ],
          "data": "0x",
          "blockHash": "0xeffed7a0438c4f75ee97297084dbe1b746c65a2e029d560b6fa4998d1c28c182",
          "blockNumber": "0x1d5c2a7",
          "transactionHash": "0x98334e64d4beac89a7ddaf439ca11e8d22c346ef27278b67c163de0bc7d7a31b",
          "transactionIndex": "0x4",
          "logIndex": "0xc",
          "removed": false
        }
      ],
      "logsBloom": "0x00000000000000000000000000000000000000000000000000000000000000000000000000000000000800000000000000000000000000000000000000000000000000000000000000000000000000000000000000000000000000000000000000000000000000000000000000000000000000000000200000000000000000008800000010000000000000000000000100000000000000000000000000000000000000000000000000200000000000000000000000000000000000000000000000000000000000000000000000000000000000000000000000000000000000000000000000000000000000000000000004000000000000001000000000000000",
      "type": "0x0",
      "transactionHash": "0x98334e64d4beac89a7ddaf439ca11e8d22c346ef27278b67c163de0bc7d7a31b",
      "transactionIndex": "0x4",
      "blockHash": "0xeffed7a0438c4f75ee97297084dbe1b746c65a2e029d560b6fa4998d1c28c182",
      "blockNumber": "0x1d5c2a7",
      "gasUsed": "0x18298",
      "effectiveGasPrice": "0xba43b7400",
      "from": "0x2ceade86a04e474f3cf9bd87208514d818010627",
      "to": "0x1cbdc8c2f57c3988cbe1b7bd2a323aadb17379a7",
      "contractAddress": null
    },
    {
      "status": "0x1",
      "cumulativeGasUsed": "0xa9aa7",
      "logs": [
        {
          "address": "0x1cbdc8c2f57c3988cbe1b7bd2a323aadb17379a7",
          "topics": [
            "0x71bccdb89fff4d914e3d2e472b327e3debaf4c4d6f1dfe528f430447e4cbcf5f",
            "0x000000000000000000000000e60cf1cb6a56131ce135c604d0bd67e84b57ca3c"
          ],
          "data": "0x",
          "blockHash": "0xeffed7a0438c4f75ee97297084dbe1b746c65a2e029d560b6fa4998d1c28c182",
          "blockNumber": "0x1d5c2a7",
          "transactionHash": "0x5694ef8056fd7c14f6a401f660abf1b9faeff33007bb6457797677b10bf764ce",
          "transactionIndex": "0x5",
          "logIndex": "0xd",
          "removed": false
        }
      ],
      "logsBloom": "0x00000000000000000000000000000000000000000000000000000000000000000000000000000000000800000000000000000000000000000000000000000080000000040000000000000000000000000000000000000000000000000000000000000000000000000040000000000000000000000000000000000000000000000800000000000000000000000000000000000000000000000000000000000000000000000800000000000000000000000000000000000000008000000000000000000000000000000000000000000000000000000000000000000000000000000000000000000000000000000000000004000000000000000000000000000000",
      "type": "0x0",
      "transactionHash": "0x5694ef8056fd7c14f6a401f660abf1b9faeff33007bb6457797677b10bf764ce",
      "transactionIndex": "0x5",
      "blockHash": "0xeffed7a0438c4f75ee97297084dbe1b746c65a2e029d560b6fa4998d1c28c182",
      "blockNumber": "0x1d5c2a7",
      "gasUsed": "0x18273",
      "effectiveGasPrice": "0xba43b7400",
      "from": "0x2ceade86a04e474f3cf9bd87208514d818010627",
      "to": "0x1cbdc8c2f57c3988cbe1b7bd2a323aadb17379a7",
      "contractAddress": null
    },
    {
      "status": "0x1",
      "cumulativeGasUsed": "0xb6f6c",
      "logs": [
        {
          "address": "0x1cbdc8c2f57c3988cbe1b7bd2a323aadb17379a7",
          "topics": [
            "0x3139419c41cdd7abca84fa19dd21118cd285d3e2ce1a9444e8161ce9fa62fdcd",
            "0x00000000000000000000000014204392270cd38d02c43465909cade33bf5d6e5"
          ],
          "data": "0x",
          "blockHash": "0xeffed7a0438c4f75ee97297084dbe1b746c65a2e029d560b6fa4998d1c28c182",
          "blockNumber": "0x1d5c2a7",
          "transactionHash": "0x133f62aec12d2048ff88db6aa7f73388f7b154534f442a5d5803e5811d00f182",
          "transactionIndex": "0x6",
          "logIndex": "0xe",
          "removed": false
        }
      ],
      "logsBloom": "0x00000000000000000000000000000000000000000000000000000000000000000000000000000000000800000000000000000000000000000000000000000000000000000000000000000000000040000000000000000000400000000000000000800000400000000000000000000000000000000000000000000000000000000800000000000000000000000000000000000000000000000000000000000000000000000000000000000000000000000000000000000000000000000000000000000000000000000000000000000000000000000000000000000000000000000000000000000000000000000000000004000004000000000000000000000004",
      "type": "0x0",
      "transactionHash": "0x133f62aec12d2048ff88db6aa7f73388f7b154534f442a5d5803e5811d00f182",
      "transactionIndex": "0x6",
      "blockHash": "0xeffed7a0438c4f75ee97297084dbe1b746c65a2e029d560b6fa4998d1c28c182",
      "blockNumber": "0x1d5c2a7",
      "gasUsed": "0xd4c5",
      "effectiveGasPrice": "0xba43b7400",
      "from": "0x2ceade86a04e474f3cf9bd87208514d818010627",
      "to": "0x1cbdc8c2f57c3988cbe1b7bd2a323aadb17379a7",
      "contractAddress": null
    },
    {
      "status": "0x1",
      "cumulativeGasUsed": "0xcf205",
      "logs": [
        {
          "address": "0x1cbdc8c2f57c3988cbe1b7bd2a323aadb17379a7",
          "topics": [
            "0xd78793225285ecf9cf5f0f84b1cdc335c2cb4d6810ff0b9fd156ad6026c89cea",
            "0x00000000000000000000000014204392270cd38d02c43465909cade33bf5d6e5"
          ],
          "data": "0x",
          "blockHash": "0xeffed7a0438c4f75ee97297084dbe1b746c65a2e029d560b6fa4998d1c28c182",
          "blockNumber": "0x1d5c2a7",
          "transactionHash": "0xe6e368e8671f10a70533fe0f213be0e29d39c5bc30683c41f170b8091e7454ac",
          "transactionIndex": "0x7",
          "logIndex": "0xf",
          "removed": false
        }
      ],
      "logsBloom": "0x00000000000000000000000000000000000000000000000000000000000000000000000000000000000800000000000000000000000000000000000000000000000000000000000000000000000040000000000000000000000000000000000001800100400000000000000000000000000000000000000000000000000000000800000000000000000000000000000000000000000000000000000000000000000000000000000000000000000000000000000000000000000000000000000000000000000000000000000000000000000000000000000000000000000000000000000000000000000000000000000004000000000000000000010000000000",
      "type": "0x0",
      "transactionHash": "0xe6e368e8671f10a70533fe0f213be0e29d39c5bc30683c41f170b8091e7454ac",
      "transactionIndex": "0x7",
      "blockHash": "0xeffed7a0438c4f75ee97297084dbe1b746c65a2e029d560b6fa4998d1c28c182",
      "blockNumber": "0x1d5c2a7",
      "gasUsed": "0x18299",
      "effectiveGasPrice": "0xba43b7400",
      "from": "0x2ceade86a04e474f3cf9bd87208514d818010627",
      "to": "0x1cbdc8c2f57c3988cbe1b7bd2a323aadb17379a7",
      "contractAddress": null
    },
    {
      "status": "0x1",
      "cumulativeGasUsed": "0xd7e36",
      "logs": [
        {
          "address": "0x1cbdc8c2f57c3988cbe1b7bd2a323aadb17379a7",
          "topics": [
            "0x8be0079c531659141344cd1fd0a4f28419497f9722a3daafe3b4186f6b6457e0",
            "0x0000000000000000000000002ceade86a04e474f3cf9bd87208514d818010627",
            "0x00000000000000000000000014204392270cd38d02c43465909cade33bf5d6e5"
          ],
          "data": "0x",
          "blockHash": "0xeffed7a0438c4f75ee97297084dbe1b746c65a2e029d560b6fa4998d1c28c182",
          "blockNumber": "0x1d5c2a7",
          "transactionHash": "0x3e0621651c475270b772eb56c762fd65a3237db592291f347c0ed726db0b3210",
          "transactionIndex": "0x8",
          "logIndex": "0x10",
          "removed": false
        }
      ],
      "logsBloom": "0x00000000000000000000000000000000000000000000000000800000000000000000000000000000000800000800000000080000000000000000000000000000000000000000000000000000000040000001000000000000000000000000000000800000400000000001000000000000000000000000000000000000000000400800000000000000000000000000000000000000000000000000000000000000000000000000000000000000000000000000000000000000000000000000000000000000000000000000000000000000000000000000000000000000000000000000000000000000000000000000000004000000000000000000000000000000",
      "type": "0x0",
      "transactionHash": "0x3e0621651c475270b772eb56c762fd65a3237db592291f347c0ed726db0b3210",
      "transactionIndex": "0x8",
      "blockHash": "0xeffed7a0438c4f75ee97297084dbe1b746c65a2e029d560b6fa4998d1c28c182",
      "blockNumber": "0x1d5c2a7",
      "gasUsed": "0x8c31",
      "effectiveGasPrice": "0xba43b7400",
      "from": "0x2ceade86a04e474f3cf9bd87208514d818010627",
      "to": "0x1cbdc8c2f57c3988cbe1b7bd2a323aadb17379a7",
      "contractAddress": null
    }
  ],
  "libraries": [],
  "pending": [],
  "returns": {},
  "timestamp": 1741605622,
  "chain": 42220,
  "commit": "af4b7d6"
}